:020000024000BC
:10E000006F1082130000000000180118002801287A
:10E0100002280328002901290229032904290529A6
:10E02000062907290829002A012A022A032A042A84
:10E03000052AA62A88F80600DEFD04006A020020F0
:10E04000B40200202602002014020020DC0100207F
:10E0500078FF0400A4FF04008C0005008A0205007C
:10E060002E03050054FC040078FB0400EAFB0400C6
:10E07000A4FB040002080500000400204EFF040079
:10E08000E00405002EAF060026B106009EB1060092
:10E09000CA6B0600DE6B0600442106005814060019
:10E0A00036A9060016050500FE7306009ABB05009A
:10E0B00028BC050080BC0500F01005003C110500DF
:10E0C000A60F0500F0770500B47205008C810500ED
:10E0D0005C85050008890500D664050074640500A8
:10E0E0005E680500226505004A640500CE640500EF
:10E0F000FC630500A6650500FE650500AE6505002C
:10E10000B26505004C660500066605003866050028
:10E110005A6B0500626B0500A2650500AA65050043
:10E120004A6605005E6B0500FA660500D06C0500C6
:10E1300054970500D297050010980500547A050001
:10E140006C7A0500A87A0500765E05005A5F050026
:10E15000C25F05003A2F0500802A0500EC54050037
:10E16000FE2A0500305005009CD50600AAD2060004
:10E17000FCDC0600A2EC060072EB0600A6EF06002F
:10E180005EEF06009EEF0600E2EF060020C30600E9
:10E19000DEEF0600B4E30600DAE3060002E4060060
:10E1A00052F006006CE9060002E90600C2F0060023
:10E1B000DCC3060078C40600A0C4060042C4060002
:10E1C000488E060078790600067D06005C7A060017
:10E1D000DC830600D6A90600BCA8060054C30600CE
:10E1E000F4090500066D0600DE730600D67406000D
:10E1F00062A2060002A3060012A40600587E0500D3
:10E20000F68D06005C840600928A0600FA860600F7
:10E210002C79060026060020CC6D0600CAEF060009
:10E2200062EF06009AEF060096EF06003602050040
:10E23000A67B0500D2EF06004290060094910600EE
:10E240000E9206003ADD0600CEEF0600D6EF06007D
:10E25000E4130600DAEF0600F60E00201A14002080
:10E2600000000000000000000000000000000000AE
:10E27000000000000000000000000000000000009E
:10E280006373B60082801C419105110523AEF5FE33
:10E29000C5BFB727002037270020938707951307AE
:10E2A00047EA6373F700828023A007009107D5BF78
:10E2B0005DCDAA870145D5CD8D07C207C183F19BEE
:10E2C000C207C18313074003636CF702372700209E
:10E2D000032587AD37270020832607AD6397A60265
:10E2E00037270020032787B6014541C74111C207E0
:10E2F00006C60545DD8D0297B24001454101828089
:10E3000037270020032547ADF1B70357650031EFEC
:10E3100003574500636BF704B72600203306F74028
:10E320002148938606AE6378C8028328050003D887
:10E330006600138687001D8F2A9661172312E60058
:10E34000232016012313060010C12312F500130722
:10E3500088FF2393E6002313B50083D566002105CB
:10E36000B387F5402393F6008280084185BF0145BD
:10E370008280828009CDB727002003A387ADB7270D
:10E38000002083A807AD81469A8763E31701828046
:10E3900003A807006369F50A6367A80A1387870063
:10E3A000E367E5FE03D66700216705076319E6000A
:10E3B000372600200347069E05072300E69E3726E2
:10E3C0000020130506AE83D547000357650023934D
:10E3D0000700130606AE2E97420741832313E5007C
:10E3E0006387670237250020032545AD6301F502E9
:10E3F00003D5660009ED83D7460023A00601210757
:10E40000BE95A1052392B6002313E600B687984374
:10E41000E30F17F7B726002083A646ADE309D7F62A
:10E4200083566700ADF683D64700835547001843EF
:10E43000A106AE962392D70098C383576600A10722
:10E440002313F6008280BE86C28781B719CD91CD95
:10E4500009CE81473387F500834607003307F5006F
:10E4600085072300D700E317F6FE828019C991C9FA
:10E4700009CA910583A7C5FF11057D16232EF5FE58
:10E48000C5BF828001C919C62A960505A30FB5FE2E
:10E49000E31DA6FE828081473307F50003070700CE
:10E4A00019E33E8582808507C5BF01112E8626CAE5
:10E4B000AA84131506019305F004418122CC06CEEF
:10E4C00032C6FD332A8401C53246A68541372285EE
:10E4D000F2406244D24405618280854715C18DC1F6
:10E4E00005C28147B306F5003387F50083C60600F1
:10E4F000034707006398E6008507E315F6FE8547A6
:10E500003E8582808147EDBF9307F6FFBE952A9630
:10E510006313C5008280FD1583C715000505A30F91
:10E52000F5FEFDB7AA87014581CF09CE3E96850746
:10E5300003C7F7FF6317B700E39BC7FE054582805B
:10E54000828001458280797126D2B724002022D4AE
:10E5500003A444B306D64AD04ECE52CC56CA5AC8AB
:10E560005EC662C44DC43729002037CAC901B72925
:10E570000020814B372B0020130989B3130AFA3787
:10E58000938909AEB70AC0A88357240099EF5C4469
:10E59000639A0B0023AAF4B2032CC4002285D93B52
:10E5A000628499A823A6FB00C5BF8327CBB78297B7
:10E5B000830669011C4463D806063307F54063628D
:10E5C000EA0823A8090083552400034504009700A6
:10E5D00005E0E780A0C15C405844A1CF1444B69741
:10E5E0008306690163C7060063E55701B706405714
:10E5F000B6971CC4A28B3A8441F8B72700209387B2
:10E6000007AE984B894663F2E606791798CBB2506D
:10E61000225492540259F249624AD24A424BB24BB6
:10E62000224C45618280E37AF5F83387FA402A97D5
:10E6300079B763950B0023AAE4B2B9BF23A6EB0018
:10E64000A1BF0327490219CB63DD06003385A7402C
:10E6500083A709016374F50023A8A900A28B404495
:10E6600061BFE3F5A7FED697D5B723A8070045B746
:10E6700001114AC837290020832709B106CE22CCD0
:10E6800026CA4EC652C456C25AC081C78297232892
:10E6900009B0930709B1DC4337240020130404B107
:10E6A00091C38297832709B163900718B72400208C
:10E6B000938784DE83C75700938484DE858B8DC364
:10E6C00003C77400A3820400914763FBE700EF00D7
:10E6D000503D83C77400F9178A07A2979C4382971D
:10E6E000372A002093078AE283C7C700130A8AE209
:10E6F000918B99C3EF10602C1C4491C382973724EF
:10E700000020B7290020930704AE03A709B303C66E
:10E710001700930A04AE834704AE93961700BA9687
:10E7200083D60600C1CA834704AE63EDC7088327BA
:10E7300009B1230004AEEDEB83C7940091CB83C7EE
:10E74000740099E7A3840400977006E0E78040C353
:10E75000B727002083A7C7B7E1CBB707C0A823A876
:10E76000FA00D533B7270020938787B3D8534DCF0E
:10E7700083C7570103A70A016368F70A03C7740038
:10E78000914763E3E70A8347CA00918BD1EF83C6C1
:10E790001A0003A609B363C3D70A6244F240D24405
:10E7A0004249B249224A924A024B0561170305E0E9
:10E7B0006700038F850793F7F70F2300F4AEE3ECB0
:10E7C000C7F495B786073E978355070023100700C7
:10E7D000034504AEB727002083A7C7B01317250051
:10E7E000372B0020BA979C4323160BB2829783578E
:10E7F000CBB2034704AE93C7F7FF7D8D9317170085
:10E8000003A709B33E97835707005D8D2310A70028
:10E81000834704AE81C785072300F4AE034704AEE7
:10E8200083C71A00E375F7F0F2406244D2444249CC
:10E83000B249224A924A024B05618280139717001F
:10E840003297035707006DF38507B1B7AD6737C738
:10E850000040BD072326F7200F100000B727002037
:10E86000938707AEC84F83278726BD66BD0693C72B
:10E87000F7FF99836A052326D7205D8D8280411199
:10E88000B7170040985F3AC6945F3247E39CE6FEB4
:10E89000324541018280828003278511630007127F
:10E8A000411122C406C68347C5008345C5042A8496
:10E8B00093F7C70F2306F500834697000356C7005A
:10E8C00013958601618563F1C508635A0506034502
:10E8D000870093F6F607A304D700054693E62700C2
:10E8E0006314C50093E617002306D4005C43890730
:10E8F0005CC3A30AB400032504112E864C4309050A
:10E90000B1368327841103465401D44303D7C7008B
:10E91000B296118FD4C32396E7008947A30DF40064
:10E92000B72700200347440383C7A7B46378F704DD
:10E930008347C40093E707012306F40081A093E70F
:10E9400017002306F40075B79376F60F635D050292
:10E9500003458700854513E627006314B50013E6D9
:10E9600017002306C400A30AD400A30407008547A8
:10E97000A30DF400832784119C43DDF3B2402244AD
:10E9800001454101828093E717002306F400A30AA2
:10E99000D400A3040700032504114C4309057D346A
:10E9A0008327841103465401D44303D7C700B2968A
:10E9B000118FD4C32396E7008D475DBF0545828044
:10E9C000B727002083A747DD411122C406C6858BE7
:10E9D0002A84DDEB4165130525F5973006E0E780D5
:10E9E00000A15DC18347A5002315F500832704120C
:10E9F000B5E72320A4122322A41285472310F40490
:10EA0000232005008347640154412316F500034782
:10EA1000D4002304E5000547A304E50037270020C0
:10EA2000032707E01385170215811C437D15137515
:10EA3000F50F9CC25C43DCC21C479CC65C47DCC62D
:10EA40001C4B9CCA5C4BDCCA1C4F9CCE5C4FDCCE82
:10EA500019CD9386060213070702C1BF832744120C
:10EA600088C3835704042322A412850741BFB72714
:10EA70000020938707CC03D7870005072394E7007E
:10EA8000B2402244410182808347C400230904002C
:10EA9000054593C747002306F400DDB7834785018A
:10EAA00093F7E70FD5E783479501DDE3034625019B
:10EAB0008346C50009CA372700208345450303471D
:10EAC000B7B463E7E50013F7060141C7014709C67C
:10EAD000C18A0357851881C68356C518369735CB2A
:10EAE000B727002083D687B0B7470F009387072446
:10EAF000B3C7D7021307C712411126C222C406C6E4
:10EB00007D543357F702B727002083C717B5B38466
:10EB1000E700B727002083A687D483A7060963F3FD
:10EB200087003E849442F5FAB727002083A7C7B731
:10EB3000829781476364A400B307A440B240224493
:10EB4000B3B7970093C7170092443E854101828076
:10EB500081473E858280797126D206D622D44AD05A
:10EB60004ECE52CC56CA5AC85EC6834735030344BC
:10EB70007513AA843E941374F40F9307400263F64E
:10EB800087001304B4FD1374F40F03AA841383AA3B
:10EB9000C413A38B841222865285D68597F006E093
:10EBA000E7800085058915E503CBD4120149814929
:10EBB000337B6403930B50024A865285D68597F0C7
:10EBC00006E0E780E082058915C563916903137447
:10EBD000F90F238B8412B250225492540259F249F5
:10EBE000624AD24A424BB24B456182808509E209B2
:10EBF00093D989410509E31179FDE1BF832785098F
:10EC00000356E503797193D60701BD8EC206C18212
:10EC1000358E1357764093575640898B058B5D8F01
:10EC200093573640918B5D8F93571640A18B5D8F24
:10EC300093171600C18B5D8F9317360093F7070269
:10EC40005D8F931756009355860093F707041E06B1
:10EC50005D8F1376F60F518F93D7554013D63540FD
:10EC6000118A898BD18F13D67540D18F13D6154059
:10EC7000218AD18F13961500418AD18F13963500C2
:10EC800013760602D18F13965500137606049E055F
:10EC9000D18F93F5F50FCD8FA20745465D8F3307D2
:10ECA000C70222D42A8426D252CC56CA032A8413FD
:10ECB000832AC4135AC806D636974207418393570E
:10ECC0007740135557400989858BC98F13553740B5
:10ECD0001189C98F135517402189C98F1315170042
:10ECE0004189C98F1315370013750502C98F131594
:10ECF000570093558700137505041E07C98F1377B6
:10ED0000F70FD98F13D5354013D755401189098B8B
:10ED1000498F13D57540498F13D515402189498FE7
:10ED2000139515004189498F139535001375050218
:10ED3000498F13955500137505049E05498F93F56A
:10ED4000F50F4D8F2207D98FB387C7024AD04ECE19
:10ED50005EC662C4B697C207C18313D7774013D586
:10ED600057400989058B498F13D537401189498F41
:10ED700013D517402189498F139517004189498F71
:10ED80001395370013750502498F1395570093D5D6
:10ED90008700137505049E07498F93F7F70FD98FE6
:10EDA00013D5354013D755401189098B498F13D599
:10EDB0007540498F13D515402189498F139515004A
:10EDC0004189498F1395350013750502498F1395B5
:10EDD0005500137505049E05498F93F5F50F4D8F6A
:10EDE0002207D98FB387C702130650025285D685F2
:10EDF000B697BD8E93940601C18033F6C402137B8F
:10EE0000F60F97E006E0E780A05E05890DED8347E9
:10EE1000D41201498149B3849702130C5002C18076
:10EE20004A865285D68597E006E0E780605C0589D2
:10EE3000937BF90F11C563863403850993F9F90FA4
:10EE40000509E31F89FD230B6413B2502254925429
:10EE50000259F249624AD24A424BB24B224C4561B6
:10EE600082805E8BCDB70111B727002022CC03A48E
:10EE700047D726CA4AC84EC606CEAA84130925001B
:10EE8000854915C083C7140003473400858B63048C
:10EE9000F700405CFDB71946930544004A85EFF042
:10EEA000CFE3E31835FF2285F2406244D244424961
:10EEB000B249056182804111B727002022C403A412
:10EEC00047D726C24AC006C693042500054901E873
:10EED0002285B24022449244024941018280A685A3
:10EEE0001305A402975006E0E7808089E30225FF1E
:10EEF000405CF1BF4111B727002022C403A447D7CB
:10EF000026C24AC006C693042500054901E82285A9
:10EF1000B24022449244024941018280A6851305F1
:10EF2000A401975006E0E780A085E30225FF405C3E
:10EF3000F1BF0111B727002022CC03A4C7D626CAEF
:10EF400006CE2AC42EC6854419E40145F240624427
:10EF5000D244056182808347910003471400858B6A
:10EF60006304F7000044CDB719469305A1001305CB
:10EF70002400EFF08FD6E31795FE0545C1BF0111C0
:10EF800022CC37240020032744E02AC62EC432C2F4
:10EF900006CE3C4B93F7F7F73CCB976006E0E78053
:10EFA000603B032744E0B72600203C4B93E707086B
:10EFB0003CCB83A7C6DD3245A24523A0070003470B
:10EFC0001500034825002207420842970348050020
:10EFD0004297034835006208429798D70347550087
:10EFE00003486500220742084297034845004297BC
:10EFF0000348750062084297D8D703479500034835
:10F00000A50022074208429703488500429703481B
:10F01000B5006208429798DB0347D5000348E50036
:10F020002207420842970348C5000345F50042976E
:10F0300062052A97D8DB03C7150003C52500220700
:10F0400042052A9703C505002A9703C535006205C6
:10F050002A9798CF03C7550003C5650022074205CC
:10F060002A9703C545002A9703C5750062052A97AC
:10F07000D8CF03C7950003C5A500220742052A97EC
:10F0800003C585002A9703C5B50062052A9798D362
:10F0900003C7D50003C5E500220742052A9703C52B
:10F0A000C50083C5F5002A97E2052E97D8D3D8432B
:10F0B000759BD8C3D84313671700D8C39843136709
:10F0C000170098C3124603A7C6DD5C43858BD1EBBE
:10F0D0001C4F01452300F60083A7C6DD9C4FA1838A
:10F0E000A300F60083A7C6DD9C4FC1832301F60071
:10F0F00083A7C6DD9C4FE183A301F60083A7C6DD8D
:10F10000D84F2302E600D84F2183A302E600D84F50
:10F1100041832303E600D84F6183A303E60098539D
:10F120002304E60098532183A304E6009853418307
:10F130002305E60098536183A305E600D853230610
:10F14000E600D8532183A306E600D8534183230762
:10F15000E600DC53E183A307F600F2406244056158
:10F16000828001008DB75D7136D4B72600203AD277
:10F1700003A706DE3ED04ACA1C5F4EC886C69983E6
:10F1800096C49AC29EC022DE26DC2ADA2ED832D657
:10F1900042CE46CC72C676C47AC27EC0858BB68912
:10F1A00037290020ADCF1C5F37240020930484DE74
:10F1B00093F7F7F91CDF930784DE83C76700130713
:10F1C00000086319F7008327C9DD9C4393F7070400
:10F1D0002383F400834784DE93F7070489CFB7279E
:10F1E000002083A7C7B7829788C8834784DE93F738
:10F1F000F70B2304F4DE83C7440093F7070485E389
:10F200008547A382F400B727002083A747E009675A
:10F2100098C7130700FC2382E400D844F8D383A7DF
:10F2200009DE985F1183058B19CB985F85463D9B5E
:10F2300098DF37270020130787DE2302D700985F67
:10F240001D83058B01CF985F1377F7F798DFB727FA
:10F250000020938787DE05472382E7008327C9DDE7
:10F26000D8430583058B19C7D843759BD8C3D843AA
:10F27000799BD8C37254B640A64216438643E254E3
:10F280005255C2553256A256125782577248E2481A
:10F290005249C249324EA24E124F824F61617300F1
:10F2A0002030B7270020B726002003A647E0938729
:10F2B00086DE03C786DE058B11C723820700A38283
:10F2C0000700828003C71700058B65FB785275F332
:10F2D00003C75700EDB737280020032708DE1C5F5F
:10F2E0009583858BCDEB0DC6B7270020839867D01B
:10F2F000030306001C5BBD83630C030893F7F71F31
:10F30000B38717419A970947B3C7E7022300F6006E
:10F3100085CA832708DE985B4607935767016356C3
:10F32000070093E707C0C207C18303970600C2071F
:10F33000C18709C7BA970947B3C7E7022390F60008
:10F3400037270020130787DE95C9834715009DC71F
:10F3500003466700938697008947137606041DC607
:10F360003695834605000546994793F5F606639F53
:10F37000C500E206E186B94763CA0600832708DEB6
:10F380009C5FED838D8BA305F70081473E858280CE
:10F39000B3871741A5BF8547D5BF411122C406C613
:10F3A0003724002026C2032744E059E5AE87745372
:10F3B000FDFEB7240020938484DE3E85B285238140
:10F3C0000400976006E0E780E0D6B727002083A717
:10F3D00007DEB70680009843558F98C3D857719BB6
:10F3E000D8D7832744E0A3820400A3800400094700
:10F3F00098C3B7F700E003A707D16D9B23A8E7D018
:10F4000003A707D15D9B23A8E7D073005010832684
:10F4100044E0B7270020938787DE03C72700058BCA
:10F4200019E703C73700058B59C723820700B2408D
:10F4300022449244410182808D47631FF500B72723
:10F44000002083A707DEB70680009843558F98C336
:10F45000D857719BD8D765BF8547E31AF5FAB567CA
:10F46000BD075CC70F100000832744E009679306BF
:10F4700000F898C737270020130787DE2302D7003C
:10F4800037270020832607DE0946984231830D8BFB
:10F490006319C7001307E043F8D33D673D07D8C79A
:10F4A000BDB7984231830D8B01E713076019EDB7A3
:10F4B0001307E01BD5B7F8522DF395BF5D7152DCF1
:10F4C000372A002003270ADE86C6A2C4A6C2CAC005
:10F4D0004EDE1C43B72900203729002093F7F7E7B9
:10F4E00093E707081CC383A609E53707CEFF7D17FE
:10F4F0009C46130680022A84F98F9CC6832749E024
:10F50000130700082800B8CBAE8493051008EFE07D
:10F510007FF7976006E0E780E0E3976006E0E7802A
:10F5200000EC83270ADE9376F41F370FFCFF23A439
:10F530000700984B4E88CA881367F70398CBF84F9B
:10F54000130510F8D285137707E0558FF8CF98434D
:10F55000F576FD16758F98C39843B7063300B7024A
:10F5600004001377F7E798C398439303401F7D1F68
:10F570001377F7E71367071098C303A709E5930FFD
:10F58000800285491C47D58F1CC7832749E0130794
:10F59000900D3400B8CB114901471353370026931F
:10F5A0008347030013767700B3D7C740858BE1C349
:10F5B00083A705DE832E08E5239C07042390070616
:10F5C00003AECE02137EDEFF23A6CE0383AE07007A
:10F5D000137EF70793FE0EF833EECE0123A0C7018A
:10F5E00003AE4702336E5E0023A2C70383AE48E03A
:10F5F000014E23A27E0603DA070663074E0303AE1D
:10F600000703038A0600135EFE00620E135E8E413E
:10F610006358CA0103AE0703135EFE002380C601D0
:10F6200003DE0706137EFE0F03AA4E0663060A00DA
:10F6300003DA8705E37F49FB03AE4702337EEE0121
:10F6400023A2C70383870600635CF400034E030014
:10F650003396C9001346F6FF3376C6012300C30074
:10F660003E8663D3A7002A861315860161850507A8
:10F670001377F70F8506E312F7F3B6402644964456
:10F680000649F259625A61618280011132CA3726F5
:10F6900000203EC4832746E03AC636C8D8472ACE63
:10F6A0002ECC9316170163D20602984793161701C2
:10F6B00063DD06007D57B8D737270020130707AE54
:10F6C000544F850654CF116798C798470D83058B13
:10F6D0000DC337270020130787DE8346270093E6F4
:10F6E00016002301D700930600F82302D700214714
:10F6F00098C79847058B09CF37270020130787DE67
:10F700008346170093E61600A300D700054798C765
:10F7100098470983058B09E798470583058B21CF17
:10F72000944737270020372500208982858A6388FF
:10F730000610832605DE9442B1828D8AF5EEAC4B2D
:10F74000930687DE944E93F5050283C61600DDCD41
:10F75000EDE293067006D4CF834687DE93E616006B
:10F760002304D7DE114798C7032705DE5C57F19BBA
:10F7700093E717005CD7032746E01C4793963701B1
:10F7800063D40602B7270020938607CC03C6C606BB
:10F79000938707CC418A55CE83C7C60693E70702F5
:10F7A0002386F60685671CC71C479396270163D1FD
:10F7B0000602B7270020938787DE83C64700E2064C
:10F7C000E18663D5060085462382D70089671CC77A
:10F7D0001C479396070163D20602B7270020938740
:10F7E00007CC83C6D706858AC9C683C6D70693E6E3
:10F7F0002600A386D706A1671CC77245E24552467C
:10F80000C2463247A247056173002030B9D2854510
:10F810006395B6009306B0063DBF89456395B60073
:10F820009306F0060DBF8D456395B600930630072D
:10F830001DB79306500705B79306600729BF130746
:10F8400087DE8346370093E61600A301D7000947F9
:10F8500019BF83C6C7060946BD8A6388C60083C62A
:10F86000C7060D46BD8AE39FC6F291462386D7069A
:10F8700015BF83C6D706918ABDDE83C6D70693E639
:10F88000860085BFB726002037270020938786E2B1
:10F89000130687E00346B60183C7D700938686E246
:10F8A000130787E0B29793F7F70F7D466361F6047D
:10F8B000A300F70083471700484B05463316F600B0
:10F8C000A386F600698E05EE03C616011308000232
:10F8D000814633F6C7028147B355F500858993F811
:10F8E000F70F99C96317D600A3001701828081170B
:10F8F000C1B7850693F6F60F8507E39F07FD828063
:10F90000B727002083A7C7B7011122CC26CA52C44B
:10F9100006CE4AC84EC656C25AC08297B7240020A7
:10F92000938784E28047014A6306A406B727002034
:10F93000138787B303076701938484E2138987B32E
:10F9400063550706018D37270020930787E083C79B
:10F95000A70113545500137AF501930987E06368F2
:10F96000F402B70AC0A8370B4057293F83C6A90144
:10F970009C44139756003E9783076901158C63C515
:10F980000700636357015A9798C4E370D4FE1604C6
:10F99000336A4401F24062445285D2444249B2493A
:10F9A000224A924A024B05618280E37D85F8B707BF
:10F9B000C0A833848740229579B7B727002083A752
:10F9C000C7B7411122C44AC006C626C2829737294A
:10F9D0000020930789E280476308A406B727002028
:10F9E0008387E7B4130989E263D80704018DB7243C
:10F9F0000020938784E083C7A701135455009384A4
:10FA000084E06363F404BD3D83C7A4010327890038
:10FA10009396570036971D8C2324E900E375F4FE76
:10FA2000224403C51400B240924402498145410179
:10FA3000176306E0670083EAE37A85FAB707C0A890
:10FA400033848740229565B7B240224492440249EC
:10FA500041018280B727002003A707E5B7570200BE
:10FA60009387079F8326070913965600635806005D
:10FA7000832607091396660063440600FD17FDF30D
:04FA80008280000080
:10FA8400B72700203727002083A787AD032707ADBA
:10FA940001456313F700828083D6670081E683D62D
:10FAA400470036959C43F5B7B727002083A587B355
:10FAB40037270020938787B313860522232CC7ACEE
:10FAC40003D74700938785FFB72600204111BA97D3
:10FAD400056523A8F6AC06C61D0593563700637466
:10FAE400E500930600203307D60037250020232A9B
:10FAF400E5AC23A0E522E1162312D6002313060069
:10FB04001CC3998FE1172312F700231307008D3FBD
:10FB1400B240B72700202393A7AE41018280B727C4
:10FB24000020B726002083A787AD03A606AD2A8749
:10FB3400B305B5406314F6003A8529A89386870077
:10FB44009C43E369D7FEE377F7FE2E85E3E4D5FE15
:10FB5400E3F2F5FE828023AC05FE1C4191E701002F
:10FB640001000CC18280BA8703A787FF6DFF23AC15
:10FB7400B7FE82801DC18346E5FF1307F00F91474E
:10FB8400639EE600411106C69700FB1FE78080577D
:10FB9400B24081473E854101828095473E858280FF
:10FBA40001E9014582800145B2402244410182803D
:10FBB40095654111938505D022C4C98D2A842105F8
:10FBC400C2054205C181418106C69700FB1FE7803B
:10FBD400204771D9FD5723200500231285002303F4
:10FBE400F5002105D1B7411126C2B724002083A70F
:10FBF400C4AD22C44AC006C60144014989E7A165CF
:10FC0400592515C401A803C7E7FF6319A70205CC4A
:10FC1400A1658D2603A7C4AD832784FF6317E4027F
:10FC240023AEF4ACFD57232C04FE230FF4FE2285EF
:10FC3400B2402244924402494101828011E03E894B
:10FC440083A787FF65BF3E84E5BF232CF9FED9BF98
:10FC5400B1CDB727002083C717AE411122C406C611
:10FC64002A842E856375F400894763E88700193771
:10FC74000D45B24022444101828083A785FF99E764
:10FC840003C7E5FF9307F00F6305F700E535154556
:10FC9400CDB737250020238F85FE1305C5AD653DFF
:10FCA40022852244B240A1654101E9A41545828020
:10FCB400B727002023AE07AC8280B727002083A794
:10FCC40047B399E33E85828003D727006316B700C4
:10FCD40003C70700E308A7FEDC47E5B7BDCD79718C
:10FCE40022D406D626D24AD04ECE01444147B3D7B9
:10FCF4008540858BB1CF1205314722953305E50246
:10FD0400B727002003A947B78544B3948400C204ED
:10FD1400C180BE892A990327090011C70325490018
:10FD24002EC60297B24531473304E40283A749B78C
:10FD34003E941C4489E72320090023220900B25081
:10FD44002254A58D02599254F2492E854561828030
:10FD54000504E31EE4F88144DDB72E858280411159
:10FD64001397050122C406C626C24AC041872E84C1
:10FD7400635E07008D3D11C1F53BA1673D8C228573
:10FD8400B24022449244024941018280EDD9AA87BB
:10FD940001474146B356E440858A9DCA9207BA9703
:10FDA400B146B387D702B726002003A946B78544D6
:10FDB400B394E400C204C1803E998327090003255B
:10FDC400490082972320090023220900258C45BF7E
:10FDD4000507E311C7FC8144D5BFB727002083A7DB
:10FDE40087B5411122C406C6372400201304849128
:10FDF40091C782971C403E9508C031A0B7270020C8
:10FE040083A7C7B7FDF70840B74703009387D73FD9
:10FE14003305F502B7A72600938737ECB2403E9529
:10FE240008C02244410182800111680006CE22CC20
:10FE340026CAEF204118FD57630BF50C3724002028
:10FE4400930684B383C756013247130484B363F51E
:10FE5400E70AB7240020938404AE98483706C0A864
:10FE6400630BC702B727002083A7C7B7829732471F
:10FE74009C486373F700BA8703475401998F3E95F2
:10FE84008307640163CE0700B707C0A8636AF5005F
:10FE9400B70740579DA88386660163D406061D8D67
:10FEA40037240020930784DE9C4F130484DE99CB0F
:10FEB400B727002083A607E53707CDFF7D179C46AB
:10FEC400F98F9CC619E13705C0A8B727002083A77E
:10FED400C7B5829719E51C4C85C3EF706173EF6059
:10FEE40071631C4C91CBB727002003A707E5B70625
:10FEF40033001C47D58F1CC7F2406244D2440561CD
:10FF04008280E37EF5F8B307F7403E9551BF37246E
:10FF14000020130404AE1C48B704C0A8E38E97FC69
:10FF2400B727002083A7C7B7829737270020130776
:10FF340087B3834657011C48958F3E958307670115
:10FF4400E3C007F6E36E95F4A1B7B727002083A7B3
:10FF540087B7411122C406C637240020130404AE17
:10FF640089C782975C483E9548C84848B2402244B5
:10FF740041018280B727002083C717AE6370F50262
:10FF84003727002093171500032507B33E958357A1
:10FF94000500DD8D2310B500014582800D4582806A
:10FFA400B727002083C717AE6372F50237270020F6
:10FFB40093171500032507B393C5F5FF3E958357A3
:10FFC4000500FD8D2310B500014582800D4582801A
:10FFD4009307F00263E7A70AB146B306D502B72731
:10FFE400002003A747B789473697184341CF01112B
:0CFFF40022CC4EC60544935945003D89BF
:020000025000AC
:100000003315A40013140501418026CA4E85AE8421
:10001000A2854AC806CE65312A89814729CDA285A5
:100020004E854937B727002083A7C7B78297B727E0
:10003000002083D787B02A84130600643387970291
:100040008146B3B7970213050732B335E500BE9575
:10005000EFF08115B72700208387E7B4229563C9A5
:100060000700B707C0A86365F500B70740573E957E
:100070002324A9008147F2406244D2444249B24954
:100080003E850561828089473E85828001114EC68A
:10009000B7290020938909AE83C7190006CE22CC68
:1000A00026CA4AC852C4636BF5000145F240624457
:1000B000D2444249B249224A05618280B7270020D2
:1000C00083A4C7B7FDD02E8A83D589022A843289BA
:1000D000B387C5028146B3B5C50213850732B3376E
:1000E000F50013060064BE95EFF0010CB747F6A6C5
:1000F000938707C8E3EBA7FA829483D58902AA8481
:1001000013060064B38725038146B3B52503138521
:100110000732B337F500BE95EFF00109B72700208D
:10012000138787B303076701AA94138987B36349C9
:100130000700B707C0A863E5F400B7074057BE94AF
:10014000D2852285AD3E01C504C5054585B79365B9
:1001500004F0C205C18141459700FB1FE78080EE96
:1001600001E983270903B1D3A2851145829735BFE1
:1001700037270020832747B38DE3232AA7B285477B
:100180002326050004C52311450123008500A30093
:10019000F5002322050055BFBA87D84775FFC8C7A9
:1001A000F9BF41C9797122D426D24AD04ECE52CC61
:1001B00056CA5AC85EC662C406D6B689B28A2E8AA4
:1001C0002A899304000C4144372B0020054C930BE3
:1001D000000383274BB7A6979C43A1E79375F400D0
:1001E000B315BC00C2055686C18113554400793D44
:1001F0000DC983274BB70145BE9423A0240123A238
:1002000044016384090023808900B250225492542F
:100210000259F249624AD24A424BB24B224C4561E2
:10022000828005041374F40FB104E31474FB2145B8
:10023000E9BF09458280411122C426C24AC006C6D0
:100240002A842E89B2849935CA8522858D3C05CDB4
:10025000B727002083D587B02A8413060064B387AC
:1002600095028146B3B5950213850732B337F50081
:10027000BE95EFE0717348C00145B24022449244FC
:100280000249410182802145CDBF411122C426C2CD
:100290004AC006C62A892E841D34AA8419C1231196
:1002A0000500A2854A85FD39B727002083C707AE20
:1002B00063992701B727002003D7C7B2598C23962B
:1002C00087B2014591E01945B24022449244024967
:1002D000410182809307F00263E8A7044111B1470E
:1002E00022C43304F50226C2B724002083A744B7F2
:1002F00006C6A2979843894715C39377F5008545AD
:10030000B395F500C205C1811181413783A744B778
:10031000A29723A0070023A207008147B2402244EE
:1003200092443E854101828089473E858280411109
:1003300006C622C4693211E50145B240224441019A
:100340008280B727002083A7C7B700458297B727C9
:1003500000208387E7B463D80702B747F6A63305C2
:10036000A4409387F7C7E3E9A7FC93070064B3357C
:10037000F50237270020035687B081463305F50282
:10038000EFE091625DBFE37AA4FCB707C0A83E949A
:10039000E9B74111B727002006C623ACA7B60295DE
:1003A000B240B727002023ACA7AE014541018280AF
:1003B000994763E9B700B72700208A05938707B1FB
:1003C000BE9588C18280B727002023AA07B23725AF
:1003D0000020B7270020411123AC07B67146B7278C
:1003E00000208145130505B106C623AE07B622C419
:1003F00026C2372400209700FB1FE780E0E11305A9
:1004000004AE1306C00281459700FB1FE780C0E0E1
:10041000EFF0CFE9B727002083C7F7B4130404AE89
:10042000854513D527008D8B3E958D473305F50205
:100430009947B724002039051375F50F2301A4004F
:100440003305F502130505249700FB1FE78080BFE5
:1004500023AAA4B649C1034624009947814533061F
:10046000F602130606249700FB1FE780E0DA83A755
:1004700044B703472400B7240020938707240A07C2
:1004800023A6F4B0BA97372700202328F7B2EFF05D
:100490007F820D218347140083A6C4B03706050070
:1004A000139727003697130606CE10C3138717003D
:1004B0001377F70F0A07370605003697130626D677
:1004C00010C313873700890793F7F70F8A07A30034
:1004D000E400B69790C3B240224492444101828026
:1004E00037270020130707AE8347170083462700EE
:1004F00063F0D702B726002083A6C6B01386170084
:10050000A300C70013972700369708C33E85828053
:100510009307F00FE5BF1C41638B071041777D8F78
:10052000B706002089476315D710035745006301BC
:100530000710411126C21946AA849305F00F6905D8
:1005400006C622C49700FB1FE78000D705478D47EA
:100550006309E50C9C4491C7D858994779C3985CC6
:1005600069C3372400201306C0038145130584B3F3
:100570009700FB1FE78040CA1306C003A68513053A
:1005800084B39700FB1FE780A0C5930784B303D70C
:10059000C70009E7130700102396E70003C7E70029
:1005A00001E705472387E70003D7070101E76D4708
:1005B0002398E70003C7F70001E71547A387E70083
:1005C00003C7270101E705472389E70003C7370170
:1005D00009E703C7F700A389E70003C7470101E75D
:1005E0003547238AE70003C7970109E7130780020D
:1005F000A38CE70003C7570109E71307D002A38ABA
:10060000E70003C7840109E71307C003238CE70051
:100610009C5791C78297B72700202394A7AE6533D4
:100620008147B240224492443E85410182808947FD
:100630003E858280B727002083A7C7B7011106CE69
:1006400022CC26CA4AC84EC6829793070064B335A7
:10065000F50237290020130409AE8359840281462C
:100660004E863305F502EFE03134004CAA84014593
:1006700063049402130909AE33858440636C9400CB
:100680004E868146370500B09305E041EFE0D13159
:10069000018D2695232C9900F2406244D2444249B0
:1006A000B24905618280011122CC2E84B7F5060083
:1006B0000A8541469385855F06CEEFE0716818088C
:1006C00006043A94B7270020035504FF83D7A7B048
:1006D000F2406244AA9737450F00130505243355AD
:1006E000F50205618280B727002083D7A7B0514764
:1006F0001D45637CF702794719456378F7021307B4
:10070000200315456373F7021307B0041145637E98
:10071000F700130740060D456379F70013076009DA
:1007200009456374F70013B5B70F8280011122CC1D
:1007300006CE2A842EC6EFF08FEAB245F240818DB4
:1007400033A5A502229562441375F50F05618280D9
:10075000011122CC06CE2A842EC6EFF04FE8B24516
:10076000F240818D33A5A502229562444205418164
:1007700005618280011122CC06CE2A842EC6EFF0BC
:100780000FE6B245F240818D33B5A5022295624451
:1007900005618280B7270020138787B318572DC3C0
:1007A000411122C426C24AC006C6138987B30297E4
:1007B000B7270020138707AE035787002A84938446
:1007C00007AE0DCBBA876373A700AA87C207C183A0
:1007D000BA866373E400A286C206C182958F514730
:1007E000635AF7008327C90291C38297EF60B14E25
:1007F00023948400B2402244924402494101828001
:100800008280B7270020138787B35857011122CC65
:1008100006CE138487B301C72AC602973245B7278D
:100820000020938707AE3727002015C1B786320016
:10083000938626A194D7232EA7B637050500130566
:100840004563813EF24062440145056182808346F2
:10085000640113968601618663550602B7863200ED
:10086000938626A123AE070094D7B7C70040FD5654
:1008700023A4D726B70700209387C75D232EF7B69A
:100880006DBF13F6160019CAB7862003938606D0EB
:1008900094D7B70700209387E760CDB7617623949C
:1008A000C70291C6930600322395D702DDB793069F
:1008B0002003DDBF011122CC37240020930784B32D
:1008C000884706CE26CA4AC801E90545F240624477
:1008D000D244424905618280130484B35C58F5D741
:1008E000185C65D77000854582971844B247E30EBF
:1008F000F7FC0355C4009305E004B724002097F0EB
:10090000FA1FE7802074138704AE08D3938404AEE3
:100910004DDD0356C4009305F00F01499700FB1FFE
:10092000E780808F8347E4009050634DF900328563
:1009300097F0FA1FE780407D014523A0040223A21F
:10094000040269B78355C4000844185CB3872503C3
:10095000898105093E9508C20297E9B7411122C471
:1009600037240020930784B39C4726C206C6B724C9
:1009700000204AC0938404AE91EB88503DE1B24020
:10098000224492440249014541018280130484B308
:100990001C5CE5D79C5091EB0355C4009305E00423
:1009A00097F0FA1FE780006A88D0885079D50356FF
:1009B000C4009305F00F01499700FB1FE780C08535
:1009C0008347E4009050E35AF9FA8355C4001C446D
:1009D00033852503898105093E951C5C08C28297F1
:1009E000C5B797F0FA1FE780207223A0040223A264
:1009F000040271B701114EC6B7290020938789B34D
:100A00009C4726CA4AC852C406CE22CC56C25AC0F7
:100A10002A8AAE843289638C071E938989B303A71F
:100A20004903630207127D476361A7123724002040
:100A3000130704AE832A0702130404AE639A0A085C
:100A400003D5C9009565938515E097F0FA1FE780F7
:100A5000605F08D02A8665C983D5C90083A749038A
:100A600003A589008981829783A78900832A0402CC
:100A70005CD089476316FA08C1476396F40C83D5A6
:100A8000C9009147938505FCB3C5F5028A05D69543
:100A900003C705009307A0056313F70A83C7150072
:100AA000639F47094A852686910597F0FA1FE780DC
:100AB00020731C505685639357130145F2406244DE
:100AC000D2444249B249224A924A024B056182808D
:100AD0005850E380E7FA03D5C9009565938525E072
:100AE00097F0FA1FE7800056AA8A31CD83D5C90056
:100AF0002A8683A7490303A589008981829795BF28
:100B00008D47631BFA00C147639FF40283D5C90078
:100B1000938545FDF199A5BF91476318FA00639449
:100B2000440383D5C900A115F5B7C147631DFA0079
:100B3000A14763EA970083D5C900C115E1BF1C50E6
:100B400056856391570D294595BF1307F006636CD1
:100B5000A708930A05FE1947B3CAEA0203D7C900DA
:100B6000372B0020B38AEA02BE9A93070BAEDC5300
:100B7000130B0BAE6395570103240B021DE003D545
:100B8000C9009305E00497F0FA1FE780A04B2A8480
:100B90005DD983D5C90083A749032A8689815685F3
:100BA000829791451307A005898193972500A29705
:100BB00083C607006393E60483C61700639C46035D
:100BC00085058A052686A2954A8597F0FA1FE78053
:100BD000206183270B02E38287EE228597F0FA1FBC
:100BE000E7808052D9BD1307E007E36EA7F4930AAC
:100BF00005F9ADB783D5270045BF83270B02E384F2
:100C000087F4228597F0FA1FE78000502DBFB727A1
:100C1000002083A507B085D991479306A005898355
:100C2000139727002E9703460700E31ED6F00346CE
:100C30001700631C460185078A072686BE954A85EC
:100C400097F0FA1FE780C0598DBD83572700C1BFB9
:100C5000B7270020938787B3984729C3985F1DCF94
:100C60008546631DD502411122C437240020130498
:100C700004AE105006C619CE83D5C70048508981EE
:100C80000297085097F0FA1FE780004823200402DB
:100C900023220402B2402244410182808280011159
:100CA00022CC37240020930784B356C283AA87003E
:100CB00026CA4AC84EC606CE52C42A89AE84B28914
:100CC000130484B3638B0A1C1C5C99EB2945F24026
:100CD0006244D2444249B249224A924A0561828022
:100CE0005C58EDD7FD4763E7A70C372A0020930730
:100CF0000AAE9C53130A0AAEB9C7084483274A02B6
:100D0000639FA70489476317F906C147E390F4FC82
:100D10000355C4009147130505FC3345F5029317AD
:100D2000250003250A022686CE853E959307A00559
:100D30002300F500A3002501110597F0FA1FE780B5
:100D4000204A014569B70355C4009305E00497F0B4
:100D5000FA1FE780202F2320AA0245F185BF835583
:100D6000C4005C5803260A02898182971C4423220E
:100D7000FA0249BF8D47631CF900C147E398F4F4B8
:100D80000355C400130545FD9377C5FF59BF91472F
:100D90006318F900E39C24F30355C4002115EDB753
:100DA000C147E315F9F2A147E3E297F20355C40006
:100DB0004115D9BF9307F00663E9A706930705FE1F
:100DC0001947B3C7E7020357C400372A0020B38787
:100DD000E702BE9A93070AAE9C53130A0AAEA9CF44
:100DE00083274A026396570703250A029146130890
:100DF000A005FD5593D72600C207C183139727008E
:100E00002A97034607006314060783481700035612
:100E10002700639C2805B306D64063C69604850761
:100E20008A072686CE853E9509BF9307E007E3EF44
:100E3000A7E8930705F941BF0355C4009305E004F3
:100E400097F0FA1FE78000202320AA0251F9BDBDC8
:100E50008355C4005C5803260A028981568582970F
:100E600023225A0351B7A300B700B28661B70356D5
:100E7000C400B38596009105130606FCE3F8C5E4AB
:100E8000138634001376C60F1106B29623000701AD
:100E9000A30027012311D70059B7372A0020930751
:100EA0000AAE9C53130A0AAEA1C303250A02914657
:100EB0001308A005FD5593D72600C207C1831397D9
:100EC00027002A9703460700631206058348170088
:100ED0000356270063982801B306D640E3D196F461
:100EE000A300B700B286C1BF0345E4008357C40026
:100EF0009305E0043305F5024205418197F0FA1F9E
:100F0000E78040142320AA024DF1C9B30356C40060
:100F10008345E400B385C502338696001106E3E7F6
:100F2000C5DAB9BF0145828083C705002300F500FB
:100F300083D72500A300F50083D72500A1832301D3
:100F4000F50083C74500A301F50011458280B7274E
:100F5000002023AA0794B727002023A807948280A3
:100F600029C1411126C206C622C4AA8401458DC5E5
:100F70002E84B7F50600228541469385856097F05B
:100F8000FA1FE780E02583C7040005452306F40027
:100F900083C71400A306F400B240224492444101E6
:100FA000828001458280011122CC26CA06CE0947E3
:100FB000AA8432846381E50441468147639BC5006E
:100FC000638FE6006397B6000DA841478147638EA3
:100FD000E600F2406244D2443E85056182808A8503
:100FE0002285BD3F41468A8519A88A85953F41469D
:100FF0008A85228531A0E39AB6FC2E86A2852685B5
:1010000097F0FA1FE780A026AA87E1B7B72700204C
:1010100023A8A7948280B727002023AAA7948280C0
:10102000011122CC0354650006CE26CA4AC84EC61A
:1010300041C083298500AE842A8803C909008147FD
:1010400013178901618763550702B147054563FAA4
:1010500087045114420403552800418033878900D6
:10106000A2864E868545EFD0A052B337A0008507F3
:101070007D1413556900420405891379F9034180F1
:101080002380F400A380A400238124012392840000
:10109000014719C01387190098C409476383E70003
:1010A0000145F2406244D2444249B249056182801E
:1010B0000545C5BFC167F917630AF502D94763F74C
:1010C000B702011122CC2EC606CE2A84EF90E0167C
:1010D000B2456368B50022856244F24005616FA0A5
:1010E000B037F24062440545056182800545828043
:1010F000C167F9176314F5006F902014411106C6FB
:10110000EFA0502411E15D45B2404101828091473A
:101110006394F502834705002300F600834725000A
:1011200003471500A207D98F2311F6008347350026
:1011300001452302F60082801145828041118145DC
:1011400022C426C206C6AA8405252A8409E9B7272F
:10115000002083A7079581C7F945268582972285B8
:10116000B240224492444101828039714ED656D217
:101170005AD006DE22DC26DA4AD852D4AA8A2E8B2E
:10118000B28941EF36C6AD379145EF90C01CAA84B5
:101190004D492DC9B246054A238034010544630AEE
:1011A0000B00B68513851400029B05051314050179
:1011B0004180E20993D9894163D30902C14556852B
:1011C000EFA09026654905E933868400A28526852F
:1011D000EFC0507D2A8905E13104420441809147E6
:1011E0002C085685231CF10026CE231D8100EFA07C
:1011F000802D2A8901C963070A00268597F0FA1F06
:10120000E78080F0F25062544A85D2544259B25974
:10121000225A925A025B21618280BA84014AADBF90
:10122000011122CC26CA4AC84EC606CE2A8932846B
:10123000B689253FAA840DE1B727002083A74795EB
:1012400081CF05476317E40003C409000504137444
:10125000F40FA2854A858297F2406244268542496E
:10126000D244B24905618280AE86B71505000147B8
:101270000546938585F26DB783D705002300F500F9
:1012800083D70500A183A300F5000945828083D799
:1012900005002300F50083D70500A183A300F50016
:1012A00083D725002301F50083D72500A183A3015F
:1012B000F5001145828083D705002300F50083D710
:1012C0000500A183A300F50083D725002301F500C5
:1012D00083D72500A183A301F50083C7550023020E
:1012E000F50083C76500A302F50003D58500190545
:1012F00042054181828083D705002300F50083D712
:101300000500A183A300F5000945828083D705006D
:101310002300F50083D70500A183A300F50083D740
:1013200025002301F50083D72500A183A301F50043
:101330001145828003D54500060542054181828022
:1013400083D705002300F50083D70500A183A30000
:10135000F50003D52500090542054181828083D728
:1013600005002300F50083D70500A183A300F50045
:1013700083D725002301F50083D72500A183A3018E
:10138000F50003D54500110542054181828083C7E0
:1013900005002300F5000545828083D70500411133
:1013A00022C406C62300F50083D705002E8411054C
:1013B000A183A30EF5FE83D725009505230FF5FE27
:1013C00083D7D5FFA183A30FF5FE03C6F5FF97F0E2
:1013D000FA1FE780E0E003454400B24022441105D3
:1013E000410182808947639CF500834715000347CC
:1013F00005000145A207D98F2310F6008280114510
:10140000828003D70500D94763FEE702011122CC91
:1014100006CE2EC62A84EF805062B24683D70600DD
:10142000636DF50022856244F240B715050001475F
:1014300009469385852705610DBBF2406244094545
:10144000056182800945828091479DC583460500DC
:10145000FD15C2058547C1816392F60213D72500A9
:101460008D89914791E9914701CB05052301D6006C
:101470002310E60048C281473E8582800947914794
:10148000E39CE6FEC94733D7F502B3F5F502D1BFB9
:10149000AE86B7150500014711469385E528F1B1E1
:1014A00093F7350091EB8981914789C52310B600E8
:1014B00048C281473E8582809147EDBF03C7450002
:1014C0008947631AF702011122CC2A84C84506CE47
:1014D000AE86014719C52EC69D45EFE08FE4B246A2
:1014E0002A8722856244F240B71505001946938584
:1014F000652B05619DB90945828099E1114582807E
:101500008347050005472311F600E379F7FEFD1533
:1015100093F5F50F33D7F502B387E702E390F5FEB5
:10152000050548C22310E6000145828083C74500B7
:101530000947AE866385E70041476399E700B71521
:101540000500014721469385A53905B109458280EB
:101550002310B60091E1014548C201458280AE8664
:10156000B7150500014729469385652FFDBE231059
:10157000B60091E1014548C201458280AE86B715AB
:101580000500014731469385C530C5B62310B60026
:1015900091E1014548C20145828003D74500854756
:1015A00063FDE702011122CC2A84884106CE0DC1D9
:1015B0002EC68545EFE0EFD62A8722856244B246E3
:1015C000F240B7150500394693854533056171BE74
:1015D000F240624409450561828009458280914755
:1015E0009DC5034705008D46914763F2E602FD1550
:1015F000C205C181B3C6E5023308D702639905016C
:1016000005052310D6002311E60048C281473E8518
:10161000828083C745000947AE866385E70041475E
:101620006399E700B7150500014741469385A53941
:101630002DBE09458280B335B00013952500828008
:10164000011122CC26CA06CE03C785008547AA848D
:101650002E8449466310F702613C835724004915E4
:101660001306200963C8A700F2406244D24409452A
:10167000056182800347940085476314F700136671
:101680000604484011C58D4532C6EFE08FC9324689
:10169000A2866244F2402A872685D244B715050007
:1016A000938505340561D1B48D4763FFB702834745
:1016B000150003470500F115A207D98F2310F60086
:1016C0008347350003472500C205A207C181D98F92
:1016D0002311F6002312B60089C5110508C601457D
:1016E000828023240600E5BF11458280011122CCAF
:1016F0002A84884506CEAE8611C52EC69545EFE0F4
:101700004FC2B2462A8722856244F240B7150500CF
:1017100059469385E535056189BCB335B00013950D
:1017200025008280AE86B715050001476146938586
:10173000E53825BC8547114563F4D7028347160079
:1017400083450600A207CD8F2310F7009387E6FF9D
:101750002311F70089476386F600090650C3014547
:10176000828023220700E5BF0147814679468145F3
:10177000EDBA83D705002300F50083D70500A183C8
:10178000A300F5000945828083C725000547230093
:10179000F50003D505006397E7000A050505420536
:1017A00041818280C9473305F502CDBF03D50500CD
:1017B0000A0542054181828083D725002300F50078
:1017C00003D5050083D725003305F502050542053D
:1017D0004181828003D50500828003D50500828087
:1017E00003D50500828083D725002300F50003D5AB
:1017F000050083D725003305F50205054205418123
:10180000828083D705002300F50083D70500A183DC
:10181000A300F50083D725002301F50083D7250019
:10182000A183A301F50003D54500110542054181BF
:10183000828083D705002300F50083D70500A183AC
:10184000A300F50003D525000905420541818280EA
:1018500089471145639BF6008347160083460600BF
:101860000145A207D58F2310F700828003D705001A
:10187000D947AE8663F9E700B715050001470D4665
:101880009385257771BA0945828011456393A60235
:1018900083471600834606000145A207D58F231013
:1018A000F7008347360083462600A207D58F231111
:1018B000F700828083C725000547FD1793F7F70FD0
:1018C0006361F70483D705008DCF011122CC2A84F0
:1018D000C84106CE15C12EC68945EFE08FA42A87E0
:1018E00022856244B246F240B7150500154693853D
:1018F000857805616FF0DF92F24062440945056129
:101900008280094582809547114563F9D7064111C8
:1019100022C426C24AC006C683471600BA840347BB
:101920000600A2073284D98F2390F4008347360043
:101930000347260093054400A207D98F2391F400A2
:1019400089472382F400094613855400368997F0AD
:10195000FA1FE780E0889307A9FF2394F4009947D2
:10196000631BF90023A60400B240224492440249BA
:101970000145410182801904C0C4FDB7828083D72C
:1019800005008DCF011122CC2A84C84106CE15C195
:101990002EC68545EFE0EF982A8722856244B2463D
:1019A000F240B71505001D469385C57A05616FF0B5
:1019B0003F87F24062440945056182800945828083
:1019C00099476395F6048947411106C62302F7003B
:1019D0008347160083460600B285A207D58F2310E1
:1019E000F700834736008346260003464700A207D8
:1019F000D58F130557002311F700910597E0FA1FC3
:101A0000E780007EB240014541018280D147114507
:101A10006394F600C1474DBF828083D705008DCF08
:101A2000011122CC2A84C84106CE15C12EC6894593
:101A3000EFE02F8F2A8722856244B246F240B71525
:101A4000050025469385857B05616FF06FFDF240AB
:101A500062440945056182800945828089471145B4
:101A6000639BF60083471600834606000145A207E4
:101A7000D58F2310F7008280011122CC2A84C8411F
:101A800006CEAE86014719C52EC68545EFE06F89A3
:101A9000B2462A8722856244F240B71505002D46DA
:101AA0009385457D05616FF0AFF711456393A602FD
:101AB00083471600834606000145A207D58F2310F1
:101AC000F7008347360083462600A207D58F2311EF
:101AD000F7008280011122CC2A84C84106CEAE864E
:101AE00011C52EC68545EFE0CF83B2462A872285F1
:101AF0006244F240B715050035469385A57D056122
:101B00006FF00FF293F71600114589EB8947638751
:101B1000F60085822312D70010C30145828001118F
:101B200022CC2A84C84106CE15C12EC68545EFD0E9
:101B30005FFF2A8722856244B246F240B71505004E
:101B40003D469385057E05616FF08FEDF24062445E
:101B500009450561828083D705008DCF011122CC14
:101B60002A84C84106CE15C12EC68945EFD07FFB19
:101B70002A8722856244B246F240B71505004546E1
:101B80009385657E05616FF0AFE9F24062440945D7
:101B90000561828009458280854763FCD702230462
:101BA000A700A304B7008347160083450600A207D9
:101BB000CD8F2310F7009387E6FF2311F7008947A5
:101BC0006386F600090650C3014582802322070080
:101BD000E5BF11458280014781464D4681456FF042
:101BE0002FE48D47114563FBD702834716008345D9
:101BF0000600A207CD8F2310F700834736008345E8
:101C00002600A207CD8F2311F7009387C6FF23126A
:101C1000F7006386A600110610C7014582802324C1
:101C20000700E5BF011122CC2A84884506CEAE8686
:101C300011C52EC69545EFD0DFEEB2462A87228524
:101C40006244F240B72505005D4693852580056115
:101C50006FF00FDD854711456397F6008347060057
:101C600001452300F7008280014781466546814592
:101C70006FF00FDB011122CC2A84C84106CEAE865C
:101C8000014719C52EC68D45EFD0BFE9B2462A8758
:101C900022856244F240B72505006D469385258371
:101CA00005616FF08FCC011122CC2A84C84106CE89
:101CB000AE86014719C52EC68D45EFD09FE6B246C8
:101CC0002A8722856244F240B72505007546938530
:101CD000258305616FF06FC9011106CE2EC6EF9006
:101CE000906201C9B245F2400355250005616FD0ED
:101CF000E040F240494505618280B7270020A3807B
:101D00000798B727002023800798B727002023A42F
:101D10000796B727002023A60796B727002023A8F9
:101D20000796B727002023AA0796B727002023A2EB
:101D30000796B727002023A00796B72700202390F7
:101D400007BA13064038938707BA2391C702717602
:101D50001307400B130606B82391E7002392C7022E
:101D600011671D46930600059305000A1305007DC3
:101D70002392E7002393C70241470546130810F852
:101D80002395E7002396E7002399E700239AE700CD
:101D9000239BE700239CE7002394E7022396070395
:101DA0002393B7002394B7002397D7002398D70035
:101DB000239DA700239E0700239F0700239007026F
:101DC0002395C702239707021308F00723980702F9
:101DD0002392E7042393E704239FE7042390E70675
:101DE0002391E7062392E706239907031307C01CF4
:101DF000239AC702239BC702239C0702239D070245
:101E0000239E0702239F0702239007042391C70400
:101E100023940704239507042396C7042397D70424
:101E20002398D7042399A704239A0704239B070424
:101E3000239C0704239DD704239ED7042393A7063E
:101E40002394070623950706239607062397B706CC
:101E50002398B70623990706239AE7067D57239B05
:101E60000706239CE7068280011126CAAA84214521
:101E700022CC06CE2E8432C636C43AC2EFD09FD2D0
:101E80001DC9A24612473246930700FD2300F50004
:101E90009947A30095002301F5002303D500A30370
:101EA000E5002312C500AA8522856244F240D2448F
:101EB00005616FD03FDAF2406244D244056182800E
:101EC000B727002023A4A7968280B727002023A647
:101ED000A7968280B727002023A8A7968280B727DD
:101EE000002023AAA7968280011122CC4AC806CEE0
:101EF00026CA2A890144B30489006368B400F24009
:101F00006244D2444249056182802EC6EFD03FED43
:101F100093170501C183A183B2452380F400930781
:101F2000140093F7F70F850463F9B700CA97090403
:101F30002380A7001374F40F7DBF3E847DBF411141
:101F400022C437240020130404B803556400C16779
:101F500006C6FD17630FF500B727002003C687CA22
:101F6000B725002093858597EF90F017FD57231331
:101F7000F400B24022444101828009C9251513753D
:101F8000F50F1335850E13451500828001458280BB
:101F900023900500C9C6797122D426D24ECE52CCE8
:101FA0005AC806D64AD056CA5EC63684328AAE8928
:101FB0002A8B814463F34407B307940083C7070067
:101FC000138914004209939A070193DA0A011359FD
:101FD000090163840A04CA976341FA04B307240120
:101FE00083CB07005E85513F0DC99387FAFF23908D
:101FF000F90063906B03130519002295B250225427
:1020000092540259F249624AD24A424BB24B45615C
:102010008280D694C204C18071BF0145C5B7014515
:102020008280011122CC3724002026CA4AC84EC61D
:10203000930704B806CE2E89D0CB8CCBC8C7AA8410
:1020400041469305F00F4A8597E0FA1FE780C026C6
:102050008549130404B8631935030848C145693537
:1020600041469305F00F268597E0FA1FE780C024CC
:1020700005496315250348446244F240D24442496D
:10208000B249C14505618DB5414681454A8597E014
:10209000FA1FE7806022E31535FDC1B7414681454F
:1020A000268597E0FA1FE7802021E30625FDF24010
:1020B0006244D2444249B24905618280411122C43E
:1020C0003724002026C24AC0AE842A8913060002A3
:1020D0008145130504B806C697E0FA1FE780C013D0
:1020E000930704B8A3812701B7270020238697CA46
:1020F000EFD00003854719C1814749452300F4B853
:10210000B24022449244024941018280814781CDFC
:1021100019C98547631BF50083C7550093E707FC82
:10212000A382F50085473E85828089476317F500C5
:1021300083C7550093F7F703E5B70D478547E314C9
:10214000E5FE03C755001377F70313670704A3825F
:10215000E500D1BF81478DC105C103C75500930676
:10216000000C85471377070C6308D700930600041B
:102170008D476303D70089473E858280411122C481
:10218000005D06C626C21DC8AA84085009C597E08E
:10219000FA1FE78060F7485009C597E0FA1FE7800B
:1021A000A0F6085409C597E0FA1FE780E0F52285FC
:1021B00097E0FA1FE78040F523AC0402B2402244C6
:1021C00092444101828019E9B727002083C727B8CC
:1021D00091C737250020130585958280372500207B
:1021E000130585B98280B727002003C527B88280F0
:1021F000B727002003A5C7B88280B727002003A512
:1022000007B98280B727002083A747B98843828017
:10221000B7270020938707B8D44B9842050798C288
:1022200003C537009307F00F6305F50091656FD084
:10223000BFD48280011122CC06CE2E8432C6EF900C
:10224000301D9147B2456310F502B727002083A7E0
:10225000479795C303A30700630F030022856244D9
:10226000F24005610283B727002083A7C79681C784
:1022700003A34700D5B7F24062440545056182805B
:10228000011122CC2A840355450006CE26CA4AC82D
:102290004EC6EF9000763DC92A89834405008349E4
:1022A000C500E93D4A85EFA0207703554400EF9033
:1022B0007011372900201309099883470900B9CB09
:1022C000639A9704B727002083C517982685293479
:1022D00019E12300090003554400EF907013914762
:1022E000631FF500B7270020938707B88356440083
:1022F00003D767006395E6007D572393E700F2401C
:102300006244D2444249B2490561828081499304C2
:10231000F00F45B79307F00FE38FF4FA834664009C
:1023200003564400034524004E87A685353E65B715
:1023300079715EC6AA8B2E8552CC56CA5AC806D66B
:1023400022D426D24AD04ECEAE8A328B368AEF9035
:10235000406A7DC1045D2A89E5C09C50614599C3EE
:10236000130540039C5481C7510542054181630513
:102370000A00710542054181DC5081C759054205BB
:102380004181EFD03F822A8445C96146814597E06B
:10239000FA1FE78060E8B727002083C907BD639470
:1023A000090083490900930700FD2300F400A947B1
:1023B000A30074012301F400230364018C50231251
:1023C00054011305840191C908C47146930A44035A
:1023D00097E0FA1FE780C0E056858C5491C948C445
:1023E0005146930A450197E0FA1FE78060DF568562
:1023F000630C0A0008C87146D285930AC50197E0AC
:10240000FA1FE780E0DD5685CC5099C548C859468B
:1024100097E0FA1FE780C0DCA2854E85EFD09F834E
:102420002254B2509254F249624AD24A424BB24BC1
:102430004A850259456199B3B250225492540259C7
:10244000F249624AD24A424BB24B45618280011145
:102450004EC6AA892E854AC806CE22CC26CA2E8907
:10246000EF90205921C9B727002083C407BD99E008
:10247000834405001945EFD0EFF22A8405CD81454C
:10248000194697E0FA1FE78020D9930700FD230043
:10249000F400B947A30034012301F40023122401FE
:1024A000A2856244F2404249B2492685D244056180
:1024B0006FD04FFAF2406244D2444249B2490561BA
:1024C000828039715ECEAA8B2E8526DA4ED652D402
:1024D00056D25AD006DE22DC4AD8AE84328BB68A77
:1024E0003A8ABE8942C6EF90C05021CD2A89414523
:1024F000EFD04FEB2A8431C54146814597E0FA1F62
:10250000E78080D1B727002003C507BD19E1034547
:102510000900930700FD2300F400BD472301F400E8
:10252000B247A30074012312940023046401A3049E
:10253000540123054401A30534015CC4A285EFD0F6
:102540006FF1F2506254D2544259B259225A925AFF
:10255000025BF24B21618280797126D2AA843945CF
:102560004AD04ECE06D622D42EC6B2893689EFD0B6
:102570006FE321C1B2459307000D2310F500B14769
:102580002A842312B5002301F500CE8519051946CA
:1025900097E0FA1FE780C0C423062401A2852254D5
:1025A000B2500259F24913F5F40F925445616FD0BD
:1025B0006FEAB250225492540259F2494561828026
:1025C000411126C2B7240020938404B803C7340005
:1025D00006C622C44AC09307F00F630CF7042A8989
:1025E0003945EFD02FDC2A8429C5930700FDB72594
:1025F00000202300F500A300250123010500938599
:1026000085B90D05194697E0FA1FE78060BD83D7AD
:102610008400A28503C534002315F40083C7140089
:102620002306F4002244B2409244024941016FD093
:102630006FE2B2402244924402494101828001117A
:102640005AC02A8B314526CA4EC652C456C206CE3F
:1026500022CC4AC8AE84B28A368ABA89EFD08FD4E7
:102660003DCD2A842685EF90C03811C50347C500AB
:10267000A1476314F704B727002003C937B89307AD
:1026800000FD2300F4009D47A30064012301F40032
:1026900023129400231354012314440123153401FD
:1026A000A2856244F240D244B249224A924A024B85
:1026B0004A85424905616FD0EFD9B727002003C989
:1026C000D7CAE31E0BFAB727002083A7C7A39C47EE
:1026D000DDD7CE865286D685268582974DB7F240C5
:1026E0006244D2444249B249224A924A024B0561AD
:1026F0008280011122CC2A84214506CE2EC6EFD03D
:102700006FCA21C1B245930700FD2300F500C547FC
:102710002301F50083C73500A301F50083D74500E9
:102720002312F50083C765002303F50083C77500F6
:10273000AA85A303F50022856244F24005616FD0AB
:102740006FD1F240624405618280397162CC2A8C7B
:10275000594526DA4AD84ED652D456D25AD05ECEF1
:1027600006DE22DCAE8432C636C4BA8B3E8BC28A09
:10277000468A8359010403494104EFD0AFC225C9F9
:102780003246930700FDA2462300F5009547A301BA
:10279000C500A30085012301F5002A84194611050F
:1027A000A9C2B68597E0FA1FE78080A323066401DB
:1027B000230A24012315740123175401231844010B
:1027C00023193401A2856254F2504259B259225A57
:1027D000925A025BF24B624C2685D25421616FD033
:1027E0006FC7814597E0FA1FE78000A3C1B7F25099
:1027F0006254D2544259B259225A925A025BF24B55
:10280000624C21618280411122C4372400201304CC
:1028100004B88347240006C626C28DCBB724002007
:10282000AA8519461385849597E0FA1FE780409B97
:102830000345240093858495EFF05F8D2244B240D8
:1028400013858495924441016FC0500EB2402244DA
:102850009244014541018280411126C2B7240020E3
:10286000938704B806C622C44AC003C7370093073B
:10287000F00F938404B86304F7042A892945EFD044
:102880006FB22A840DCD930700FD2300F500A14708
:10289000A30025012301F50083C72400B7250020EC
:1028A00093858595A301F5001946110597E0FA1F58
:1028B000E780009303C53400A285EFD0AFB903C70A
:1028C00024008D476311F702B727002083A70797DD
:1028D00099CB03A38700630803002244B2409244CB
:1028E000024941010283B24022449244024941011B
:1028F0008280797122D406D626D24AD04ECE52CCCE
:1029000056CA09445DCD2A8903550500AE89514454
:10291000EF90200EAA8455C537270020930787CA59
:1029200083C747008546BA8AFD1793F7F70F4944D6
:1029300063F9F6080347C500A1476314F7006392E3
:1029400009089C5C4544B5EF916593854571130575
:10295000C00297D0FA1FE780E06E88DC2A8A4D44D7
:102960002DC11306C002814597E0FA1FE780C08A97
:102970008357090093064A0036852311FA007146F1
:102980009305490036C697E0FA1FE78060858947BE
:102990002300FA0003C5C400B2460356090083C5EC
:1029A0008ACA611513351500EFB090312A84638609
:1029B0000900CE852685EFA0403201C42685EFF0C0
:1029C000EFFB2285B250225492540259F249624AD6
:1029D000D24A45618280B727002083C7C7CA05470E
:1029E000FD1793F7F70F637AF708894741CA01117A
:1029F00022CC26CA4AC84EC652C406CEAA89368AF6
:102A0000B2842E89EF80F07E2A84D14739C9485597
:102A100009C597D0FA1FE780206FF145268597E01A
:102A2000FA1FE780C08148D4CD4705CD8346C40056
:102A300021478147639FE600630D0A000347A50114
:102A40000356050193062501AA854E85EF90501D7A
:102A5000AA8703474400630F090013676700230236
:102A6000E400F2406244D2444249B249224A3E85DF
:102A70000561828013674700DDB7C9473E858280C4
:102A80009307B00363EBA700B7270020938707BA2B
:102A900006053E9503550500828041657D158280BF
:102AA000011122CC2A842E8526CA06CEAE84EF8060
:102AB00050741DCDB7470F009387F723094563E492
:102AC000870281450A85414697D0FA1FE780C07486
:102AD000A685231081000A85418023018100A3017E
:102AE0000100EFB0207FF2406244D2440561828051
:102AF0004945D5BFB72700202385A7CA82806FB07C
:102B00005014797152CC2A8A328522D426D24AD0E6
:102B10004ECE56CA5AC85EC606D662C4AE8BB28ABC
:102B2000368BBA843E89C2894684EF80906C15C981
:102B30002A8C63140A0213774B008347450015CF94
:102B400093E727012302FC008DEC631C0902639AC2
:102B5000090205E8ED9B2302FC00832B8C036391A3
:102B60000B08B250225492540259F249624AD24A96
:102B7000424BB24B224C45618280F59B93E70701A3
:102B8000D1B793E747002302FC0001CC1C48414623
:102B9000A2852324FC0213058C0197D0FA1FE7803D
:102BA000206463930B02D5D80325CC0209C597D0C6
:102BB000FA1FE7806055F145268597D0FA1FE78018
:102BC00000682326AC0251BFE30909F80325CC02B3
:102BD00009C597D0FA1FE7802053F1454A85F1BF18
:102BE0009DC483A70B0299EB91659385357171455F
:102BF00097D0FA1FE780004523A0AB0203A50B0284
:102C000019C57146A68597D0FA1FE780605D638875
:102C1000090283A74B0299EB91659385257159456C
:102C200097D0FA1FE780004223A2AB0203A54B0214
:102C300019C55946CE8597D0FA1FE780605A1DC442
:102C400083A78B0299EB916593851571514597D0B8
:102C5000FA1FE780203F23A4AB0203A58B0219C50E
:102C60005146A28597D0FA1FE78080572254B25070
:102C70009254F249B24B224CCA865A860259424BB0
:102C8000D6855285D24A624A45616FF06FEA0111DA
:102C900026CA52C406CE22CC4AC84EC62A8AAE8460
:102CA000EF80305525C5AA893945EFC0BFEF2A848A
:102CB00031CDB727002003C907BD6314090003C93C
:102CC00009009307000D2310F400AD472301F40021
:102CD0009385690013053400194697D0FA1FE780E1
:102CE000205093F71400858085882306F400A306FE
:102CF000940023154401A2856244F240D244B249B3
:102D0000224A4A85424905616FC0DFF4F2406244BD
:102D1000D2444249B249224A05618280411122C40B
:102D20003724002013040496084006C619C597D01E
:102D3000FA1FE780603D23200400B2402244410195
:102D40008280011106CE22CC26CA4AC82EC6EF8048
:102D5000504A39CDB245B727002003C907BD0CD56D
:102D6000AA8463140900034905004145EFC09FE3AD
:102D70002A841DCD9307000D2310F500A5472301DC
:102D8000F50083C75400938564001105A30FF5FE79
:102D9000194697D0FA1FE780A0449C54A285F240C0
:102DA0005CC46244D2444A85424905616FC09FEACF
:102DB000F2406244D244424905618280797122D452
:102DC00006D62A842EC6EF80D0420DCD8346C5009C
:102DD0001147AA8749456393E6029C5FB24599C3B0
:102DE00083C567010808EF907078B7D60500938611
:102DF000E666100889452285EF90A067B2502254FC
:102E0000456182805145DDBFB727002083C7C7CA0F
:102E10000547FD1793F7F70F637AF704894721CA2F
:102E2000411122C426C24AC006C6B2842E89EF8050
:102E3000503C2A84D14705C56308090083474500F3
:102E400093E727002302F5004146A6851305840178
:102E500097D0FA1FE780C0389C481CD48147B24005
:102E60002244924402493E8541018280C9473E8501
:102E70008280797122D406D62A842EC6EF807037DC
:102E800001CDB2452285230EB1006C08EF90706130
:102E9000B2502254456182805145DDBF6F80104C95
:102EA000C1671387E7FF6395E502B727002083A773
:102EB000C79691EB494582804945B24022449244ED
:102EC00002494101828003A30700E30503FE028358
:102ED000411122C426C24AC006C6FD172A892E8483
:102EE000B284639AF502B727002083A7C79691CFD3
:102EF0009C4381CF829711E9B7270020238027992F
:102F0000B7270020A38097984DBFA6854A85EFE09C
:102F1000BFDC45F5D5B72E85EF80B02D51DD834759
:102F200005000D45E39B27F922852244B240024962
:102F3000A685924441016FC0601C1307B003636013
:102F4000A7064111C16722C406C626C2FD172A84FE
:102F500009456382F502C547AE846313F4022E85EA
:102F6000EFC0802137250020130505BA06042A94F6
:102F7000231094000145B2402244924441018280D2
:102F80009307A0036316F4002E85EFC0E017D9BFA6
:102F9000E31AE4FC13F5F50FEFC04017E1B709455C
:102FA0008280011106CE2AC6EFE03FD5EF2060698E
:102FB000EF10F01DEFB05133B7270020938707B80B
:102FC000130700F02391E70023820700B7270020B2
:102FD0003245138787CAFD562301D700F240238468
:102FE000A7CA954505616F706031597193970501C6
:102FF000CAD086D6A2D4A6D2CECED2CCD6CADAC871
:10300000DEC6E2C4E6C2EAC06EDEC1872E8963D6A0
:103010000754B724002003C584CAB7290020372BE2
:103020000020EFC09FBC2A8426CEB72A0020372C70
:103030000020938409B8B72C00201DE0216533459A
:10304000A900B650265496540659F649664AD64AFF
:10305000464BB64B264C964C064DF25D6561828020
:10306000834704001307200A639CE70003CA340067
:1030700003552400C1652286FD15EFF0AF9B8DA29C
:103080007247130787CA034A27001307100963957D
:10309000E716834714001547639FE7002285EFF08A
:1030A0002F9E2285EFC05FADF24703C587CAEFC0F0
:1030B000DFB32A8459B739476398E71603554400AC
:1030C0008567A5076315F5040C4483CB0500639D54
:1030D0000B00850591C9372500201946130585B9D0
:1030E00097D0FA1FE780C00F03C709B8854763155B
:1030F000F71063880B00238009B85E85EFF04FCC92
:103100004DB789472380F9B8EFC0000259BF8967DE
:1031100013872700631CE504832B8400638E0B0C4C
:1031200083C70B0089EF83C72B0003C71B00A207CF
:10313000D98F2394F40083C73B00A380F40003C716
:1031400009B88947631AF70A83C70B0091C7238020
:1031500009B803C50B005DB783C5140003D584000F
:103160008D472380F9B8EF70601CE5B795076318A9
:10317000F5001C4403C50700EFF00FEE1DB7F9770B
:103180001387A7FF2A9742074183914663F1E6041C
:103190009387A7FCAA97C207C18371476371F7029F
:1031A00089671387B7006310E50483A78A96E38ACB
:1031B00007EE9C43A285E38607EE829715A03707AA
:1031C00000181307F770B357F700858BA1CB83273F
:1031D0000B97E38807EC9C43E38507EC22858297F5
:1031E000E31105EC11A81387C7006310E5021C4426
:1031F00083C70700E38707EA9307F00FE303FAEAC0
:10320000A2855285EFC01FA545B5B9076318F50023
:1032100083A7CC96E38707E8DC4369BF8967938778
:103220001704E304F5F8C9BF3D476399E704035564
:10323000440089671387D700E30CE5FC13879701E7
:10324000E308E5FCCD07E319F5FA03D76400C1678D
:10325000FD17631DF70083A7CC96E38407E4DC43E6
:10326000E38107E40965A2854D0581BFB7270020EA
:1032700083A74797E38707E29C43DDB71307E00383
:10328000E39CE7F68347240005476398E70E8347EE
:10329000640037270020930D0796E1E783A70D0010
:1032A000D5CF83CB0700214A03457400130D84005A
:1032B000EA85EFE03FEA83474401A303A400835873
:1032C00004010358E400035744002A8603453400F0
:1032D0003EC283572401EA86DE853EC0D287EFF0E6
:1032E000CFC68347340095E7DD4783580401035870
:1032F000E40083467400835544003EC28357240192
:103300003EC06A87D28705465E85EF807027A3019D
:10331000A40083A70D0081C71145EFF03FA0930BD8
:103320000C9803C50B00E30E05D6B727002083C514
:103330001798EFE07F9AE30605D68346340093079B
:103340001003638AF6000356440083C50B005287BE
:103350003685EFE07FB123000C98A1B383CB340016
:1033600099B783270B9783CB3400114A95DFDC4351
:1033700085DF81450145829705BF29476390E70AAC
:103380008347640037270020930D0796A5EF83A796
:103390000D00B5C783CB0700214A03457400130D08
:1033A0008400937725001376150089E7EA85EFE01E
:1033B0007FDA2A8683470402A303C4008358C4012A
:1033C0000358A40103574400034534003EC2835709
:1033D000E401EA86DE853EC0D287EFF00FB783476F
:1033E000340085FBDD478358C4010358A40183469C
:1033F0007400835544003EC28357E40111B783CB68
:10340000340059BF83270B9783CB3400114AD1D79F
:10341000DC43C1D781450145829741B70947639C89
:10342000E70083A78A96E38E07C6DC43E38B07C6D3
:1034300022858297BDB12D476398E70083A78A96BE
:10344000E38107C69C47DDB70D476397E7002286F7
:103450008D450355440015B119476395E70693055B
:10346000610213051031EFB0C1702C10130520312B
:10347000EFB0217003566400835781020355440066
:1034800063E8C700835684000357610263F7E600D0
:1034900093050002EFB0504D29B16374E600231389
:1034A000E40063F4D7002314F4000357C4008356E8
:1034B000A400035684008355640001488147EFB09F
:1034C000704AC5B61D47E389E7D231476395E700E7
:1034D0002286B145BDBF35476398E70083A78A962A
:1034E000E38107BCDC4799B739476396E70022853B
:1034F000EF0070067DB63D476398E70083A78A9684
:10350000E38107BA9C4B1DB741476396E7002285CC
:10351000EF00900F79B645476396E7000145EF004D
:10352000101F41B64947639DE70083270B97E3854A
:1035300007CCDC43E38207CC8145054582976DB912
:103540004D47E39BE7CA83270B97E38707CADC4312
:10355000E38407CAA2850945D5B793F7150089CF3B
:10356000B727002083A7879689C7DC4399C3014505
:10357000829713451900F1B493F7250091CFB7272F
:10358000002083A7079791C7DC4381C78145054584
:1035900082971345290075B493F745000145E382EE
:1035A00007AAB727002083A74796372400201304D3
:1035B00004B891CF85472302F400B727002083A7E2
:1035C000079791C7DC4381C78145054582974844E9
:1035D0002C10EFA0F0372810EFF0EFA2B727002053
:1035E00083D727BC81CF130600643386C702B72771
:1035F000002003C587CA9145EFC05FA91345490064
:1036000089B4011122CC2A84554506CE26CAEFF092
:103610002FC7AA8413054002EFF08FC62AC61305F0
:103620005002EFF0EFC5AA86228562443246F2408E
:10363000B3359000D24405616FB03039797122D42E
:1036400006D68D472E84631FF50003D7A50083D6C9
:10365000850003D665000345340083D54500EFE0BF
:103660001FFE09A889671387D7006311E50403C506
:10367000250019E58547B25022543E854561828078
:10368000B727002083A60796F5D603C6360083C564
:103690000600814802C202C00148814701479106E5
:1036A000EFF0AF8A0545EFF06FE7E9B71387E70062
:1036B000E302E5FC13873701631AE50003C5250023
:1036C00055D9014781460146814551BFE507E303CE
:1036D000F5FAB1476319F500B727002003C537B8DD
:1036E000EFF02F8141BF41677D178147E315E5F872
:1036F00003C75500C947E31FF7F683D6E50003D695
:10370000C5000355840083D5A500EFB0502E51C1EC
:103710005D45EFF0EFB63335A000231CA1008345D3
:103720004400035524003008EF80401D8357810179
:10373000B1F36C0813051031EFB0A1439305E1011B
:1037400013052031EFB0E1428357C10103578400D4
:103750006374F7002314F4008357E1010357A400B6
:1037600063F4E7002315F400835584008357A40015
:1037700063F4B7002315B4000357E4008356C40074
:103780000356A4000355240001488147EFB0501BA5
:10379000D5B58547231CF10059B7B72700201387FB
:1037A00087CA834677001307F00F638CE60851C978
:1037B000411122C426C24AC006C6AA840345A500F8
:1037C000138987CA4105EFC0EFBD2A842DC5930731
:1037D000000D2310F500D9472301F50083D74400DD
:1037E0002312F50083C764002303F50083C7740028
:1037F000A303F50083C784002304F50083C7940066
:10380000A304F50003C6A4002305C50015C2CC44DB
:10381000410548C497D0FA1FE780809CA2852244C6
:1038200003457900B2409244024941016FC08FC202
:1038300023260500E5B7B2402244924402494101E3
:1038400082808280C1671387E7FF639EE500B72708
:10385000002083A707969DC383C707000D47639D7C
:10386000A7006FB0300DFD1749476397F500B727E4
:10387000002083A70796F5F73A8582804947EDBF78
:10388000397122DC06DE26DA4AD84ED652D456D218
:103890005AD05ECE62CC0347050085472A84630D6B
:1038A000F70403468500930695009305E10005455E
:1038B000EFE00FEE814719C18347050083460400FE
:1038C00011476383E60437270020032747988D4676
:1038D00003471700630AD70285CB1DC70DE10145D9
:1038E000F2506254D2544259B259225A925A025B4F
:1038F000F24B624C2161828081470145C1B7854608
:103900006314D70A8D8BE1DF03451400130A2400EA
:10391000D285EFE03F8437290020A300A40083274D
:1039200089982A8B130989988149C1C7B72A002031
:103930009304F00F83C72A98138C2A9863FDF90229
:1039400003250900939B49005E9583470500638426
:10395000970683471500639067071946D2850905C6
:1039600097D0FA1FE780A09039C583240900034748
:103970000400DE94B9E4834604009147E381F6F63F
:1039800083270900A9DF03460C0001479305F00FC8
:10399000E307E6F4BE84C10703C507FF6309B50C5E
:1039A00005071377F70FEDB78946E31AD7F2858B32
:1039B00099BF054535B7850993F9F90FA5BF88C4A7
:1039C000F5A09147631AF706C84405C583478400EC
:1039D000034605006304F606034704009147631D90
:1039E000F706C84419C597C0FA1FE780E07123A6FF
:1039F00004000345840091659385E571050597C032
:103A0000FA1FE780206405C5034704009147631E41
:103A1000F704C8C483478400930594000505A30FE9
:103A2000F5FE0346840097C0FA1FE780607B0345DC
:103A300084003335A0006DB5884441BF93059400E0
:103A4000050597D0FA1FE78080828547E316F5F8D1
:103A50005545EFF0EF82BDA8884441DD97C0FA1FBD
:103A6000E780806A23A4040069B788C465B723800F
:103A7000D40083471400D28513852400A380F4006A
:103A8000194697C0FA1FE780A07503458400916529
:103A90009385F571050597C0FA1FE780A05A05C503
:103AA000034704009147E31CF7F0C8C48347840030
:103AB000930594000505A30FF5FE0346840097C007
:103AC000FA1FE780E07183478400E39407EE034523
