:020000024000BC
:10E000006F10623700000000001801180028012876
:10E0100002280328002901290229032904290529A6
:10E02000062907290829002A012A022A032A042A84
:10E03000052AA62A00FB0600DEFD04006A02002075
:10E04000B40200202602002014020020DC0100207F
:10E0500078FF0400A4FF04008C0005008A0205007C
:10E060002E03050054FC040078FB0400EAFB0400C6
:10E07000A4FB040002080500000400204EFF040079
:10E08000E004050008B1060000B3060078B30600FE
:10E090000C78060020780600322D0600C61F060008
:10E0A00010AB060016050500B87F0600D2BC0500BF
:10E0B00060BD0500B8BD0500F01005003C1105006D
:10E0C000A60F0500FC780500B67305009A820500CE
:10E0D0006A860500168A0500D86505007665050084
:10E0E00060690500246605004C650500D0650500E3
:10E0F000FE640500A866050000670500B06605001F
:10E10000B46605004E670500086705003A6705001C
:10E110005C6C0500646C0500A4660500AC66050037
:10E120004C670500606C0500FC670500D26D0500BA
:10E1300074980500F298050030990500607B050091
:10E14000787B0500B47B0500785F05005C60050006
:10E15000C4600500DE2F0500802A0500E255050099
:10E16000FE2A05000E51050030DB060076D30600BE
:10E1700080D8060018EF0600E8ED0600E4F106007E
:10E18000D4F10600DCF1060020F20600FAC4060015
:10E190001CF206002AE6060050E6060078E60600B5
:10E1A00090F20600E2EB060078EB060000F30600B2
:10E1B000B6C5060052C606007AC606001CC6060092
:10E1C0003293060050850600DE880600348606007D
:10E1D000C28F0600B0AB0600000000002EC506008E
:10E1E000F409050048790600987F06009080060033
:10E1F000000000000000000000000000647F050037
:10E20000E092060000000000000000000000000096
:10E2100004850600260600200E7A060008F2060095
:10E220000000000000000000D8F1060036020500E2
:10E23000B27C050010F206002C9506007E960600C2
:10E24000F8960600BED806000CF2060014F206008E
:10E25000521F060018F20600000F00200A140020CA
:10E2600000000000000000000000000000000000AE
:10E27000000000000000000000000000000000009E
:10E280006373B60082801C419105110523AEF5FE33
:10E29000C5BFB727002037270020938707931307B0
:10E2A000C7E96373F700828023A007009107D5BFF9
:10E2B0005DCDAA870145D5CD8D07C207C183F19BEE
:10E2C000C207C18313074003636CF702372700209E
:10E2D000032547AB372700208326C7AA6397A602EA
:10E2E00037270020032747B4014541C74111C20722
:10E2F00006C60545DD8D0297B24001454101828089
:10E3000037270020032507ABF1B70357650031EF2E
:10E3100003574500636BF704B72600203306F74028
:10E3200021489386C6AB6378C8028328050003D8CA
:10E330006600138687001D8F2A9661172312E60058
:10E34000232016012313060010C12312F500130722
:10E3500088FF2393E6002313B50083D566002105CB
:10E36000B387F5402393F6008280084185BF0145BD
:10E370008280828009CDB727002003A347ABB7274F
:10E38000002083A8C7AA81469A8763E31701828089
:10E3900003A807006369F50A6367A80A1387870063
:10E3A000E367E5FE03D66700216705076319E6000A
:10E3B000372600200347069C05072300E69C3726E6
:10E3C00000201305C6AB83D5470003576500239390
:10E3D00007001306C6AB2E97420741832313E500BF
:10E3E0006387670237250020032505AB6301F5022B
:10E3F00003D5660009ED83D7460023A00601210757
:10E40000BE95A1052392B6002313E600B687984374
:10E41000E30F17F7B726002083A606ABE309D7F66C
:10E4200083566700ADF683D64700835547001843EF
:10E43000A106AE962392D70098C383576600A10722
:10E440002313F6008280BE86C28781B719CD91CD95
:10E4500009CE81473387F500834607003307F5006F
:10E4600085072300D700E317F6FE828019C991C9FA
:10E4700009CA910583A7C5FF11057D16232EF5FE58
:10E48000C5BF828001C919C62A960505A30FB5FE2E
:10E49000E31DA6FE828081473307F50003070700CE
:10E4A00019E33E8582808507C5BF01112E8626CAE5
:10E4B000AA84131506019305F004418122CC06CEEF
:10E4C00032C6FD332A8401C53246A68541372285EE
:10E4D000F2406244D24405618280854715C18DC1F6
:10E4E00005C28147B306F5003387F50083C60600F1
:10E4F000034707006398E6008507E315F6FE8547A6
:10E500003E8582808147EDBF9307F6FFBE952A9630
:10E510006313C5008280FD1583C715000505A30F91
:10E52000F5FEFDB7AA87014581CF09CE3E96850746
:10E5300003C7F7FF6317B700E39BC7FE054582805B
:10E54000828001458280797126D2B724002022D4AE
:10E5500003A404B106D64AD04ECE52CC56CA5AC8ED
:10E560005EC662C44DC43729002037CAC901B72925
:10E570000020814B372B0020130949B1130AFA37C9
:10E580009389C9ABB70AC0A88357240099EF5C44AC
:10E59000639A0B0023A8F4B0032CC4002285D93B56
:10E5A000628499A823A6FB00C5BF83278BB58297F9
:10E5B000830669011C4463D806063307F54063628D
:10E5C000EA0823A8090083552400034504009700A6
:10E5D00005E0E780A0C15C405844A1CF1444B69741
:10E5E0008306690163C7060063E55701B706405714
:10E5F000B6971CC4A28B3A8441F8B72700209387B2
:10E60000C7AB984B894663F2E606791798CBB250B0
:10E61000225492540259F249624AD24A424BB24BB6
:10E62000224C45618280E37AF5F83387FA402A97D5
:10E6300079B763950B0023A8E4B0B9BF23A6EB001C
:10E64000A1BF0327490219CB63DD06003385A7402C
:10E6500083A709016374F50023A8A900A28B404495
:10E6600061BFE3F5A7FED697D5B723A8070045B746
:10E6700001114AC8372900208327C9AE06CE22CC13
:10E6800026CA4EC652C456C25AC081C78297232694
:10E6900009AE9307C9AEDC43372400201304C4AE8F
:10E6A00091C382978327C9AE63900718B7240020CF
:10E6B0009387C4DD83C757009384C4DD858B8DC3E6
:10E6C00003C77400A3820400954763FBE700EF00D3
:10E6D000B03E83C77400F5178A07A2979C438297C0
:10E6E000372A00209307CAE183C7C700130ACAE18B
:10E6F000918B99C3EF10802C1C4491C382973724CF
:10E700000020B72900209307C4AB03A7C9B003C6F4
:10E710001700930AC4AB8347C4AB93961700BA960D
:10E7200083D60600C1CA8347C4AB63EDC7088327FD
:10E73000C9AE230E04AAEDEB83C7940091CB83C727
:10E74000740099E7A3840400978006E0E78040897D
:10E75000B727002083A787B5E1CBB707C0A823A8B8
:10E76000FA00D533B7270020938747B1D8534DCF50
:10E7700083C7570103A70A016368F70A03C7740038
:10E78000954763E3E70A8347CA00918BD1EF83C6BD
:10E790001A0003A6C9B063C3D70A6244F240D24448
:10E7A0004249B249224A924A024B0561170305E0E9
:10E7B0006700038F850793F7F70F230EF4AAE3ECA6
:10E7C000C7F495B786073E978355070023100700C7
:10E7D0000345C4ABB727002083A787AE13172500D6
:10E7E000372B0020BA979C4323140BB08297835792
:10E7F0008BB00347C4AB93C7F7FF7D8D931717000A
:10E8000003A7C9B03E97835707005D8D2310A7006B
:10E810008347C4AB81C78507230EF4AA0347C4AB63
:10E8200083C71A00E375F7F0F2406244D2444249CC
:10E83000B249224A924A024B05618280139717001F
:10E840003297035707006DF38507B1B7AD6737C738
:10E850000040BD072326F7200F100000B727002037
:10E860009387C7ABC84F83278726BD66BD0693C76E
:10E87000F7FF99836A052326D7205D8D8280411199
:10E88000B7170040985F3AC6945F3247E39CE6FEB4
:10E89000324541018280828003278511630007127F
:10E8A000411122C406C68347C5008345C5042A8496
:10E8B00093F7C70F2306F500834697000356C7005A
:10E8C00013958601618563F1C508635A0506034502
:10E8D000870093F6F607A304D700054693E62700C2
:10E8E0006314C50093E617002306D4005C43890730
:10E8F0005CC3A30AB400032504112E864C4309050A
:10E90000B1368327841103465401D44303D7C7008B
:10E91000B296118FD4C32396E7008947A30DF40064
:10E92000B72700200347440383C767B26378F7041F
:10E930008347C40093E707012306F40081A093E70F
:10E9400017002306F40075B79376F60F635D050292
:10E9500003458700854513E627006314B50013E6D9
:10E9600017002306C400A30AD400A30407008547A8
:10E97000A30DF400832784119C43DDF3B2402244AD
:10E9800001454101828093E717002306F400A30AA2
:10E99000D400A3040700032504114C4309057D346A
:10E9A0008327841103465401D44303D7C700B2968A
:10E9B000118FD4C32396E7008D475DBF0545828044
:10E9C000B727002083A747DC411122C406C6858BE8
:10E9D0002A84DDEB4165130525F5973006E0E780D5
:10E9E000A0625DC18347A5002315F50083270412AB
:10E9F000B5E72320A4122322A41285472310F40490
:10EA0000232005008347640154412316F500034782
:10EA1000D4002304E5000547A304E50037270020C0
:10EA2000032747DF1385170215811C437D151375D6
:10EA3000F50F9CC25C43DCC21C479CC65C47DCC62D
:10EA40001C4B9CCA5C4BDCCA1C4F9CCE5C4FDCCE82
:10EA500019CD9386060213070702C1BF832744120C
:10EA600088C3835704042322A412850741BFB72714
:10EA70000020938707CB03D7870005072394E7007F
:10EA8000B2402244410182808347C400230904002C
:10EA9000054593C747002306F400DDB7834785018A
:10EAA00093F7E70FDDEB83479501C5EB034625019F
:10EAB0008346C50009CA372700208345450303471D
:10EAC00077B263E7E50013F7060149CB014709C6B2
:10EAD000C18A0357851881C68356C51836973DCF1E
:10EAE000B727002003D547AE1307C71237460F00DC
:10EAF000B335A702411113060624814622C426C25B
:10EB000006C67D543305A70297F006E0E780E0B41F
:10EB1000B727002083C7D7B2B384A700B727002048
:10EB200003A787D38327070963F387003E8418432D
:10EB300075FBB727002083A787B582978147636459
:10EB4000A400B307A440B2402244B3B7970093C7D0
:10EB5000170092443E854101828081473E85828034
:10EB6000797126D206D622D44AD04ECE52CC56CA7D
:10EB70005AC85EC68347350303447513AA843E947E
:10EB80001374F40F9307400263F687001304B4FD77
:10EB90001374F40F03AA841383AAC413A38B8412DF
:10EBA00022865285D68597F006E0E78040A8058941
:10EBB00015E503CBD41201498149337B6403930BE0
:10EBC00050024A865285D68597F006E0E78020A657
:10EBD000058915C5639169031374F90F238B84129A
:10EBE000B250225492540259F249624AD24A424BDC
:10EBF000B24B456182808509E20993D989410509B3
:10EC0000E31179FDE1BF832785090356E503797197
:10EC100093D60701BD8EC206C182358E135776404A
:10EC200093575640898B058B5D8F93573640918B58
:10EC30005D8F93571640A18B5D8F93171600C18B84
:10EC40005D8F9317360093F707025D8F9317560079
:10EC50009355860093F707041E065D8F1376F60F13
:10EC6000518F93D7554013D63540118A898BD18F58
:10EC700013D67540D18F13D61540218AD18F1396A4
:10EC80001500418AD18F1396350013760602D18F75
:10EC900013965500137606049E05D18F93F5F50F54
:10ECA000CD8FA20745465D8F3307C70222D42A8441
:10ECB00026D252CC56CA032A8413832AC4135AC8B4
:10ECC00006D63697420741839357774013555740EE
:10ECD0000989858BC98F135537401189C98F135501
:10ECE00017402189C98F131517004189C98F131542
:10ECF000370013750502C98F131557009355870008
:10ED0000137505041E07C98F1377F70FD98F13D515
:10ED1000354013D755401189098B498F13D575405C
:10ED2000498F13D515402189498F139515004189C5
:10ED3000498F1395350013750502498F13955500BA
:10ED4000137505049E05498F93F5F50F4D8F220726
:10ED5000D98FB387C7024AD04ECE5EC662C4B6977B
:10ED6000C207C18313D7774013D557400989058B54
:10ED7000498F13D537401189498F13D51740218901
:10ED8000498F139517004189498F139537001375E3
:10ED90000502498F1395570093D587001375050415
:10EDA0009E07498F93F7F70FD98F13D5354013D7A7
:10EDB00055401189098B498F13D57540498F13D55B
:10EDC00015402189498F139515004189498F139565
:10EDD000350013750502498F139555001375050409
:10EDE0009E05498F93F5F50F4D8F2207D98FB38775
:10EDF000C702130650025285D685B697BD8E9394EE
:10EE00000601C18033F6C402137BF60F97F006E0CB
:10EE1000E780E08105890DED8347D41201498149DE
:10EE2000B3849702130C5002C1804A865285D6855E
:10EE300097E006E0E780A07F0589937BF90F11C575
:10EE400063863403850993F9F90F0509E31F89FDEA
:10EE5000230B6413B250225492540259F249624A6D
:10EE6000D24A424BB24B224C456182805E8BCDB779
:10EE70000111B727002022CC03A447D626CA4AC8CE
:10EE80004EC606CEAA8413092500854915C083C73E
:10EE9000140003473400858B6304F700405CFDB722
:10EEA0001946930544004A85EFF02FE3E31835FF38
:10EEB0002285F2406244D2444249B24905618280CF
:10EEC0004111B727002022C403A447D626C24AC056
:10EED00006C693042500054901E82285B240224474
:10EEE0009244024941018280A6851305A4029750ED
:10EEF00006E0E780804AE30225FF405CF1BF411154
:10EF0000B727002022C403A447D626C24AC006C69B
:10EF100093042500054901E82285B2402244924429
:10EF2000024941018280A6851305A401975006E09D
:10EF3000E780A046E30225FF405CF1BF0111B7273F
:10EF4000002022CC03A4C7D526CA06CE2AC42EC6CA
:10EF5000854419E40145F2406244D244056182804F
:10EF60008347910003471400858B6304F700004436
:10EF7000CDB719469305A10013052400EFF0EFD596
:10EF8000E31795FE0545C1BF011122CC37240020AF
:10EF9000032784DF2AC62EC432C206CE3C4B93F729
:10EFA000F7F73CCB977006E0E780C000032784DFCB
:10EFB000B72600203C4B93E707083CCB83A7C6DC71
:10EFC0003245A24523A0070003471500034825004A
:10EFD000220742084297034805004297034835003C
:10EFE0006208429798D703475500034865002207F7
:10EFF000420842970348450042970348750062085B
:10F000004297D8D7034795000348A5002207420836
:10F0100042970348850042970348B500620842972B
:10F0200098DB0347D5000348E500220742084297D2
:10F030000348C5000345F500429762052A97D8DBCF
:10F0400003C7150003C52500220742052A9703C5FB
:10F0500005002A9703C5350062052A9798CF03C794
:10F06000550003C56500220742052A9703C54500E0
:10F070002A9703C5750062052A97D8CF03C7950064
:10F0800003C5A500220742052A9703C585002A97D4
:10F0900003C5B50062052A9798D303C7D50003C5F9
:10F0A000E500220742052A9703C5C50083C5F50080
:10F0B0002A97E2052E97D8D3D843759BD8C3D84357
:10F0C00013671700D8C398431367170098C31246F5
:10F0D00003A7C6DC5C43858BD1EB1C4F01452300A5
:10F0E000F60083A7C6DC9C4FA183A300F60083A78C
:10F0F000C6DC9C4FC1832301F60083A7C6DC9C4F6E
:10F10000E183A301F60083A7C6DCD84F2302E60003
:10F11000D84F2183A302E600D84F41832303E600A2
:10F12000D84F6183A303E60098532304E600985365
:10F130002183A304E600985341832305E6009853F6
:10F140006183A305E600D8532306E600D853218344
:10F15000A306E600D85341832307E600DC53E1838E
:10F16000A307F600F24062440561828001008DB77A
:10F17000B726002003A706DD01114AC81C5F4EC652
:10F1800006CE998322CC26CA858BB68937290020E2
:10F19000ADCF1C5F372400209304C4DD93F7F7F94B
:10F1A0001CDF9307C4DD83C76700130700086319DA
:10F1B000F7008327C9DC9C4393F707042383F400FB
:10F1C0008347C4DD93F7070489CFB727002083A7BF
:10F1D00087B5829788C88347C4DD93F7F70B230E62
:10F1E000F4DC83C7440093F7070485E38547A382D3
:10F1F000F400B727002083A787DF096798C71307A4
:10F2000000FC2382E400D844F8D383A709DD985F8B
:10F210001183058B19CB985F85463D9B98DF372777
:10F2200000201307C7DD2302D700985F1D83058BDD
:10F2300001CF985F1377F7F798DFB7270020938700
:10F24000C7DD05472382E7008327C9DCD843058350
:10F25000058B19C7D843759BD8C3D843799BD8C3AE
:10F26000F2406244D2444249B24905618280397118
:10F2700006DE16DC1ADA1ED82AD62ED432D236D0C2
:10F280003ACE3ECC42CA46C872C676C47AC27EC066
:10F29000C535F250E2525253C2533255A25512565E
:10F2A00082567247E2475248C248324EA24E124F2F
:10F2B000824F216173002030B7270020B72600203D
:10F2C00003A687DF9387C6DD03C7C6DD058B11C79D
:10F2D00023820700A3820700828003C71700058BE3
:10F2E00065FB785275F303C75700EDB73728002048
:10F2F000032708DD1C5F9583858BD1E709C61C5B5E
:10F30000BD832300F60085CA832708DD985B460786
:10F31000935767016356070093E707C0C207C1838D
:10F3200003970600C207C18709C7BA970947B3C741
:10F33000E7022390F600372700201307C7DD95C9A1
:10F34000834715009DC7034667009386970089474A
:10F35000137606041DC63695834605000546994773
:10F3600093F5F606639FC500E206E186B94763CAD6
:10F370000600832708DD9C5FED838D8BA305F700D6
:10F3800081473E8582808547EDBF411122C406C674
:10F390003724002026C2032784DF59E5AE87745343
:10F3A000FDFEB72400209384C4DD3E85B285238111
:10F3B0000400977006E0E780009CB727002083A731
:10F3C00007DDB70680009843558F98C3D857719BC7
:10F3D000D8D7832784DFA3820400A38004000947D1
:10F3E00098C3B7F700E003A707D16D9B23A8E7D028
:10F3F00003A707D15D9B23A8E7D073005010832695
:10F4000084DFB72700209387C7DD03C72700058B5C
:10F4100019E703C73700058B59C723820700B2409D
:10F4200022449244410182808D47631FF500B72733
:10F43000002083A707DDB70680009843558F98C347
:10F44000D857719BD8D765BF8547E31AF5FAB567DA
:10F45000BD075CC70F100000832784DF0967930690
:10F4600000F898C7372700201307C7DD2302D7000D
:10F4700037270020832607DD0946984231830D8B0C
:10F480006319C7001307E043F8D33D673D07D8C7AA
:10F49000BDB7984231830D8B01E713076019EDB7B3
:10F4A0001307E01BD5B7F8522DF395BF5D7152DC01
:10F4B000372A002003270ADD86C6A2C4A6C2CAC016
:10F4C0004EDE1C43B72900203729002093F7F7E7C9
:10F4D00093E707081CC383A649E43707CEFF7D17CF
:10F4E0009C46130680022A84F98F9CC6832789DFF5
:10F4F000130700082800B8CBAE8493051008EFE08E
:10F500007FF8977006E0E780E0AA977006E0E78052
:10F5100000B383270ADD9376F41F370FFCFF23A483
:10F520000700984B4E88CA881367F70398CBF84FAB
:10F53000130510F8D285137707E0558FF8CF98435D
:10F54000F576FD16758F98C39843B7063300B7025A
:10F5500004001377F7E798C398439303401F7D1F78
:10F560001377F7E71367071098C303A749E4930FCE
:10F57000800285491C47D58F1CC7832789DF130765
:10F58000900D3400B8CB114901471353370026932F
:10F590008347030013767700B3D7C740858BE1C359
:10F5A00083A705DD832E48E4239C070423900706E8
:10F5B00003AECE02137EDEFF23A6CE0383AE07008A
:10F5C000137EF70793FE0EF833EECE0123A0C7019A
:10F5D00003AE4702336E5E0023A2C70383AE88DF0B
:10F5E000014E23A27E0603DA070663074E0303AE2D
:10F5F0000703038A0600135EFE00620E135E8E414F
:10F600006358CA0103AE0703135EFE002380C601E0
:10F6100003DE0706137EFE0F03AA4E0663060A00EA
:10F6200003DA8705E37F49FB03AE4702337EEE0131
:10F6300023A2C70383870600635CF400034E030024
:10F640003396C9001346F6FF3376C6012300C30084
:10F650003E8663D3A7002A861315860161850507B8
:10F660001377F70F8506E312F7F3B6402644964466
:10F670000649F259625A6161828037260020832749
:10F6800086DFD8479316170163D206029847931670
:10F69000170163DD06007D57B8D737270020130711
:10F6A000C7AB544F850654CF116798C798470D8351
:10F6B000058B0DC3372700201307C7DD83462700BE
:10F6C00093E616002301D700930600F82302D70023
:10F6D000214798C79847058B09CF37270020130784
:10F6E000C7DD8346170093E61600A300D700054741
:10F6F00098C798470983058B09E798470583058BC9
:10F7000021CF944737270020372500208982858A1A
:10F7100063800610832605DD9442B1828D8AF5E66A
:10F72000AC4B9306C7DD944E93F5050283C61600D5
:10F73000DDC5E9EA93067006D4CF8346C7DD93E6BC
:10F740001600230ED7DC114798C7032705DD5C5749
:10F75000F19B93E717005CD7032786DF1C4793963E
:10F76000370163D40602B7270020938607CB03C670
:10F77000C606938707CB418A55C683C7C60693E75B
:10F7800007022386F60685671CC71C479396270148
:10F7900063D10602B72700209387C7DD83C64700E1
:10F7A000E206E18663D5060085462382D700896795
:10F7B0001CC71C479396070163D20602B727002097
:10F7C000938707CB83C6D706858AADCE83C6D70677
:10F7D00093E62600A386D706A1671CC78280B9DA04
:10F7E00085456395B6009306B006B9B7894563951C
:10F7F000B6009306F00689B78D456395B60093066B
:10F8000030071DBF9306500705BF930660072DB74D
:10F810001307C7DD8346370093E61600A301D70020
:10F8200009471DB783C6C7060946BD8A6388C60057
:10F8300083C6C7060D46BD8AE397C6F49146238664
:10F84000D70691B783C6D706918AD9D683C6D7067D
:10F8500093E6860041B7397106DE16DC1ADA1ED847
:10F860002AD62ED432D236D03ACE3ECC42CA46C860
:10F8700072C676C47AC27EC00935F250E252525343
:10F88000C2533255A255125682567247E247524829
:10F89000C248324EA24E124F824F21617300203077
:10F8A00037270020B72600201386C6DF1307C7E1DD
:10F8B0008347D7008345B601484AAE97FD8BB355C1
:10F8C000F500A300F600A306F700858995E9034734
:10F8D0001701814613080002B3F7E7020147B35549
:10F8E000E50085899378F70F89C96395D700A30050
:10F8F00016018280850693F6F60F0507E31107FFD0
:10F900008280B727002083A787B5011122CC26CAA1
:10F9100052C406CE4AC84EC656C25AC08297B724B1
:10F9200000209387C4E18047014A6306A406B727F5
:10F930000020138747B1030767019384C4E113894B
:10F9400047B163550706018D372700209307C7DFAE
:10F9500083C7A70113545500137AF5019309C7DF34
:10F960006368F402B70AC0A8370B4057153F83C637
:10F97000A9019C44139756003E9783076901158C93
:10F9800063C50700636357015A9798C4E370D4FEB8
:10F990001604336A4401F24062445285D24442491B
:10F9A000B249224A924A024B05618280E37D85F882
:10F9B000B707C0A833848740229579B7B7270020BE
:10F9C00083A787B5411122C44AC006C626C28297C2
:10F9D000372900209307C9E180476308A406B727A9
:10F9E00000208387A7B21309C9E163D80704018DFA
:10F9F000B72400209387C4DF83C7A70113545500A1
:10FA00009384C4DF6363F404613D83C7A4010327C7
:10FA100089009396570036971D8C2324E900E375DF
:10FA2000F4FE224403C51400B240924402498145C9
:10FA30004101177306E06700E3A7E37A85FAB70789
:10FA4000C0A833848740229565B7B24022449244CF
:10FA5000024941018280B727002003A747E4B75736
:10FA600002009387079F8326070913965600635861
:10FA70000600832607091396660063440600FD17F7
:04FA8000FDF3828090
:10FA8400B72700203727002083A747AB0327C7AA3F
:10FA940001456313F700828083D6670081E683D62D
:10FAA400470036959C43F5B7B727002083A547B197
:10FAB40037270020938747B113860522232AC7AA34
:10FAC40003D74700938785FFB72600204111BA97D3
:10FAD400056523A6F6AA06C61D059356370063746A
:10FAE400E500930600203307D6003725002023289D
:10FAF400E5AA23A0E522E1162312D600231306006B
:10FB04001CC3998FE1172312F700231307008D3FBD
:10FB1400B240B72700202391A7AC41018280B727C8
:10FB24000020B726002083A747AB03A6C6AA2A87CE
:10FB3400B305B5406314F6003A8529A89386870077
:10FB44009C43E369D7FEE377F7FE2E85E3E4D5FE15
:10FB5400E3F2F5FE828023AC05FE1C4191E701002F
:10FB640001000CC18280BA8703A787FF6DFF23AC15
:10FB7400B7FE82801DC18346E5FF1307F00F91474E
:10FB8400639EE600411106C69700FB1FE78080577D
:10FB9400B24081473E854101828095473E858280FF
:10FBA40001E9014582800145B2402244410182803D
:10FBB40095654111938505D022C4C98D2A842105F8
:10FBC400C2054205C181418106C69700FB1FE7803B
:10FBD400204771D9FD5723200500231285002303F4
:10FBE400F5002105D1B7411126C2B724002083A70F
:10FBF40084AB22C44AC006C60144014989E7A16511
:10FC0400592515C401A803C7E7FF6319A70205CC4A
:10FC1400A1658D2603A784AB832784FF6317E402C1
:10FC240023ACF4AAFD57232C04FE230FF4FE2285F3
:10FC3400B2402244924402494101828011E03E894B
:10FC440083A787FF65BF3E84E5BF232CF9FED9BF98
:10FC5400B1CDB727002083C7D7AB411122C406C654
:10FC64002A842E856375F400894763E88700193771
:10FC74000D45B24022444101828083A785FF99E764
:10FC840003C7E5FF9307F00F6305F700E535154556
:10FC9400CDB737250020238F85FE130585AB653D41
:10FCA40022852244B240A1654101E9A41545828020
:10FCB400B727002023AC07AA8280B727002083A798
:10FCC40007B199E33E85828003D727006316B70006
:10FCD40003C70700E308A7FEDC47E5B7BDCD79718C
:10FCE40022D406D626D24AD04ECE01444147B3D7B9
:10FCF4008540858BB1CF1205314722953305E50246
:10FD0400B727002003A907B58544B3948400C2042F
:10FD1400C180BE892A990327090011C70325490018
:10FD24002EC60297B24531473304E40283A709B5CE
:10FD34003E941C4489E72320090023220900B25081
:10FD44002254A58D02599254F2492E854561828030
:10FD54000504E31EE4F88144DDB72E858280411159
:10FD64001397050122C406C626C24AC041872E84C1
:10FD7400635E07008D3D11C1F53BA1673D8C228573
:10FD8400B24022449244024941018280EDD9AA87BB
:10FD940001474146B356E440858A9DCA9207BA9703
:10FDA400B146B387D702B726002003A906B5854418
:10FDB400B394E400C204C1803E998327090003255B
:10FDC400490082972320090023220900258C45BF7E
:10FDD4000507E311C7FC8144D5BFB727002083A7DB
:10FDE40047B3411122C406C63724002013040490EB
:10FDF40091C782971C403E9508C031A0B7270020C8
:10FE040083A787B5FDF70840B74703009387D73F1B
:10FE14003305F502B7A72600938737ECB2403E9529
:10FE240008C02244410182800111680006CE22CC20
:10FE340026CAEF201152FD57630BF50C372400201E
:10FE4400930644B183C756013247130444B163F5A2
:10FE5400E70AB72400209384C4AB98483706C0A8A7
:10FE6400630BC702B727002083A787B58297324761
:10FE74009C486373F700BA8703475401998F3E95F2
:10FE84008307640163CE0700B707C0A8636AF5005F
:10FE9400B70740579DA88386660163D406061D8D67
:10FEA400372400209307C4DD9C4F1304C4DD99CB91
:10FEB400B727002083A647E43707CDFF7D179C466C
:10FEC400F98F9CC619E13705C0A8B727002083A77E
:10FED40087B3829719E51C4C85C3EF80E130EF703E
:10FEE40091271C4C91CBB727002003A747E4B70602
:10FEF40033001C47D58F1CC7F2406244D2440561CD
:10FF04008280E37EF5F8B307F7403E9551BF37246E
:10FF140000201304C4AB1C48B704C0A8E38E97FCAC
:10FF2400B727002083A787B58297372700201307B8
:10FF340047B1834657011C48958F3E958307670157
:10FF4400E3C007F6E36E95F4A1B7B727002083A7B3
:10FF540047B5411122C406C6372400201304C4AB9C
:10FF640089C782975C483E9548C84848B2402244B5
:10FF740041018280B727002083C7D7AB6370F502A5
:10FF840037270020931715000325C7B03E958357E4
:10FF94000500DD8D2310B500014582800D4582806A
:10FFA400B727002083C7D7AB6372F5023727002039
:10FFB400931715000325C7B093C5F5FF3E958357E6
:10FFC4000500FD8D2310B500014582800D4582801A
:10FFD4009307F00263E7A70AB146B306D502B72731
:10FFE400002003A707B589473697184341CF01116D
:0CFFF40022CC4EC60544935945003D89BF
:020000025000AC
:100000003315A40013140501418026CA4E85AE8421
:10001000A2854AC806CE65312A89814729CDA285A5
:100020004E854937B727002083A787B58297B72722
:10003000002083D747AE2A841306006433879702D3
:100040008146B3B7970213050732B335E500BE9575
:10005000EFF06139B72700208387A7B2229563C9E3
:100060000700B707C0A86365F500B70740573E957E
:100070002324A9008147F2406244D2444249B24954
:100080003E850561828089473E85828001114EC68A
:10009000B72900209389C9AB83C7190006CE22CCAB
:1000A00026CA4AC852C4636BF5000145F240624457
:1000B000D2444249B249224A05618280B7270020D2
:1000C00083A487B5FDD02E8A83D589022A843289FC
:1000D000B387C5028146B3B5C50213850732B3376E
:1000E000F50013060064BE95EFF0E12FB747F6A6C2
:1000F000938707C8E3EBA7FA829483D58902AA8481
:1001000013060064B38725038146B3B52503138521
:100110000732B337F500BE95EFF0E12CB72700208A
:10012000138747B103076701AA94138947B163494D
:100130000700B707C0A863E5F400B7074057BE94AF
:10014000D2852285AD3E01C504C5054585B79365B9
:1001500004F0C205C18141459700FB1FE78080EE96
:1001600001E983270903B1D3A2851145829735BFE1
:1001700037270020832707B18DE32328A7B08547C1
:100180002326050004C52311450123008500A30093
:10019000F5002322050055BFBA87D84775FFC8C7A9
:1001A000F9BF41C9797122D426D24AD04ECE52CC61
:1001B00056CA5AC85EC662C406D6B689B28A2E8AA4
:1001C0002A899304000C4144372B0020054C930BE3
:1001D000000383270BB5A6979C43A1E79375F40012
:1001E000B315BC00C2055686C18113554400793D44
:1001F0000DC983270BB50145BE9423A0240123A27A
:1002000044016384090023808900B250225492542F
:100210000259F249624AD24A424BB24B224C4561E2
:10022000828005041374F40FB104E31474FB2145B8
:10023000E9BF09458280411122C426C24AC006C6D0
:100240002A842E89B2849935CA8522858D3C05CDB4
:10025000B727002083D547AE2A8413060064B387EE
:1002600095028146B3B5950213850732B337F50081
:10027000BE95EFF0411748C00145B2402244924478
:100280000249410182802145CDBF411122C426C2CD
:100290004AC006C62A892E841D34AA8419C1231196
:1002A0000500A2854A85FD39B727002083C7C7AB63
:1002B00063992701B727002003D787B0598C23946F
:1002C00087B0014591E01945B24022449244024969
:1002D000410182809307F00263E8A7044111B1470E
:1002E00022C43304F50226C2B724002083A704B534
:1002F00006C6A2979843894715C39377F5008545AD
:10030000B395F500C205C1811181413783A704B5BA
:10031000A29723A0070023A207008147B2402244EE
:1003200092443E854101828089473E858280411109
:1003300006C622C4693211E50145B240224441019A
:100340008280B727002083A787B500458297B7270B
:1003500000208387A7B263D80702B747F6A6330504
:10036000A4409387F7C7E3E9A7FC93070064B3357C
:10037000F50237270020035647AE81463305F502C4
:10038000EFF061065DBFE37AA4FCB707C0A83E9416
:10039000E9B74111B727002006C623AAA7B40295E2
:1003A000B240B727002023AAA7AC014541018280B3
:1003B000994763E9B700B72700208A059387C7AE3E
:1003C000BE9588C18280B727002023A807B03725B3
:1003D0000020B7270020411123AA07B47146B72790
:1003E000002081451305C5AE06C623AC07B422C460
:1003F00026C2372400209700FB1FE780E0E11305A9
:10040000C4AB1306C00281459700FB1FE780C0E024
:10041000EFF0CFE9B727002083C7B7B21304C4AB0E
:10042000854513D527008D8B3E958D473305F50205
:100430009947B724002039051375F50F2301A4004F
:100440003305F502130505249700FB1FE78080BFE5
:1004500023A8A4B449C10346240099478145330623
:10046000F602130606249700FB1FE780E0DA83A755
:1004700004B503472400B7240020938707240A0704
:1004800023A4F4AEBA97372700202326F7B0EFF065
:100490007F820D218347140083A684AE37060500B2
:1004A000139727003697130606CE10C3138717003D
:1004B0001377F70F0A07370605003697130626D677
:1004C00010C313873700890793F7F70F8A07A30034
:1004D000E400B69790C3B240224492444101828026
:1004E000372700201307C7AB834717008346270031
:1004F00063F0D702B726002083A686AE13861700C6
:10050000A300C70013972700369708C33E85828053
:100510009307F00FE5BF1C41638B071041777D8F78
:10052000B706002089476315D710035745006301BC
:100530000710411126C21946AA849305F00F6905D8
:1005400006C622C49700FB1FE78000D705478D47EA
:100550006309E50C9C4491C7D858994779C3985CC6
:1005600069C3372400201306C0038145130544B135
:100570009700FB1FE78040CA1306C003A68513053A
:1005800044B19700FB1FE780A0C5930744B103D790
:10059000C70009E7130700102396E70003C7E70029
:1005A00001E705472387E70003D7070101E76D4708
:1005B0002398E70003C7F70001E71547A387E70083
:1005C00003C7270101E705472389E70003C7370170
:1005D00009E703C7F700A389E70003C7470101E75D
:1005E0003547238AE70003C7970109E7130780020D
:1005F000A38CE70003C7570109E71307D002A38ABA
:10060000E70003C7840109E71307C003238CE70051
:100610009C5791C78297B72700202392A7AC6533D8
:100620008147B240224492443E85410182808947FD
:100630003E858280B727002083A787B5011106CEAB
:1006400022CC26CA4AC84EC6829793070064B335A7
:10065000F502372900201304C9AB8359840281466F
:100660004E863305F502EFE01158004CAA8401458F
:10067000630494021309C9AB33858440636C94000E
:100680004E868146370500B09305E041EFE0B15555
:10069000018D2695232C9900F2406244D2444249B0
:1006A000B24905618280011122CC2E84B705070072
:1006B0000A8541469385458306CEEFF0410C180824
:1006C00006043A94B7270020035504FF83D767AE8A
:1006D000F2406244AA9737450F00130505243355AD
:1006E000F50205618280B727002083D767AE5147A6
:1006F0001D45637CF702794719456378F7021307B4
:10070000200315456373F7021307B0041145637E98
:10071000F700130740060D456379F70013076009DA
:1007200009456374F70013B5B70F8280011122CC1D
:1007300006CE2A842EC6EFF08FEAB245F240818DB4
:1007400033A5A502229562441375F50F05618280D9
:10075000011122CC06CE2A842EC6EFF04FE8B24516
:10076000F240818D33A5A502229562444205418164
:1007700005618280011122CC06CE2A842EC6EFF0BC
:100780000FE6B245F240818D33B5A5022295624451
:1007900005618280B7270020138747B118572DC302
:1007A000411122C426C24AC006C6138947B1029726
:1007B000B72700201387C7AB035787002A84938489
:1007C000C7AB0DCBBA876373A700AA87C207C183E3
:1007D000BA866373E400A286C206C182958F514730
:1007E000635AF7008327C90291C38297EF70510AB9
:1007F00023948400B2402244924402494101828001
:100800008280B7270020138747B15857011122CCA7
:1008100006CE138447B101C72AC602973245B727CF
:1008200000209387C7AB3727002015C1B786320059
:10083000938626A194D7232CA7B43705050013056A
:100840004563813EF24062440145056182808346F2
:10085000640113968601618663550602B7863200ED
:10086000938626A123AE070094D7B7C70040FD5654
:1008700023A4D726B70700209387C75D232CF7B49E
:100880006DBF13F6160019CAB7862003938606D0EB
:1008900094D7B70700209387E760CDB7617623949C
:1008A000C70291C6930600322395D702DDB793069F
:1008B0002003DDBF011122CC37240020930744B16F
:1008C000884706CE26CA4AC801E90545F240624477
:1008D000D244424905618280130444B15C58F5D783
:1008E000185C65D77000854582971844B247E30EBF
:1008F000F7FC0355C4009305E004B724002097F0EB
:10090000FA1FE78020741387C4AB08D39384C4AB69
:100910004DDD0356C4009305F00F01499700FB1FFE
:10092000E780808F8347E4009050634DF900328563
:1009300097F0FA1FE780407D014523A0040223A21F
:10094000040269B78355C4000844185CB3872503C3
:10095000898105093E9508C20297E9B7411122C471
:1009600037240020930744B19C4726C206C6B7240B
:1009700000204AC09384C4AB91EB88503DE1B24063
:10098000224492440249014541018280130444B14A
:100990001C5CE5D79C5091EB0355C4009305E00423
:1009A00097F0FA1FE780006A88D0885079D50356FF
:1009B000C4009305F00F01499700FB1FE780C08535
:1009C0008347E4009050E35AF9FA8355C4001C446D
:1009D00033852503898105093E951C5C08C28297F1
:1009E000C5B797F0FA1FE780207223A0040223A264
:1009F000040271B701114EC6B7290020938749B18F
:100A00009C4726CA4AC852C406CE22CC56C25AC0F7
:100A10002A8AAE843289638C071E938949B103A761
:100A20004903630207127D476361A7123724002040
:100A30001307C4AB832A07021304C4AB639A0A08E2
:100A400003D5C9009565938515E097F0FA1FE780F7
:100A5000605F08D02A8665C983D5C90083A749038A
:100A600003A589008981829783A78900832A0402CC
:100A70005CD089476316FA08C1476396F40C83D5A6
:100A8000C9009147938505FCB3C5F5028A05D69543
:100A900003C705009307A0056313F70A83C7150072
:100AA000639F47094A852686910597F0FA1FE780DC
:100AB00020731C505685639357130145F2406244DE
:100AC000D2444249B249224A924A024B056182808D
:100AD0005850E380E7FA03D5C9009565938525E072
:100AE00097F0FA1FE7800056AA8A31CD83D5C90056
:100AF0002A8683A7490303A589008981829795BF28
:100B00008D47631BFA00C147639FF40283D5C90078
:100B1000938545FDF199A5BF91476318FA00639449
:100B2000440383D5C900A115F5B7C147631DFA0079
:100B3000A14763EA970083D5C900C115E1BF1C50E6
:100B400056856391570D294595BF1307F006636CD1
:100B5000A708930A05FE1947B3CAEA0203D7C900DA
:100B6000372B0020B38AEA02BE9A9307CBABDC5343
:100B7000130BCBAB6395570103240B021DE003D588
:100B8000C9009305E00497F0FA1FE780A04B2A8480
:100B90005DD983D5C90083A749032A8689815685F3
:100BA000829791451307A005898193972500A29705
:100BB00083C607006393E60483C61700639C46035D
:100BC00085058A052686A2954A8597F0FA1FE78053
:100BD000206183270B02E38287EE228597F0FA1FBC
:100BE000E7808052D9BD1307E007E36EA7F4930AAC
:100BF00005F9ADB783D5270045BF83270B02E384F2
:100C000087F4228597F0FA1FE78000502DBFB727A1
:100C1000002083A5C7AD85D991479306A005898398
:100C2000139727002E9703460700E31ED6F00346CE
:100C30001700631C460185078A072686BE954A85EC
:100C400097F0FA1FE780C0598DBD83572700C1BFB9
:100C5000B7270020938747B1984729C3985F1DCFD6
:100C60008546631DD502411122C437240020130498
:100C7000C4AB105006C619CE83D5C7004850898131
:100C80000297085097F0FA1FE780004823200402DB
:100C900023220402B2402244410182808280011159
:100CA00022CC37240020930744B156C283AA870080
:100CB00026CA4AC84EC606CE52C42A89AE84B28914
:100CC000130444B1638B0A1C1C5C99EB2945F24068
:100CD0006244D2444249B249224A924A0561828022
:100CE0005C58EDD7FD4763E7A70C372A0020930730
:100CF000CAAB9C53130ACAABB9C7084483274A023C
:100D0000639FA70489476317F906C147E390F4FC82
:100D10000355C4009147130505FC3345F5029317AD
:100D2000250003250A022686CE853E959307A00559
:100D30002300F500A3002501110597F0FA1FE780B5
:100D4000204A014569B70355C4009305E00497F0B4
:100D5000FA1FE780202F2320AA0245F185BF835583
:100D6000C4005C5803260A02898182971C4423220E
:100D7000FA0249BF8D47631CF900C147E398F4F4B8
:100D80000355C400130545FD9377C5FF59BF91472F
:100D90006318F900E39C24F30355C4002115EDB753
:100DA000C147E315F9F2A147E3E297F20355C40006
:100DB0004115D9BF9307F00663E9A706930705FE1F
:100DC0001947B3C7E7020357C400372A0020B38787
:100DD000E702BE9A9307CAAB9C53130ACAABA9CFCA
:100DE00083274A026396570703250A029146130890
:100DF000A005FD5593D72600C207C183139727008E
:100E00002A97034607006314060783481700035612
:100E10002700639C2805B306D64063C69604850761
:100E20008A072686CE853E9509BF9307E007E3EF44
:100E3000A7E8930705F941BF0355C4009305E004F3
:100E400097F0FA1FE78000202320AA0251F9BDBDC8
:100E50008355C4005C5803260A028981568582970F
:100E600023225A0351B7A300B700B28661B70356D5
:100E7000C400B38596009105130606FCE3F8C5E4AB
:100E8000138634001376C60F1106B29623000701AD
:100E9000A30027012311D70059B7372A0020930751
:100EA000CAAB9C53130ACAABA1C303250A029146DD
:100EB0001308A005FD5593D72600C207C1831397D9
:100EC00027002A9703460700631206058348170088
:100ED0000356270063982801B306D640E3D196F461
:100EE000A300B700B286C1BF0345E4008357C40026
:100EF0009305E0043305F5024205418197F0FA1F9E
:100F0000E78040142320AA024DF1C9B30356C40060
:100F10008345E400B385C502338696001106E3E7F6
:100F2000C5DAB9BF0145828083C705002300F500FB
:100F300083D72500A300F50083D72500A1832301D3
:100F4000F50083C74500A301F50011458280B7274E
:100F5000002023AA0792B727002023A807928280A7
:100F600029C1411126C206C622C4AA8401458DC5E5
:100F70002E84B7050700228541469385458497F066
:100F8000FA1FE780E02583C7040005452306F40027
:100F900083C71400A306F400B240224492444101E6
:100FA000828001458280011122CC26CA06CE0947E3
:100FB000AA8432846381E50441468147639BC5006E
:100FC000638FE6006397B6000DA841478147638EA3
:100FD000E600F2406244D2443E85056182808A8503
:100FE0002285BD3F41468A8519A88A85953F41469D
:100FF0008A85228531A0E39AB6FC2E86A2852685B5
:1010000097F0FA1FE780A026AA87E1B7B72700204C
:1010100023A8A7928280B727002023AAA7928280C4
:10102000011122CC0354650006CE26CA4AC84EC61A
:1010300041C083298500AE842A8803C909008147FD
:1010400013178901618763550702B147054563FAA4
:1010500087045114420403552800418033878900D6
:10106000A2864E868545EFB0105DB337A000850798
:101070007D1413556900420405891379F9034180F1
:101080002380F400A380A400238124012392840000
:10109000014719C01387190098C409476383E70003
:1010A0000145F2406244D2444249B249056182801E
:1010B0000545C5BFC167F917630AF502D94763F74C
:1010C000B702011122CC2EC606CE2A84EF906029E9
:1010D000B2456368B50022856244F24005616FA0A5
:1010E000304BF240624405450561828005458280AF
:1010F000C167F9176314F5006F90A026411106C669
:10110000EFA0D03711E15D45B240410182809147A7
:101110006394F502834705002300F600834725000A
:1011200003471500A207D98F2311F6008347350026
:1011300001452302F60082801145828041118145DC
:1011400022C426C206C6AA8405252A8409E9B7272F
:10115000002083A7079381C7F945268582972285BA
:10116000B240224492444101828039714ED656D217
:101170005AD006DE22DC26DA4AD852D4AA8A2E8B2E
:10118000B28941EF36C6AD379145EF90402FAA8422
:101190004D492DC9B246054A238034010544630AEE
:1011A0000B00B68513851400029B05051314050179
:1011B0004180E20993D9894163D30902C14556852B
:1011C000EFA0103A654905E933868400A28526859B
:1011D000EFB030192A8905E131044204418091477A
:1011E0002C085685231CF10026CE231D8100EFA07C
:1011F00020402A8901C963070A00268597F0FA1F53
:10120000E78080F0F25062544A85D2544259B25974
:10121000225A925A025B21618280BA84014AADBF90
:10122000011122CC26CA4AC84EC606CE2A8932846B
:10123000B689253FAA840DE1B727002083A74793ED
:1012400081CF05476317E40003C409000504137444
:10125000F40FA2854A858297F2406244268542496E
:10126000D244B24905618280AE86B71505000147B8
:101270000546938585F26DB783D705002300F500F9
:1012800083D70500A183A300F5000945828083D799
:1012900005002300F50083D70500A183A300F50016
:1012A00083D725002301F50083D72500A183A3015F
:1012B000F5001145828083D705002300F50083D710
:1012C0000500A183A300F50083D725002301F500C5
:1012D00083D72500A183A301F50083C7550023020E
:1012E000F50083C76500A302F50003D58500190545
:1012F00042054181828083D705002300F50083D712
:101300000500A183A300F5000945828083D705006D
:101310002300F50083D70500A183A300F50083D740
:1013200025002301F50083D72500A183A301F50043
:101330001145828003D54500060542054181828022
:1013400083D705002300F50083D70500A183A30000
:10135000F50003D52500090542054181828083D728
:1013600005002300F50083D70500A183A300F50045
:1013700083D725002301F50083D72500A183A3018E
:10138000F50003D54500110542054181828083C7E0
:1013900005002300F5000545828083D70500411133
:1013A00022C406C62300F50083D705002E8411054C
:1013B000A183A30EF5FE83D725009505230FF5FE27
:1013C00083D7D5FFA183A30FF5FE03C6F5FF97F0E2
:1013D000FA1FE780E0E003454400B24022441105D3
:1013E000410182808947639CF500834715000347CC
:1013F00005000145A207D98F2310F6008280114510
:10140000828003D70500D94763FEE702011122CC91
:1014100006CE2EC62A84EF80D074B24683D706004B
:10142000636DF50022856244F240B715050001475F
:1014300009469385852705610DBBF2406244094545
:10144000056182800945828091479DC583460500DC
:10145000FD15C2058547C1816392F60213D72500A9
:101460008D89914791E9914701CB05052301D6006C
:101470002310E60048C281473E8582800947914794
:10148000E39CE6FEC94733D7F502B3F5F502D1BFB9
:10149000AE86B7150500014711469385E528F1B1E1
:1014A00093F7350091EB8981914789C52310B600E8
:1014B00048C281473E8582809147EDBF03C7450002
:1014C0008947631AF702011122CC2A84C84506CE47
:1014D000AE86014719C52EC69D45EFE08FE4B246A2
:1014E0002A8722856244F240B71505001946938584
:1014F000652B05619DB90945828099E1114582807E
:101500008347050005472311F600E379F7FEFD1533
:1015100093F5F50F33D7F502B387E702E390F5FEB5
:10152000050548C22310E6000145828083C74500B7
:101530000947AE866385E70041476399E700B71521
:101540000500014721469385A53905B109458280EB
:101550002310B60091E1014548C201458280AE8664
:10156000B7150500014729469385652FFDBE231059
:10157000B60091E1014548C201458280AE86B715AB
:101580000500014731469385C530C5B62310B60026
:1015900091E1014548C20145828003D74500854756
:1015A00063FDE702011122CC2A84884106CE0DC1D9
:1015B0002EC68545EFE0EFD62A8722856244B246E3
:1015C000F240B7150500394693854533056171BE74
:1015D000F240624409450561828009458280914755
:1015E0009DC5034705008D46914763F2E602FD1550
:1015F000C205C181B3C6E5023308D702639905016C
:1016000005052310D6002311E60048C281473E8518
:10161000828083C745000947AE866385E70041475E
:101620006399E700B7150500014741469385A53941
:101630002DBE09458280B335B00013952500828008
:10164000011122CC26CA06CE03C785008547AA848D
:101650002E8449466310F702613C835724004915E4
:101660001306200963C8A700F2406244D24409452A
:10167000056182800347940085476314F700136671
:101680000604484011C58D4532C6EFE08FC9324689
:10169000A2866244F2402A872685D244B715050007
:1016A000938505340561D1B48D4763FFB702834745
:1016B000150003470500F115A207D98F2310F60086
:1016C0008347350003472500C205A207C181D98F92
:1016D0002311F6002312B60089C5110508C601457D
:1016E000828023240600E5BF11458280011122CCAF
:1016F0002A84884506CEAE8611C52EC69545EFE0F4
:101700004FC2B2462A8722856244F240B7150500CF
:1017100059469385E535056189BCB335B00013950D
:1017200025008280AE86B715050001476146938586
:10173000E53825BC8547114563F4D7028347160079
:1017400083450600A207CD8F2310F7009387E6FF9D
:101750002311F70089476386F600090650C3014547
:10176000828023220700E5BF0147814679468145F3
:10177000EDBA83D705002300F50083D70500A183C8
:10178000A300F5000945828083C725000547230093
:10179000F50003D505006397E7000A050505420536
:1017A00041818280C9473305F502CDBF03D50500CD
:1017B0000A0542054181828083D725002300F50078
:1017C00003D5050083D725003305F502050542053D
:1017D0004181828003D50500828003D50500828087
:1017E00003D50500828083D725002300F50003D5AB
:1017F000050083D725003305F50205054205418123
:10180000828083D705002300F50083D70500A183DC
:10181000A300F50083D725002301F50083D7250019
:10182000A183A301F50003D54500110542054181BF
:10183000828083D705002300F50083D70500A183AC
:10184000A300F50003D525000905420541818280EA
:1018500089471145639BF6008347160083460600BF
:101860000145A207D58F2310F700828003D705001A
:10187000D947AE8663F9E700B715050001470D4665
:101880009385257771BA0945828011456393A60235
:1018900083471600834606000145A207D58F231013
:1018A000F7008347360083462600A207D58F231111
:1018B000F700828083C725000547FD1793F7F70FD0
:1018C0006361F70483D705008DCF011122CC2A84F0
:1018D000C84106CE15C12EC68945EFE08FA42A87E0
:1018E00022856244B246F240B7150500154693853D
:1018F000857805616FF0DF92F24062440945056129
:101900008280094582809547114563F9D7064111C8
:1019100022C426C24AC006C683471600BA840347BB
:101920000600A2073284D98F2390F4008347360043
:101930000347260093054400A207D98F2391F400A2
:1019400089472382F400094613855400368997F0AD
:10195000FA1FE780E0889307A9FF2394F4009947D2
:10196000631BF90023A60400B240224492440249BA
:101970000145410182801904C0C4FDB7828083D72C
:1019800005008DCF011122CC2A84C84106CE15C195
:101990002EC68545EFE0EF982A8722856244B2463D
:1019A000F240B71505001D469385C57A05616FF0B5
:1019B0003F87F24062440945056182800945828083
:1019C00099476395F6048947411106C62302F7003B
:1019D0008347160083460600B285A207D58F2310E1
:1019E000F700834736008346260003464700A207D8
:1019F000D58F130557002311F700910597E0FA1FC3
:101A0000E780007EB240014541018280D147114507
:101A10006394F600C1474DBF828083D705008DCF08
:101A2000011122CC2A84C84106CE15C12EC6894593
:101A3000EFE02F8F2A8722856244B246F240B71525
:101A4000050025469385857B05616FF06FFDF240AB
:101A500062440945056182800945828089471145B4
:101A6000639BF60083471600834606000145A207E4
:101A7000D58F2310F7008280011122CC2A84C8411F
:101A800006CEAE86014719C52EC68545EFE06F89A3
:101A9000B2462A8722856244F240B71505002D46DA
:101AA0009385457D05616FF0AFF711456393A602FD
:101AB00083471600834606000145A207D58F2310F1
:101AC000F7008347360083462600A207D58F2311EF
:101AD000F7008280011122CC2A84C84106CEAE864E
:101AE00011C52EC68545EFE0CF83B2462A872285F1
:101AF0006244F240B715050035469385A57D056122
:101B00006FF00FF293F71600114589EB8947638751
:101B1000F60085822312D70010C30145828001118F
:101B200022CC2A84C84106CE15C12EC68545EFD0E9
:101B30005FFF2A8722856244B246F240B71505004E
:101B40003D469385057E05616FF08FEDF24062445E
:101B500009450561828083D705008DCF011122CC14
:101B60002A84C84106CE15C12EC68945EFD07FFB19
:101B70002A8722856244B246F240B71505004546E1
:101B80009385657E05616FF0AFE9F24062440945D7
:101B90000561828009458280854763FCD702230462
:101BA000A700A304B7008347160083450600A207D9
:101BB000CD8F2310F7009387E6FF2311F7008947A5
:101BC0006386F600090650C3014582802322070080
:101BD000E5BF11458280014781464D4681456FF042
:101BE0002FE48D47114563FBD702834716008345D9
:101BF0000600A207CD8F2310F700834736008345E8
:101C00002600A207CD8F2311F7009387C6FF23126A
:101C1000F7006386A600110610C7014582802324C1
:101C20000700E5BF011122CC2A84884506CEAE8686
:101C300011C52EC69545EFD0DFEEB2462A87228524
:101C40006244F240B72505005D4693852580056115
:101C50006FF00FDD854711456397F6008347060057
:101C600001452300F7008280014781466546814592
:101C70006FF00FDB011122CC2A84C84106CEAE865C
:101C8000014719C52EC68D45EFD0BFE9B2462A8758
:101C900022856244F240B72505006D469385258371
:101CA00005616FF08FCC011122CC2A84C84106CE89
:101CB000AE86014719C52EC68D45EFD09FE6B246C8
:101CC0002A8722856244F240B72505007546938530
:101CD000258305616FF06FC9011106CE2EC6EF9006
:101CE000107601C9B245F2400355250005616FD059
:101CF000B076F240494505618280B7270020A38075
:101D00000796B727002023800796B727002023A433
:101D10000794B727002023A60794B727002023A8FD
:101D20000794B727002023AA0794B727002023A2EF
:101D30000794B727002023A00794B7270020239EED
:101D400007B6130640389387C7B72391C702717649
:101D50001307400B130606B82391E7002392C7022E
:101D600011671D46930600059305000A1305007DC3
:101D70002392E7002393C70241470546130810F852
:101D80002395E7002396E7002399E700239AE700CD
:101D9000239BE700239CE7002394E7022396070395
:101DA0002393B7002394B7002397D7002398D70035
:101DB000239DA700239E0700239F0700239007026F
:101DC0002395C702239707021308F00723980702F9
:101DD0002392E7042393E704239FE7042390E70675
:101DE0002391E7062392E706239907031307C01CF4
:101DF000239AC702239BC702239C0702239D070245
:101E0000239E0702239F0702239007042391C70400
:101E100023940704239507042396C7042397D70424
:101E20002398D7042399A704239A0704239B070424
:101E3000239C0704239DD704239ED7042393A7063E
:101E40002394070623950706239607062397B706CC
:101E50002398B70623990706239AE7067D57239B05
:101E60000706239CE7068280011126CAAA84214521
:101E700022CC06CE2E8432C636C43AC2EFD09FD2D0
:101E80001DC9A24612473246930700FD2300F50004
:101E90009947A30095002301F5002303D500A30370
:101EA000E5002312C500AA8522856244F240D2448F
:101EB00005616FD03FDAF2406244D244056182800E
:101EC000B727002023A4A7948280B727002023A649
:101ED000A7948280B727002023A8A7948280B727E1
:101EE000002023AAA7948280011122CC4AC806CEE2
:101EF00026CA2A890144B30489006368B400F24009
:101F00006244D2444249056182802EC6EFD03FED43
:101F100093170501C183A183B2452380F400930781
:101F2000140093F7F70F850463F9B700CA97090403
:101F30002380A7001374F40F7DBF3E847DBF411141
:101F400022C4372400201304C4B503556400C167BC
:101F500006C6FD17630FF500B727002003C6C7C9E3
:101F6000B725002093858595EF90702BFD5723139F
:101F7000F400B24022444101828009C9251513753D
:101F8000F50F1335850E13451500828001458280BB
:101F900023900500C9C6797122D426D24ECE52CCE8
:101FA0005AC806D64AD056CA5EC63684328AAE8928
:101FB0002A8B814463F34407B307940083C7070067
:101FC000138914004209939A070193DA0A011359FD
:101FD000090163840A04CA976341FA04B307240120
:101FE00083CB07005E85513F0DC99387FAFF23908D
:101FF000F90063906B03130519002295B250225427
:1020000092540259F249624AD24A424BB24B45615C
:102010008280D694C204C18071BF0145C5B7014515
:102020008280011122CC3724002026CA4AC84EC61D
:102030009307C4B506CE2E89D0CB8CCBC8C7AA8453
:1020400041469305F00F4A8597E0FA1FE780C026C6
:1020500085491304C4B5631935030848C14569357A
:1020600041469305F00F268597E0FA1FE780C024CC
:1020700005496315250348446244F240D24442496D
:10208000B249C14505618DB5414681454A8597E014
:10209000FA1FE7806022E31535FDC1B7414681454F
:1020A000268597E0FA1FE7802021E30625FDF24010
:1020B0006244D2444249B24905618280411122C43E
:1020C0003724002026C24AC0AE842A8913060002A3
:1020D00081451305C4B506C697E0FA1FE780C01313
:1020E0009307C4B5A3812701B7270020238097CA8F
:1020F000EFD0D038854719C181474945230EF4B444
:10210000B24022449244024941018280814781CDFC
:1021100019C98547631BF50083C7550093E707FC82
:10212000A382F50085473E85828089476317F500C5
:1021300083C7550093F7F703E5B70D478547E314C9
:10214000E5FE03C755001377F70313670704A3825F
:10215000E500D1BF81478DC105C103C75500930676
:10216000000C85471377070C6308D700930600041B
:102170008D476303D70089473E858280411122C481
:10218000005D06C626C21DC8AA84085009C597E08E
:10219000FA1FE78060F7485009C597E0FA1FE7800B
:1021A000A0F6085409C597E0FA1FE780E0F52285FC
:1021B00097E0FA1FE78040F523AC0402B2402244C6
:1021C00092444101828019E9B727002083C7E7B50F
:1021D00091C737250020130585938280372500207D
:1021E000130545B78280B727002003C5E7B5828075
:1021F000B727002003A587B68280B727002003A554
:10220000C7B68280B727002083A707B7884382809C
:10221000B72700209387C7B5D44B9842050798C2CB
:1022200003C537009307F00F6305F50091656FD084
:10223000BFD48280011122CC06CE2E8432C6EF900C
:10224000B0309147B2456310F502B727002083A74D
:10225000479595C303A30700630F030022856244DB
:10226000F24005610283B727002083A7C79481C786
:1022700003A34700D5B7F24062440545056182805B
:10228000011122CC2A840355450006CE26CA4AC82D
:102290004EC6EF9090093DC92A89834405008349C1
:1022A000C500E93D4A85EF90506903554400EF9021
:1022B000F024372900201309099683470900B9CB78
:1022C000639A9704B727002083C51796268529347B
:1022D00019E12300090003554400EF90F0269147CF
:1022E000631FF500B72700209387C7B583564400C6
:1022F00003D767006395E6007D572393E700F2401C
:102300006244D2444249B2490561828081499304C2
:10231000F00F45B79307F00FE38FF4FA834664009C
:1023200003564400034524004E87A685353E65B715
:1023300079715EC6AA8B2E8552CC56CA5AC806D66B
:1023400022D426D24AD04ECEAE8A328B368AEF9035
:10235000C07D7DC1045D2A89E5C09C50614599C35B
:10236000130540039C5481C7510542054181630513
:102370000A00710542054181DC5081C759054205BB
:102380004181EFD03F822A8445C96146814597E06B
:10239000FA1FE78060E8B727002083C9C7BA6394B3
:1023A000090083490900930700FD2300F400A947B1
:1023B000A30074012301F400230364018C50231251
:1023C00054011305840191C908C47146930A44035A
:1023D00097E0FA1FE780C0E056858C5491C948C445
:1023E0005146930A450197E0FA1FE78060DF568562
:1023F000630C0A0008C87146D285930AC50197E0AC
:10240000FA1FE780E0DD5685CC5099C548C859468B
:1024100097E0FA1FE780C0DCA2854E85EFD09F834E
:102420002254B2509254F249624AD24A424BB24BC1
:102430004A850259456199B3B250225492540259C7
:10244000F249624AD24A424BB24B45618280011145
:102450004EC6AA892E854AC806CE22CC26CA2E8907
:10246000EF90A06C21C9B727002083C4C7BA99E0B8
:10247000834405001945EFD0EFF22A8405CD81454C
:10248000194697E0FA1FE78020D9930700FD230043
:10249000F400B947A30034012301F40023122401FE
:1024A000A2856244F2404249B2492685D244056180
:1024B0006FD04FFAF2406244D2444249B2490561BA
:1024C000828039715ECEAA8B2E8526DA4ED652D402
:1024D00056D25AD006DE22DC4AD8AE84328BB68A77
:1024E0003A8ABE8942C6EF90406421CD2A8941458F
:1024F000EFD04FEB2A8431C54146814597E0FA1F62
:10250000E78080D1B727002003C5C7BA19E103458A
:102510000900930700FD2300F400BD472301F400E8
:10252000B247A30074012312940023046401A3049E
:10253000540123054401A30534015CC4A285EFD0F6
:102540006FF1F2506254D2544259B259225A925AFF
:10255000025BF24B21618280797126D2AA843945CF
:102560004AD04ECE06D622D42EC6B2893689EFD0B6
:102570006FE321C1B2459307000D2310F500B14769
:102580002A842312B5002301F500CE8519051946CA
:1025900097E0FA1FE780C0C423062401A2852254D5
:1025A000B2500259F24913F5F40F925445616FD0BD
:1025B0006FEAB250225492540259F2494561828026
:1025C000411126C2B72400209384C4B503C7340048
:1025D00006C622C44AC09307F00F630CF7042A8989
:1025E0003945EFD02FDC2A8429C5930700FDB72594
:1025F00000202300F500A300250123010500938599
:1026000045B70D05194697E0FA1FE78060BD83D7EF
:102610008400A28503C534002315F40083C7140089
:102620002306F4002244B2409244024941016FD093
:102630006FE2B2402244924402494101828001117A
:102640005AC02A8B314526CA4EC652C456C206CE3F
:1026500022CC4AC8AE84B28A368ABA89EFD08FD4E7
:102660003DCD2A842685EF90404C11C50347C50017
:10267000A1476314F704B727002003C9F7B59307F0
:1026800000FD2300F4009D47A30064012301F40032
:1026900023129400231354012314440123153401FD
:1026A000A2856244F240D244B249224A924A024B85
:1026B0004A85424905616FD0EFD9B727002003C989
:1026C00017CAE31E0BFAB727002083A787A19C47F0
:1026D000DDD7CE865286D685268582974DB7F240C5
:1026E0006244D2444249B249224A924A024B0561AD
:1026F0008280011122CC2A84214506CE2EC6EFD03D
:102700006FCA21C1B245930700FD2300F500C547FC
:102710002301F50083C73500A301F50083D74500E9
:102720002312F50083C765002303F50083C77500F6
:10273000AA85A303F50022856244F24005616FD0AB
:102740006FD1F240624405618280397162CC2A8C7B
:10275000594526DA4AD84ED652D456D25AD05ECEF1
:1027600006DE22DCAE8432C636C4BA8B3E8BC28A09
:10277000468A8359010403494104EFD0AFC225C9F9
:102780003246930700FDA2462300F5009547A301BA
:10279000C500A30085012301F5002A84194611050F
:1027A000A9C2B68597E0FA1FE78080A323066401DB
:1027B000230A24012315740123175401231844010B
:1027C00023193401A2856254F2504259B259225A57
:1027D000925A025BF24B624C2685D25421616FD033
:1027E0006FC7814597E0FA1FE78000A3C1B7F25099
:1027F0006254D2544259B259225A925A025BF24B55
:10280000624C21618280411122C4372400201304CC
:10281000C4B58347240006C626C28DCBB72400204A
:10282000AA8519461385849397E0FA1FE780409B99
:102830000345240093858493EFF05F8D2244B240DA
:1028400013858493924441016FD00044B2402244E6
:102850009244014541018280411126C2B7240020E3
:102860009387C4B506C622C44AC003C7370093077E
:10287000F00F9384C4B56304F7042A892945EFD087
:102880006FB22A840DCD930700FD2300F500A14708
:10289000A30025012301F50083C72400B7250020EC
:1028A00093858593A301F5001946110597E0FA1F5A
:1028B000E780009303C53400A285EFD0AFB903C70A
:1028C00024008D476311F702B727002083A70795DF
:1028D00099CB03A38700630803002244B2409244CB
:1028E000024941010283B24022449244024941011B
:1028F0008280797122D406D626D24AD04ECE52CCCE
:1029000056CA09445DCD2A8903550500AE89514454
:10291000EF90A021AA8455C5372700209307C7C987
:1029200083C747008546BA8AFD1793F7F70F4944D6
:1029300063F9F6080347C500A1476314F7006392E3
:1029400009089C5C4544B5EF916593854571130575
:10295000C00297D0FA1FE780E06E88DC2A8A4D44D7
:102960002DC11306C002814597E0FA1FE780C08A97
:102970008357090093064A0036852311FA007146F1
:102980009305490036C697E0FA1FE78060858947BE
:102990002300FA0003C5C400B2460356090083C5EC
:1029A000CAC9611513351500EFA0C03C2A8463869F
:1029B0000900CE852685EF90F02701C42685EFF02B
:1029C000EFFB2285B250225492540259F249624AD6
:1029D000D24A45618280B727002083C707CA0547CE
:1029E000FD1793F7F70F637AF708894741CA01117A
:1029F00022CC26CA4AC84EC652C406CEAA89368AF6
:102A0000B2842E89EF9060122A84D14739C9485583
:102A100009C597D0FA1FE780206FF145268597E01A
:102A2000FA1FE780C08148D4CD4705CD8346C40056
:102A300021478147639FE600630D0A000347A50114
:102A40000356050193062501AA854E85EF90302691
:102A5000AA8703474400630F090013676700230236
:102A6000E400F2406244D2444249B249224A3E85DF
:102A70000561828013674700DDB7C9473E858280C4
:102A80009307B00363EBA700B72700209387C7B76E
:102A900006053E9503550500828041657D158280BF
:102AA000011122CC2A842E8526CA06CEAE84EF9050
:102AB000C0071DCDB7470F009387F723094563E48F
:102AC000870281450A85414697D0FA1FE780C07486
:102AD000A685231081000A85418023018100A3017E
:102AE0000100EFA06016F2406244D244056182808A
:102AF0004945D5BFB7270020238FA7C882806FA084
:102B00008021797152CC2A8A328522D426D24AD0A9
:102B10004ECE56CA5AC85EC606D662C4AE8BB28ABC
:102B2000368BBA843E89C2894684EF90000015C96D
:102B30002A8C63140A0213774B008347450015CF94
:102B400093E727012302FC008DEC631C0902639AC2
:102B5000090205E8ED9B2302FC00832B8C036391A3
:102B60000B08B250225492540259F249624AD24A96
:102B7000424BB24B224C45618280F59B93E70701A3
:102B8000D1B793E747002302FC0001CC1C48414623
:102B9000A2852324FC0213058C0197D0FA1FE7803D
:102BA000206463930B02D5D80325CC0209C597D0C6
:102BB000FA1FE7806055F145268597D0FA1FE78018
:102BC00000682326AC0251BFE30909F80325CC02B3
:102BD00009C597D0FA1FE7802053F1454A85F1BF18
:102BE0009DC483A70B0299EB91659385357171455F
:102BF00097D0FA1FE780004523A0AB0203A50B0284
:102C000019C57146A68597D0FA1FE780605D638875
:102C1000090283A74B0299EB91659385257159456C
:102C200097D0FA1FE780004223A2AB0203A54B0214
:102C300019C55946CE8597D0FA1FE780605A1DC442
:102C400083A78B0299EB916593851571514597D0B8
:102C5000FA1FE780203F23A4AB0203A58B0219C50E
:102C60005146A28597D0FA1FE78080572254B25070
:102C70009254F249B24B224CCA865A860259424BB0
:102C8000D6855285D24A624A45616FF06FEA0111DA
:102C900026CA52C406CE22CC4AC84EC62A8AAE8460
:102CA000EF80B06825C5AA893945EFC0BFEF2A84F7
:102CB00031CDB727002003C9C7BA6314090003C97F
:102CC00009009307000D2310F400AD472301F40021
:102CD0009385690013053400194697D0FA1FE780E1
:102CE000205093F71400858085882306F400A306FE
:102CF000940023154401A2856244F240D244B249B3
:102D0000224A4A85424905616FC0DFF4F2406244BD
:102D1000D2444249B249224A0561828001114EC61D
:102D200052C456C206CE22CC26CA4AC8AA8A2E8AC5
:102D3000B289EF80905F2DCD2A891305C002EFC0C4
:102D40007FE62A8435C5B727002083C4C7BA99E037
:102D5000834409009307000D2310F400E947230181
:102D6000F4009305690013053400194697D0FA1F43
:102D7000E7800047D285231554011305C40041465E
:102D800097D0FA1FE780C045CE851305C4014146A0
:102D900097D0FA1FE780C044A2856244F2404249BE
:102DA000B249224A924A2685D24405616FC09FEA01
:102DB000F2406244D2444249B249224A924A0561F1
:102DC0008280411122C43724002013040494084057
:102DD00006C619C597D0FA1FE780003323200400E8
:102DE000B240224441018280011106CE22CC26CA83
:102DF0004AC82EC6EF80705339CDB245B7270020A0
:102E000003C9C7BA0CD5AA84631409000349050095
:102E10004145EFC03FD92A841DCD9307000D2310F3
:102E2000F500A5472301F50083C75400938564008E
:102E30001105A30FF5FE194697D0FA1FE780403A17
:102E40009C54A285F2405CC46244D2444A85424903
:102E500005616FC03FE0F2406244D24442490561DF
:102E600082801D71A2CC86CE2A842EC6EF80F04BC4
:102E700005CD8346C5001147AA8749456392E602FE
:102E80009C5FB24599C383C56701B7E60500230877
:102E9000B100938646D3100889452285EF904050B3
:102EA000F6406644256182805145DDBFB72700208A
:102EB00083C707CA0547FD1793F7F70F637AF7042F
:102EC000894721CA411122C426C24AC006C6B2841B
:102ED0002E89EF8090452A84D14705C563080900F3
:102EE0008347450093E727002302F5004146A68566
:102EF0001305840197D0FA1FE780802E9C481CD4CC
:102F00008147B2402244924402493E854101828079
:102F1000C9473E858280797122D406D62A842EC67E
:102F2000EF80B04001CDB2452285230EB1006C0880
:102F3000EF90C04CB2502254456182805145DDBFB4
:102F40006F805055C1671387E7FF6395E502B72788
:102F5000002083A7C79491EB494582804945B24040
:102F60002244924402494101828003A30700E30501
:102F700003FE0283411122C426C24AC006C6FD17C1
:102F80002A892E84B284639AF502B727002083A78A
:102F9000C79491CF9C4381CF829711E9B727002036
:102FA00023802797B7270020A38097964DBFA6853B
:102FB0004A85EFE07FD245F5D5B72E85EF80F03614
:102FC00051DD834705000D45E39B27F92285224407
:102FD000B2400249A685924441016FC0F0471307F1
:102FE000B0036360A7064111C16722C406C626C2AA
:102FF000FD172A8409456382F502C547AE84631331
:10300000F4022E85EFC0104D372500201305C5B7FB
:1030100006042A94231094000145B24022449244AD
:10302000410182809307A0036316F4002E85EFC050
:103030007043D9BFE31AE4FC13F5F50FEFC0D0429B
:10304000E1B709458280011106CE2AC6EFE0FFCA2A
:10305000EF20806EEF10F01DEFB07150B727002009
:103060009387C7B5130700F02391E7002382070079
:10307000B727002032451387C7C9FD562301D70063
:10308000F240238EA7C8954505616F70A03959712C
:1030900093970501CAD086D6A2D4A6D2CECED2CCE2
:1030A000D6CADAC8DEC6E2C4E6C2EAC06EDEC187AE
:1030B0002E8963D60754B724002003C5C4C9B72995
:1030C0000020372B0020EFC05FB22A8426CEB72A1B
:1030D0000020372C00209384C9B5B72C00201DE0B8
:1030E00021653345A900B650265496540659F64931
:1030F000664AD64A464BB64B264C964C064DF25D78
:1031000065618280834704001307200A639CE700FF
:1031100003CA340003552400C1652286FD15EFF073
:103120006F918DA272471307C7C9034A270013077F
:1031300010096395E716834714001547639FE7005E
:103140002285EFF0EF932285EFC01FA3F24703C55E
:10315000C7C9EFC09FA92A8459B739476398E716B2
:10316000035544008567A5076315F5040C4483CB1C
:103170000500639D0B00850591C937250020194680
:10318000130545B797D0FA1FE780800503C7C9B577
:1031900085476315F71063880B00238E09B45E859D
:1031A000EFF00FC24DB78947238EF9B4EFC0902DD1
:1031B00059BF896713872700631CE504832B8400AC
:1031C000638E0B0C83C70B0089EF83C72B0003C7EB
:1031D0001B00A207D98F2394F40083C73B00A38070
:1031E000F40003C7C9B58947631AF70A83C70B0000
:1031F00091C7238E09B403C50B005DB783C51400C6
:1032000003D584008D47238EF9B4EF70A024E5B771
:1032100095076318F5001C4403C50700EFF0CFE3E2
:103220001DB7F9771387A7FF2A9742074183914675
:1032300063F1E6049387A7FCAA97C207C18371478D
:103240006371F70289671387B7006310E50483A7EA
:103250008A94E38A07EE9C43A285E38607EE829771
:1032600015A0370700181307F770B357F700858BC1
:10327000A1CB83270B95E38807EC9C43E38507EC00
:1032800022858297E31105EC11A81387C70063100C
:10329000E5021C4483C70700E38707EA9307F00FA2
:1032A000E303FAEAA2855285EFC0DF9A45B5B90774
:1032B0006318F50083A7CC94E38707E8DC4369BF74
:1032C000896793871704E304F5F8C9BF3D476399FD
:1032D000E7040355440089671387D700E30CE5FC36
:1032E00013879701E308E5FCCD07E319F5FA03D747
:1032F0006400C167FD17631DF70083A7CC94E384C6
:1033000007E4DC43E38107E40965A2854D0581BF3D
:10331000B727002083A74795E38707E29C43DDB7E3
:103320001307E003E39CE7F683472400054763980F
:10333000E70E8347640037270020930D0794E1E7E9
:1033400083A70D00D5CF83CB0700214A0345740026
:10335000130D8400EA85EFE0FFDF83474401A303F8
:10336000A400835804010358E400035744002A864C
:10337000034534003EC283572401EA86DE853EC001
:10338000D287EFF08FBC8347340095E7DD47835841
:1033900004010358E40083467400835544003EC290
:1033A000835724013EC06A87D28705465E85EF8039
:1033B000B030A301A40083A70D0081C71145EFF031
:1033C0005FA0930B0C9603C50B00E30E05D6B72741
:1033D000002083C51796EFE03F90E30605D68346AD
:1033E000340093071003638AF6000356440083C534
:1033F0000B0052873685EFE03FA723000C96A1B360
:1034000083CB340099B783270B9583CB3400114AC3
:1034100095DFDC4385DF81450145829705BF29475C
:103420006390E70A8347640037270020930D0794D1
:10343000A5EF83A70D00B5C783CB0700214A03453D
:103440007400130D8400937725001376150089E727
:10345000EA85EFE03FD02A8683470402A303C40035
:103460008358C4010358A4010357440003453400A2
:103470003EC28357E401EA86DE853EC0D287EFF084
:10348000CFAC8347340085FBDD478358C401035824
:10349000A40183467400835544003EC28357E4016F
:1034A00011B783CB340059BF83270B9583CB3400EE
:1034B000114AD1D7DC43C1D781450145829741B735
:1034C0000947639CE70083A78A94E38E07C6DC4321
:1034D000E38B07C622858297BDB12D476398E7002D
:1034E00083A78A94E38107C69C47DDB70D4763979E
:1034F000E70022868D450355440015B119476395B1
:10350000E7069305610213051031EFB0F10D2C10A1
:1035100013052031EFB0510D03566400835781022B
:103520000355440063E8C7008356840003576102D3
:1035300063F7E60093050002EFC0C07829B1637419
:10354000E6002313E40063F4D7002314F4000357C8
:10355000C4008356A40003568400835564000148C8
:103560008147EFC0E075C5B61D47E389E7D2314713
:103570006395E7002286B145BDBF35476398E700F4
:1035800083A78A94E38107BCDC4799B739476396E0
:10359000E7002285EF0070067DB63D476398E7009F
:1035A00083A78A94E38107BA9C4B1DB74147639672
:1035B000E7002285EF00900F79B645476396E70054
:1035C0000145EF00101F41B64947639DE70083277F
:1035D0000B95E38507CCDC43E38207CC81450545A9
:1035E00082976DB94D47E39BE7CA83270B95E38725
:1035F00007CADC43E38407CAA2850945D5B793F718
:10360000150089CFB727002083A7879489C7DC439B
:1036100099C30145829713451900F1B493F725002A
:1036200091CFB727002083A7079591C7DC4381C7B7
:103630008145054582971345290075B493F74500E8
:103640000145E38207AAB727002083A747943724C0
:1036500000201304C4B591CF85472302F400B72797
:10366000002083A7079591C7DC4381C781450545A5
:10367000829748442C10EF9080492810EFF0AF98C3
:10368000B727002083D7E7B981CF130600643386BC
:10369000C702B727002003C5C7C99145EFC01F9FC8
:1036A0001345490089B4011122CC2A84554506CE20
:1036B00026CAEFF0EFBCAA8413054002EFF04FBC1E
:1036C0002AC613055002EFF0AFBBAA8622856244DA
:1036D0003246F240B3359000D24405616FC0A06419
:1036E000797122D406D68D472E84631FF50003D747
:1036F000A50083D6850003D665000345340083D535
:103700004500EFE0DFF309A889671387D70063114D
:10371000E50403C5250019E58547B25022543E85CE
:1037200045618280B727002083A60794F5D603C69B
:10373000360083C50600814802C202C001488147A5
:1037400001479106EFF06F800545EFF08FE7E9B78D
:103750001387E700E302E5FC13873701631AE500EE
:1037600003C5250055D9014781460146814551BF12
:10377000E507E303F5FAB1476319F500B727002021
:1037800003C5F7B5EFE0FFF641BF41677D178147FD
:10379000E315E5F803C75500C947E31FF7F683D6DD
:1037A000E50003D6C5000355840083D5A500EFC00E
:1037B000405951C15D45EFF0AFAC3335A000231C3B
:1037C000A10083454400035524003008EF80802683
:1037D00083578101B1F36C0813051031EFB0C1605C
:1037E0009305E10113052031EFB001608357C1015A
:1037F000035784006374F7002314F4008357E10136
:103800000357A40063F4E7002315F40083558400F4
:103810008357A40063F4B7002315B4000357E400F2
:103820008356C4000356A400035524000148814771
:10383000EFC0C046D5B58547231CF10059B7B7275F
:1038400000201387C7C9834677001307F00F638CE6
:10385000E60851C9411122C426C24AC006C6AA843C
:103860000345A5001389C7C94105EFC0AFB32A843A
:103870002DC59307000D2310F500D9472301F5004E
:1038800083D744002312F50083C764002303F500A7
:1038900083C77400A303F50083C784002304F500E5
:1038A00083C79400A304F50003C6A4002305C50044
:1038B00015C2CC44410548C497D0FA1FE780409216
:1038C000A285224403457900B24092440249410155
:1038D0006FC04FB823260500E5B7B240224492449A
:1038E0000249410182808280C1671387E7FF639E9E
:1038F000E500B727002083A707949DC383C707006F
:103900000D47639DA7006FC0A038FD174947639717
:10391000F500B727002083A70794F5F73A85828042
:103920004947EDBF397122DC06DE26DA4AD84ED689
:1039300052D456D25AD05ECE62CC0347050085479A
:103940002A84630DF70403468500930695009305CA
:10395000E1000545EFE0CFE3814719C1834705004A
:103960008346040011476383E604372700200327BA
:1039700047968D4603471700630AD70285CB1DC7BC
:103980000DE10145F2506254D2544259B259225AC3
:10399000925A025BF24B624C216182808147014561
:1039A000C1B785466314D70A8D8BE1DF0345140048
:1039B000130A2400D285EFE0EFF937290020A30095
:1039C000A400832789962A8B130989968149C1C748
:1039D000B72A00209304F00F83C72A96138C2A96E7
:1039E00063FDF90203250900939B49005E95834717
:1039F000050063849706834715006390670719469F
:103A0000D285090597D0FA1FE780608639C58324DF
:103A1000090003470400DE94B9E48346040091479B
:103A2000E381F6F683270900A9DF03460C0001476E
:103A30009305F00FE307E6F4BE84C10703C507FF53
:103A40006309B50C05071377F70FEDB78946E31A3D
:103A5000D7F2858B99BF054535B7850993F9F90FDD
:103A6000A5BF88C4F5A09147631AF706C84405C5E9
:103A700083478400034605006304F60603470400F9
:103A80009147631DF706C84419C597C0FA1FE78020
:103A9000A06723A604000345840091659385E57122
:103AA000050597C0FA1FE780E05905C503470400E4
:103AB0009147631EF704C8C48347840093059400AC
:103AC0000505A30FF5FE0346840097C0FA1FE780A3
