:020000024000BC
:10E000006F10621F0000000000180118002801288E
:10E0100002280328002901290229032904290529A6
:10E02000062907290829002A012A022A032A042A84
:10E03000052AA62A80F90600D8FD04006A020020FD
:10E04000B40200202602002014020020DC0100207F
:10E0500072FF04009EFF0400860005008C0205008C
:10E06000340305004CFC040070FB0400E2FB0400D8
:10E070009CFB0400120805000004002048FF040077
:10E08000E804050052B006004AB20600C2B206001B
:10E0900096770600AA770600C82C06005C1F0600CB
:10E0A0005AAA06001E050500447F060058BC05005C
:10E0B000E6BC05003EBD0500001105004C11050041
:10E0C000B60F0500947805005873050030820500EE
:10E0D00000860500AC8905007A6505001865050015
:10E0E00002690500C6650500EE640500726505005D
:10E0F000A06405004A660500A26605005266050098
:10E1000056660500F0660500AA660500DC66050097
:10E11000FE6B0500066C0500466605004E660500B0
:10E12000EE660500026C05009E670500746D050033
:10E13000F897050076980500B4980500F87A050070
:10E14000107B05004C7B05001A5F0500FE5F050093
:10E1500066600500862F0500262A05008455050007
:10E16000A62A0500B0500500D6D50600C8D2060084
:10E17000ACDD060090ED060060EC060064F00600E1
:10E1800054F006005CF00600A0F0060044C406004F
:10E190009CF00600A2E40600C8E40600F0E40600D5
:10E1A00010F106005AEA0600F0E9060080F10600C8
:10E1B00000C506009CC50600C4C5060066C506006D
:10E1C00080920600C28406003E880600A6850600EE
:10E1D0000C8F0600FAAA06000000000078C40600B2
:10E1E000040A0500D2780600247F06001C80060081
:10E1F000000000000000000000000000FC7E0500A0
:10E200002E92060000000000000000000000000048
:10E2100076840600200600209A79060088F0060021
:10E22000000000000000000058F006003802050061
:10E230004A7C050090F0060078940600CC95060014
:10E2400048960600EADD06008CF0060094F0060011
:10E25000E81E060098F00600F40E002000140020CE
:10E2600000000000000000000000000000000000AE
:10E27000000000000000000000000000000000009E
:10E280006373B60082801C419105110523AEF5FE33
:10E29000C5BFB72700203727002093878792130731
:10E2A00007E96373F700828023A007009107D5BFB9
:10E2B0005DCDAA870145D5CD8D07C207C183F19BEE
:10E2C000C207C18313074003636CF702372700209E
:10E2D0000325079337270020832687926397A6029A
:10E2E00037270020032707B0014541C74111C20766
:10E2F00006C60545DD8D0297B24001454101828089
:10E30000372700200325C792F1B70357650031EF87
:10E3100003574500636BF704B72600203306F74028
:10E3200021489386C6B06378C8028328050003D8C5
:10E330006600138687001D8F2A9661172312E60058
:10E34000232016012313060010C12312F500130722
:10E3500088FF2393E6002313B50083D566002105CB
:10E36000B387F5402393F6008280084185BF0145BD
:10E370008280828009CDB727002003A30793B727A7
:10E38000002083A8879281469A8763E317018280E1
:10E3900003A807006369F50A6367A80A1387870063
:10E3A000E367E5FE03D66700216705076319E6000A
:10E3B000372600200347069F05072308E69E3726D9
:10E3C00000201305C6B083D547000357650023938B
:10E3D00007001306C6B02E97420741832313E500BA
:10E3E00063876702372500200325C5926301F50284
:10E3F00003D5660009ED83D7460023A00601210757
:10E40000BE95A1052392B6002313E600B687984374
:10E41000E30F17F7B726002083A6C692E309D7F6C5
:10E4200083566700ADF683D64700835547001843EF
:10E43000A106AE962392D70098C383576600A10722
:10E440002313F6008280BE86C28781B719CD91CD95
:10E4500009CE81473387F500834607003307F5006F
:10E4600085072300D700E317F6FE828019C991C9FA
:10E4700009CA910583A7C5FF11057D16232EF5FE58
:10E48000C5BF828001C919C62A960505A30FB5FE2E
:10E49000E31DA6FE828081473307F50003070700CE
:10E4A00019E33E8582808507C5BF01112E8626CAE5
:10E4B000AA84131506019305F004418122CC06CEEF
:10E4C00032C6FD332A8401C53246A68541372285EE
:10E4D000F2406244D24405618280854715C18DC1F6
:10E4E00005C28147B306F5003387F50083C60600F1
:10E4F000034707006398E6008507E315F6FE8547A6
:10E500003E8582808147EDBF9307F6FFBE952A9630
:10E510006313C5008280FD1583C715000505A30F91
:10E52000F5FEFDB7AA87014581CF09CE3E96850746
:10E5300003C7F7FF6317B700E39BC7FE054582805B
:10E54000828001458280797126D2B724002022D4AE
:10E5500003A4849406D64AD04ECE52CC56CA5AC88A
:10E560005EC662C455C43729002037CAC901B7291D
:10E57000002093848494814B372B0020130909AD2C
:10E58000130AFA379389C9B0B70AC0A88357240081
:10E5900091EF5C4463990B009CC0032CC40022855E
:10E5A000D13B628499A823A6FB00C5BF83270B95A6
:10E5B0008297830669011C4463D806063307F54039
:10E5C0006361EA0823A80900835524000345040079
:10E5D000970005E0E78020C15C405844A1CF144477
:10E5E000B6978306690163C7060063E55701B7065E
:10E5F0004057B6971CC4A28B3A8449F8B72700202D
:10E600009387C7B0984B894663F1E606791798CB94
:10E61000B250225492540259F249624AD24A424BB1
:10E62000B24B224C45618280E37AF5F83387FA4099
:10E630002A9779B763940B0098C085B723A6EB009F
:10E64000A9BF0327490219CB63DD06003385A74024
:10E6500083A709016374F50023A8A900A28B404495
:10E6600069BFE3F5A7FED697D5B723A807004DB736
:10E6700001114AC837290020832789B306CE22CC4E
:10E6800026CA4EC652C456C2130989B381C782979F
:10E69000232009008327490091C38297832709001B
:10E6A00063920718B7240020938784DD83C757003F
:10E6B000938484DD858B8DC303C77400A38204001B
:10E6C000954763FBE700EF00903E83C77400F517A2
:10E6D0008A07CA979C438297372A002093074AE10A
:10E6E00083C7C700130A4AE1918B99C3EF10602CCE
:10E6F0008327890091C38297372400209307C4B0F1
:10E7000003C61700B729002003A789931304C4B0D8
:10E71000938989938347040093961700BA9683D60A
:10E720000600C9C68347040063EAC70883270900B7
:10E7300023000400E5EB83C7940091CB83C77400EA
:10E7400099E7A3840400978006E0E7802082B7273A
:10E75000002083A70795F9C7B707C0A81CC8E533F1
:10E76000B7270020938707ADD8534DCF83C75701F4
:10E7700018486369F70A03C77400954763E4E70A1A
:10E780008347CA00918BD9EF8346140003A6090082
:10E7900063C3D70A6244F240D2444249B249224A92
:10E7A000924A0561170305E06700238F850793F7F9
:10E7B000F70F2300F400E3EFC7F4ADB786073E97E9
:10E7C000835507002310070003450400B7270020E6
:10E7D00083A7C79413172500B72A0020BA979C4334
:10E7E000938A0A9423900A00829783D70A000347EA
:10E7F000040093C7F7FF7D8D9317170003A7090047
:10E800003E97835707005D8D2310A70083470400C0
:10E8100081C785072300F4000347040083471400E1
:10E82000E376F7F0F2406244D2444249B249224AC8
:10E83000924A0561828013971700329703570700A9
:10E8400075F38507B1B7AD6737C70040BD0723260D
:10E85000F7200F100000B72700209387C7B0C84FDC
:10E8600083278726BD66BD0693C7F7FF99836A0590
:10E870002326D7205D8D82804111B7170040985F15
:10E880003AC6945F3247E39CE6FE324541018280FE
:10E8900082800327851163000712411122C406C636
:10E8A0008347C5008345C5042A8493F7C70F230611
:10E8B000F500834697000356C700139586016185CE
:10E8C00063F1C508635A05060345870093F6F6070A
:10E8D000A304D700054693E627006314C50093E61A
:10E8E00017002306D4005C4389075CC3A30AB40065
:10E8F000032504112E864C430905893E8327841184
:10E9000003465401D44303D7C700B296118FD4C332
:10E910002396E7008947A30DF400B727002003479B
:10E92000440383C727AE6378F7048347C40093E7A3
:10E9300007012306F40081A093E717002306F400E3
:10E9400075B79376F60F635D05020345870085452D
:10E9500013E627006314B50013E617002306C4006E
:10E96000A30AD400A30407008547A30DF40083275E
:10E9700084119C43DDF3B240224401454101828071
:10E9800093E717002306F400A30AD400A3040700AA
:10E99000032504114C430905553C83278411034684
:10E9A0005401D44303D7C700B296118FD4C3239622
:10E9B000E7008D475DBF05458280B727002083A70C
:10E9C00007A2411122C406C6858B2A84DDEB41656E
:10E9D000130525F5973006E0E780805C5DC183472D
:10E9E000A5002315F50083270412B5E72320A41200
:10E9F0002322A41285472310F40423200500834713
:10EA0000640154412316F5000347D4002304E500B4
:10EA10000547A304E50037270020032707DF1385F8
:10EA2000170215811C437D151375F50F9CC25C43BD
:10EA3000DCC21C479CC65C47DCC61C4B9CCA5C4BBA
:10EA4000DCCA1C4F9CCE5C4FDCCE19CD93860602EF
:10EA500013070702C1BF8327441288C383570404E6
:10EA60002322A412850741BFB7270020938787CCB4
:10EA700003D7870005072394E700B24022444101F1
:10EA800082808347C40023090400054593C74700DB
:10EA90002306F400DDB78347850193F7E70FDDEB2D
:10EAA00083479501C5EB034625018346C50009CA86
:10EAB0003727002083454503034737AE63E7E5006A
:10EAC00013F7060149CB014709C6C18A03578518C8
:10EAD00081C68356C51836973DCFB727002003D58A
:10EAE00047B31307C71237460F00B335A7024111CA
:10EAF00013060624814622C426C206C67D54330569
:10EB0000A70297F006E0E780409DB727002083C763
:10EB100097AEB384A700B727002003A707D58327A4
:10EB2000070963F387003E84184375FBB72700206D
:10EB300083A70795829781476364A400B307A44025
:10EB4000B2402244B3B7970093C7170092443E8562
:10EB50004101828081473E858280797126D206D626
:10EB600022D44AD04ECE52CC56CA5AC85EC683472B
:10EB7000350303447513AA843E941374F40F93076A
:10EB8000400263F687001304B4FD1374F40F03AA64
:10EB9000841383AAC413A38B841222865285D6853C
:10EBA00097F006E0E780A090058915E503CBD41225
:10EBB00001498149337B6403930B50024A86528595
:10EBC000D68597F006E0E780808E058915C56391AC
:10EBD00069031374F90F238B8412B2502254925498
:10EBE0000259F249624AD24A424BB24B4561828095
:10EBF0008509E20993D989410509E31179FDE1BF4E
:10EC0000832785090356E503797193D60701BD8EE5
:10EC1000C206C182358E1357764093575640898B72
:10EC2000058B5D8F93573640918B5D8F93571640C0
:10EC3000A18B5D8F93171600C18B5D8F93173600E4
:10EC400093F707025D8F931756009355860093F74D
:10EC500007041E065D8F1376F60F518F93D755402C
:10EC600013D63540118A898BD18F13D67540D18F39
:10EC700013D61540218AD18F13961500418AD18F62
:10EC80001396350013760602D18F1396550013762E
:10EC900006049E05D18F93F5F50FCD8FA20745464B
:10ECA0005D8F3307C70222D42A8426D252CC56CA9B
:10ECB000032A8413832AC4135AC806D636974207F8
:10ECC000418393577740135557400989858BC98FE6
:10ECD000135537401189C98F135517402189C98FA2
:10ECE000131517004189C98F1315370013750502D5
:10ECF000C98F1315570093558700137505041E0718
:10ED0000C98F1377F70FD98F13D5354013D75540D7
:10ED10001189098B498F13D57540498F13D515403B
:10ED20002189498F139515004189498F1395350025
:10ED300013750502498F13955500137505049E053B
:10ED4000498F93F5F50F4D8F2207D98FB387C702EF
:10ED50004AD04ECE5EC662C4B697C207C18313D7EF
:10ED6000774013D557400989058B498F13D5374014
:10ED70001189498F13D517402189498F13951700A1
:10ED80004189498F1395370013750502498F1395F3
:10ED9000570093D58700137505049E07498F93F795
:10EDA000F70FD98F13D5354013D755401189098BEB
:10EDB000498F13D57540498F13D515402189498F47
:10EDC000139515004189498F139535001375050278
:10EDD000498F13955500137505049E05498F93F5CA
:10EDE000F50F4D8F2207D98FB387C7021306500244
:10EDF0005285D685B697BD8E93940601C18033F6B1
:10EE0000C402137BF60F97E006E0E780406A0589AD
:10EE10000DED8347D41201498149B3849702130C45
:10EE20005002C1804A865285D68597E006E0E78089
:10EE300000680589937BF90F11C563863403850942
:10EE400093F9F90F0509E31F89FD230B6413B250F1
:10EE5000225492540259F249624AD24A424BB24B6E
:10EE6000224C456182805E8BCDB70111B72700200F
:10EE700022CC03A4C7D726CA4AC84EC606CEAA8447
:10EE800013092500854915C083C7140003473400C2
:10EE9000858B6304F700405CFDB719469305440079
:10EEA0004A85EFF08FE3E31835FF2285F240624494
:10EEB000D2444249B249056182804111B7270020FE
:10EEC00022C403A4C7D726C24AC006C6930425009D
:10EED000054901E82285B240224492440249410199
:10EEE0008280A6851305A402975006E0E78060445F
:10EEF000E30225FF405CF1BF4111B727002022C487
:10EF000003A4C7D726C24AC006C6930425000549F4
:10EF100001E82285B24022449244024941018280A4
:10EF2000A6851305A401975006E0E7808040E30220
:10EF300025FF405CF1BF0111B727002022CC03A4BC
:10EF400047D726CA06CE2AC42EC6854419E40145F1
:10EF5000F2406244D24405618280834791000347B6
:10EF60001400858B6304F7000044CDB71946930560
:10EF7000A10013052400EFF04FD6E31795FE0545D9
:10EF8000C1BF011122CC37240020032784A32AC645
:10EF90002EC432C206CE3C4B93F7F7F73CCB9770AA
:10EFA00006E0E780E0F9032784A3B72600203C4B66
:10EFB00093E707083CCB83A786A23245A24523A04E
:10EFC00007000347150003482500938686A2220701
:10EFD00042084297034805004297034835006208FB
:10EFE000429798D703475500034865002207420817
:10EFF00042970348450042970348750062084297CC
:10F00000D8D7034795000348A50022074208429736
:10F010000348850042970348B5006208429798DB91
:10F020000347D5000348E5002207420842970348FA
:10F03000C5000345F500429762052A97D8DB03C750
:10F04000150003C52500220742052A9703C50500C0
:10F050002A9703C5350062052A9798CF03C7550044
:10F0600003C56500220742052A9703C545002A9774
:10F0700003C5750062052A97D8CF03C7950003C55D
:10F08000A500220742052A9703C585002A9703C5D4
:10F09000B50062052A9798D303C7D50003C5E500DC
:10F0A000220742052A9703C5C50083C5F5002A97A4
:10F0B000E2052E97D8D3D843759BD8C3D84313679E
:10F0C0001700D8C398431367170098C31246984295
:10F0D0005C43858BD1E71C4F01452300F6009C4221
:10F0E0009C4FA183A300F6009C429C4FC183230147
:10F0F000F6009C429C4FE183A301F6009C42D84F4E
:10F100002302E600D84F2183A302E600D84F4183B3
:10F110002303E600D84F6183A303E600985323043A
:10F12000E60098532183A304E60098534183230506
:10F13000E60098536183A305E600D8532306E60052
:10F14000D8532183A306E600D85341832307E60062
:10F15000DC53E183A307F600F2406244056182803C
:10F160000100B5B7B726002003A7C6A201114AC8FF
:10F170001C5F4EC606CE998322CC26CA858B938906
:10F18000C6A237290020ADCF1C5F3724002093048E
:10F1900084DD93F7F7F91CDF930784DD83C76700ED
:10F1A000130700086319F700832789A29C4393F78C
:10F1B00007042383F400834784DD93F7070489CF92
:10F1C000B727002083A70795829788C8834784DDE7
:10F1D00093F7F70B230CF4DC83C7440093F7070481
:10F1E00085E38547A382F400B727002083A787A380
:10F1F000096798C7130700FC2382E400D844F8D3BA
:10F2000083A70900985F1183058B19CB985F85460A
:10F210003D9B98DF37270020130787DD2302D700A7
:10F22000985F1D83058B01CF985F1377F7F798DF01
:10F23000B7270020938787DD05472382E7008327D0
:10F2400089A2D8430583058B19C7D843759BD8C3BA
:10F25000D843799BD8C3F2406244D2444249B24970
:10F2600005618280397106DE16DC1ADA1ED82AD6CC
:10F270002ED432D236D03ACE3ECC42CA46C872C61E
:10F2800076C47AC27EC0F93DF250E2525253C25364
:10F290003255A255125682567247E2475248C2482A
:10F2A000324EA24E124F824F216173002030B72799
:10F2B000002083A687A3B7270020938787DD03C795
:10F2C0000700058B11C723820700A38207008280F5
:10F2D00003C71700058B65FBF85275F303C757008A
:10F2E000EDB7372800200327C8A21C5F9583858BC4
:10F2F000D1E709C61C5BBD832300F60085CA8327BE
:10F30000C8A2985B4607935767016356070093E7C7
:10F3100007C0C207C18303970600C207C18709C798
:10F32000BA970947B3C7E7022390F60037270020B2
:10F33000130787DD95C9834715009DC703466700FE
:10F34000938697008947137606041DC63695834633
:10F3500005000546994793F5F606639FC500E2064A
:10F36000E186B94763CA06008327C8A29C5FED8384
:10F370008D8BA305F70081473E8582808547EDBFD1
:10F38000411122C406C63724002026C2032784A3C5
:10F3900059E5AE877453FDFEB7240020938484DDC5
:10F3A0003E85B28523810400977006E0E780609572
:10F3B000B727002083A7C7A2B70680009843558FC0
:10F3C00098C3D857719BD8D7832784A3A3820400FE
:10F3D000A3800400094798C3B7F700E003A707D14B
:10F3E0006D9B23A8E7D003A707D15D9B23A8E7D097
:10F3F00073005010832684A3B7270020938787DDEE
:10F4000003C72700058B19E703C73700058B59C7CA
:10F4100023820700B24022449244410182808D47FA
:10F42000631FF500B727002083A7C7A2B706800097
:10F430009843558F98C3D857719BD8D765BF8547D8
:10F44000E31AF5FAB567BD075CC70F100000832704
:10F4500084A30967930600F898C73727002013078D
:10F4600087DD2302D700372700208326C7A209465D
:10F47000984231830D8B6319C7001307E043F8D31B
:10F480003D673D07D8C7BDB7984231830D8B01E773
:10F4900013076019EDB71307E01BD5B7F8522DF32A
:10F4A00095BF5D7152DC372A00200327CAA286C6A9
:10F4B000A2C4A6C2CAC04EDE1C43B7290020372909
:10F4C000002093F7F7E793E707081CC383A609A476
:10F4D0003707CEFF7D179C46130680022A84F98FDA
:10F4E0009CC6832789A3130700082800B8CBAE84E5
:10F4F00093051008EFE01FF9977006E0E78040A43D
:10F50000977006E0E78060AC8327CAA29376F41F69
:10F51000370FFCFF23A40700984B4E88CA88136757
:10F52000F70398CBF84F130510F8D285137707E04F
:10F53000558FF8CF9843F576FD16758F98C398438D
:10F54000B7063300B70204001377F7E798C3984370
:10F550009303401F7D1F1377F7E71367071098C3C6
:10F5600003A709A4930F800285491C47D58F1CC7A8
:10F57000832789A31307900D3400B8CB11490147A5
:10F580001353370026938347030013767700B3D7CE
:10F59000C740858BE1C383A7C5A2832E08A4239C03
:10F5A00007042390070603AECE02137EDEFF23A6D8
:10F5B000CE0383AE0700137EF70793FE0EF833EEFB
:10F5C000CE0123A0C70103AE4702336E5E0023A223
:10F5D000C70383AE88A3014E23A27E0603DA070683
:10F5E00063074E0303AE0703038A0600135EFE00A3
:10F5F000620E135E8E416358CA0103AE0703135EA9
:10F60000FE002380C60103DE0706137EFE0F03AA59
:10F610004E0663060A0003DA8705E37F49FB03AE63
:10F620004702337EEE0123A2C70383870600635C93
:10F63000F400034E03003396C9001346F6FF3376F9
:10F64000C6012300C3003E8663D3A7002A86131594
:10F650008601618505071377F70F8506E312F7F337
:10F66000B640264496440649F259625A6161828046
:10F6700037260020832786A3130686A3D847931630
:10F68000170163D2060298479316170163DD06003F
:10F690007D57B8D7372700201307C7B0544F8506CA
:10F6A00054CF116798C798470D83058B0DC3372733
:10F6B0000020130787DD8346270093E61600230109
:10F6C000D700930600F82302D700214798C7984730
:10F6D000058B09CF37270020130787DD83461700E6
:10F6E00093E61600A300D700054798C798470983FB
:10F6F000058B09E798470583058B39CB9447372756
:10F700000020372500208982858AF5CE8326C5A270
:10F710009442B1828D8AEDE6AC4B930687DD944E20
:10F7200093F5050283C61600D5C5E1EA9306700677
:10F73000D4CF834687DD93E61600230CD7DC114730
:10F7400098C70327C5A25C57F19B93E717005CD7C6
:10F7500018421C479396370163D40602B72700204E
:10F76000938687CC03C6C606938787CC418A55C645
:10F7700083C7C60693E707022386F60685671CC77C
:10F780001C479396270163D10602B7270020938771
:10F7900087DD83C64700E206E18663D5060085461D
:10F7A0002382D70089671CC71C479396070163D241
:10F7B0000602B7270020938787CC83C6D706858AA1
:10F7C000ADCE83C6D70693E62600A386D706A167EB
:10F7D0001CC78280A1DE85456395B6009306B006FE
:10F7E00081BF89456395B6009306F00691B78D45B4
:10F7F0006395B6009306300725BF930650070DBFEB
:10F800009306600735B7130787DD8346370093E615
:10F810001600A301D700094725B783C6C7060946C6
:10F82000BD8A6388C60083C6C7060D46BD8AE397B6
:10F83000C6F491462386D70691B783C6D706918A28
:10F84000D9D683C6D70693E6860041B7397106DE5E
:10F8500016DC1ADA1ED82AD62ED432D236D03ACEB8
:10F860003ECC42CA46C872C676C47AC27EC009354A
:10F87000F250E2525253C2533255A255125682569A
:10F880007247E2475248C248324EA24E124F824F50
:10F8900021617300203037270020B726002013860F
:10F8A00046DF130747E18347D7008345B601484A3F
:10F8B000AE97FD8BB355F500A300F600A306F70045
:10F8C000858995E903471701814613080002B3F7BC
:10F8D000E7020147B355E50085899378F70F89C999
:10F8E0006395D700A30016018280850693F6F60F74
:10F8F0000507E31107FF8280B727002083A707953C
:10F90000011122CC26CA52C406CE4AC84EC656C2DF
:10F910005AC08297B7240020938744E18047014A68
:10F920006306A406B7270020138707AD0307670106
:10F93000938444E1138907AD63550706018D37278A
:10F940000020930747DF83C7A70113545500137A9C
:10F95000F501930947DF6368F402B70AC0A8370BC3
:10F960004057153F83C6A9019C44139756003E9704
:10F9700083076901158C63C50700636357015A97B4
:10F9800098C4E370D4FE1604336A4401F240624422
:10F990005285D2444249B249224A924A024B0561F9
:10F9A0008280E37D85F8B707C0A83384874022951D
:10F9B00079B7B727002083A70795411122C44AC011
:10F9C00006C626C2829737290020930749E180475F
:10F9D0006308A406B7270020838767AE130949E1AF
:10F9E00063D80704018DB7240020938744DF83C7C1
:10F9F000A70113545500938444DF6363F404613D0D
:10FA000083C7A401032789009396570036971D8C5E
:10FA10002324E900E375F4FE224403C51400B24038
:10FA20009244024981454101177306E0670043A1F2
:10FA3000E37A85FAB707C0A833848740229565B773
:10FA4000B24022449244024941018280B7270020FB
:10FA500003A707A4B75702009387079F83260709C8
:10FA6000139656006358060083260709139666000E
:0CFA700063440600FD17FDF382800000D7
:10FA7C00B72700203727002083A7079303278792F7
:10FA8C0001456313F700828083D6670081E683D635
:10FA9C00470036959C43F5B7B727002083A507ADE3
:10FAAC0037270020938707AD138605222328C7929A
:10FABC0003D74700938785FFB72600204111BA97DB
:10FACC00056523A4F69206C61D059356370063748C
:10FADC00E500930600203307D600372500202326A7
:10FAEC00E59223A0E522E1162312D600231306008B
:10FAFC001CC3998FE1172312F700231307008D3FC6
:10FB0C00B240B72700202399A7B041018280B727C4
:10FB1C000020B726002083A7079303A686922A8786
:10FB2C00B305B5406314F6003A8529A8938687007F
:10FB3C009C43E369D7FEE377F7FE2E85E3E4D5FE1D
:10FB4C00E3F2F5FE828023AC05FE1C4191E7010037
:10FB5C0001000CC18280BA8703A787FF6DFF23AC1D
:10FB6C00B7FE82801DC18346E5FF1307F00F914756
:10FB7C00639EE600411106C69700FB1FE780005804
:10FB8C00B24081473E854101828095473E85828007
:10FB9C0001E9014582800145B24022444101828045
:10FBAC0095654111938505D022C4C98D2A84210500
:10FBBC00C2054205C181418106C69700FB1FE78043
:10FBCC00A04771D9FD57232005002312850023037C
:10FBDC00F5002105D1B7411126C2B724002022C45B
:10FBEC004AC083A7449306C60144014993844493B5
:10FBFC0089E7A165712505C401A803C7E7FF631751
:10FC0C00A70215C8A16585269840832784FF631633
:10FC1C00E4029CC0FD57232C04FE230FF4FE228526
:10FC2C00B2402244924402494101828011E03E8953
:10FC3C0083A787FF75BF3E84E5BF232CF9FED9BF90
:10FC4C00B1CDB727002083C7D7B0411122C406C657
:10FC5C002A842E856375F400894763E88700193779
:10FC6C000D45B24022444101828083A785FF99E76C
:10FC7C0003C7E5FF9307F00F6305F700E53515455E
:10FC8C00CDB737250020238F85FE13054593653DA1
:10FC9C0022852244B240A1654101F1A41545828020
:10FCAC00B727002023AA07928280B727002083A7BA
:10FCBC00879499E33E85828003D727006316B700AB
:10FCCC0003C70700E308A7FEDC47E5B7C1C179719C
:10FCDC0022D406D626D24AD04ECE01444147B3D7C1
:10FCEC008540858BB9CF1205314722953305E50246
:10FCFC00B727002003A9C7938544B3948400C2049A
:10FD0C00C1809389C7932A990327090011C703253A
:10FD1C0049002EC60297B24531473304E40283A74B
:10FD2C0009003E941C4489E7232009002322090082
:10FD3C00B2502254A58D02599254F2492E85456138
:10FD4C0082800504E31DE4F88144DDB72E858280B2
:10FD5C0041111397050122C406C626C24AC0418729
:10FD6C002E84635E0700853D11C1ED3BA1673D8C80
:10FD7C002285B24022449244024941018280EDD94D
:10FD8C00AA8701474146B356E440858A9DCA92072B
:10FD9C00BA97B146B387D702B726002003A9C693FA
:10FDAC008544B394E400C204C1803E9983270900C2
:10FDBC000325490082972320090023220900258C62
:10FDCC0045BF0507E311C7FC8144D5BFB727002009
:10FDDC0083A707AF411122C406C6372400201304A1
:10FDEC00848F91C782971C403E9508C031A0B727DD
:10FDFC00002083A70795FDF70840B74703009387BA
:10FE0C00D73F3305F502B7A72600938737ECB240EE
:10FE1C003E9508C02244410182800111680006CE43
:10FE2C0022CC26CAEF20D14BFD57630BF50C37249F
:10FE3C000020930604AD83C756013247130404AD6A
:10FE4C0063F5E70AB72400209384C4B098483706BA
:10FE5C00C0A8630BC702B727002083A7079582971A
:10FE6C0032479C486373F700BA8703475401998F54
:10FE7C003E958307640163CE0700B707C0A8636A89
:10FE8C00F500B70740579DA88386660163D4060624
:10FE9C001D8D37240020930784DD9C4F130484DDD3
:10FEAC0099CBB727002083A607A43707CDFF7D1772
:10FEBC009C46F98F9CC619E13705C0A8B7270020CE
:10FECC0083A747AF829719E51C4C85C3EF80012AA5
:10FEDC00EF7091201C4C91CBB727002003A707A4EF
:10FEEC00B70633001C47D58F1CC7F2406244D2447E
:10FEFC0005618280E37EF5F8B307F7403E9551BF6C
:10FF0C00372400201304C4B01C48B704C0A8E38EE7
:10FF1C0097FCB727002083A70795829737270020E7
:10FF2C00130707AD834657011C48958F3E958307F1
:10FF3C006701E3C007F6E36E95F4A1B7B72700207D
:10FF4C0083A74794411122C406C63724002013040A
:10FF5C00C4B089C782975C483E9548C84848B240AF
:10FF6C00224441018280B727002083C7D7B0637039
:10FF7C00F5023727002093171500032587933E952C
:10FF8C0083570500DD8D2310B500014582800D459A
:10FF9C008280B727002083C7D7B06372F50237275A
:10FFAC000020931715000325879393C5F5FF3E9505
:10FFBC0083570500FD8D2310B500014582800D454A
:10FFCC0082809307F00263E7A70AB146B306D50215
:10FFDC00B727002003A7C79389473697184341CF0B
:10FFEC00011122CC4EC60544935945003D89331569
:04FFFC00A400131436
:020000025000AC
:100000000501418026CA4E85AE84A2854AC806CE27
:100010005D312A89814729CDA2854E854937B72789
:10002000002083A707958297B727002083D747B37F
:100030002A8413060064338797028146B3B7970278
:1000400013050732B335E500BE95EFF0C121B727A0
:100050000020838767AE229563C90700B707C0A851
:100060006365F500B70740573E952324A9008147F3
:10007000F2406244D2444249B2493E8505618280E1
:1000800089473E85828001114EC6B7290020938999
:10009000C9B083C7190006CE22CC26CA4AC852C4AA
:1000A000636BF5000145F2406244D2444249B249D3
:1000B000224A05618280B727002083A40795FDD0DE
:1000C0002E8A83D589022A843289B387C502814664
:1000D000B3B5C50213850732B337F50013060064C4
:1000E000BE95EFF04118B747F6A6938707C8E3EB34
:1000F000A7FA829483D58902AA8413060064B38781
:1001000025038146B3B5250313850732B337F500C0
:10011000BE95EFF04115B7270020138707AD030701
:100120006701AA94138907AD63490700B707C0A800
:1001300063E5F400B7074057BE94D2852285A53EFB
:1001400001C504C5054585B7936504F0C205C181A5
:1001500041459700FB1FE780E0EE01E98327090393
:10016000B1D3A2851145829735BF372700201307E9
:1001700087941C4385E308C385472326050004C5EF
:100180002311450123008500A300F500232205006B
:1001900055BFBA87D84775FFC8C7F9BF41CD797138
:1001A00022D426D24AD04ECE52CC56CA5EC662C4A3
:1001B00066C206D65AC8B689B28A2E8A2A8993049C
:1001C000000C4144372C0020854C930B0003130B8B
:1001D000CC9383270B00A6979C43A9E79375F40063
:1001E000B395BC00C2055686C18113554400613DDC
:1001F00015C983270B000145BE9423A0240123A227
:1002000044016384090023808900B250225492542F
:100210000259F249624AD24A424BB24B224C924CAA
:100220004561828005041374F40FB104E31174FB7B
:100230002145E1BF09458280411122C426C24AC03E
:1002400006C62A842E89B2843D3DCA852285A534FE
:1002500005CDB727002083D547B32A841306006451
:10026000B38795028146B3B5950213850732B3373C
:10027000F500BE95EFE0317F48C00145B240224411
:1002800092440249410182802145CDBF411122C4DF
:1002900026C24AC006C62A892E84313CAA8419C1C6
:1002A00023110500A2854A85DD39B727002083C7C1
:1002B000C7B0639B2701B72700209387079403D714
:1002C0000700598C23908700014591E01945B24001
:1002D000224492440249410182809307F00263E87C
:1002E000A7044111B14722C43304F50226C2B72442
:1002F00000209384C4939C4006C6A29798438947E4
:100300000DC39377F5008545B395F500C205C1810E
:100310001181AD3F9C40A29723A0070023A20700B4
:100320008147B240224492443E8541018280894700
:100330003E858280411106C622C4B53A11E50145C9
:10034000B240224441018280B727002083A707954D
:1003500000458297B7270020838767AE63D80702DE
:10036000B747F6A63305A4409387F7C7E3E9A7FC90
:1003700093070064B335F50237270020035647B3CF
:1003800081463305F502EFE0116E5DBFE37AA4FC10
:10039000B707C0A83E94E9B74111B727002006C6A9
:1003A00023A2A7940295B240B727002023A2A7B2A8
:1003B000014541018280994763EAB7009397250080
:1003C000B7250020938585B3BE9588C18280B72765
:1003D000002023A4079437250020B72700204111CF
:1003E00023A207947146B72700208145130585B3E2
:1003F00006C623A8079422C426C29700FB1FE780E5
:10040000A0E1372500201306C00281451304C5B0C2
:100410001305C5B09700FB1FE78000E0EFF08FE801
:10042000B727002083C777AE8545B724002013D5B2
:1004300027008D8B3E958D473305F50299479384B0
:10044000C49339051375F50F2301A4003305F50294
:10045000130505249700FB1FE780C0BE88C041C17B
:1004600003462400994781453306F6021306062405
:100470009700FB1FE78040DA9C4003472400B72425
:100480000020938707249384C4940A079CC0BA97DA
:1004900037270020232CF792EFF05F812521834737
:1004A000140094403706050013972700369713066B
:1004B00086CD10C3138717001377F70F0A07370687
:1004C000050036971306C6D510C313873700890772
:1004D00093F7F70F8A07A300E400B69790C3B240E2
:1004E0002244924441018280372700201307C7B07D
:1004F000834717008346270063F0D702B726002002
:1005000083A6C69413861700A300C700139727007D
:10051000369708C33E8582809307F00FE5BF1C41E4
:10052000638F071041777D8FB706002089476319D5
:10053000D7100357450063050710411126C219461D
:10054000AA849305F00F690506C622C44AC0970025
:10055000FB1FE78060D605478D47630BE50C9C4485
:1005600091C7D858994769C7985C79C33724002048
:100570001306C0038145130504AD9700FB1FE780F8
:10058000A0C91306C003A685130504AD9700FB1F81
:10059000E78000C5130904AD0357C900930704ADF4
:1005A00009E7130700102396E70003C7E70001E7F8
:1005B00005472387E70003D7070101E76D47239825
:1005C000E70003C7F70001E71547A387E70003C764
:1005D000270101E705472389E70003C7370109E73A
:1005E00003C7F700A389E70003C7470101E73547C1
:1005F000238AE70003C7970109E713078002A38C4A
:10060000E70003C7570109E71307D002A38AE700F1
:1006100003C7840109E71307C003238CE7009C5735
:1006200091C78297B7270020239AA7B04D338147FF
:10063000B2402244924402493E854101828089476A
:100640003E858280B727002083A70795011106CE3B
:1006500022CC26CA4AC84EC6829793070064B33597
:10066000F502372900201304C9B08359840281465A
:100670004E863305F502EFE0113F004CAA84014598
:10068000630494021309C9B033858440636C9400F9
:100690004E868146370500B09305E041EFE0B13C5E
:1006A000018D2695232C9900F2406244D2444249A0
:1006B000B24905618280011122CC2E84B7F5060073
:1006C0000A8541469385456B06CEEFE051731808C5
:1006D00006043A94B7270020035504FF83D767B375
:1006E000F2406244AA9737450F001305052433559D
:1006F000F50205618280B727002083D767B3514791
:100700001D45637CF702794719456378F7021307A3
:10071000200315456373F7021307B0041145637E88
:10072000F700130740060D456379F70013076009CA
:1007300009456374F70013B5B70F8280011122CC0D
:1007400006CE2A842EC6EFF02FE9B245F240818D05
:1007500033A5A502229562441375F50F05618280C9
:10076000011122CC06CE2A842EC6EFF0EFE6B24568
:10077000F240818D33A5A502229562444205418154
:1007800005618280011122CC06CE2A842EC6EFF0AC
:10079000AFE4B245F240818D33B5A50222956244A3
:1007A00005618280B7270020138707AD18572DC336
:1007B000411122C426C24AC006C6138907AD02975A
:1007C000B72700201387C7B0035787002A84938474
:1007D000C7B00DCBBA876373A700AA87C207C183CE
:1007E000BA866373E400A286C206C182958F514720
:1007F000635AF7008327C90291C38297EF701102F1
:1008000023948400B24022449244024941018280F0
:100810008280B7270020138707AD5857011122CCDB
:1008200006CE138407AD01C72AC602973245B72703
:100830000020372700209387C7B0130707950DC105
:10084000B7863200938626A194D708C337050500E2
:10085000130545649136F24062440145056182808A
:100860008346640113968601618663540602B78647
:100870003200938626A123AE070094D7B7C7004065
:10088000FD5623A4D726B70700209387675D1CC3B6
:1008900075BF13F6160019CAB7862003938606D0D3
:1008A00094D7B707002093878760D5B761762394E4
:1008B000C70291C6930600322395D702DDB793068F
:1008C0002003DDBF011122CC37240020930704ADA3
:1008D000884706CE26CA4AC801E90545F240624467
:1008E000D244424905618280130404AD5C58F5D7B7
:1008F000185C65D77000854582971844B247E30EAF
:10090000F7FC0355C4009305E004B724002097F0DA
:10091000FA1FE78020731387C4B008D39384C4B050
:100920004DDD0356C4009305F00F01499700FB1FEE
:10093000E780808E8347E4009050634DF900328554
:1009400097F0FA1FE780407C014523A0040223A210
:10095000040269B78355C4000844185CB3872503B3
:10096000898105093E9508C20297E9B7411122C461
:1009700037240020930704AD9C4726C206C6B7243F
:1009800000204AC09384C4B091EB88503DE1B2404E
:10099000224492440249014541018280130404AD7E
:1009A0001C5CE5D79C5091EB0355C4009305E00413
:1009B00097F0FA1FE780006988D0885079D50356F0
:1009C000C4009305F00F01499700FB1FE780C08426
:1009D0008347E4009050E35AF9FA8355C4001C445D
:1009E00033852503898105093E951C5C08C28297E1
:1009F000C5B797F0FA1FE780207123A0040223A255
:100A0000040271B701114EC6B7290020938709ADC2
:100A10009C4726CA4AC852C406CE22CC56C25AC0E7
:100A20002A8AAE843289638C071E938909AD03A795
:100A30004903630207127D476361A7123724002030
:100A40001307C4B0832A07021304C4B0639A0A08C8
:100A500003D5C9009565938515E097F0FA1FE780E7
:100A6000605E08D02A8665C983D5C90083A749037B
:100A700003A589008981829783A78900832A0402BC
:100A80005CD089476316FA08C1476396F40C83D596
:100A9000C9009147938505FCB3C5F5028A05D69533
:100AA00003C705009307A0056313F70A83C7150062
:100AB000639F47094A852686910597F0FA1FE780CC
:100AC00020721C505685639357130145F2406244CF
:100AD000D2444249B249224A924A024B056182807D
:100AE0005850E380E7FA03D5C9009565938525E062
:100AF00097F0FA1FE7800055AA8A31CD83D5C90047
:100B00002A8683A7490303A589008981829795BF17
:100B10008D47631BFA00C147639FF40283D5C90068
:100B2000938545FDF199A5BF91476318FA00639439
:100B3000440383D5C900A115F5B7C147631DFA0069
:100B4000A14763EA970083D5C900C115E1BF1C50D6
:100B500056856391570D294595BF1307F006636CC1
:100B6000A708930A05FE1947B3CAEA0203D7C900CA
:100B7000372B0020B38AEA02BE9A9307CBB0DC532E
:100B8000130BCBB06395570103240B021DE003D573
:100B9000C9009305E00497F0FA1FE780A04A2A8471
:100BA0005DD983D5C90083A749032A8689815685E3
:100BB000829791451307A005898193972500A297F5
:100BC00083C607006393E60483C61700639C46034D
:100BD00085058A052686A2954A8597F0FA1FE78043
:100BE000206083270B02E38287EE228597F0FA1FAD
:100BF000E7808051D9BD1307E007E36EA7F4930A9D
:100C000005F9ADB783D5270045BF83270B02E384E1
:100C100087F4228597F0FA1FE780004F2DBFB72792
:100C2000002083A5C7B285D991479306A005898383
:100C3000139727002E9703460700E31ED6F00346BE
:100C40001700631C460185078A072686BE954A85DC
:100C500097F0FA1FE780C0588DBD83572700C1BFAA
:100C6000B7270020938707AD984729C3985F1DCF0A
:100C70008546631DD502411122C437240020130488
:100C8000C4B0105006C619CE83D5C700485089811C
:100C90000297085097F0FA1FE780004723200402CC
:100CA00023220402B2402244410182808280011149
:100CB00022CC37240020930704AD56C283AA8700B4
:100CC00026CA4AC84EC606CE52C42A89AE84B28904
:100CD000130404AD638B0A1C1C5C99EB2945F2409C
:100CE0006244D2444249B249224A924A0561828012
:100CF0005C58EDD7FD4763E7A70C372A0020930720
:100D0000CAB09C53130ACAB0B9C7084483274A0221
:100D1000639FA70489476317F906C147E390F4FC72
:100D20000355C4009147130505FC3345F50293179D
:100D3000250003250A022686CE853E959307A00549
:100D40002300F500A3002501110597F0FA1FE780A5
:100D50002049014569B70355C4009305E00497F0A5
:100D6000FA1FE780202E2320AA0245F185BF835574
:100D7000C4005C5803260A02898182971C442322FE
:100D8000FA0249BF8D47631CF900C147E398F4F4A8
:100D90000355C400130545FD9377C5FF59BF91471F
:100DA0006318F900E39C24F30355C4002115EDB743
:100DB000C147E315F9F2A147E3E297F20355C400F6
:100DC0004115D9BF9307F00663E9A706930705FE0F
:100DD0001947B3C7E7020357C400372A0020B38777
:100DE000E702BE9A9307CAB09C53130ACAB0A9CFB0
:100DF00083274A026396570703250A029146130880
:100E0000A005FD5593D72600C207C183139727007D
:100E10002A97034607006314060783481700035602
:100E20002700639C2805B306D64063C69604850751
:100E30008A072686CE853E9509BF9307E007E3EF34
:100E4000A7E8930705F941BF0355C4009305E004E3
:100E500097F0FA1FE780001F2320AA0251F9BDBDB9
:100E60008355C4005C5803260A02898156858297FF
:100E700023225A0351B7A300B700B28661B70356C5
:100E8000C400B38596009105130606FCE3F8C5E49B
:100E9000138634001376C60F1106B296230007019D
:100EA000A30027012311D70059B7372A0020930741
:100EB000CAB09C53130ACAB0A1C303250A029146C3
:100EC0001308A005FD5593D72600C207C1831397C9
:100ED00027002A9703460700631206058348170078
:100EE0000356270063982801B306D640E3D196F451
:100EF000A300B700B286C1BF0345E4008357C40016
:100F00009305E0043305F5024205418197F0FA1F8D
:100F1000E78040132320AA024DF1C9B30356C40051
:100F20008345E400B385C502338696001106E3E7E6
:100F3000C5DAB9BF0145828083C705002300F500EB
:100F400083D72500A300F50083D72500A1832301C3
:100F5000F50083C74500A301F50011458280B7273E
:100F6000002023AC0794B727002023AA079482808F
:100F700029C1411126C206C622C4AA8401458DC5D5
:100F80002E84B7F50600228541469385456C97F07F
:100F9000FA1FE780E02483C7040005452306F40018
:100FA00083C71400A306F400B240224492444101D6
:100FB000828001458280011122CC26CA06CE0947D3
:100FC000AA8432846381E50441468147639BC5005E
:100FD000638FE6006397B6000DA841478147638E93
:100FE000E600F2406244D2443E85056182808A85F3
:100FF0002285BD3F41468A8519A88A85953F41468D
:101000008A85228531A0E39AB6FC2E86A2852685A4
:1010100097F0FA1FE780A025AA87E1B7B72700203D
:1010200023AAA7948280B727002023ACA7948280AC
:10103000011122CC0354650006CE26CA4AC84EC60A
:1010400041C083298500AE842A8803C909008147ED
:1010500013178901618763550702B147054563FA94
:1010600087045114420403552800418033878900C6
:10107000A2864E868545EFB07054B337A000850731
:101080007D1413556900420405891379F9034180E1
:101090002380F400A380A4002381240123928400F0
:1010A000014719C01387190098C409476383E700F3
:1010B0000145F2406244D2444249B249056182800E
:1010C0000545C5BFC167F917630AF502D94763F73C
:1010D000B702011122CC2EC606CE2A84EF90202022
:1010E000B2456368B50022856244F24005616FA095
:1010F0009042F24062440545056182800545828048
:10110000C167F9176314F5006F90601D411106C6A1
:10111000EFA0302F11E15D45B2404101828091473F
:101120006394F502834705002300F60083472500FA
:1011300003471500A207D98F2311F6008347350016
:1011400001452302F60082801145828041118145CC
:1011500022C426C206C6AA8405252A8409E9B7271F
:10116000002083A7479581C7F94526858297228568
:10117000B240224492444101828039714ED656D207
:101180005AD006DE22DC26DA4AD852D4AA8A2E8B1E
:10119000B28941EF36C6AD379145EF900026AA845B
:1011A0004D492DC9B246054A238034010544630ADE
:1011B0000B00B68513851400029B05051314050169
:1011C0004180E20993D9894163D30902C14556851B
:1011D000EFA07031654905E933868400A285268534
:1011E000EFB090102A8905E1310442044180914713
:1011F0002C085685231CF10026CE231D8100EFA06C
:1012000020372A8901C963070A00268597F0FA1F4B
:10121000E78080EFF25062544A85D2544259B25965
:10122000225A925A025B21618280BA84014AADBF80
:10123000011122CC26CA4AC84EC606CE2A8932845B
:10124000B689253FAA840DE1B727002083A787959B
:1012500081CF05476317E40003C409000504137434
:10126000F40FA2854A858297F2406244268542495E
:10127000D244B24905618280AE86B71505000147A8
:101280000546938585F36DB783D705002300F500E8
:1012900083D70500A183A300F5000945828083D789
:1012A00005002300F50083D70500A183A300F50006
:1012B00083D725002301F50083D72500A183A3014F
:1012C000F5001145828083D705002300F50083D700
:1012D0000500A183A300F50083D725002301F500B5
:1012E00083D72500A183A301F50083C755002302FE
:1012F000F50083C76500A302F50003D58500190535
:1013000042054181828083D705002300F50083D701
:101310000500A183A300F5000945828083D705005D
:101320002300F50083D70500A183A300F50083D730
:1013300025002301F50083D72500A183A301F50033
:101340001145828003D54500060542054181828012
:1013500083D705002300F50083D70500A183A300F0
:10136000F50003D52500090542054181828083D718
:1013700005002300F50083D70500A183A300F50035
:1013800083D725002301F50083D72500A183A3017E
:10139000F50003D54500110542054181828083C7D0
:1013A00005002300F5000545828083D70500411123
:1013B00022C406C62300F50083D705002E8411053C
:1013C000A183A30EF5FE83D725009505230FF5FE17
:1013D00083D7D5FFA183A30FF5FE03C6F5FF97F0D2
:1013E000FA1FE780E0DF03454400B24022441105C4
:1013F000410182808947639CF500834715000347BC
:1014000005000145A207D98F2310F60082801145FF
:10141000828003D70500D94763FEE702011122CC81
:1014200006CE2EC62A84EF80906BB24683D7060084
:10143000636DF50022856244F240B715050001474F
:1014400009469385852805610DBBF2406244094534
:10145000056182800945828091479DC583460500CC
:10146000FD15C2058547C1816392F60213D7250099
:101470008D89914791E9914701CB05052301D6005C
:101480002310E60048C281473E8582800947914784
:10149000E39CE6FEC94733D7F502B3F5F502D1BFA9
:1014A000AE86B7150500014711469385E529F1B1D0
:1014B00093F7350091EB8981914789C52310B600D8
:1014C00048C281473E8582809147EDBF03C74500F2
:1014D0008947631AF702011122CC2A84C84506CE37
:1014E000AE86014719C52EC69D45EFE00FE3B24613
:1014F0002A8722856244F240B71505001946938574
:10150000652C05619DB90945828099E1114582806C
:101510008347050005472311F600E379F7FEFD1523
:1015200093F5F50F33D7F502B387E702E390F5FEA5
:10153000050548C22310E6000145828083C74500A7
:101540000947AE866385E70041476399E700B71511
:101550000500014721469385A53A05B109458280DA
:101560002310B60091E1014548C201458280AE8654
:10157000B71505000147294693856530FDBE231048
:10158000B60091E1014548C201458280AE86B7159B
:101590000500014731469385C531C5B62310B60015
:1015A00091E1014548C20145828003D74500854746
:1015B00063FDE702011122CC2A84884106CE0DC1C9
:1015C0002EC68545EFE06FD52A8722856244B24654
:1015D000F240B7150500394693854534056171BE63
:1015E000F240624409450561828009458280914745
:1015F0009DC5034705008D46914763F2E602FD1540
:10160000C205C181B3C6E5023308D702639905015B
:1016100005052310D6002311E60048C281473E8508
:10162000828083C745000947AE866385E70041474E
:101630006399E700B7150500014741469385A53A30
:101640002DBE09458280B335B000139525008280F8
:10165000011122CC26CA06CE03C785008547AA847D
:101660002E8449466310F702613C835724004915D4
:101670001306200963C8A700F2406244D24409451A
:10168000056182800347940085476314F700136661
:101690000604484011C58D4532C6EFE00FC83246FA
:1016A000A2866244F2402A872685D244B7150500F7
:1016B000938505350561D1B48D4763FFB702834734
:1016C000150003470500F115A207D98F2310F60076
:1016D0008347350003472500C205A207C181D98F82
:1016E0002311F6002312B60089C5110508C601456D
:1016F000828023240600E5BF11458280011122CC9F
:101700002A84884506CEAE8611C52EC69545EFE0E3
:10171000CFC0B2462A8722856244F240B715050041
:1017200059469385E536056189BCB335B0001395FC
:1017300025008280AE86B715050001476146938576
:10174000E53925BC8547114563F4D7028347160068
:1017500083450600A207CD8F2310F7009387E6FF8D
:101760002311F70089476386F600090650C3014537
:10177000828023220700E5BF0147814679468145E3
:10178000EDBA83D705002300F50083D70500A183B8
:10179000A300F5000945828083C725000547230083
:1017A000F50003D505006397E7000A050505420526
:1017B00041818280C9473305F502CDBF03D50500BD
:1017C0000A0542054181828083D725002300F50068
:1017D00003D5050083D725003305F502050542052D
:1017E0004181828003D50500828003D50500828077
:1017F00003D50500828083D725002300F50003D59B
:10180000050083D725003305F50205054205418112
:10181000828083D705002300F50083D70500A183CC
:10182000A300F50083D725002301F50083D7250009
:10183000A183A301F50003D54500110542054181AF
:10184000828083D705002300F50083D70500A1839C
:10185000A300F50003D525000905420541818280DA
:1018600089471145639BF6008347160083460600AF
:101870000145A207D58F2310F700828003D705000A
:10188000D947AE8663F9E700B715050001470D4655
:101890009385257871BA0945828011456393A60224
:1018A00083471600834606000145A207D58F231003
:1018B000F7008347360083462600A207D58F231101
:1018C000F700828083C725000547FD1793F7F70FC0
:1018D0006361F70483D705008DCF011122CC2A84E0
:1018E000C84106CE15C12EC68945EFE00FA32A8751
:1018F00022856244B246F240B7150500154693852D
:10190000857905616FF0DF92F24062440945056117
:101910008280094582809547114563F9D7064111B8
:1019200022C426C24AC006C683471600BA840347AB
:101930000600A2073284D98F2390F4008347360033
:101940000347260093054400A207D98F2391F40092
:1019500089472382F400094613855400368997F09D
:10196000FA1FE780E0879307A9FF2394F4009947C3
:10197000631BF90023A60400B240224492440249AA
:101980000145410182801904C0C4FDB7828083D71C
:1019900005008DCF011122CC2A84C84106CE15C185
:1019A0002EC68545EFE06F972A8722856244B246AE
:1019B000F240B71505001D469385C57B05616FF0A4
:1019C0003F87F24062440945056182800945828073
:1019D00099476395F6048947411106C62302F7002B
:1019E0008347160083460600B285A207D58F2310D1
:1019F000F700834736008346260003464700A207C8
:101A0000D58F130557002311F700910597E0FA1FB2
:101A1000E780007DB240014541018280D1471145F8
:101A20006394F600C1474DBF828083D705008DCFF8
:101A3000011122CC2A84C84106CE15C12EC6894583
:101A4000EFE0AF8D2A8722856244B246F240B71597
:101A5000050025469385857C05616FF06FFDF2409A
:101A600062440945056182800945828089471145A4
:101A7000639BF60083471600834606000145A207D4
:101A8000D58F2310F7008280011122CC2A84C8410F
:101A900006CEAE86014719C52EC68545EFE0EF8715
:101AA000B2462A8722856244F240B71505002D46CA
:101AB0009385457E05616FF0AFF711456393A602EC
:101AC00083471600834606000145A207D58F2310E1
:101AD000F7008347360083462600A207D58F2311DF
:101AE000F7008280011122CC2A84C84106CEAE863E
:101AF00011C52EC68545EFE04F82B2462A87228562
:101B00006244F240B715050035469385A57E056110
:101B10006FF00FF293F71600114589EB8947638741
:101B2000F60085822312D70010C30145828001117F
:101B300022CC2A84C84106CE15C12EC68545EFD0D9
:101B4000DFFD2A8722856244B246F240B7150500C0
:101B50003D469385057F05616FF08FEDF24062444D
:101B600009450561828083D705008DCF011122CC04
:101B70002A84C84106CE15C12EC68945EFD0FFF98B
:101B80002A8722856244B246F240B71505004546D1
:101B90009385657F05616FF0AFE9F24062440945C6
:101BA0000561828009458280854763FCD702230452
:101BB000A700A304B7008347160083450600A207C9
:101BC000CD8F2310F7009387E6FF2311F700894795
:101BD0006386F600090650C3014582802322070070
:101BE000E5BF11458280014781464D4681456FF032
:101BF0002FE48D47114563FBD702834716008345C9
:101C00000600A207CD8F2310F700834736008345D7
:101C10002600A207CD8F2311F7009387C6FF23125A
:101C2000F7006386A600110610C7014582802324B1
:101C30000700E5BF011122CC2A84884506CEAE8676
:101C400011C52EC69545EFD05FEDB2462A87228595
:101C50006244F240B72505005D4693852581056104
:101C60006FF00FDD854711456397F6008347060047
:101C700001452300F7008280014781466546814582
:101C80006FF00FDB011122CC2A84C84106CEAE864C
:101C9000014719C52EC68D45EFD03FE8B2462A87C9
:101CA00022856244F240B72505006D469385258460
:101CB00005616FF08FCC011122CC2A84C84106CE79
:101CC000AE86014719C52EC68D45EFD01FE5B24639
:101CD0002A8722856244F240B72505007546938520
:101CE000258405616FF06FC9011106CE2EC6EF90F5
:101CF000706D01C9B245F2400355250005616FD0F2
:101D0000106FF240494505618280B7270020A38209
:101D10000798B727002023820798B727002023A61B
:101D20000796B727002023A80796B727002023AAE5
:101D30000796B727002023AC0796B727002023A4D7
:101D40000796B727002023A20796B727002093877E
:101D500047B5370684033707B40090D337C607006A
:101D600098C3130606B83747A000D8C3D0D33707A7
:101D7000100041669306070AB70550009308060154
:101D800094C723A4170393860501930816F8D4C7B4
:101D900023A61703B706D007B7087F001308070567
:101DA00013850601410723A81703B0C39308160043
:101DB0009386060513861500D8CBF8C323A8070120
:101DC00088CF23AE070023AA170323AC070223AE54
:101DD000070223A40704F0C7B4CB23AA0704ACCF9F
:101DE00023AE0705B8D33707A000F8D71307000ABA
:101DF000B8DB1307C01CF8DB7D57E8D323A4070624
:101E0000239CE7068280011126CAAA84214522CCA0
:101E100006CE2E8432C636C43AC2EFD03FD81DC992
:101E2000A24612473246930700FD2300F50099476A
:101E3000A30095002301F5002303D500A303E500CB
:101E40002312C500AA8522856244F240D24405616E
:101E50006FD0DFDFF2406244D24405618280B72751
:101E6000002023A6A7968280B727002023A8A79644
:101E70008280B727002023AAA7968280B727002058
:101E800023ACA7968280011122CC4AC806CE26CA6E
:101E90002A890144B30489006368B400F2406244B3
:101EA000D2444249056182802EC6EFD0FFF29317DB
:101EB0000501C183A183B2452380F4009307140078
:101EC00093F7F70F850463F9B700CA9709042380D5
:101ED000A7001374F40F7DBF3E847DBF411122C45F
:101EE00037240020130404BD03556400C16706C6EF
:101EF000FD17630FF500B727002003C6C7CBB72532
:101F000000209385C597EF909029FD572313F40087
:101F1000B24022444101828009C925151375F50F8D
:101F20001335850E1345150082800145828023906C
:101F30000500C9C6797122D426D24ECE52CC5AC8D9
:101F400006D64AD056CA5EC63684328AAE892A8BF5
:101F5000814463F34407B307940083C707001389E0
:101F600014004209939A070193DA0A0113590901EF
:101F700063840A04CA976341FA04B307240183CB3C
:101F800007005E85513F0DC99387FAFF2390F90042
:101F900063906B03130519002295B250225492549A
:101FA0000259F249624AD24A424BB24B45618280A1
:101FB000D694C204C18071BF0145C5B70145828076
:101FC000011122CC3724002026CA4AC84EC69307E6
:101FD00004BD06CE2E89D0CB8CCBC8C7AA8441467F
:101FE0009305F00F4A8597E0FA1FE780E02C8549BA
:101FF000130404BD631935030848C14569354146DA
:102000009305F00F268597E0FA1FE780E02A05493F
:102010006315250348446244F240D2444249B24920
:10202000C14505618DB5414681454A8597E0FA1F56
:10203000E7808028E31535FDC1B7414681452685F7
:1020400097E0FA1FE7804027E30625FDF24062444F
:10205000D2444249B24905618280011122CC372421
:10206000002026CA4EC6AE84AA89130600021305B4
:1020700004BD814506CE4AC897E0FA1FE780C01923
:10208000B7270020130904BD238097CCA301390191
:10209000EFD03038130404BD854719C18147494545
:1020A0002300F400F2406244D2444249B24905613F
:1020B0008280814781CD19C98547631BF50083C79D
:1020C000550093E707FCA382F50085473E85828093
:1020D00089476317F50083C7550093F7F703E5B702
:1020E0000D478547E314E5FE03C755001377F70353
:1020F00013670704A382E500D1BF81478DC105C1E5
:1021000003C755009306000C85471377070C630837
:10211000D700930600048D476303D70089473E85A7
:102120008280411122C4005D06C626C21DC8AA8451
:10213000085009C597E0FA1FE78000FD485009C51F
:1021400097E0FA1FE78040FC085409C597E0FA1FA2
:10215000E78080FB228597E0FA1FE780E0FA23AC56
:102160000402B2402244924441018280B7270020F9
:10217000938707BD19E903C727001385870101CBA2
:10218000372500201305C59582801385870182803D
:10219000B727002003C527BD8280B727002003A5ED
:1021A000C7BD8280B727002003A507BE8280B7275E
:1021B000002083A747BE88438280B72700209387EB
:1021C00007BDD44B9842050798C203C53700930753
:1021D000F00F6305F50091656FD0BFD982800111C2
:1021E00022CC06CE2E8432C6EF90702E9147B24597
:1021F0006310F502B727002083A7879795C303A331
:102200000700630F030022856244F24005610283E8
:10221000B727002083A7079781C703A34700D5B737
:10222000F2406244054505618280011122CC2A8476
:102230000355450006CE26CA4AC84EC6EF90500741
:102240003DC92A89834405008349C500D93D4A8593
:10225000EF90106703554400EF90B022372900201B
:102260001309499883470900B9CB639A9704B727A4
:10227000002083C557982685853C19E12300090075
:1022800003554400EF90B0249147631FF500B72732
:102290000020938707BD8356440003D767006395EA
:1022A000E6007D572393E700F2406244D24442495E
:1022B000B2490561828081499304F00F45B79307C5
:1022C000F00FE38FF4FA834664000356440003459D
:1022D00024004E87A685053E65B779715EC6AA8B38
:1022E0002E8552CC56CA5AC806D622D426D24AD0F7
:1022F0004ECEAE8A328B368AEF90807B7DC1045DF4
:102300002A89E5C09C50614599C3130540039C543C
:1023100081C751054205418163050A0071054205E7
:102320004181DC5081C7590542054181EFD01F87AB
:102330002A8445C96146814597E0FA1FE780C0EDD0
:10234000B727002083C947B863940900834909006F
:10235000930700FD2300F400A947A30074012301A3
:10236000F400230364018C502312540113058401EB
:1023700091C908C47146930A440397E0FA1FE780A5
:1023800020E656858C5491C948C45146930A4501AC
:1023900097E0FA1FE780C0E45685630C0A0008C87E
:1023A0007146D285930AC50197E0FA1FE78040E3A2
:1023B0005685CC5099C548C8594697E0FA1FE78022
:1023C00020E2A2854E85EFD07F882254B2509254ED
:1023D000F249624AD24A424BB24B4A8502594561A0
:1023E00089B3B250225492540259F249624AD24AF5
:1023F000424BB24B4561828001114EC6AA892E859F
:102400004AC806CE22CC26CA2E89EF90606A21C91E
:10241000B727002083C447B899E0834405001945D5
:10242000EFD0CFF72A8405CD8145194697E0FA1FF2
:10243000E78080DE930700FD2300F400B947A30086
:1024400034012301F40023122401A2856244F240E6
:102450004249B2492685D24405616FD02FFFF24030
:102460006244D2444249B2490561828039715ECEEC
:10247000AA8B2E8526DA4ED652D456D25AD006DEF4
:1024800022DC4AD8AE84328BB68A3A8ABE8942C6EA
:10249000EF90006221CD2A894145EFD02FF02A84A8
:1024A00031C54146814597E0FA1FE780E0D6B7275E
:1024B000002003C547B819E103450900930700FD53
:1024C0002300F400BD472301F400B247A3007401C8
:1024D0002312940023046401A3045401230544013E
:1024E000A30534015CC4A285EFD04FF6F2506254CC
:1024F000D2544259B259225A925A025BF24B21618C
:102500008280797126D2AA8439454AD04ECE06D629
:1025100022D42EC6B2893689EFD04FE821C1B24508
:102520009307000D2310F500B1472A842312B5004C
:102530002301F500CE851905194697E0FA1FE780BB
:1025400020CA23062401A2852254B2500259F2491E
:1025500013F5F40F925445616FD04FEFB2502254EF
:1025600092540259F24945618280411126C2B72432
:102570000020938404BD03C7340006C622C44AC0A9
:102580009307F00F630AF7042A893945EFD00FE16A
:102590002A8439C1930700FD2300F500A30025011B
:1025A00023010500938584010D05194697E0FA1F64
:1025B000E78000C383D78400A28503C534002315B8
:1025C000F40083C714002306F4002244B24092446E
:1025D000024941016FD08FE7B24022449244024940
:1025E0004101828001115AC02A8B314526CA4EC64C
:1025F00052C456C206CE22CC4AC8AE84B28A368AAB
:10260000BA89EFD0AFD93DCD2A842685EF90404AD4
:1026100011C50347C500A1476314F704B72700207D
:1026200003C937BD930700FD2300F4009D47A300B5
:1026300064012301F4002312940023135401231492
:10264000440123153401A2856244F240D244B249C8
:10265000224A924A024B4A85424905616FD00FDFF8
:10266000B727002003C917CCE31E0BFAB7270020B9
:1026700083A747AA9C47DDD7CE865286D685268576
:1026800082974DB7F2406244D2444249B249224A4D
:10269000924A024B05618280011122CC2A84214595
:1026A00006CE2EC6EFD08FCF21C1B245930700FDD5
:1026B0002300F500C5472301F50083C73500A301BA
:1026C000F50083D745002312F50083C76500230377
:1026D000F50083C77500AA85A303F500228562442F
:1026E000F24005616FD08FD6F2406244056182806E
:1026F000397162CC2A8C594526DA4AD84ED652D442
:1027000056D25AD05ECE06DE22DCAE8432C636C445
:10271000BA8B3E8BC28A468A83590104034941041D
:10272000EFD0CFC725C93246930700FDA24623004C
:10273000F5009547A301C500A30085012301F5001D
:102740002A8419461105A9C2B68597E0FA1FE780C9
:1027500020A923066401230A2401231574012317E9
:1027600054012318440123193401A2856254F25004
:102770004259B259225A925A025BF24B624C268558
:10278000D25421616FD08FCC814597E0FA1FE7804A
:10279000A0A8C1B7F2506254D2544259B259225A39
:1027A000925A025BF24B624C21618280411122C439
:1027B00037240020130404BD8347240006C626C224
:1027C0008DCBB7240020AA8519461385C49597E0C0
:1027D000FA1FE780E0A0034524009385C495EFF03D
:1027E0005F8D2244B2401385C495924441016FD05D
:1027F0000043B2402244924401454101828041118C
:1028000026C2B7240020938704BD06C622C44AC04E
:1028100003C737009307F00F938404BD6304F704E4
:102820002A892945EFD08FB72A840DCD930700FD63
:102830002300F500A147A30025012301F50083C76C
:102840002400B72500209385C595A301F5001946FE
:10285000110597E0FA1FE780A09803C53400A28510
:10286000EFD0CFBE03C724008D476311F702B7270F
:10287000002083A7479799CB03A387006308030031
:102880002244B2409244024941010283B2402244B0
:102890009244024941018280797122D406D626D21F
:1028A0004AD04ECE52CC56CA09445DCD2A89035532
:1028B0000500AE895144EF90A01FAA8455C5372763
:1028C00000209307C7CB83C747008546BA8AFD1708
:1028D00093F7F70F494463F9F6080347C500A1478A
:1028E0006314F700639209089C5C4544B5EF916559
:1028F000938545711305C00297D0FA1FE780807455
:1029000088DC2A8A4D442DC11306C002814597E018
:10291000FA1FE78060908357090093064A003685C6
:102920002311FA0071469305490036C697E0FA1F55
:10293000E780008B89472300FA0003C5C400B24634
:102940000356090083C5CACB611513351500EFA0E6
:10295000C03A2A8463860900CE852685EF90F0254B
:1029600001C42685EFF0EFFB2285B2502254925429
:102970000259F249624AD24A45618280B727002053
:1029800083C707CC0547FD1793F7F70F637AF7085E
:10299000894741CA011122CC26CA4AC84EC652C430
:1029A00006CEAA89368AB2842E89EF9060102A84D6
:1029B000D14739C9485509C597D0FA1FE780C07477
:1029C000F145268597E0FA1FE780608748D4CD4718
:1029D00005CD8346C40021478147639FE600630D10
:1029E0000A000347A5010356050193062501AA85A0
:1029F0004E85EF903024AA8703474400630F0900F7
:102A0000136767002302E400F2406244D244424963
:102A1000B249224A3E850561828013674700DDB7CF
:102A2000C9473E8582809307B00363ECA7009317E4
:102A3000150037250020130545B53E9503550500C3
:102A4000828041657D158280011122CC2A842E85E9
:102A500026CA06CEAE84EF90A0051DCDB7470F0065
:102A60009387F723094563E4870281450A85414638
:102A700097D0FA1FE780407AA685231081000A8547
:102A8000418023018100A3010100EFA04014F24026
:102A90006244D244056182804945D5BFB7270020F2
:102AA000238FA7CA82806FA0601F797152CC2A8AB7
:102AB000328522D426D24AD04ECE56CA5AC85EC6D5
:102AC00006D662C4AE8BB28A368BBA843E89C2897E
:102AD0004684EF80F07D15C92A8C63140A021377AF
:102AE0004B008347450015CF93E727012302FC00E5
:102AF0008DEC631C0902639A090205E8ED9B230231
:102B0000FC00832B8C0363910B08B2502254925427
:102B10000259F249624AD24A424BB24B224C4561B9
:102B20008280F59B93E70701D1B793E74700230223
:102B3000FC0001CC1C484146A2852324FC0213055D
:102B40008C0197D0FA1FE780A06963930B02D5D858
:102B50000325CC0209C597D0FA1FE780E05AF1455A
:102B6000268597D0FA1FE780806D2326AC0251BFDF
:102B7000E30909F80325CC0209C597D0FA1FE780BD
:102B8000A058F1454A85F1BF9DC483A70B0299EB7C
:102B9000916593853571714597D0FA1FE780804A1A
:102BA00023A0AB0203A50B0219C57146A68597D0D9
:102BB000FA1FE780E0626388090283A74B0299EB62
:102BC000916593852571594597D0FA1FE780804715
:102BD00023A2AB0203A54B0219C55946CE8597D057
:102BE000FA1FE780E05F1DC483A78B0299EB916514
:102BF00093851571514597D0FA1FE780A04423A40F
:102C0000AB0203A58B0219C55146A28597D0FA1FC6
:102C1000E780005D2254B2509254F249B24B224CEC
:102C2000CA865A860259424BD6855285D24A624A92
:102C300045616FF08FEA011126CA52C406CE22CC3C
:102C40004AC84EC62A8AAE84EF80906625C5AA89F6
:102C50003945EFC0BFF42A8431CDB727002003C91E
:102C600047B86314090003C909009307000D231036
:102C7000F400AD472301F400938569001305340087
:102C8000194697D0FA1FE780A05593F71400858066
:102C900085882306F400A306940023154401A28529
:102CA0006244F240D244B249224A4A85424905610F
:102CB0006FC0DFF9F2406244D2444249B249224A2D
:102CC0000561828001114EC652C456C206CE22CC86
:102CD00026CA4AC8AA8A2E8AB289EF80705D2DCD95
:102CE0002A891305C002EFC07FEB2A8435C5B727B8
:102CF000002083C447B899E0834409009307000D7E
:102D00002310F400E9472301F4009305690013053B
:102D10003400194697D0FA1FE780804CD2852315DE
:102D200054011305C400414697D0FA1FE780404B79
:102D3000CE851305C401414697D0FA1FE780404A6B
:102D4000A2856244F2404249B249224A924A26850B
:102D5000D24405616FC09FEFF2406244D2444249C1
:102D6000B249224A924A05618280411122C4372425
:102D7000002013044496084006C619C597D0FA1FD0
:102D8000E780803823200400B24022444101828041
:102D9000011106CE22CC26CA4AC82EC6EF80505159
:102DA00039CDB245B727002003C947B80CD5AA844E
:102DB00063140900034905004145EFC03FDE2A8442
:102DC0001DCD9307000D2310F500A5472301F50045
:102DD00083C75400938564001105A30FF5FE1946BF
:102DE00097D0FA1FE780C03F9C54A285F2405CC494
:102DF0006244D2444A85424905616FC03FE5F240D2
:102E00006244D2444249056182801D71A2CC86CEC3
:102E10002A842EC6EF80D04905CD8346C5001147D0
:102E2000AA8749456392E6029C5FB24599C383C570
:102E30006701B7E605002308B100938666CB10084A
:102E400089452285EF90204EF640664425618280B8
:102E50005145DDBFB727002083C707CC0547FD17C5
:102E600093F7F70F637AF704894721CA411122C407
:102E700026C24AC006C6B2842E89EF8070432A84D7
:102E8000D14705C5630809008347450093E727003C
:102E90002302F5004146A6851305840197D0FA1F49
:102EA000E78000349C481CD48147B24022449244BD
:102EB00002493E8541018280C9473E858280797101
:102EC00022D406D62A842EC6EF80903E01CDB2458C
:102ED0002285230EB1006C08EF90A04AB250225414
:102EE000456182805145DDBF6F803053C1671387D4
:102EF000E7FF6395E502B727002083A7079791EBCB
:102F0000494582804945B2402244924402494101E8
:102F1000828003A30700E30503FE0283411122C45C
:102F200026C24AC006C6FD172A892E84B284639A37
:102F3000F502B727002083A7079791CF9C4381CF45
:102F4000829711E9B727002023822799B72700200D
:102F5000A38297984DBFA6854A85EFE0FFD845F537
:102F6000D5B72E85EF80D03451DD834705000D4560
:102F7000E39B27F922852244B2400249A685924468
:102F800041016FC0D0461307B0036360A70641112B
:102F9000C16722C406C626C2FD172A84094563827A
:102FA000F502C547AE846313F4022E85EFC0F04BE3
:102FB00037250020130545B506042A9423109400F4
:102FC0000145B24022449244410182809307A0030C
:102FD0006316F4002E85EFC05042D9BFE31AE4FC1B
:102FE00013F5F50FEFC0B041E1B70945828001113B
:102FF00006CE2AC6EFE07FD1EF20206EEF10D01D65
:10300000EFB0713DB7270020938707BD130700F08D
:103010002391E70023820700B7270020324513875A
:10302000C7CBFD562301D700F240238EA7CA954592
:1030300005616F70E0361D7193970501CAC886CE91
:10304000A2CCA6CACEC6D2C4D6C2DAC05EDE62DCCC
:1030500066DA6AD86ED6C1872E8963D50754B72A37
:10306000002003C5CACBB7240020372B0020EFC0B7
:103070005FB72A84372A0020372C0020372D002004
:10308000938404BD1DE021653345A900F6406644E4
:10309000D6444649B649264A964A064BF25B625CDC
:1030A000D25C425DB25D25618280834704001307D4
:1030B000200A639CE70083C9340003552400C165DE
:1030C0002286FD15EFF0AF91B9AA1387CACB8349C9
:1030D0002700130710096394E71683471400154768
:1030E000639EE7002285EFF04F942285EFC05FA832
:1030F00003C5CACBEFC0FFAE2A8469B73947639ACC
:10310000E716035544008567A5076315F5040C44CD
:1031100083CB0500639D0B00850591C9B72700206F
:103120001946138587BE97D0FA1FE780600B03C747
:10313000040085476315F71063880B0023800400A3
:103140005E85EFF08FC255B789472380F400EFC04A
:10315000D02C61BF896713872700631CE504832B8C
:103160008400638E0B0C83C70B0089EF83C72B0091
:1031700003C71B00A207D98F2394F40083C73B0029
:10318000A380F40003C704008947631AF70A83C7C2
:103190000B0091C72380040003C50B005DB783C5F6
:1031A000140003D584008D472380F400EF70402283
:1031B000E5B795076318F5001C4403C50700EFF059
:1031C0000FE425B7F9771387A7FF2A9742074183B2
:1031D000914663F1E6049387A7FCAA97C207C183CF
:1031E00071476371F70289671387B7006310E504BD
:1031F0008327CA96E38B07EE9C43A285E38707EEFD
:10320000829715A0370700181307F770B357F70018
:10321000858BB1CB83274B97E38907EC9C43E386EF
:1032200007EC22858297E31205EC11A81387C700EB
:103230006310E5021C4483C70700E38807EA93078D
:10324000F00FE384F9EAA2854E85EFC03FA04DB5AB
:10325000B907631AF500B727002083A70797E3860D
:1032600007E8DC4359BF896793871704E302F5F841
:10327000F9B73D47639BE70403554400896713870B
:10328000D700E30AE5FC13879701E306E5FCCD07C9
:10329000E317F5FA03D76400C167FD17631FF70052
:1032A000B727002083A70797E38107E4DC43E38E79
:1032B00007E20965A2854D05A1B7B727002083A7BE
:1032C0008797E38407E29C43DDB71307E003E398A5
:1032D000E7F68347240005476396E70E83476400BB
:1032E00037270020930D4796F1E383A70D00C5CF44
:1032F00083CB0700A14903457400930C8400E68545
:10330000EFE0BFDF83474401A303A4008358040117
:103310000358E400035744002A86034534003EC2A4
:1033200083572401E686DE853EC0CE87EFF04FBC92
:103330008347340095E7DD47835804010358E400D0
:1033400083467400835544003EC2835724013EC027
:103350006687CE8705465E85EF80702EA301A400A8
:1033600083A70D0081C71145EFF03FA0930B4C9848
:1033700003C50B00E30B05D683455D98EFE0DF96B0
:10338000E30505D68346340093071003638AF600ED
:103390000356440083C50B004E873685EFE0BFA679
:1033A00023020C9899B383CB3400A9B783274B979A
:1033B00083CB34009149A1D3DC4395DF814501459E
:1033C000829715BF29476390E70A83476400372730
:1033D0000020930D4796A5EF83A70D00B5C783CBBB
:1033E0000700A14903457400930C840093772500DE
:1033F0001376150089E7E685EFE03FD02A868347FC
:103400000402A303C4008358C4010358A401035752
:103410004400034534003EC28357E401E686DE855E
:103420003EC0CE87EFF0CFAC8347340095FBDD473D
:103430008358C4010358A401834674008355440093
:103440003EC28357E40121B783CB340059BF8327A1
:103450004B9783CB34009149D1D7DC43C1D7814509
:103460000145829741B70947639CE7008327CA96C5
:10347000E38D07C6DC43E38A07C622858297B5B190
:103480002D476398E7008327CA96E38007C69C47C9
:10349000DDB70D476397E70022868D45035544004D
:1034A00015B119476395E7069305610113051031BE
:1034B000EFB0017B2C0813052031EFB0617A035681
:1034C0006400835781010355440063E8C7008356B5
:1034D00084000357610163F7E60093050002EFC023
:1034E000C07721B16374E6002313E40063F4D700CE
:1034F0002314F4000357C4008356A4000356840029
:103500008355640001488147EFC0E074F9BE1D4750
:10351000E387E7D231476395E7002286B145BDBF17
:1035200035476398E7008327CA96E38007BCDC47EA
:1035300099B739476396E7002285EF00700675B6A4
:103540003D476398E7008327CA96E38007BA9C4B00
:103550001DB741476396E7002285EF00900F71B6D3
:1035600045476396E7000145EF00101FBDBE494780
:10357000639DE70083274B97E38307CCDC43E3801D
:1035800007CC8145054582975DB94D47E399E7CA68
:1035900083274B97E38507CADC43E38207CAA285EA
:1035A0000945D5B793F7150089CFB727002083A722
:1035B000C79689C7DC4399C3014582971345190013
:1035C000F1B493F7250091CFB727002083A7479741
:1035D00091C7DC4381C78145054582971345290082
:1035E00075B493F745000145E38207AAB727002089
:1035F00083A7879637240020130404BD91CF854705
:103600002302F400B727002083A7479791C7DC4324
:1036100081C781450545829748442C08EF90804733
:103620002808EFF0AF98B727002083D767B781CF7E
:10363000130600643386C702B727002003C5C7CB33
:103640009145EFC05FA41345490089B4011122CC14
:103650002A84554506CE26CAEFF0EFBCAA8413058E
:103660004002EFF04FBC2AC613055002EFF0AFBB8B
:10367000AA86228562443246F240B3359000D24495
:1036800005616FC0A063797122D406D68D472E8460
:10369000631FF50003D7A50083D6850003D6650018
:1036A0000345340083D54500EFE0DFF309A88967BF
:1036B0001387D7006311E50403C5250019E5854785
:1036C000B25022543E8545618280B727002083A6F0
:1036D0004796F5D603C6360083C50600814802C268
:1036E00002C00148814701479106EFF06F80054510
:1036F000EFF0AFE7E9B71387E700E302E5FC1387D4
:103700003701631AE50003C5250055D901478146F5
:103710000146814551BFE507E303F5FAB147631957
:10372000F500B727002003C537BDEFE0FFF641BF26
:1037300041677D178147E315E5F803C75500C94781
:10374000E31FF7F683D6E50003D6C50003558400D2
:1037500083D5A500EFC0405851C15D45EFF0AFAC37
:103760003335A000231CA1008345440003552400E9
:103770003008EF80202483578101B1F36C081305D2
:103780001031EFB0E14D9305E10113052031EFB0A9
:10379000214D8357C101035784006374F70023143C
:1037A000F4008357E1010357A40063F4E7002315F5
:1037B000F400835584008357A40063F4B7002315F5
:1037C000B4000357E4008356C4000356A400035515
:1037D000240001488147EFC0C045D5B58547231C6B
:1037E000F10059B7B72700201387C7CB834677006E
:1037F0001307F00F638CE60851C9411122C426C299
:103800004AC006C6AA840345A5001389C7CB410553
:10381000EFC0CFB82A842DC59307000D2310F50003
:10382000D9472301F50083D744002312F50083C74D
:1038300064002303F50083C77400A303F50083C766
:1038400084002304F50083C79400A304F50003C695
:10385000A4002305C50015C2CC44410548C497D037
:10386000FA1FE780E097A285224403457900B24021
:103870009244024941016FC06FBD23260500E5B7A0
:10388000B240224492440249410182808280C16751
:103890001387E7FF639EE500B727002083A74796BD
:1038A0009DC383C707000D47639DA7006FC0A03766
:1038B000FD1749476397F500B727002083A7479670
:1038C000F5F73A8582804947EDBF397122DC06DE83
:1038D00026DA4AD84ED652D456D25AD05ECE62CCD0
:1038E0000347050085472A84630DF70403468500D6
:1038F000930695009305E1000545EFE04FE381470E
:1039000019C1834705008346040011476383E60419
:1039100037270020032747998D4603471700630A7E
:10392000D70285CB1DC70DE10145F2506254D25438
:103930004259B259225A925A025BF24B624C2161AF
:10394000828081470145C1B785466314D70A8D8BB4
:10395000E1DF03451400130A2400D285EFE0EFF9FC
:1039600037290020A300A400832789992A8B1309F3
:1039700089998149C1C7B72A00209304F00F83C7F2
:103980000A99138C0A9963FDF90203250900939B98
:1039900049005E95834705006384970683471500B9
:1039A000639067071946D285090597D0FA1FE7800B
:1039B000008C39C58324090003470400DE94B9E470
:1039C000834604009147E381F6F683270900A9DFC7
:1039D00003460C0001479305F00FE307E6F4BE84AD
:1039E000C10703C507FF6309B50C05071377F70F78
:1039F000EDB78946E31AD7F2858B99BF054535B7F0
:103A0000850993F9F90FA5BF88C4F5A09147631AFA
:103A1000F706C84405C583478400034605006304D0
:103A2000F606034704009147631DF706C84419C50D
:103A300097C0FA1FE780406D23A604000345840069
:103A400091659385E571050597C0FA1FE780805F52
:103A500005C5034704009147631EF704C8C48347A4
:103A60008400930594000505A30FF5FE034684002A
:103A700097C0FA1FE780C076034584003335A00065
:103A80006DB5884441BF93059400050597C0FA1FA2
:103A9000E780E07D8547E316F5F85545EFE0BFF890
:103AA000BDA8884441DD97C0FA1FE780E06523A4E4
:103AB000040069B788C465B72380D4008347140025
:103AC000D28513852400A380F400194697C0FA1FFD
