:020000024000BC
:10E000006F00223B000000000018011800280128C2
:10E0100002280328002901290229032904290529A6
:10E02000062907290829002A012A022A032A042A84
:10E03000052AA62A84EB06009CFD04006A02002043
:10E04000B40200202602002014020020DC0100207F
:10E05000F4FE040020FF04006600050076020500BF
:10E060001E03050010FC040034FB0400A6FB0400A2
:10E0700060FB0400E4080500FC030020CAFE040065
:10E08000A0050500E6A10600DEA3060056A40600D2
:10E090002868060070680600DA160600F60B06000F
:10E0A000C49B0600D6050500FA6F060048A80500C7
:10E0B000D6A805002EA90500A8110500F411050039
:10E0C0005E1005005A640500145F0500F26D05003E
:10E0D000C27105006E7505004A510500E850050043
:10E0E000D054050096510500BE5005004251050070
:10E0F000705005001A5205007252050022520500A8
:10E1000026520500C05205007A520500AC520500A7
:10E11000C6570500CA570500165205001E520500D5
:10E12000BE520500C85705006E530500385905005A
:10E13000CC8305004A84050088840500BE6605007E
:10E14000D666050012670500224B0500404C05000D
:10E15000B64C050020300500C02A050040410500EE
:10E16000402B0500A43C05004ECC0600D0C40600A0
:10E17000ACC90600B2DF060098DE060028E2060001
:10E1800018E2060020E2060060E206007CB6060007
:10E19000000000000000000000000000000000007F
:10E1A000D0E2060092DC060028DC06000000000039
:10E1B000000000000000000000000000000000005F
:10E1C000EC83060010750600047906006E760600E2
:10E1D000D47F0600669C060000000000B0B6060072
:10E1E000AC0A050098690600DA6F0600D2700600D6
:10E1F000000000000000000000000000BC6A0500F4
:10E200001E83060000000000000000000000000067
:10E21000C474060000060020606A06004CE2060096
:10E2200000000000000000001CE2060022020500C1
:10E230001068050054E20600E68506004C870600DB
:10E24000C8870600F2C9060050E2060058E2060040
:10E25000820B06005CE206001C0F0020C4130020A5
:10E2600000000000000000000000000000000000AE
:10E27000000000000000000000000000000000009E
:10E280006373B60082801C419105110523AEF5FE33
:10E29000C5BFB7270020372700209387878E130735
:10E2A00087E36373F700828023A007009107D5BF3F
:10E2B0005DCDAA870145D5CD8D07C207C183F19BEE
:10E2C000C207C18313074003636CF702372700209E
:10E2D0000325078F372700208326878E6397A602A2
:10E2E00037270020032707AA014541C74111C2076C
:10E2F00006C60545DD8D0297B24001454101828089
:10E30000372700200325C78EF1B70357650031EF8B
:10E3100003574500636BF704B72600203306F74028
:10E3200021489386C6AA6378C8028328050003D8CB
:10E330006600138687001D8F2A9661172312E60058
:10E34000232016012313060010C12312F500130722
:10E3500088FF2393E6002313B50083D566002105CB
:10E36000B387F5402393F6008280084185BF0145BD
:10E370008280828009CDB727002003A3078FB727AB
:10E38000002083A8878E81469A8763E317018280E5
:10E3900003A807006369F50A6367A80A1387870063
:10E3A000E367E5FE03D66700216705076319E6000A
:10E3B000372600200347C6990507230EE69837261F
:10E3C00000201305C6AA83D5470003576500239391
:10E3D00007001306C6AA2E97420741832313E500C0
:10E3E00063876702372500200325C58E6301F50288
:10E3F00003D5660009ED83D7460023A00601210757
:10E40000BE95A1052392B6002313E600B687984374
:10E41000E30F17F7B726002083A6C68EE309D7F6C9
:10E4200083566700ADF683D64700835547001843EF
:10E43000A106AE962392D70098C383576600A10722
:10E440002313F6008280BE86C28781B719CD91CD95
:10E4500009CE81473387F500834607003307F5006F
:10E4600085072300D700E317F6FE828019C991C9FA
:10E4700009CA910583A7C5FF11057D16232EF5FE58
:10E48000C5BF828001C919C62A960505A30FB5FE2E
:10E49000E31DA6FE828081473307F50003070700CE
:10E4A00019E33E8582808507C5BF01112E8626CAE5
:10E4B000AA84131506019305F004418122CC06CEEF
:10E4C00032C6FD332A8401C53246A68541372285EE
:10E4D000F2406244D24405618280854715C18DC1F6
:10E4E00005C28147B306F5003387F50083C60600F1
:10E4F000034707006398E6008507E315F6FE8547A6
:10E500003E8582808147EDBF9307F6FFBE952A9630
:10E510006313C5008280FD1583C715000505A30F91
:10E52000F5FEFDB7AA87014581CF09CE3E96850746
:10E5300003C7F7FF6317B700E39BC7FE054582805B
:10E54000828001458280797126D2B724002022D4AE
:10E5500003A4C49006D64AD04ECE52CC56CA5AC84E
:10E560005EC662C455C8372A002037290020B72963
:10E5700000209384C490814BB72A002037CBC90177
:10E58000130A0AA71309C9AA938909AF835724005C
:10E5900091EF5C4463990B009CC0032CC40022855E
:10E5A000D13B6284B9A823A6FB00C5BF83A74A90CC
:10E5B00082971C443307F5406376F50003A74900B2
:10E5C0001D8F2A979306FB3763EBE6062328090085
:10E5D0008355240003450400970005E0E780C0B898
:10E5E0005C405844B1C70C4403A64900AE97BE86B0
:10E5F00063E4B70063E4C700B386C74014C4A28BCA
:10E600003A8449F4B72700209387C7AA984B8946D4
:10E6100063FBE604791798CBB25022549254025906
:10E62000F249624AD24A424BB24B224C4561828047
:10E6300063940B0098C095B723A6EB00B9BF0327DE
:10E640004A0219CB63EDA7003385A7408327090150
:10E650006374F5002328A900A28B40445DB703A78B
:10E660004900BA97D5B723A807007DB701114AC85A
:10E6700037290020832749AD06CE22CC26CA4EC6B4
:10E6800052C4130949AD81C7829723200900B724DA
:10E690000020938784D783C75700938484D7858BC2
:10E6A0008DC3A382040083C774001547637BF70002
:10E6B000EF00704283C77400F5178A07CA979C431E
:10E6C00082978327890091C382973724002093077C
:10E6D000C4AA03C61700B729002003A7898F130413
:10E6E000C4AA9389898F8347040093961700BA962A
:10E6F00083D60600C9CE8347040063E2C70A832796
:10E700000900230004006390071083C7940081CFA1
:10E7100083C7740093F7F70F99E7A38404009770F9
:10E7200006E0E780C086B727002083A74790E1CFA7
:10E73000B727002083A747AF1CC83135B727002073
:10E74000938707A7D85361C383C757011848636CE1
:10E75000F70A83C7740015476367F70AB7270020D5
:10E76000938747DB83C7C700918BD1EF83461400A3
:10E7700003A6090063C1D70A6244F240D244424969
:10E78000B249224A0561170305E0670063E6850781
:10E7900093F7F70F2300F400E3E7C7F4A9BF860758
:10E7A0003E97835507002310070003450400B72751
:10E7B000002083A7079113172500372A0020BA9756
:10E7C0009C43130A0A9023100A00829783570A0079
:10E7D0000347040093C7F7FF7D8D9317170003A726
:10E7E00009003E97835707005D8D2310A7008347DC
:10E7F000040081C785072300F40003470400834712
:10E800001400E37EF7EEF2406244D2444249B2493A
:10E81000224A056182801397170032970357070039
:10E820007DF3850781BFAD6737C70040BD0723264D
:10E83000F7200F100000B72700209387C7AAC84F02
:10E8400083278726BD66BD0693C7F7FF99836A05B0
:10E850002326D7205D8D82804111B7170040985F35
:10E860003AC6945F3247E39CE6FE3245410182801E
:10E870001305F00F828003278511630007124111F1
:10E8800022C406C68347C5008345E5042A8493F75E
:10E89000C70F2306F500834697000356C70013955C
:10E8A0008601618563F1C508635A05060345870043
:10E8B00093F6F607A304D700054693E627006314F2
:10E8C000C50093E617002306D4005C4389075CC3A8
:10E8D000A30AB400032504112E864C430905BD3656
:10E8E0008327841103465401D44303D7C700B2964B
:10E8F000118FD4C32396E7008947A30DF400B727EF
:10E9000000200347640383C727A86378F70483477D
:10E91000C40093E707012306F40081A093E71700E2
:10E920002306F40075B79376F60F635D0502034581
:10E930008700854513E627006314B50013E617002A
:10E940002306C400A30AD400A30407008547A30D2F
:10E95000F400832784119C43DDF3B2402244014537
:10E960004101828093E717002306F400A30AD40034
:10E97000A3040700032504114C430905C13C832768
:10E98000841103465401D44303D7C700B296118FB4
:10E99000D4C32396E7008D475DBF05458280B72726
:10E9A000002083A7479C411122C406C6858B2A8478
:10E9B000DDEB4165130525F5972006E0E780000EA5
:10E9C0005DC18347A5002315F50083270412B5E731
:10E9D0002320A4122322A41285472311F404232008
:10E9E00005008347640154412316F5000347D40012
:10E9F0002304E5000547A304E5003727002003278B
:10EA000007D91385170215811C437D151375F50F62
:10EA10009CC25C43DCC21C479CC65C47DCC61C4BEA
:10EA20009CCA5C4BDCCA1C4F9CCE5C4FDCCE19CD23
:10EA30009386060213070702C1BF8327441288C3C7
:10EA4000835724042322A412850741BFB72700203F
:10EA5000938787C503D7870005072394E700B24053
:10EA60002244410182808347C400230904000545F4
:10EA700093C747002306F400DDB78347850193F76A
:10EA8000E70FDDEB83479501C5EB03462501834680
:10EA9000C50009CA3727002083456503034737A807
:10EAA00063E7E50013F7060149CB014709C6C18AB0
:10EAB0000357E51B81C68356251C36973DCFB727E4
:10EAC000002003D587AF1307C71237460F00B335B1
:10EAD000A702411113060624814622C426C206C697
:10EAE0007D543305A70297E006E0E780C0BAB72758
:10EAF000002083C797A8B384A700B727002003A7E7
:10EB000087CE8327070963F387003E84184375FB8C
:10EB1000B727002083A74790829781476364A400AA
:10EB2000B307A440B2402244B3B7970093C717007D
:10EB300092443E854101828081473E858280B7278D
:10EB4000002003A7479E7C53FDFF8280797126D267
:10EB500006D622D44AD04ECE52CC56CA5AC85EC629
:10EB60008347550303447513AA843E941374F40F2A
:10EB70009307400263F687001304B4FD1374F40F87
:10EB800003AA841383AAC413A38B841222865285FA
:10EB9000D68597E006E0E78040AD058915E503CB13
:10EBA000D41201498149337B6403930B50024A8696
:10EBB0005285D68597E006E0E78020AB058915C52C
:10EBC000639169031374F90F238B8412B25022549A
:10EBD00092540259F249624AD24A424BB24B4561C1
:10EBE00082808509E20993D989410509E31179FDFC
:10EBF000E1BF8327850903560504797193D6070180
:10EC0000BD8EC206C182358E13577640935756404B
:10EC1000898B058B5D8F93573640918B5D8F935712
:10EC20001640A18B5D8F93171600C18B5D8F9317D4
:10EC3000360093F707025D8F9317560093558600B1
:10EC400093F707041E065D8F1376F60F518F93D747
:10EC5000554013D63540118A898BD18F13D6754014
:10EC6000D18F13D61540218AD18F13961500418A72
:10EC7000D18F1396350013760602D18F1396550067
:10EC8000137606049E05D18F93F5F50FCD8FA2075D
:10EC900045465D8F3307C70222D42A8426D252CC40
:10ECA00056CA032A8413832AC4135AC806D6369731
:10ECB0004207418393577740135557400989858B05
:10ECC000C98F135537401189C98F135517402189B2
:10ECD000C98F131517004189C98F13153700137594
:10ECE0000502C98F13155700935587001375050446
:10ECF0001E07C98F1377F70FD98F13D5354013D758
:10ED000055401189098B498F13D57540498F13D50B
:10ED100015402189498F139515004189498F139515
:10ED2000350013750502498F1395550013750504B9
:10ED30009E05498F93F5F50F4D8F2207D98FB38725
:10ED4000C7024AD04ECE5EC662C4B697C207C18320
:10ED500013D7774013D557400989058B498F13D5B1
:10ED600037401189498F13D517402189498F139551
:10ED700017004189498F1395370013750502498F94
:10ED80001395570093D58700137505049E07498F87
:10ED900093F7F70FD98F13D5354013D75540118905
:10EDA000098B498F13D57540498F13D5154021899B
:10EDB000498F139515004189498F139535001375B7
:10EDC0000502498F13955500137505049E05498F5B
:10EDD00093F5F50F4D8F2207D98FB387C70213061E
:10EDE00050025285D685B697BD8E93940601C18098
:10EDF00033F6C402137BF60F97E006E0E780E08667
:10EE000005890DED8347D41201498149B3849702E6
:10EE1000130C5002C1804A865285D68597E006E0E1
:10EE2000E780A0840589937BF90F11C563863403BD
:10EE3000850993F9F90F0509E31F89FD230B641375
:10EE4000B250225492540259F249624AD24A424B79
:10EE5000B24B224C456182805E8BCDB7797122D452
:10EE600006D683C735002E8423160100A307F100C0
:10EE700083C74500100802C02307F10083C755006F
:10EE80008A8502C2A306F10002C402C802CA02CCEB
:10EE900002CE81220347F10183470400014563103C
:10EEA000F7020347E1018347140001456319F700A6
:10EEB0000345D101834724001D8D13351500B25041
:10EEC0002254456182800111B727002022CC03A47F
:10EED00087D126CA4AC84EC606CEAA841309250081
:10EEE000854915C083C7140003473400858B63042C
:10EEF000F700405CFDB71946930544004A85EFF0E2
:10EF0000CFDDE31835FF2285F2406244D244424906
:10EF1000B249056182804111B727002022C403A4B1
:10EF200087D126C24AC006C693042500054901E8D8
:10EF30002285B24022449244024941018280A68542
:10EF40001305A402213FE30525FF405CCDB7411125
:10EF5000B727002022C403A487D126C24AC006C610
:10EF600093042500054901E82285B24022449244D9
:10EF7000024941018280A6851305A401C535E30538
:10EF800025FF405CCDB70111B727002022CC03A498
:10EF900007D126CA06CE2AC42EC6854419E40145E7
:10EFA000F2406244D2440561828083479100034766
:10EFB0001400858B6304F7000044CDB71946930510
:10EFC000A10013052400EFF04FD1E31795FE05458E
:10EFD000C1BFB72600209387469D984313080010B1
:10EFE0002320070101000100010001009C439386DA
:10EFF000469D23A00700034715000348250022076C
:10F0000042084297034805004297034835006208CA
:10F01000429798D7034755000348650022074208E6
:10F02000429703484500429703487500620842979B
:10F03000D8D7034795000348A50022074208429706
:10F040000348850042970348B5006208429798DB61
:10F050000347D5000348E5002207420842970348CA
:10F06000C5000345F500429762052A97D8DB03C720
:10F07000150003C52500220742052A9703C5050090
:10F080002A9703C5350062052A9798CF03C7550014
:10F0900003C56500220742052A9703C545002A9744
:10F0A00003C5750062052A97D8CF03C7950003C52D
:10F0B000A500220742052A9703C585002A9703C5A4
:10F0C000B50062052A9798D303C7D50003C5E500AC
:10F0D000220742052A9703C5C50083C5F5002A9774
:10F0E000E2052E97D8D3D843759BD8C3D84313676E
:10F0F0001700D8C398431367170098C398425C431E
:10F10000858BD9E31C4F01452300F6009C429C4FA0
:10F11000A183A300F6009C429C4FC1832301F6000B
:10F120009C429C4FE183A301F6009C42D84F2302EE
:10F13000E600D84F2183A302E600D84F4183230382
:10F14000E600D84F6183A303E60098532304E6004A
:10F1500098532183A304E600985341832305E600D6
:10F1600098536183A305E600D8532306E600D853DD
:10F170002183A306E600D85341832307E600DC532E
:10F18000E183A307F600828001008DBFB72600202F
:10F1900003A7869D01114AC81C5F4EC606CE9983FF
:10F1A00022CC26CA858B9389869D37290020ADCF36
:10F1B0001C5F37240020930484D793F7F7F91CDFF2
:10F1C000930784D783C76700130700086319F70004
:10F1D0008327499D9C4393F707042383F4008347C7
:10F1E00084D793F7070489CFB727002083A74790D8
:10F1F000829788C8834784D793F7F70B230CF4D6FC
:10F2000083C7440093F7070485E38547A382F4008E
:10F21000B727002083A7479E096798C7130700FCFC
:10F220002382E400D844F8D383A70900985F1183B0
:10F23000058B19CB985F85463D9B98DF37270020CB
:10F24000130787D72302D700985F1D83058B01CF53
:10F25000985F1377F7F798DFB7270020938787D752
:10F2600005472382E7008327499DD8430583058B03
:10F2700019C7D843759BD8C3D843799BD8C3F240EC
:10F280006244D2444249B24905618280397106DE46
:10F2900016DC1ADA1ED82AD62ED432D236D03ACE7E
:10F2A0003ECC42CA46C872C676C47AC27EC0F93D18
:10F2B000F250E2525253C2533255A2551256825660
:10F2C0007247E2475248C248324EA24E124F824F16
:10F2D000216173002030B727002083A6479EB727FF
:10F2E0000020938787D703C70700058B11C72382A8
:10F2F0000700A3820700828003C71700058B65FB08
:10F30000F85275F303C75700EDB7372800200327DD
:10F31000889D1C5F9583858BD1E709C61C5BBD83E7
:10F320002300F60085CA8327889D985B460793577C
:10F3300067016356070093E707C0C207C1830397BD
:10F340000600C207C18709C7BA970947B3C7E702D2
:10F350002390F60037270020130787D795C98347E6
:10F3600015009DC70346670093869700894713766B
:10F3700006041DC63695834605000546994793F554
:10F38000F606639FC500E206E186B94763CA060038
:10F390008327889D9C5FED838D8BA305F7008147B4
:10F3A0003E8582808547EDBF411122C406C63724C1
:10F3B000002026C20327449E2DE9AE877453FDFE2C
:10F3C000B7240020938484D73E85B285238104002E
:10F3D000976006E0E780409FB727002083A7879DBE
:10F3E000B70680009843558F98C3D857719BD8D7DC
:10F3F0008327449EA3820400A3800400094798C386
:10F400008326449EB7270020938787D703C727000A
:10F41000058B19E703C73700058B35CF238207001B
:10F42000B24022449244410182808D47631FF5001F
:10F43000B727002083A7879DB70680009843558F84
:10F4400098C3D857719BD8D765BF8547E31AF5FA9B
:10F450005447F977FD17F58F5CC70F10000003279D
:10F46000449E8967130600F81CC7B72700209387BE
:10F4700087D72382C700B727002083A7879D9C4397
:10F48000B1838D8B91E7930760197CD354C78DBFEF
:10F490009307E01BDDBFF85235FB59B75D71A2C47D
:10F4A000A6C22A84130680022800AE8493051008A1
:10F4B00086C6CAC04EDE52DCEFE0DFFC3545976001
:10F4C00006E0E780E0BA372300208327839D937608
:10F4D000F41F372E002023A40700984BB72E0020DE
:10F4E000370FFCFF1367F70398CBF84F130510F89D
:10F4F000B7020400137707E0558FF8CF9843F576ED
:10F50000FD16758F98C39843B70633009303802583
:10F510001377F7E798C3984311497D1F1377F7E7EF
:10F520001367071098C30327CE9E8549930F800267
:10F530001C47D58F1CC783A74E9E1307900D340020
:10F54000B8CB014793553700A69583C705001376BE
:10F550007700B3D7C740858BE1C38327839D83287A
:10F56000CE9E239C07042390070603A8C8021378A5
:10F57000D8FF23A6080383A807001378F70793F89A
:10F5800008F833E8080123A0070103A847023368FD
:10F59000580023A2070383A84E9E014823A27806A1
:10F5A00003DA07066307480303A80703038A060074
:10F5B0001358F80062081358884163580A0103A8D9
:10F5C00007031358F8002380060103D807061378B1
:10F5D000F80F03AA480663060A0003DA8705E37FEB
:10F5E00049FB03A847023378E80123A20703838776
:10F5F0000600635CF40003C805003396C900134697
:10F60000F6FF337606012380C5003E8663D3A7004C
:10F610002A8613158601618505071377F70F85067E
:10F62000E312F7F3B640264496440649F259625A6B
:10F6300061618280372600208327469E1306469EFE
:10F64000D8479316170163D20602984793161701FD
:10F6500063DD06007D57B8D7372700201307C7AAF8
:10F66000544F850654CF116798C798470D83058B73
:10F670000DC337270020130787D78346270093E65B
:10F6800016002301D700930600F82302D700214774
:10F6900098C79847058B09CF37270020130787D7CE
:10F6A0008346170093E61600A300D700054798C7C6
:10F6B00098470983058B09E798470583058B39CB64
:10F6C000944737270020372500208982858AF5CE88
:10F6D0008326859D9442B1828D8AEDE6AC4B9306DC
:10F6E00087D7944E93F5050283C61600D5C5E1EA87
:10F6F00093067006D4CF834687D793E61600230C73
:10F70000D7D6114798C70327859D5C57F19B93E790
:10F7100017005CD718421C479396370163D4060242
:10F72000B7270020938687C503C60607938787C53A
:10F73000418A55C683C7060793E707022388F60662
:10F7400085671CC71C479396270163D10602B7271C
:10F750000020938787D783C64700E206E18663D5FA
:10F76000060085462382D70089671CC71C479396ED
:10F77000070163D20602B7270020938787C583C697
:10F780001707858AADCE83C6170793E62600A388A0
:10F79000D706A1671CC78280A1DE85456395B600A8
:10F7A0009306B00681BF89456395B6009306F006BF
:10F7B00091B78D456395B6009306300725BF930634
:10F7C00050070DBF9306600735B7130787D78346E9
:10F7D000370093E61600A301D700094725B783C673
:10F7E00007070946BD8A6388C60083C607070D461A
:10F7F000BD8AE397C6F491462388D70691B783C69E
:10F800001707918AD9D683C6170793E6860041B7B2
:10F81000397106DE16DC1ADA1ED82AD62ED432D278
:10F8200036D03ACE3ECC42CA46C872C676C47AC2F8
:10F830007EC00935F250E2525253C2533255A2559E
:10F84000125682567247E2475248C248324EA24E82
:10F85000124F824F21617300203037270020B726D6
:10F860000020138646D9130747DB8347D70083451B
:10F87000B601484AAE97FD8BB355F500A300F600DC
:10F88000A306F700858995E9034717018146130808
:10F890000002B3F7E7020147B355E5008589937885
:10F8A000F70F89C96395D700A300160182808506EA
:10F8B00093F6F60F0507E31107FF8280B7270020B4
:10F8C000938787D783C7570093F7F70FD1EBB727F5
:10F8D000002083A74790411122C44AC006C626C211
:10F8E000829737290020930749DB8047130949DBBA
:10F8F0006302A40663688504018DB7240020938702
:10F9000044D983C7A70113545500938444D9636332
:10F91000F404A13783C7A4010327890093965700F5
:10F9200036971D8C2324E900E375F4FE224403C5B9
:10F930001400B2409244024981454101176306E038
:10F940006700C3BBB727002083A747AF3384874036
:10F95000229565B7B2402244924402494101828017
:10F960008280B727002083A74790011122CC26CAA6
:10F9700052C406CE4AC84EC68297B7240020938749
:10F9800044DB8047014A6301A406938444DB636639
:10F990008506018D37270020930747D983C7A70124
:10F9A00013545500137AF501130947D9636BF40218
:10F9B000B7290020938909AF4D358346A90103A8D3
:10F9C000840083A54900139756004297158C3A8608
:10F9D000636407016364B7003306B74090C4E37DF6
:10F9E000D4FC1604336A4401F24062445285D24486
:10F9F0004249B249224A05618280B727002083A785
:10FA000047AF33848740229571B7B727002003A7FB
:10FA1000479E8567938707777CD3B727002083A706
:10FA2000C79E83A60709139656006358060083A64F
:10FA3000070913966600634406007453FDF2828042
:10FA4000B72700203727002083A7078F0327878E3B
:10FA500001456313F700828083D6670081E683D671
:10FA6000470036959C43F5B7B727002083A507A725
:10FA700037270020938707A7138605222328C78EE0
:10FA800003D74700938785FFB72600204111BA9717
:10FA9000056523A4F68E06C61D05935637006374CC
:10FAA000E500930600203307D600372500202326E3
:10FAB000E58E23A0E522E1162312D60023130600CB
:10FAC0001CC3998FE1172312F700231307008D3F02
:10FAD000B240B72700202399A7AA41018280B72707
:10FAE0000020B726002083A7078F03A6868E2A87CB
:10FAF000B305B5406314F6003A8529A893868700BC
:10FB00009C43E369D7FEE377F7FE2E85E3E4D5FE59
:10FB1000E3F2F5FE828023AC05FE1C4191E7010073
:10FB200001000CC18280BA8703A787FF6DFF23AC59
:10FB3000B7FE82801DC18346E5FF1307F00F914792
:10FB4000639EE600411106C69700FB1FE780C05B7D
:10FB5000B24081473E854101828095473E85828043
:10FB600001E9014582800145B24022444101828081
:10FB700095654111938505D022C4C98D2A8421053C
:10FB8000C2054205C181418106C69700FB1FE7807F
:10FB9000604B71D9FD5723200500231285002303F4
:10FBA000F5002105D1B7411126C2B724002022C497
:10FBB0004AC083A7448F06C6014401499384448FF9
:10FBC00089E7A1654D2D05C401A803C7E7FF6317A9
:10FBD000A70215C8A165392E9840832784FF6316B4
:10FBE000E4029CC0FD57232C04FE230FF4FE228563
:10FBF000B2402244924402494101828011E03E8990
:10FC000083A787FF75BF3E84E5BF232CF9FED9BFCC
:10FC1000B1CDB727002083C7D7AA411122C406C699
:10FC20002A842E856375F400894763E887001937B5
:10FC30000D45B24022444101828083A785FF99E7A8
:10FC400003C7E5FF9307F00F6305F700E53515459A
:10FC5000CDB737250020238F85FE1305458F653DE1
:10FC600022852244B240A165410169A415458280E4
:10FC7000B727002023AA078E8280B727002083A7FA
:10FC8000C79099E33E85828003D727006316B700AB
:10FC900003C70700E308A7FEDC47E5B7C1C17971D8
:10FCA00022D406D626D24AD04ECE01444147B3D7FD
:10FCB0008540858BB9CF1205314722953305E50282
:10FCC000B727002003A9C78F8544B3948400C204DA
:10FCD000C1809389C78F2A990327090011C703257B
:10FCE00049002EC60297B24531473304E40283A788
:10FCF00009003E941C4489E72320090023220900BF
:10FD0000B2502254A58D02599254F2492E85456174
:10FD100082800504E31DE4F88144DDB72E858280EE
:10FD200041111397050122C406C626C24AC0418765
:10FD30002E84635E0700853D11C1ED3BA1673D8CBC
:10FD40002285B24022449244024941018280EDD989
:10FD5000AA8701474146B356E440858A9DCA920767
:10FD6000BA97B146B387D702B726002003A9C68F3A
:10FD70008544B394E400C204C1803E9983270900FE
:10FD80000325490082972320090023220900258C9E
:10FD900045BF0507E311C7FC8144D5BFB727002045
:10FDA00083A707A9411122C406C6372400201304E3
:10FDB000848B91C782971C403E9508C031A0B7271D
:10FDC000002083A74790FDF70840B74703009387BB
:10FDD000D73F3305F502B7A72600938737ECB2402B
:10FDE0003E9508C022444101828071CDB727002092
:10FDF00083A74790797122D426D24AD04ECE52CCD6
:10FE000056CA5AC806D65EC63A8AB689328BAE8AB8
:10FE10002A898297B727002003A7C78F9384C78FAB
:10FE20000144B146C147B30BD402330677011042F7
:10FE300051E6C165938505F041459700FB1FE780BA
:10FE4000602015E5B727002083A707AA2D4589C79D
:10FE50001145814582972D45B25022549254025942
:10FE6000F249624AD24A424BB24B45618280B72680
:10FE700000209386C690984215EF88C223000500A3
:10FE80009C4005473317870023260500232465017E
:10FE90002311E50023224501DE9723A0270123A299
:10FEA000570123A447010145E38809FA238089000B
:10FEB00065B73E875C47F5FF48C7C9B70504E3143B
:10FEC000F4F6214551BF09458280B727002083A75A
:10FED0008790411122C406C6372400201304C4AA07
:10FEE00089C782975C483E9548C84848B24022443A
:10FEF00041018280B727002083C7D7AA6370F5022B
:10FF000037270020931715000325878F3E958357C9
:10FF10000500DD8D2310B500014582800D458280EE
:10FF2000B727002083C7D7AA6372F50237270020BE
:10FF3000931715000325878F93C5F5FF3E958357CB
:10FF40000500FD8D2310B500014582800D4582809E
:10FF5000130705FF1377F70FFD4763E5E70AB1467F
:10FF6000B306D502B727002003A7C78F8947369766
:10FF7000184351CB011122CC26CA054493544500A5
:10FF80003D893315A4001314050141804AC8268514
:10FF90002E89A2854EC606CECD31AA89814739C9A0
:10FFA000A2852685B53FB727002083A74790B724B1
:10FFB0000020938404AF829783D784002A848146EB
:10FFC000B385270313060064B3B7270313850532EF
:10FFD000B335B500BE95EFE0C144B30785003E8759
:10FFE000D44063E4A70063E4D7003387D74023A459
:10FFF000E9008147F2406244D2444249B2493E8519
:020000025000AC
:100000000561828089473E858280011126CA06CE1D
:1000100022CC4AC84EC6BD47894463EEA702314789
:100020003307E502B727002083A7C78F8944BA9713
:100030009C4395C305443314A400420441802E8997
:100040000145A2851D39AA89814411C5A2850145B2
:10005000C13D23A42901F240624426854249D2448D
:10006000B24905618280B727002083C7D7AA63649D
:10007000F500014582800111B727002056C283AAEE
:10008000479006CE22CC26CA4AC84EC652C46388C0
:100090000A0A37290020130909AF2E8A8324490050
:1000A00083558900B74736FE938707C8BE94B38748
:1000B000C5022A84B2898146B3B5C50213850732C9
:1000C000B337F50013060064BE95EFE0813563E8B1
:1000D000A406829A83558900AA8413060064B38714
:1000E00035038146B3B5350313850732B337F500C1
:1000F000BE95EFE00133B3079500BE8403274900A6
:1001000063E4A70063E4E700B384E740D285228577
:10011000AD3601C504C5054525A0936504F0C205AB
:10012000C18141459700FB1FE780C0F11DE1B72762
:10013000002083A707AA81C7A285114582970145A0
:10014000F2406244D2444249B249224A924A05618D
:100150008280372700201307C7901C4385E308C31C
:1001600085472326050004C523114501230085008A
:10017000A300F5002322050079BFBA87D84775FF91
:10018000C8C7F9BF49CD797122D426D24AD04ECE04
:1001900052CC5EC662C466C26AC006D656CA5AC887
:1001A0003689328AAE89AA844144314CB72C00206A
:1001B000054D930B0003B30A8403138BCC8F0327E5
:1001C0000B0056971C43B9E79375F400B315BD00B7
:1001D00013554440C2055286C1811375F50F613530
:1001E00015C983270B000145D69784C323A2370185
:1001F0006304090023008900B2502254925402592A
:10020000F249624AD24A424BB24B224C924C024DC6
:10021000456182800504E31074FB2145F1BF094567
:100220008280411122C426C24AC006C62A842E8971
:10023000B284153DCA852285893405CDB7270020B3
:1002400083D587AF2A8413060064B387950281465D
:10025000B3B5950213850732B337F500BE95EFE0CD
:10026000411C48C00145B240224492440249410128
:1002700082802145CDBF411122C426C24AC006C694
:100280002A892E84DD3AAA8419C123110500A2858A
:100290004A857931B727002083C7C7AA639B270106
:1002A000B72700209387079003D70700598C239026
:1002B0008700014591E01945B24022449244024929
:1002C000410182809307F00263E8A7044111B1471E
:1002D00022C43304F50226C2B72400209384C48FBD
:1002E0009C4006C6A297984389470DC39377F500B3
:1002F0008545B395F500C205C1811181AD3F9C4094
:10030000A29723A0070023A207008147B2402244FE
:1003100092443E854101828089473E858280411119
:1003200006C622C4993A11E50145B2402244410172
:100330008280B727002083A7479000458297B72780
:100340000020938707AF6368A402D843B74636FE00
:10035000938606C83305A4403697E377E5FC130778
:100360000064B335E50203D6870081463305E50214
:10037000EFE0210B5DBFD8433A94C1BF411122C4C5
:1003800026C237240020B7240020130704AF93842B
:10039000C4AA944858434AC0B727002037290020F0
:1003A00006C683A74790130404AF130909A76391F6
:1003B000E60882975440B74736FE938707C8B6973A
:1003C0003387A7003A856364F7006364D700330579
:1003D000D740B7240020938784D79C4F938484D739
:1003E00099CBB727002083A6C79E3707CDFF7D177F
:1003F0009C46F98F9CC611E14840832749028297A9
:1004000019E59C4C85C3EF60F162EF60015A9C4C8A
:1004100091CBB727002003A7C79EB70633001C4720
:10042000D58F1CC7B24022449244024941018280C8
:10043000829783475901984854401D8FB307A700FE
:100440003E8563E4E700E3E6D7F83385D74051B74C
:100450004111B727002006C623A4A7900295B240F9
:10046000B727002023A2A7AC01454101828099470C
:1004700063EAB70093972500B7250020938545AD23
:10048000BE9588C18280B727002023A60790372514
:100490000020B7270020411123A407907146B727F9
:1004A00000208145130545AD06C623A2079022C44E
:1004B00026C29700FB1FE78020D6372500201306B1
:1004C000800281451304C5AA1305C5AA9700FB1F26
:1004D000E78080D4EFF04FD9B727002083C777A8F3
:1004E0008545B724002013D527008D8B3E958D4779
:1004F0003305F50299479384C48F39051375F50FB9
:100500002301A4003305F502130505249700FB1F02
:10051000E78040B388C041C1034624009947814524
:100520003306F602130606249700FB1FE780C0CEB1
:100530009C4003472400B72400209387072493841A
:1005400004910A079CC0BA9737270020232CF78E06
:10055000EFF00FF245298347140094403706050059
:100560001397270036971306C6C910C313871700C1
:100570001377F70F0A07370605003697130606D2DA
:1005800010C313873700890793F7F70F8A07A30073
:10059000E400B69790C3B240224492444101828065
:1005A000372700201307C7AA834717008346270071
:1005B00063F0D702B726002083A6069113861700A2
:1005C000A300C70013972700369708C33E85828093
:1005D0009307F00FE5BF1C416384071241777D8FBD
:1005E000B70600208947631ED71003574500630AEA
:1005F0000710411126C21946AA849305F00F690518
:1006000006C622C44AC09700FB1FE780E0CA054720
:100610008D476300E50E9C4491C7D858994771CB2C
:10062000985C61CB372400201306C0038145130575
:1006300004A79700FB1FE78020BE1306C003A68512
:10064000130504A79700FB1FE78080B9130904A7CF
:100650000357C900930704A709E71307001023965F
:10066000E70003C7E70001E705472387E70003D753
:10067000070101E76D472398E70003C7F70001E78B
:100680001547A387E70003C7270101E7054723892B
:10069000E70003C7370109E703C7F700A389E700AD
:1006A00003C7470101E73547238AE70003C79701DE
:1006B00009E713078002A38CE70003C7570109E786
:1006C0001307D002A38AE70003C7840109E71307D1
:1006D000C003238CE7009C5791C78297B72700205F
:1006E000239AA7AAB72700207D57A38FE7A4613BD1
:1006F0008147B2402244924402493E8541018280B2
:1007000089473E85828001114AC837290020130994
:1007100009AF8327090006CE22CC26CA52C456C28E
:100720004EC68297130A0064B3354503835A890085
:100730008146568633054503EFD0B14EB7270020DA
:100740001387C7AA004FAA840145630694029389C0
:10075000C7AA33858440636E9400032549005686FA
:100760008146B335AA023305AA02EFD0914B018D21
:10077000269523AC9900F2406244D2444249B249E2
:10078000224A924A05618280011122CC2E84B7F55B
:1007900006000A8541469385058706CEEFE0E10114
:1007A000180806043A94B7270020035504FF83D79E
:1007B000A7AFF2406244AA9737450F0013050524FE
:1007C0003355F50205618280B727002083D7A7AF94
:1007D00051471D45637CF702794719456378F70255
:1007E0001307200315456373F7021307B00411457F
:1007F000637EF700130740060D456379F700130782
:10080000600909456374F70013B5B70F82800111C1
:1008100022CC06CE2A842EC6EFF04FD8B245F24045
:10082000818D33A5A502229562441375F50F0561EC
:100830008280011122CC06CE2A842EC6EFF00FD67C
:10084000B245F240818D33A5A5022295624442054E
:10085000418105618280011122CC06CE2A842EC6F8
:10086000EFF0CFD3B245F240818D33B5A50222958A
:10087000624405618280B7270020138707A71857B5
:100880002DC3411122C426C24AC006C6138907A738
:100890000297B72700201387C7AA035787002A8427
:1008A0009384C7AA0DCBBA876373A700AA87C20730
:1008B000C183BA866373E400A286C206C182958FA3
:1008C0005147635AF7008327C90291C38297EF60AB
:1008D000510023948400B2402244924402494101D1
:1008E00082808280011122CC37240020930704A744
:1008F000DC5706CEAA85130404A781C72AC68297AF
:10090000B245B5CD9C410545BDC7DC41ADC783D7D8
:100910008500B5C383D7A500B9CF83C7C500A1EFB4
:10092000372500204146130505AF9700FB1FE780E0
:10093000208BB7270020938707AF944337270020E9
:100940002322D790034794010DE303D58700930733
:10095000800237460F003305F50213060624814650
:100960008145EFD0112CA30CA40037050500130519
:100970006570F93C0145F24062440561828003479D
:100980006401B7270020938707AF93168701E1869C
:1009900063DB0602372700201307C7AA232E0700B0
:1009A000370700201307675B98C337873200FD566F
:1009B000130727A1D4C398C723860700B7C70040F1
:1009C00023A4D726BDB7937617008DC2378720039F
:1009D000130707D098C73707C0A8D8C33707002028
:1009E0001307875E98C323860700A1B7E176239497
:1009F000D70011C7130700322395E700E9BF13079B
:100A00002003DDBF011122CC37240020930704A767
:100A1000884706CE26CA4AC801E90545F240624425
:100A2000D244424905618280130404A75C58F5D77B
:100A3000185C65D77000854582971844B247E30E6D
:100A4000F7FC0355C4009305E004B724002097F099
:100A5000FA1FE780205F1387C4AA08D39384C4AA2F
:100A60004DDD0356C4009305F00F014997F0FA1FBE
:100A7000E780807A8347E4009050634DF900328527
:100A800097F0FA1FE7804068014523A0040223A2E3
:100A9000040269B78355C4000844185CB387250372
:100AA000898105093E9508C20297E9B701114EC632
:100AB000B7290020938709A79C4726CA4AC852C471
:100AC00006CE22CC56C25AC02A8AAE843289638CA2
:100AD000071E938909A703A74903630207127D47ED
:100AE0006361A712372400201307C4AA832A0702D0
:100AF0001304C4AA639A0A0803D5C90095659385AF
:100B000015E097F0FA1FE780E05308D02A8665C900
:100B100083D5C90083A7490303A5890089818297EA
:100B200083A78900832A04025CD089476316FA08E8
:100B3000C1476396F40C83D5C9009147938505FCA2
:100B4000B3C5F5028A05D69503C705009307A0052E
:100B50006313F70A83C71500639F47094A852686F2
:100B6000910597F0FA1FE780A0671C5056856393A4
:100B700057130145F2406244D2444249B249224AE5
:100B8000924A024B056182805850E380E7FA03D510
:100B9000C9009565938525E097F0FA1FE780804AA4
:100BA000AA8A31CD83D5C9002A8683A7490303A524
:100BB00089008981829795BF8D47631BFA00C147E1
:100BC000639FF40283D5C900938545FDF199A5BFC4
:100BD00091476318FA006394440383D5C900A115B3
:100BE000F5B7C147631DFA00A14763EA970083D5B3
:100BF000C900C115E1BF1C5056856391570D2945A9
:100C000095BF1307F006636CA708930A05FE194702
:100C1000B3CAEA0203D7C900372B0020B38AEA021D
:100C2000BE9A9307CBAADC53130BCBAA639557014B
:100C300003240B021DE003D5C9009305E00497F0DF
:100C4000FA1FE78020402A845DD983D5C90083A795
:100C500049032A8689815685829791451307A00505
:100C6000898193972500A29783C607006393E604C2
:100C700083C61700639C460385058A052686A295D0
:100C80004A8597F0FA1FE780A05583270B02E3827D
:100C900087EE228597F0FA1FE7800047D9BD13073A
:100CA000E007E36EA7F4930A05F9ADB783D52700F3
:100CB00045BF83270B02E38487F4228597F0FA1F50
:100CC000E78080442DBFB727002083A5C7AC85D916
:100CD00091479306A0058983139727002E97034613
:100CE0000700E31ED6F003461700631C4601850784
:100CF0008A072686BE954A8597F0FA1FE780404E00
:100D00008DBD83572700C1BFB7270020938707A752
:100D1000984729C3985F1DCF8546631DD5024111B1
:100D200022C4372400201304C4AA105006C619CECA
:100D300083D5C700485089810297085097F0FA1F61
:100D4000E780803C2320040223220402B240224494
:100D5000410182808280011122CC37240020930738
:100D600004A756C283AA870026CA4AC84EC606CE22
:100D700052C42A89AE84B289130404A7638B0A1C67
:100D80001C5C99EB2945F2406244D2444249B24985
:100D9000224A924A056182805C58EDD7FD4763E79D
:100DA000A70C372A00209307CAAA9C53130ACAAA81
:100DB000B9C7084483274A02639FA704894763177A
:100DC000F906C147E390F4FC0355C40091471305AD
:100DD00005FC3345F5029317250003250A022686F4
:100DE000CE853E959307A0052300F500A3002501BD
:100DF000110597F0FA1FE780A03E014569B703553A
:100E0000C4009305E00497F0FA1FE780A023232095
:100E1000AA0245F185BF8355C4005C5803260A0227
:100E2000898182971C442322FA0249BF8D47631CA3
:100E3000F900C147E398F4F40355C400130545FDD8
:100E40009377C5FF59BF91476318F900E39C24F3DA
:100E50000355C4002115EDB7C147E315F9F2A147C9
:100E6000E3E297F20355C4004115D9BF9307F0069A
:100E700063E9A706930705FE1947B3C7E7020357BF
:100E8000C400372A0020B387E702BE9A9307CAAA94
:100E90009C53130ACAAAA9CF83274A02639657070D
:100EA00003250A0291461308A005FD5593D7260095
:100EB000C207C183139727002A97034607006314CC
:100EC00006078348170003562700639C2805B306CE
:100ED000D64063C6960485078A072686CE853E954A
:100EE00009BF9307E007E3EFA7E8930705F941BFC0
:100EF0000355C4009305E00497F0FA1FE7808014BF
:100F00002320AA0251F9BDBD8355C4005C580326B5
:100F10000A0289815685829723225A0351B7A3007A
:100F2000B700B28661B70356C400B3859600910539
:100F3000130606FCE3F8C5E4138634001376C60FE7
:100F40001106B29623000701A30027012311D70041
:100F500059B7372A00209307CAAA9C53130ACAAA72
:100F6000A1C303250A0291461308A005FD5593D796
:100F70002600C207C183139727002A97034607005C
:100F8000631206058348170003562700639828015B
:100F9000B306D640E3D196F4A300B700B286C1BF32
:100FA0000345E4008357C4009305E0043305F502CC
:100FB0004205418197F0FA1FE780C0082320AA026A
:100FC0004DF1C9B30356C4008345E400B385C5029F
:100FD000338696001106E3E7C5DAB9BF0145828082
:100FE00083C705002300F50083D72500A300F50083
:100FF00083D72500A1832301F50083C74500A30102
:10100000F50011458280B727002023AC0790B72751
:10101000002023AA0790828029C1411126C206C65A
:1010200022C4AA8401458DC52E84B7F50600228509
:1010300041469385058897F0FA1FE780601A83C7B9
:10104000040005452306F40083C71400A306F4003A
:10105000B2402244924441018280014582800111C4
:1010600022CC26CA06CE0947AA8432846381E504CD
:1010700041468147639BC500638FE6006397B600D6
:101080000DA841478147638EE600F2406244D24496
:101090003E85056182808A852285BD3F41468A85DD
:1010A00019A88A85953F41468A85228531A0E39A11
:1010B000B6FC2E86A285268597F0FA1FE780201BB6
:1010C000AA87E1B7B727002023AAA7908280B72775
:1010D000002023ACA7908280011122CC035465002C
:1010E00006CE26CA4AC84EC641C083298500AE84B2
:1010F0002A8803C90900814713178901618763554D
:101100000702B147054563FA8704511442040355A9
:101110002800418033878900A2864E868545EFA04E
:10112000900AB337A00085077D1413556900420467
:1011300005891379F90341802380F400A380A4007A
:101140002381240123928400014719C013871900C9
:1011500098C409476383E7000145F2406244D244E2
:101160004249B249056182800545C5BFC167F9178B
:10117000630AF502D94763F7B702011122CC2EC6E4
:1011800006CE2A84EF707053B2456368B50022859D
:101190006244F24005616F900077F2406244054579
:1011A0000561828005458280C167F9176314F500E7
:1011B0006F70B050411106C6EF90A06311E15D451C
:1011C000B2404101828091476394F5028347050054
:1011D0002300F6008347250003471500A207D98F97
:1011E0002311F6008347350001452302F600828073
:1011F000114582804111814522C426C206C6AA84B7
:1012000005252A8409E9B727002083A7479181C7CC
:10121000F945268582972285B240224492444101B5
:10122000828039714ED656D25AD006DE22DC26DABA
:101230004AD852D4AA8A2E8BB28941EF36C6AD372E
:101240009145EF705059AA844D492DC9B246054ABF
:10125000238034010544630A0B00B685138514000E
:10126000029B0505131405014180E20993D98941C8
:1012700063D30902C1455685EF90E065654905E9EC
:1012800033868400A2852685EFA000452A8905E1E2
:1012900031044204418091472C085685231CF100FB
:1012A00026CE231D8100EF80906E2A8901C9630735
:1012B0000A00268597F0FA1FE78000E5F250625495
:1012C0004A85D2544259B259225A925A025B21613C
:1012D0008280BA84014AADBF011122CC26CA4AC815
:1012E0004EC606CE2A893284B689253FAA840DE1EE
:1012F000B727002083A7879181CF05476317E400B4
:1013000003C4090005041374F40FA2854A8582976B
:10131000F240624426854249D244B2490561828046
:10132000AE86B715050001470546938505FE6DB7E6
:1013300083D705002300F50083D70500A183A30010
:10134000F5000945828083D705002300F50083D787
:101350000500A183A300F50083D725002301F50034
:1013600083D72500A183A301F5001145828083D78F
:1013700005002300F50083D70500A183A300F50035
:1013800083D725002301F50083D72500A183A3017E
:10139000F50083C755002302F50083C76500A3024B
:1013A000F50003D58500190542054181828083D768
:1013B00005002300F50083D70500A183A300F500F5
:1013C0000945828083D705002300F50083D70500F7
:1013D000A183A300F50083D725002301F50083D75F
:1013E0002500A183A301F5001145828003D54500A6
:1013F000060542054181828083D705002300F50060
:1014000083D70500A183A300F50003D525000905B6
:1014100042054181828083D705002300F50083D7F0
:101420000500A183A300F50083D725002301F50063
:1014300083D72500A183A301F50003D5450011053D
:1014400042054181828083C705002300F5000545E0
:10145000828083D70500411122C406C62300F5000F
:1014600083D705002E841105A183A30EF5FE83D733
:1014700025009505230FF5FE83D7D5FFA183A30F84
:10148000F5FE03C6F5FF97F0FA1FE78060D5034528
:101490004400B24022441105410182808947639C87
:1014A000F50083471500034705000145A207D98FC2
:1014B0002310F60082801145828003D70500D947AA
:1014C00063FEE702011122CC06CE2EC62A84EF70FD
:1014D000D01EB24683D70600636DF50022856244B4
:1014E000F240B715050001470946938505330561AC
:1014F0000DBBF24062440945056182800945828046
:1015000091479DC583460500FD15C2058547C181EC
:101510006392F60213D725008D89914791E991478F
:1015200001CB05052301D6002310E60048C2814700
:101530003E85828009479147E39CE6FEC94733D741
:10154000F502B3F5F502D1BFAE86B7150500014728
:10155000114693856534F1B193F7350091EB89819C
:10156000914789C52310B60048C281473E858280D5
:101570009147EDBF03C745008947631AF702011180
:1015800022CC2A84C84506CEAE86014719C52EC690
:101590009D45EFE0CFD4B2462A8722856244F240CF
:1015A000B715050019469385E53605619DB90945CE
:1015B000828099E111458280834705000547231108
:1015C000F600E379F7FEFD1593F5F50F33D7F50235
:1015D000B387E702E390F5FE050548C22310E60055
:1015E0000145828083C745000947AE866385E700D1
:1015F00041476399E700B7150500014721469385E8
:10160000254505B1094582802310B60091E10145C9
:1016100048C201458280AE86B715050001472946BC
:101620009385E53AFDBE2310B60091E1014548C21D
:1016300001458280AE86B715050001473146938586
:10164000453CC5B62310B60091E1014548C20145AD
:10165000828003D74500854763FDE702011122CC54
:101660002A84884106CE0DC12EC68545EFE02FC7DE
:101670002A8722856244B246F240B71505003946F2
:101680009385C53E056171BEF2406244094505611E
:1016900082800945828091479DC5034705008D469C
:1016A000914763F2E602FD15C205C181B3C6E502AA
:1016B0003308D7026399050105052310D6002311CD
:1016C000E60048C281473E85828083C745000947BE
:1016D000AE866385E70041476399E700B7150500CB
:1016E00001474146938525452DBE09458280B33586
:1016F000B000139525008280011122CC26CA06CEA7
:1017000003C785008547AA842E8449466310F702E3
:10171000613C8357240049151306200963C8A700BC
:10172000F2406244D2440945056182800347940037
:1017300085476314F70013660604484011C58D45BC
:1017400032C6EFE0CFB93246A2866244F2402A8721
:101750002685D244B71505009385853F0561D1B430
:101760008D4763FFB7028347150003470500F11556
:10177000A207D98F2310F6008347350003472500C1
:10178000C205A207C181D98F2311F6002312B6002A
:1017900089C5110508C60145828023240600E5BFDE
:1017A00011458280011122CC2A84884506CEAE865E
:1017B00011C52EC69545EFE08FB2B2462A87228525
:1017C0006244F240B71505005946938565410561AD
:1017D00089BCB335B000139525008280AE86B7155D
:1017E0000500014761469385654425BC8547114541
:1017F00063F4D7028347160083450600A207CD8F06
:101800002310F7009387E6FF2311F70089476386CB
:10181000F600090650C30145828023220700E5BF78
:101820000147814679468145EDBA83D705002300FB
:10183000F50083D70500A183A300F5000945828048
:1018400083C7250005472300F50003D505006397EE
:10185000E7000A050505420541818280C947330535
:10186000F502CDBF03D505000A05420541818280FE
:1018700083D725002300F50003D5050083D7250075
:101880003305F502050542054181828003D5050037
:10189000828003D50500828003D50500828083D72E
:1018A00025002300F50003D5050083D72500330567
:1018B000F502050542054181828083D7050023009A
:1018C000F50083D70500A183A300F50083D7250089
:1018D0002301F50083D72500A183A301F50003D5DB
:1018E0004500110542054181828083D70500230010
:1018F000F50083D70500A183A300F50003D52500DB
:10190000090542054181828089471145639BF600A4
:1019100083471600834606000145A207D58F231092
:10192000F700828003D70500D947AE8663F9E70048
:10193000B725050001470D469385A58271BA094573
:10194000828011456393A6028347160083460600F2
:101950000145A207D58F2310F70083473600834641
:101960002600A207D58F2311F700828083C72500A8
:101970000547FD1793F7F70F6361F70483D7050059
:101980008DCF011122CC2A84C84106CE15C12EC6A6
:101990008945EFE0CF942A8722856244B246F2401F
:1019A000B725050015469385058405616FF0DF9224
:1019B000F24062440945056182800945828095476D
:1019C000114563F9D706411122C426C24AC006C692
:1019D00083471600BA8403470600A2073284D98FD2
:1019E0002390F40083473600034726009305440004
:1019F000A207D98F2391F40089472382F400094676
:101A000013855400368997E0FA1FE780607D9307BD
:101A1000A9FF2394F4009947631BF90023A604004F
:101A2000B240224492440249014541018280190496
:101A3000C0C4FDB7828083D705008DCF011122CCB1
:101A40002A84C84106CE15C12EC68545EFE02F89F0
:101A50002A8722856244B246F240B72505001D461A
:101A60009385458605616FF03F87F24062440945E2
:101A7000056182800945828099476395F60489470C
:101A8000411106C62302F70083471600834606006D
:101A9000B285A207D58F2310F7008347360083460F
:101AA000260003464700A207D58F130557002311D0
:101AB000F700910597E0FA1FE7808072B240014578
:101AC00041018280D14711456394F600C1474DBF63
:101AD000828083D705008DCF011122CC2A84C84192
:101AE00006CE15C12EC68945EFD07FFF2A872285F5
:101AF0006244B246F240B725050025469385058726
:101B000005616FF06FFDF240624409450561828016
:101B10000945828089471145639BF600834716007B
:101B2000834606000145A207D58F2310F700828067
:101B3000011122CC2A84C84106CEAE86014719C5C0
:101B40002EC68545EFD0BFF9B2462A87228562446A
:101B5000F240B72505002D469385C58805616FF0D5
:101B6000AFF711456393A60283471600834606002C
:101B70000145A207D58F2310F7008347360083461F
:101B80002600A207D58F2311F7008280011122CCF5
:101B90002A84C84106CEAE8611C52EC68545EFD033
:101BA0001FF4B2462A8722856244F240B725050019
:101BB00035469385258905616FF00FF293F716007E
:101BC000114589EB89476387F60085822312D70088
:101BD00010C301458280011122CC2A84C84106CE5F
:101BE00015C12EC68545EFD09FEF2A872285624416
:101BF000B246F240B72505003D46938585890561CB
:101C00006FF08FEDF240624409450561828083D711
:101C100005008DCF011122CC2A84C84106CE15C102
:101C20002EC68945EFD0BFEB2A8722856244B24693
:101C3000F240B725050045469385E58905616FF0BB
:101C4000AFE9F2406244094505618280094582801E
:101C5000854763FCD7022304A700A304B70083478A
:101C6000160083450600A207CD8F2310F700938747
:101C7000E6FF2311F70089476386F600090650C383
:101C80000145828023220700E5BF1145828001477C
:101C900081464D4681456FF02FE48D47114563FB2A
:101CA000D7028347160083450600A207CD8F231075
:101CB000F7008347360083452600A207CD8F231106
:101CC000F7009387C6FF2312F7006386A60011066C
:101CD00010C70145828023240700E5BF011122CCF3
:101CE0002A84884506CEAE8611C52EC69545EFD00E
:101CF0001FDFB2462A8722856244F240B7250500DD
:101D00005D469385A58B05616FF00FDD8547114515
:101D10006397F6008347060001452300F7008280A1
:101D200001478146654681456FF00FDB011122CCEA
:101D30002A84C84106CEAE86014719C52EC68D45F8
:101D4000EFD0FFD9B2462A8722856244F240B725F8
:101D500005006D469385A58E05616FF08FCC01114E
:101D600022CC2A84C84106CEAE86014719C52EC6AC
:101D70008D45EFD0DFD6B2462A8722856244F240F5
:101D8000B725050075469385A58E05616FF06FC96F
:101D9000011106CE2EC6EF80F02101C9B245F240F6
:101DA0000355250005616FC0D02BF2404945056100
:101DB0008280B7270020A3820794B72700202382C0
:101DC0000794B727002023A60792B727002023A84F
:101DD0000792B727002023AA0792B727002023AC39
:101DE0000792B727002023A40792B727002023A239
:101DF0000792B7270020938707B037068403370779
:101E0000B40090D337C6070098C3130606B8374707
:101E1000A000D8C3D0D33707100041669306070A45
:101E2000B70550009308060194C723A417039386AF
:101E30000501930816F8D4C723A61703B706D007E1
:101E4000B7087F001308070513850601410723A87B
:101E50001703B0C393081600938606051386150072
:101E6000D8CBF8C323A8070188CF23AE070023AA45
:101E7000170323AC070223AE070223A40704F0C70D
:101E8000B4CB23AA0704ACCF23AE0705B8D33707DA
:101E9000A000F8D71307000AB8DB1307C01CF8DB53
:101EA000130710F8E8D323A4070623A0070823A2EA
:101EB000E7088280011126CAAA84214522CC06CED9
:101EC0002E8432C636C43AC2EFD09FC91DC9A2467D
:101ED00012473246930700FD2300F5009947A300FF
:101EE00095002301F5002303D500A303E500231289
:101EF000C500AA8522856244F240D24405616FD0B4
:101F00003FD1F2406244D24405618280B72700206D
:101F100023AAA7928280B727002023ACA7928280B1
:101F2000011122CC4AC806CE26CA2A890144B3042C
:101F300089006368B400F2406244D24442490561BA
:101F400082802EC6EFD09FE593170501C183A18340
:101F5000B2452380F4009307140093F7F70F85042C
:101F600063F9B700CA9709042380A7001374F40F1C
:101F70007DBF3E847DBF411122C43724002013045D
:101F800084B803556400C16706C6FD17630FF500EA
:101F9000B727002003C687C4B72500209385C593C3
:101FA000EF806060FD572313F400B24022444101EA
:101FB000828009C925151375F50F1335850E134554
:101FC000150082800145828023900500C9C6797181
:101FD00022D426D24ECE52CC5AC806D64AD056CAA1
:101FE0005EC63684328AAE892A8B814463F3440705
:101FF000B307940083C70700138914004209939A1A
:10200000070193DA0A011359090163840A04CA9784
:102010006341FA04B307240183CB07005E85513F77
:102020000DC99387FAFF2390F90063906B031305A2
:1020300019002295B250225492540259F249624A30
:10204000D24A424BB24B45618280D694C204C180D1
:1020500071BF0145C5B701458280011122CC3724EB
:10206000002026CA4AC84EC6930784B806CE2E89D9
:10207000D0CB8CCBC8C7AA8441469305F00F4A85C4
:1020800097E0FA1FE78040238549130484B8631959
:1020900035030848C145693541469305F00F26854B
:1020A00097E0FA1FE780402105496315250348445E
:1020B0006244F240D2444249B249C14505618DB5FE
:1020C000414681454A8597E0FA1FE780E01EE31507
:1020D00035FDC1B741468145268597E0FA1FE78067
:1020E000A01DE30625FDF2406244D2444249B249B4
:1020F00005618280011122CC3724002026CA4EC6F9
:10210000AE84AA8913060002130584B8814506CE61
:102110004AC897E0FA1FE7802010B727002013096C
:1021200084B8238697C4A3013901EFC0C075130496
:1021300084B8854719C1814749452300F400F2401E
:102140006244D2444249B24905618280814781CDCF
:1021500019C98547631BF50083C7550093E707FC42
:10216000A382F50085473E85828089476317F50085
:1021700083C7550093F7F703E5B70D478547E31489
:10218000E5FE03C755001377F70313670704A3821F
:10219000E500D1BF81478DC105C103C75500930636
:1021A000000C85471377070C6308D70093060004DB
:1021B0008D476303D70089473E858280411122C441
:1021C000005D06C626C21DC8AA84085009C597E04E
:1021D000FA1FE78060F3485009C597E0FA1FE780CF
:1021E000A0F2085409C597E0FA1FE780E0F12285C4
:1021F00097E0FA1FE78040F123AC0402B24022448A
:10220000924441018280B7270020938787B819E95B
:1022100003C727001385870101CB3725002013054D
:10222000C5918280138587018280B727002003C56E
:10223000A7B88280B727002003A547B98280B727B7
:10224000002003A587B98280B727002083A7C7B9DC
:1022500088438280B7270020938787B8D44B984261
:10226000050798C203C537009307F00F6305F50013
:1022700091656FD03FC88280011122CC06CE2E849A
:1022800032C6EF80C0639147B2456310F502B727AD
:10229000002083A7879395C303A30700630F030060
:1022A00022856244F24005610283B727002083A79C
:1022B000079381C703A34700D5B7F24062440545A1
:1022C00005618280011122CC2A840355450006CE87
:1022D00026CA4AC84EC6EF80A03C3DC92A8983441D
:1022E00005008349C500D93D4A85EF80701C035520
:1022F0004400EF8000583729002013094994834790
:102300000900B9CB639A9704B727002083C5579477
:102310002685BD3C19E12300090003554400EF80E8
:10232000005A9147631FF500B7270020938787B8AD
:102330008356440003D767006395E6007D572393D7
:10234000E700F2406244D2444249B24905618280CA
:1023500081499304F00F45B79307F00FE38FF4FA28
:102360008346640003564400034524004E87A68537
:10237000913665B779715EC6AA8B2E8552CC56CA46
:102380005AC806D622D426D24AD04ECEAE8A328B36
:10239000368AEF80E0307DC1045D2A89E5C09C501B
:1023A000614599C3130540039C5481C751054205FB
:1023B000418163050A00710542054181DC5081C7F6
:1023C0005D0542054181EFD0AFF92A8445C96146D8
:1023D000814597E0FA1FE78020E4B727002083C9F2
:1023E00007B36394090083490900930700FD2300A4
:1023F000F400A947A30074012301F400230364013E
:102400008C50231254011305840191C908C47146EC
:10241000930A440397E0FA1FE78080DC56858C54CA
:1024200091C948C45146930A450197E0FA1FE780D5
:1024300020DB5685630C0A0008C87146D285930AD2
:10244000C50197E0FA1FE780A0D95685CC5099C501
:1024500048C85D4697E0FA1FE78080D8A2854E8580
:10246000EFD00FFB2254B2509254F249624AD24A42
:10247000424BB24B4A850259456189B3B25022544E
:1024800092540259F249624AD24A424BB24B4561D8
:10249000828001114EC6AA892E854AC806CE22CC5A
:1024A00026CA2E89EF80C01F21C9B727002083C408
:1024B00007B399E0834405001945EFD06FEA2A84F9
:1024C00005CD8145194697E0FA1FE780E0D49307D0
:1024D00000FD2300F400B947A30034012301F400F8
:1024E00023122401A2856244F2404249B249268562
:1024F000D24405616FD0CFF1F2406244D2444249E8
:10250000B2490561828039715ECEAA8B2E8526DAAA
:102510004ED652D456D25AD006DE22DC4AD8AE84E9
:10252000328BB68A3A8ABE8942C6EF80601721CDC7
:102530002A894145EFD0CFE22A8431C54146814501
:1025400097E0FA1FE78040CDB727002003C507B307
:1025500019E103450900930700FD2300F400BD477E
:102560002301F400B247A300740123129400230452
:102570006401A304540123054401A30534015CC490
:10258000A285EFD0EFE8F2506254D2544259B259CA
:10259000225A925A025BF24B21618280797126D2D3
:1025A000AA8439454AD04ECE06D622D42EC6B28948
:1025B0003689EFD0EFDA21C1B2459307000D231021
:1025C000F500B1472A842312B5002301F500CE851A
:1025D0001905194697E0FA1FE78080C023062401F9
:1025E000A2852254B2500259F24913F5F40F9254C5
:1025F00045616FD0EFE1B250225492540259F24932
:1026000045618280411126C2B7240020938484B89A
:1026100003C7340006C622C44AC09307F00F630AFA
:10262000F7042A893945EFD0AFD32A8439C19307FB
:1026300000FD2300F500A30025012301050093857B
:1026400084010D05194697E0FA1FE78060B983D72A
:102650008400A28503C534002315F40083C7140049
:102660002306F4002244B2409244024941016FD053
:102670002FDAB24022449244024941018280011182
:102680005AC02A8B314526CA4EC652C456C206CEFF
:1026900022CC4AC8AE84B28A368ABA89EFD04FCCEF
:1026A0003DCD2A842685EF70B07F11C50347C50054
:1026B000A1476314F704B727002003C9B7B89307ED
:1026C00000FD2300F4009D47A30064012301F400F2
:1026D00023129400231354012314440123153401BD
:1026E000A2856244F240D244B249224A924A024B45
:1026F0004A85424905616FD0AFD1B727002003C991
:10270000D7C4E31E0BFAB727002083A747A49C4732
:10271000DDD7CE865286D685268582974DB7F24084
:102720006244D2444249B249224A924A024B05616C
:102730008280011122CC2A84214506CE2EC6EFD0FC
:102740002FC221C1B245930700FD2300F500C54704
:102750002301F50083C73500A301F50083D74500A9
:102760002312F50083C765002303F50083C77500B6
:10277000AA85A303F50022856244F24005616FD06B
:102780002FC9F240624405618280397162CC2A8C83
:10279000594526DA4AD84ED652D456D25AD05ECEB1
:1027A00006DE22DCAE8432C636C4BA8B3E8BC28AC9
:1027B000468A8359010403494104EFD06FBA25C901
:1027C0003246930700FDA2462300F5009547A3017A
:1027D000C500A30085012301F5002A8419461105CF
:1027E000A9C2B68597E0FA1FE780809F230664019F
:1027F000230A2401231574012317540123184401CB
:1028000023193401A2856254F2504259B259225A16
:10281000925A025BF24B624C2685D25421616FD0F2
:102820002FBF814597E0FA1FE780009FC1B7F250A4
:102830006254D2544259B259225A925A025BF24B14
:10284000624C21618280411122C43724002013048C
:1028500084B88347240006C626C28DCBB724002047
:10286000AA8519461385C49197E0FA1FE78040971F
:10287000034524009385C491EFF05F8D2244B2405C
:102880001385C491924441016FC0A000B24022441C
:102890009244014541018280411126C2B7240020A3
:1028A000938784B806C622C44AC003C7370093077B
:1028B000F00F938484B86304F7042A892945EFD084
:1028C0002FAA2A840DCD930700FD2300F500A14710
:1028D000A30025012301F50083C72400B7250020AC
:1028E0009385C591A301F5001946110597E0FA1FDC
:1028F000E780008F03C53400A285EFD06FB103C716
:1029000024008D476311F702B727002083A7479360
:1029100099CB03A38700630803002244B24092448A
:10292000024941010283B2402244924402494101DA
:102930008280797122D406D626D24AD04ECE52CC8D
:1029400056CA09445DCD2A8903550500AE89514414
:10295000EF701055AA8455C537270020930787C408
:1029600083C747008546BA8AFD1793F7F70F494496
:1029700063F9F6080347C500A1476314F7006392A3
:1029800009089C5C4544B5EF916593854571130535
:10299000C00297D0FA1FE780E06A88DC2A8A4D449B
:1029A0002DC11306C002814597E0FA1FE780C0865B
:1029B0008357090093064A0036852311FA007146B1
:1029C0009305490036C697E0FA1FE7806081894782
:1029D0002300FA0003C5C400B2460356090083C5AC
:1029E0008AC4611513351500EF80D0712A8463867F
:1029F0000900CE852685EF80405B01C42685EFF077
:102A0000EFFB2285B250225492540259F249624A95
:102A1000D24A45618280B727002083C7C7C40547D3
:102A2000FD1793F7F70F637AF708894741CA011139
:102A300022CC26CA4AC84EC652C406CEAA89368AB5
:102A4000B2842E89EF70D0452A84D14739C94855C0
:102A500009C597D0FA1FE780206BF145268597D0EE
:102A6000FA1FE780C07D48D4CD4705CD8346C4001A
:102A700021478147639FE600630D0A000347A501D4
:102A80000356050193062501AA854E85EF808059DE
:102A9000AA8703474400630F0900136767002302F6
:102AA000E400F2406244D2444249B249224A3E859F
:102AB0000561828013674700DDB7C9473E85828084
:102AC0009307200463ECA700931715003725002017
:102AD000130505B03E9503550500828041657D15BF
:102AE0008280011122CC2A842E8526CA06CEAE848D
:102AF000EF70103B1DCDB7470F009387F7230945B3
:102B000063E4870281450A85414697D0FA1FE78032
:102B1000A070A685231081000A85418023018100D1
:102B2000A3010100EF80B049F2406244D244056144
:102B300082804945D5BFB72700202385A7C482805E
:102B40006F807056797152CC2A8A328522D426D26F
:102B50004AD04ECE56CA5AC85EC606D662C4AE8B9E
:102B6000B28A368BBA843E89C2894684EF7050336C
:102B700015C92A8C63140A0213774B00834745005A
:102B800015CF93E727012302FC008DEC631C09029B
:102B9000639A090205E8ED9B2302FC00832B8C035A
:102BA00063910B08B250225492540259F249624A7E
:102BB000D24A424BB24B224C45618280F59B93E74F
:102BC0000701D1B793E747002302FC0001CC1C4862
:102BD0004146A2852324FC0213058C0197D0FA1FDD
:102BE000E780006063930B02D5D80325CC0209C5AA
:102BF00097D0FA1FE7804051F145268597D0FA1FFC
:102C0000E780E0632326AC0251BFE30909F80325FE
:102C1000CC0209C597D0FA1FE780004FF1454A85DD
:102C2000F1BF9DC483A70B0299EB91659385357124
:102C3000714597D0FA1FE780E04023A0AB0203A5BF
:102C40000B0219C57146A68597D0FA1FE780405937
:102C50006388090283A74B0299EB916593852571DF
:102C60005D4597D0FA1FE780E03D23A2AB0203A5A4
:102C70004B0219C55D46CE8597D0FA1FE7804056B6
:102C80001DC483A78B0299EB9165938515715145FE
:102C900097D0FA1FE780003B23A4AB0203A58B0269
:102CA00019C55146A28597D0FA1FE7806053225478
:102CB000B2509254F249B24B224CCA865A860259FB
:102CC000424BD6855285D24A624A45616FF08FEAFF
:102CD000011126CA52C406CE22CC4AC84EC62A8A40
:102CE000AE84EF70F01B25C5AA893945EFC05FE7B8
:102CF0002A8431CDB727002003C907B36314090024
:102D000003C909009307000D2310F400AD47230108
:102D1000F4009385690013053400194697D0FA1F13
:102D2000E780004C93F71400858085882306F40023
:102D3000A306940023154401A2856244F240D244C4
:102D4000B249224A4A85424905616FC07FECF24090
:102D50006244D2444249B249224A0561828001114B
:102D60004EC652C456C206CE22CC26CA4AC8AA8A29
:102D70002E8AB289EF70D0122DCD2A891305C00298
:102D8000EFC01FDE2A8435C5B727002083C407B3F0
:102D900099E0834409009307000D2310F400E947EC
:102DA0002301F4009305690013053400194697D0F8
:102DB000FA1FE780E042D285231554011305C400B1
:102DC000414697D0FA1FE780A041CE851305C40184
:102DD000414697D0FA1FE780A040A2856244F240A6
:102DE0004249B249224A924A2685D24405616FC0BF
:102DF0003FE2F2406244D2444249B249224A924AF6
:102E000005618280411122C43724002013044492BA
:102E1000084006C619C597D0FA1FE780E02E232088
:102E20000400B240224441018280011106CE22CC2E
:102E300026CA4AC82EC6EF70B00639CDB245B727AC
:102E4000002003C907B30CD5AA8463140900034901
:102E500005004145EFC0DFD02A841DCD9307000D4A
:102E60002310F500A5472301F50083C7540093857F
:102E700064001105A30FF5FE194697D0FA1FE780ED
:102E800020369C54A285F2405CC46244D2444A85F8
:102E9000424905616FC0DFD7F2406244D2444249E3
:102EA000056182801D71A2CC86CE2A842EC6EF7069
:102EB000207F05CD8346C5001147AA874945639207
:102EC000E6029C5FB24599C383C56701B7D605008A
:102ED0002308B1009386868B100889452285EF80F0
:102EE0008003F6406644256182805145DDBFB727E7
:102EF000002083C7C7C40547FD1793F7F70F637A10
:102F0000F704894721CA411122C426C24AC006C615
:102F1000B2842E89EF70C0782A84D14705C5630832
:102F200009008347450093E727002302F500414647
:102F3000A6851305840197D0FA1FE780602A9C4874
:102F40001CD48147B2402244924402493E8541014B
:102F50008280C9473E858280797122D406D62A8430
:102F60002EC6EF70E07301CDB2452285230EB1006D
:102F70006C08EF800000B2502254456182805145B8
:102F8000DDBF6F709008C1671387E7FF6395E502A7
:102F9000B727002083A7079391EB494582804945D5
:102FA000B2402244924402494101828003A30700B7
:102FB000E30503FE0283411122C426C24AC006C6AD
:102FC000FD172A892E84B284639AF502B727002060
:102FD00083A7079391CF9C4381CF829711E9B727AD
:102FE000002023822795B7270020A38297944DBF06
:102FF000A6854A85EFE0DFD945F5D5B72E85EF7078
:10300000206A51DD834705000D45E39B27F92285A2
:103010002244B2400249A685924441016FB0700437
:103020009307200463E2A7064111C16722C406C6C4
:1030300026C2FD172A8409456382F502C547AE847E
:103040006313F4022E85EFB05009372500201305D5
:1030500005B006042A94231094000145B24022448E
:103060009244410182809307A0036316F4002E85E9
:10307000EFB0E07FD9BF9307B003E318F4FC13F57A
:10308000F50FEFB0007FD1B709458280011106CE60
:103090002AC6EFE01FD2EF100020EFA05157B7274C
:1030A0000020938787B8130700F02391E70023825D
:1030B0000700B72700203245138787C4FD56230138
:1030C000D700F2402384A7C4954505616F50106B6B
:1030D000597193970501A6D286D6A2D4CAD0CECE76
:1030E000D2CCD6CADAC8DEC6E2C4E6C2EAC06EDE18
:1030F000C187AE8463D80752B729002003C589C4AD
:1031000037240020372A0020EFC0FFA92A8DB72AD4
:103110000020B72B0020B72C0020130484B86313C1
:103120000D022165258DB650265496540659F64950
:10313000664AD64A464BB64B264C964C064DF25D37
:103140006561828083470D001307200A639CE700B6
:103150000349340003552D00C1656A86FD15EFF063
:10316000AF918DA2138789C4034927001307100963
:103170006397E71683471D001547639EE7006A853E
:10318000EFF04F946A85EFC0FF9A03C589C4EFC082
:103190009FA12A8D69B73947639DE71603554D00F6
:1031A0008567A5076316F50483258D0003CB05000D
:1031B000631D0B00850591C9B727002019461385AB
:1031C00007BA97D0FA1FE780A0010347040085479C
:1031D0006317F71063080B00230004005A85EFF013
:1031E0006FC24DB789472300F400EFB0406A59BF62
:1031F000896713872700631CE504032B8D00630098
:103200000B0E83470B0089EF83472B0003471B00FE
:10321000A207D98F2314F40083473B00A300F400D6
:10322000034704008947631CF70A83470B0091C7D3
:103230002300040003450B005DB7834514000355CC
:1032400084008D472300F400EF505056E5B79507F2
:103250006319F50083278D0003C50700EFF0CFE366
:1032600015B7F9771387A7FF2A974207418391463D
:1032700063F1E6049387A7FCAA97C207C18371474D
:103280006371F70289671387B7006310E50483A7AA
:10329000CA92E38907EE9C43EA85E38507EE8297AD
:1032A00015A0370700181307F770B357F700858B81
:1032B000B9CB83274A93E38707EC9C43E38407EC6D
:1032C0006A858297E31005EC19A81387C70063117C
:1032D000E50283278D0083C70700E38507EA93078C
:1032E000F00FE301F9EAEA854A85EFC07F9271BDEC
:1032F000B907631AF500B727002083A70793E38374
:1033000007E8DC4351BF896793871704E301F5F8A9
:10331000F9B73D47639BE70403554D008967138761
:10332000D700E30AE5FC13879701E306E5FCCD0728
:10333000E317F5FA03576400C167FD17631FF70031
:10334000B727002083A70793E38E07E2DC43E38BD4
:1033500007E20965EA854D0599B7B727002083A7DD
:103360008793E38107E29C43DDB71307E003E3980B
:10337000E7F683472D0005476396E70E83476D0008
:1033800037270020930D4792F1E383A70D00C5CFA7
:1033900003CB0700214903457D00130C8D00E28516
:1033A000EFE05FDF83474D01A303AD0083580D01BC
:1033B0000358ED0003574D002A8603453D003EC2E9
:1033C00083572D01E286DA853EC0CA87EFF0EFBB56
:1033D00083473D0095E7DD4783580D010358ED0015
:1033E00083467D0083554D003EC283572D01628781
:1033F0003EC0CA8705465A85EF706063A301AD00E1
:1034000083A70D0081C71145EFF0DF9F138B4B940D
:1034100003450B00E30805D683C55C94EFE05F9796
:10342000E30205D683463D0093071003638AF60046
:1034300003564D0083450B004A873685EFE09FA772
:1034400023820B9481B3034B3400A9B783274A939B
:10345000034B34001149A1D3DC4395DF814501457D
:10346000829715BF29476398E70A83476D0037277E
:103470000020930D4792A5EF83A70D00B5C703CB9E
:103480000700214903457D0093068D0093772500B1
:10349000BDCB13761500130E4D0183470D028358E3
:1034A000CD010358AD0103574D0003453D003EC219
:1034B0008357ED01DA8572CE3EC0CA87EFF0EFACDC
:1034C00083473D00724E8DFFDD478358CD01035881
:1034D000AD0183467D0083554D003EC28357ED010B
:1034E00072873EC0CA8739B7034B340059BF832760
:1034F0004A93034B34001149D1D7DC43C1D78145EE
:103500000145829741B7B68536CEEFE0BFC8F24697
:103510002A86368E59B70947639CE70083A7CA926B
:10352000E38207C6DC43E38F07C46A85829799B9B3
:103530002D476398E70083A7CA92E38507C49C4799
:10354000DDB70D476397E7006A868D4503554D004B
:1035500039B119476395E7069305610213051031E8
:10356000EFA091132C1013052031EFA0F112035698
:103570006D008357810203554D0063E8C7008356F1
:103580008D000357610263F7E60093050002EFB078
:10359000C033CDBE6374E6002313ED0063F4D7009F
:1035A0002314FD000357CD008356AD0003568D0054
:1035B00083556D0001488147EFB0E030E1B61D470B
:1035C000E38FE7D031476395E7006A86B145BDBF19
:1035D00035476398E70083A7CA92E38507BADC47BB
:1035E00099B74947639DE70083274A93E38907CE4C
:1035F000DC43E38607CE814505458297CDB14D4733
:10360000639CE70083274A93E38B07CCDC43E38882
:1036100007CCEA850945D5B76147E392E7CC6A86CE
:10362000E1452DB793F7150089CFB727002083A771
:10363000C79289C7DC4399C30145829713C514001B
:10364000DDB493F7250091CFB727002083A74793D8
:1036500091C7DC4381C781450545829713C5240086
:10366000D9B493F745000145E38F07AAB727002097
:1036700083A7879237240020130484B891CF85470D
:103680002302F400B727002083A7479391C7DC43A8
:1036900081C781450545829748442C10EF70907E84
:1036A0002810EFF04F9AB727002083D727B281CF99
:1036B000130600643386C702B727002003C587C4FA
:1036C0009145EFC05F9A13C54400B1BC411122C4BB
:1036D000372400200325849206C619C597D0FA1F07
:1036E000E78080A223240492B240224441018280D8
:1036F000757122C5372400208327849206C726C30C
:103700004AC1CEDED2DCD6DADAD8DED6E2D405453E
:10371000638D070E9305F1051305F041EF80515BB2
:103720009305F1051305F041EF80915AB72700206A
:10373000938787B883C727000347F105B337F000A5
:1037400011C3890703278492BEC60345370093053A
:103750004700EFE0BF9F03278492AAC40D4583452D
:103760002700AEC2EFF0CFB5AAC01145EFF04FB5BC
:10377000032484922ADE65450347A400034CB40069
:103780003ADCEFF0EFB3AA846945EFF06FB32A8912
:103790007145EFF0EFB2AA896D45EFF06FB22A8A5A
:1037A0007545EFF0EFB1AA8A7945EFF06FB12A8B3A
:1037B00013050004EFF0CFB0AA8B13051004EFF04F
:1037C0002FB0E2042648B6476257F25606469645A1
:1037D0001375F50F93FBFB0F137BFB0F93FAFA0F97
:1037E000137AFA0F93F9F90F1379F90FE1842AD0BC
:1037F0005ECE5ACC56CA52C84EC64AC426C262C011
:10380000930844000545EFB0000EBA402A449A449C
:103810000A49F659665AD65A465BB65B265C496138
:103820008280011122CC06CE26CA8D472E846315D4
:10383000F50603C73500B7240020E94703D5450046
:10384000938484B86316F70083D764006382A70665
:10385000EF60106509C5835764002317F50003570F
:10386000A400835684000356640083554400034536
:103870003400EFE0DFE00357440083D764006309BE
:10388000F7008547F2406244D2443E85056182805C
:10389000FD572393F400F5B78967CD07631DF50045
:1038A00083C7250031476385E7004547E39BE7FC75
:1038B000EFE06FECF9B7B1476319F500B7270020C7
:1038C00003C5D7C4EFE0FFE66DBF41677D178147B1
:1038D000E31AE5FA83C655004947E395E6FA83C53E
:1038E000450003552400300023140100EF60F04729
:1038F00049BF411122C4372400208347649426C263
:1039000006C64AC01307E00FAE846386E7041307B8
:10391000F00F130464946387E7021145EFC04FA4CE
:1039200015C1930700FD2300F50089472301F50029
:103930008547A3009500A301F500AA85034504006F
:10394000EFC00FADF9572300F400B2402244924477
:103950000249410182802A891145EFC06FA075D5C7
:10396000930700FD2300F50089472301F500A3001C
:103970009500A30125012244B7270020B2409244BC
:103980000249AA8503C5779441016FC06FA8797178
:103990004AD0372900208327899222D406D626D2FE
:1039A0004ECE52CC56CA4544D5EFB724002093875B
:1039B00084C483C747004944958BCDC7B7270020EF
:1039C0002E8A9165A383A794AA8993857571314541
:1039D00097C0FA1FE78000672324A9924D4459C17C
:1039E00023003501A30005002946D285090597C0AB
:1039F000FA1FE780E07E83278992914603C727005C
:103A000063EDE60835EB4D472381E70003C7270048
:103A1000136707012381E700930571001305F04147
:103A2000EF80112B83477100F1EBB727002003C70C
:103A3000A7B88D476314F70CEFE0CFFF2C00EF70B1
:103A400070442800EFE03FE04545EFF06F87014408
:103A500011C9130600643306C50203C584C4914529
:103A6000EFC06FE02285B250225492540259F249BD
:103A7000624AD24A4561828085466314D700754701
:103A800061B789466314D7004947BDBF8D466314AB
:103A9000D700414795BF554785BF9546CA8A630EF3
:103AA000D70099466316D70009472381E70031A064
:103AB0001D466314C702238107006545EFF04F8060
:103AC0009307F007E30AF5F403A78A9283472700D8
