:020000024000BC
:100000006FB0621B000000000018011800280128D2
:100010000228032800290129022903290429052986
:10002000062907290829002A012A022A032A042A64
:10003000052AA62AE8B90600A81E04006A020020C4
:10004000B40200202602002014020020DC0100205F
:100050003421040060210400482204004E240400DE
:10006000F62404001C1D0400401C0400B21C040003
:100070006C1C0400D4290400000400200A210400A0
:10008000AA2604006E5D0600665F0600DE5F0600BD
:1000900002170600161706002A66050022570500FB
:1000A00056570600E026040068200600EEDE040035
:1000B0007CDF0400D4DF0400C23204000E330400ED
:1000C000783104002A9B0400EE950400C6A40400C5
:1000D00096A8040042AC040010880400AE87040017
:1000E000988B04005C88040084870400088804005E
:1000F00036870400E088040038890400E88804009A
:10010000EC88040086890400408904007289040098
:10011000948E04009C8E0400DC880400E4880400B3
:1001200084890400988E0400348A04000A90040034
:100130008EBA04000CBB04004ABB04008E9D040070
:10014000A69D0400E29D0400B08104009482040096
:10015000FC82040048510400E84B0400B677040018
:10016000684C0400E2720400789306006A9006006E
:100170004E9B06002AAC0600FAAA060036AF06001F
:10018000EEAE06002EAF0600DEAF06007C7F060056
:100190006EAF0600EAA2060010A3060038A3060010
:1001A0004EB00600F4A806008AA80600BEB00600FD
:1001B000DE8106007A820600A282060044820600E2
:1001C000903A0600E625060062290600CA260600C7
:1001D00030300600F6570600DC560600B07F0600F9
:1001E000C62B04003E1806004820060040210600E9
:1001F000D04E0600824F06003251060092A1040044
:100200003E3A0600B0300600DC36060052330600E7
:100210009A25060020060020061906005AAF06009F
:10022000F2AE06002AAF060026AF0600FA2304004D
:10023000E09E040062AF0600883C0600DC3D06003C
:10024000583E0600AC9B06005EAF060066AF060097
:10025000AE5605006AAF0600980F0020A4140020D7
:100260008C9B060064A00600000000000000000057
:10027000000000000000000000000000000000007E
:100280006373B60082801C419105110523AEF5FE13
:10029000C5BFB7270020372700209387879C130707
:1002A00007F46373F700828023A007009107D5BF8E
:1002B0005DCDAA870145D5CD8D07C207C183F19BCE
:1002C000C207C18313074003636CF702372700207E
:1002D0000325079D372700208326879C6397A60266
:1002E00037270020032747BA014541C74111C207FC
:1002F00006C60545DD8D0297B24001454101828069
:10030000372700200325C79CF1B70357650031EF5D
:1003100003574500636BF704B72600203306F74008
:100320002148938606BB6378C8028328050003D85A
:100330006600138687001D8F2A9661172312E60038
:10034000232016012313060010C12312F500130702
:1003500088FF2393E6002313B50083D566002105AB
:10036000B387F5402393F6008280084185BF01459D
:100370008280828009CDB727002003A3079DB7277D
:10038000002083A8879C81469A8763E317018280B7
:1003900003A807006369F50A6367A80A1387870043
:1003A000E367E5FE03D66700216705076319E600EA
:1003B00037260020034746A90507230AE6A8372663
:1003C0000020130506BB83D5470003576500239320
:1003D0000700130606BB2E97420741832313E5004F
:1003E00063876702372500200325C59C6301F5025A
:1003F00003D5660009ED83D7460023A00601210737
:10040000BE95A1052392B6002313E600B687984354
:10041000E30F17F7B726002083A6C69CE309D7F69B
:1004200083566700ADF683D64700835547001843CF
:10043000A106AE962392D70098C383576600A10702
:100440002313F6008280BE86C28781B719CD91CD75
:1004500009CE81473387F500834607003307F5004F
:1004600085072300D700E317F6FE828019C991C9DA
:1004700009CA910583A7C5FF11057D16232EF5FE38
:10048000C5BF828001C919C62A960505A30FB5FE0E
:10049000E31DA6FE828081473307F50003070700AE
:1004A00019E33E8582808507C5BF01112E8626CAC5
:1004B000AA84131506019305F004418122CC06CECF
:1004C00032C6FD332A8401C53246A68541372285CE
:1004D000F2406244D24405618280854715C18DC1D6
:1004E00005C28147B306F5003387F50083C60600D1
:1004F000034707006398E6008507E315F6FE854786
:100500003E8582808147EDBF9307F6FFBE952A9610
:100510006313C5008280FD1583C715000505A30F71
:10052000F5FEFDB7AA87014581CF09CE3E96850726
:1005300003C7F7FF6317B700E39BC7FE054582803B
:10054000828001458280797126D2B724002022D48E
:1005500003A4849E06D64AD04ECE52CC56CA5AC860
:100560005EC662C455C43729002037CAC901B729FD
:1005700000209384849E814B372B0020130949B7B8
:10058000130AFA37938909BBB70AC0A88357240016
:1005900091EF5C4463990B009CC0032CC40022853E
:1005A000D13B628499A823A6FB00C5BF83270B9F7C
:1005B0008297830669011C4463D806063307F54019
:1005C0006361EA0823A80900835524000345040059
:1005D000972004E0E78040DD5C405844A1CF1444FC
:1005E000B6978306690163C7060063E55701B7063E
:1005F0004057B6971CC4A28B3A8449F8B72700200D
:10060000938707BB984B894663F1E606791798CB29
:10061000B250225492540259F249624AD24A424B91
:10062000B24B224C45618280E37AF5F83387FA4079
:100630002A9779B763940B0098C085B723A6EB007F
:10064000A9BF0327490219CB63DD06003385A74004
:1006500083A709016374F50023A8A900A28B404475
:1006600069BFE3F5A7FED697D5B723A807004DB716
:1006700001114AC8372900208327C9BD06CE22CCE4
:1006800026CA4EC652C456C21309C9BD81C7829735
:10069000232009008327490091C3829783270900FB
:1006A00063920718B7240020938784E883C7570014
:1006B000938484E8858B8DC303C77400A3820400F0
:1006C000954763FBE700EF00D04883C77400F51738
:1006D0008A07CA979C438297372A002093074AECDF
:1006E00083C7C700130A4AEC918B99C3EF10A03659
:1006F0008327890091C3829737240020930704BB86
:1007000003C61700B729002003A7899D130404BB63
:100710009389899D8347040093961700BA9683D6E0
:100720000600C9C68347040063EAC7088327090097
:1007300023000400E5EB83C7940091CB83C77400CA
:1007400099E7A3840400972006E0E780E085B727B7
:10075000002083A7079FF9C7B707C0A81CC8E533C7
:10076000B7270020938747B7D8534DCF83C757018A
:1007700018486369F70A03C77400954763E4E70AFA
:100780008347CA00918BD9EF8346140003A6090062
:1007900063C3D70A6244F240D2444249B249224A72
:1007A000924A0561172304E06700239C850793F7AD
:1007B000F70F2300F400E3EFC7F4ADB786073E97C9
:1007C000835507002310070003450400B7270020C6
:1007D00083A7C79E13172500B72A0020BA979C430A
:1007E000938A0A9E23900A00829783D70A000347C0
:1007F000040093C7F7FF7D8D9317170003A7090027
:100800003E97835707005D8D2310A70083470400A0
:1008100081C785072300F4000347040083471400C1
:10082000E376F7F0F2406244D2444249B249224AA8
:10083000924A056182801397170032970357070089
:1008400075F38507B1B7AD6737C70040BD072326ED
:10085000F7200F100000B7270020938707BBC84F71
:1008600083278726BD66BD0693C7F7FF99836A0570
:100870002326D7205D8D82804111B7170040985FF5
:100880003AC6945F3247E39CE6FE324541018280DE
:1008900082800327851163000712411122C406C616
:1008A0008347C5008345C5042A8493F7C70F2306F1
:1008B000F500834697000356C700139586016185AE
:1008C00063F1C508635A05060345870093F6F607EA
:1008D000A304D700054693E627006314C50093E6FA
:1008E00017002306D4005C4389075CC3A30AB40045
:1008F000032504112E864C430905893E8327841164
:1009000003465401D44303D7C700B296118FD4C312
:100910002396E7008947A30DF400B727002003477B
:10092000440383C767B86378F7048347C40093E739
:1009300007012306F40081A093E717002306F400C3
:1009400075B79376F60F635D05020345870085450D
:1009500013E627006314B50013E617002306C4004E
:10096000A30AD400A30407008547A30DF40083273E
:1009700084119C43DDF3B240224401454101828051
:1009800093E717002306F400A30AD400A30407008A
:10099000032504114C430905553C83278411034664
:1009A0005401D44303D7C700B296118FD4C3239602
:1009B000E7008D475DBF05458280B727002083A7EC
:1009C00047AC411122C406C6858B2A84DDEB416504
:1009D000130525F5977005E0E780E0225DC18347A8
:1009E000A5002315F50083270412B5E72320A412E0
:1009F0002322A41285472310F404232005008347F3
:100A0000640154412316F5000347D4002304E50094
:100A10000547A304E50037270020032707EA1385CD
:100A2000170215811C437D151375F50F9CC25C439D
:100A3000DCC21C479CC65C47DCC61C4B9CCA5C4B9A
:100A4000DCCA1C4F9CCE5C4FDCCE19CD93860602CF
:100A500013070702C1BF8327441288C383570404C6
:100A60002322A412850741BFB7270020938707D709
:100A700003D7870005072394E700B24022444101D1
:100A800082808347C40023090400054593C74700BB
:100A90002306F400DDB78347850193F7E70FDDEB0D
:100AA00083479501C5EB034625018346C50009CA66
:100AB0003727002083454503034777B863E7E50000
:100AC00013F7060149CB014709C6C18A0357851BA5
:100AD00081C68356C51B36973DCFB727002003D567
:100AE00087BD1307C71237460F00B335A702411160
:100AF00013060624814622C426C206C67D54330549
:100B0000A70297B006E0E780009CB727002083C7C4
:100B1000D7B8B384A700B727002003A7C7DF832770
:100B2000070963F387003E84184375FBB72700204D
:100B300083A7079F829781476364A400B307A440FB
:100B4000B2402244B3B7970093C7170092443E8542
:100B50004101828081473E858280797126D206D606
:100B600022D44AD04ECE52CC56CA5AC85EC683470B
:100B7000350303447513AA843E941374F40F93074A
:100B8000400263F687001304B4FD1374F40F03AA44
:100B9000841383AAC413A38B841222865285D6851C
:100BA00097B006E0E780A08C058915E503CBD41249
:100BB00001498149337B6403930B50024A86528575
:100BC000D68597B006E0E780808A058915C56391D0
:100BD00069031374F90F238B8412B2502254925478
:100BE0000259F249624AD24A424BB24B4561828075
:100BF0008509E20993D989410509E31179FDE1BF2E
:100C0000832785090356E503797193D60701BD8EC5
:100C1000C206C182358E1357764093575640898B52
:100C2000058B5D8F93573640918B5D8F93571640A0
:100C3000A18B5D8F93171600C18B5D8F93173600C4
:100C400093F707025D8F931756009355860093F72D
:100C500007041E065D8F1376F60F518F93D755400C
:100C600013D63540118A898BD18F13D67540D18F19
:100C700013D61540218AD18F13961500418AD18F42
:100C80001396350013760602D18F1396550013760E
:100C900006049E05D18F93F5F50FCD8FA20745462B
:100CA0005D8F3307C70222D42A8426D252CC56CA7B
:100CB000032A8413832AC4135AC806D636974207D8
:100CC000418393577740135557400989858BC98FC6
:100CD000135537401189C98F135517402189C98F82
:100CE000131517004189C98F1315370013750502B5
:100CF000C98F1315570093558700137505041E07F8
:100D0000C98F1377F70FD98F13D5354013D75540B7
:100D10001189098B498F13D57540498F13D515401B
:100D20002189498F139515004189498F1395350005
:100D300013750502498F13955500137505049E051B
:100D4000498F93F5F50F4D8F2207D98FB387C702CF
:100D50004AD04ECE5EC662C4B697C207C18313D7CF
:100D6000774013D557400989058B498F13D53740F4
:100D70001189498F13D517402189498F1395170081
:100D80004189498F1395370013750502498F1395D3
:100D9000570093D58700137505049E07498F93F775
:100DA000F70FD98F13D5354013D755401189098BCB
:100DB000498F13D57540498F13D515402189498F27
:100DC000139515004189498F139535001375050258
:100DD000498F13955500137505049E05498F93F5AA
:100DE000F50F4D8F2207D98FB387C7021306500224
:100DF0005285D685B697BD8E93940601C18033F691
:100E0000C402137BF60F97A006E0E78040660589D1
:100E10000DED8347D41201498149B3849702130C25
:100E20005002C1804A865285D68597A006E0E780A9
:100E300000640589937BF90F11C563863403850926
:100E400093F9F90F0509E31F89FD230B6413B250D1
:100E5000225492540259F249624AD24A424BB24B4E
:100E6000224C456182805E8BCDB70111B7270020EF
:100E700022CC03A487E226CA4AC84EC606CEAA845C
:100E800013092500854915C083C7140003473400A2
:100E9000858B6304F700405CFDB719469305440059
:100EA0004A85EFF08FE3E31835FF2285F240624474
:100EB000D2444249B249056182804111B7270020DE
:100EC00022C403A487E226C24AC006C693042500B2
:100ED000054901E82285B240224492440249410179
:100EE0008280A6851305A40297C005E0E7802065EF
:100EF000E30225FF405CF1BF4111B727002022C467
:100F000003A487E226C24AC006C693042500054909
:100F100001E82285B2402244924402494101828084
:100F2000A6851305A40197C005E0E7804061E302B0
:100F300025FF405CF1BF011122CC604126CA4AC89E
:100F40004EC652C406CEAA841D4A130965058549BA
:100F5000BC446364F400054581A803C7D4008347FB
:100F60004400631B470503C784026304F700004085
:100F7000C5B70347540083C75405E31AF7FE194663
:100F8000CA8513056400EFF04FD5E31235FF034720
:100F9000C40083C79402E31CF7FC0357E40083D723
:100FA000A402E316F7FC0145F2406244D2444249F0
:100FB000B249224A05618280E31BF7FA03475400D5
:100FC00083C75405E315F7FA1946CA85130564006B
:100FD000EFF0AFD0E31D35F9F9B70111B7270020C5
:100FE00022CC03A407E226CA06CE2AC42EC6854414
:100FF00019E40145F2406244D2440561828083478E
:10100000910003471400858B6304F7000044CDB7BB
:1010100019469305A10013052400EFF00FCCE31748
:1010200095FE0545C1BF011122CC372400200327BE
:10103000C4AD2AC62EC432C206CE3C4B93F7F7F796
:101040003CCB971006E0E78060F30327C4ADB726DA
:1010500000203C4B93E707083CCB83A7C6AC324546
:10106000A24523A0070003471500034825009386E7
:10107000C6AC22074208429703480500429703483E
:1010800035006208429798D703475500034865002A
:1010900022074208429703484500429703487500DB
:1010A00062084297D8D7034795000348A500220756
:1010B000420842970348850042970348B5006208FA
:1010C000429798DB0347D5000348E5002207420812
:1010D00042970348C5000345F500429762052A97E9
:1010E000D8DB03C7150003C52500220742052A9750
:1010F00003C505002A9703C5350062052A9798CFD6
:1011000003C7550003C56500220742052A9703C59A
:1011100045002A9703C5750062052A97D8CF03C7F3
:10112000950003C5A500220742052A9703C585003F
:101130002A9703C5B50062052A9798D303C7D5003F
:1011400003C5E500220742052A9703C5C50083C5EC
:10115000F5002A97E2052E97D8D3D843759BD8C3BC
:10116000D84313671700D8C398431367170098C371
:10117000124698425C43858BD1E71C4F0145230002
:10118000F6009C429C4FA183A300F6009C429C4F1A
:10119000C1832301F6009C429C4FE183A301F6002A
:1011A0009C42D84F2302E600D84F2183A302E600D9
:1011B000D84F41832303E600D84F6183A303E600A1
:1011C00098532304E60098532183A304E600985320
:1011D00041832305E60098536183A305E600D853B5
:1011E0002306E600D8532183A306E600D8534183A3
:1011F0002307E600DC53E183A307F600F2406244D4
:10120000056182800100B5B7B726002003A706ADAF
:1012100001114AC81C5F4EC606CE998322CC26CA4D
:10122000858B938906AD37290020ADCF1C5F37240D
:101230000020930484E893F7F7F91CDF930784E810
:1012400083C76700130700086319F7008327C9AC39
:101250009C4393F707042383F400834784E893F7C0
:10126000070489CFB727002083A7079F829788C8E4
:10127000834784E893F7F70B2304F4E883C744001B
:1012800093F7070485E38547A382F400B72700207E
:1012900083A7C7AD096798C7130700FC2382E40042
:1012A000D844F8D383A70900985F1183058B19CB25
:1012B000985F85463D9B98DF37270020130787E816
:1012C0002302D700985F1D83058B01CF985F1377AA
:1012D000F7F798DFB7270020938787E80547238231
:1012E000E7008327C9ACD8430583058B19C7D843CA
:1012F000759BD8C3D843799BD8C3F2406244D2448B
:101300004249B24905618280397106DE16DC1ADA7B
:101310001ED82AD62ED432D236D03ACE3ECC42CAAD
:1013200046C872C676C47AC27EC0F93DF250E25217
:101330005253C2533255A255125682567247E24753
:101340005248C248324EA24E124F824F2161730062
:101350002030B727002083A6C7ADB727002093878A
:1013600087E803C70700058B11C723820700A38204
:101370000700828003C71700058B65FBF85275F3E1
:1013800003C75700EDB737280020032708AD1C5FBF
:101390009583858BD1E709C61C5BBD832300F600CE
:1013A00085CA832708AD985B460793576701635644
:1013B000070093E707C0C207C18303970600C2076F
:1013C000C18709C7BA970947B3C7E7022390F60058
:1013D00037270020130787E895C9834715009DC765
:1013E00003466700938697008947137606041DC657
:1013F0003695834605000546994793F5F606639FA3
:10140000C500E206E186B94763CA0600832708AD36
:101410009C5FED838D8BA305F70081473E8582801D
:101420008547EDBF411122C406C63724002026C2DD
:101430000327C4AD59E5AE877453FDFEB7240020E1
:10144000938484E83E85B28523810400971006E0EA
:10145000E780E08EB727002083A707ADB70680009E
:101460009843558F98C3D857719BD8D78327C4AD5D
:10147000A3820400A3800400094798C3B7F700E0E3
:1014800003A707D16D9B23A8E7D003A707D15D9BD6
:1014900023A8E7D0730050108326C4ADB7270020DF
:1014A000938787E803C72700058B19E703C7370031
:1014B000058B59C723820700B24022449244410160
:1014C00082808D47631FF500B727002083A707ADF3
:1014D000B70680009843558F98C3D857719BD8D7CB
:1014E00065BF8547E31AF5FAB567BD075CC70F10FE
:1014F00000008327C4AD0967930600F898C7372713
:101500000020130787E82302D7003727002083260F
:1015100007AD0946984231830D8B6319C700130745
:10152000E043F8D33D673D07D8C7BDB79842318344
:101530000D8B01E713076019EDB71307E01BD5B753
:10154000F8522DF395BF5D7152DC372A0020032736
:101550000AAD86C6A2C4A6C2CAC04EDE1C43B729C5
:1015600000203729002093F7F7E793E707081CC30B
:1015700083A649AE3707CEFF7D179C46130680022F
:101580002A84F98F9CC68327C9AD13070008280059
:10159000B8CBAE8493051008EFE0DFEE971006E0BD
:1015A000E780C09D971006E0E780A0A983270AADD9
:1015B0009376F41F370FFCFF23A40700984B4E8847
:1015C000CA881367F70398CBF84F130510F8D28534
:1015D000137707E0558FF8CF9843F576FD16758F92
:1015E00098C39843B7063300B70204001377F7E7B0
:1015F00098C398439303401F7D1F1377F7E7136742
:10160000071098C303A749AE930F800285491C4772
:10161000D58F1CC78327C9AD1307900D3400B8CBF5
:10162000114901471353370026938347030013766C
:101630007700B3D7C740858BE1C383A705AD832E61
:1016400048AE239C07042390070603AECE02137E08
:10165000DEFF23A6CE0383AE0700137EF70793FEBB
:101660000EF833EECE0123A0C70103AE4702336E5E
:101670005E0023A2C70383AEC8AD014E23A27E063F
:1016800003DA070663074E0303AE0703038A060067
:10169000135EFE00620E135E8E416358CA0103AEF4
:1016A0000703135EFE002380C60103DE0706137ED8
:1016B000FE0F03AA4E0663060A0003DA8705E37FDE
:1016C00049FB03AE4702337EEE0123A2C7038387A3
:1016D0000600635CF400034E03003396C900134612
:1016E000F6FF3376C6012300C3003E8663D3A7000E
:1016F0002A8613158601618505071377F70F85067E
:10170000E312F7F3B640264496440649F259625A6A
:1017100061618280372600208327C6AD1306C6ADDF
:10172000D8479316170163D20602984793161701FC
:1017300063DD06007D57B8D737270020130707BBA6
:10174000544F850654CF116798C798470D83058B72
:101750000DC337270020130787E88346270093E649
:1017600016002301D700930600F82302D700214773
:1017700098C79847058B09CF37270020130787E8BC
:101780008346170093E61600A300D700054798C7C5
:1017900098470983058B09E798470583058B39CB63
:1017A000944737270020372500208982858AF5CE87
:1017B000832605AD9442B1828D8AEDE6AC4B93064B
:1017C00087E8944E93F5050283C61600D5C5E1EA75
:1017D00093067006D4CF834687E893E61600230469
:1017E000D7E8114798C7032705AD5C57F19B93E7EE
:1017F00017005CD718421C479396370163D4060242
:10180000B7270020938607D703C60607938707D715
:10181000418A55C683C7060793E707022388F60661
:1018200085671CC71C479396270163D10602B7271B
:101830000020938787E883C64700E206E18663D5E8
:10184000060085462382D70089671CC71C479396EC
:10185000070163D20602B7270020938707D783C604
:101860001707858AADCE83C6170793E62600A3889F
:10187000D706A1671CC78280A1DE85456395B600A7
:101880009306B00681BF89456395B6009306F006BE
:1018900091B78D456395B6009306300725BF930633
:1018A00050070DBF9306600735B7130787E88346D7
:1018B000370093E61600A301D700094725B783C672
:1018C00007070946BD8A6388C60083C607070D4619
:1018D000BD8AE397C6F491462388D70691B783C69D
:1018E0001707918AD9D683C6170793E6860041B7B2
:1018F000397106DE16DC1ADA1ED82AD62ED432D278
:1019000036D03ACE3ECC42CA46C872C676C47AC2F7
:101910007EC00935F250E2525253C2533255A2559D
:10192000125682567247E2475248C248324EA24E81
:10193000124F824F21617300203037270020B726D5
:101940000020138646EA130747EC8347D7008345F8
:10195000B601484AAE97FD8BB355F500A300F600DB
:10196000A306F700858995E9034717018146130807
:101970000002B3F7E7020147B355E5008589937884
:10198000F70F89C96395D700A300160182808506E9
:1019900093F6F60F0507E31107FF8280B7270020B3
:1019A00083A7079F011122CC26CA52C406CE4AC87B
:1019B0004EC656C25AC08297B7240020938744EC83
:1019C0008047014A6306A406B7270020138747B75C
:1019D00003076701938444EC138947B763550706EF
:1019E000018D37270020930747EA83C7A7011354C7
:1019F0005500137AF501930947EA6368F402B70AC0
:101A0000C0A8370B4057153F83C6A9019C441397C4
:101A100056003E9783076901158C63C50700636311
:101A200057015A9798C4E370D4FE1604336A4401F0
:101A3000F24062445285D2444249B249224A924A13
:101A4000024B05618280E37D85F8B707C0A8338427
:101A50008740229579B7B727002083A7079F4111B8
:101A600022C44AC006C626C282973729002093079F
:101A700049EC80476308A406B72700208387A7B8EE
:101A8000130949EC63D80704018DB724002093871C
:101A900044EA83C7A70113545500938444EA63635F
:101AA000F404613D83C7A40103278900939657007E
:101AB00036971D8C2324E900E375F4FE224403C508
:101AC0001400B2409244024981454101171306E0D7
:101AD000670043A9E37A85FAB707C0A83384874033
:101AE000229565B7B2402244924402494101828066
:101AF000B727002003A747AEB75702009387079F79
:101B000083260709139656006358060083260709A3
:101B10001396660063440600FD17FDF38280000003
:101B2000B72700203727002083A7079D0327879C1E
:101B300001456313F700828083D6670081E683D670
:101B4000470036959C43F5B7B727002083A547B7D4
:101B500037270020938747B7138605222328C79C81
:101B600003D74700938785FFB72600204111BA9716
:101B7000056523A4F69C06C61D05935637006374BD
:101B8000E500930600203307D600372500202326E2
:101B9000E59C23A0E522E1162312D60023130600BC
:101BA0001CC3998FE1172312F700231307008D3F01
:101BB000B240B7270020239BA7BA41018280B727F4
:101BC00000203727002083A7079D8326879C014597
:101BD0006393F600828003D7670011E703D74700BD
:101BE0006373E5003A859C43E5B7B7270020B72625
:101BF000002083A7079D03A6869C2A87B305B540CE
:101C00006314F6003A8529A8938687009C43E3690C
:101C1000D7FEE377F7FE2E85E3E4D5FEE3F2F5FE8B
:101C2000828023AC05FE1C4191E7010001000CC13C
:101C30008280BA8703A787FF6DFF23ACB7FE82803F
:101C40001DC18346E5FF1307F00F9147639EE60031
:101C5000411106C697E0FB1FE780004BB240814769
:101C60003E854101828095473E85828001E901459C
:101C700082800145B2402244410182809565411134
:101C8000938505D022C4C98D2A842105C205420549
:101C9000C181418106C697E0FB1FE780A03A71D958
:101CA000FD5723200500231285002303F50021059D
:101CB000D1B7411126C2B724002022C44AC083A74D
:101CC000449D06C6014401499384449D89E7A1656A
:101CD000BD2F05C401A803C7E7FF6317A70215C8F6
:101CE000A16589299840832784FF6316E4029CC07C
:101CF000FD57232C04FE230FF4FE2285B24022441C
:101D0000924402494101828011E03E8983A787FF06
:101D100075BF3E84E5BF232CF9FED9BFB1CDB727EF
:101D2000002083C717BB411122C406C62A842E8512
:101D30006375F400894763E8870019370D45B240A1
:101D400022444101828083A785FF99E703C7E5FF0D
:101D50009307F00F6305F700E5351545CDB7372537
:101D60000020238F85FE1305459D653D2285224475
:101D7000B240A16541017DAE15458280B7270020A4
:101D800023AA079C8280B727002083A7879E99E318
:101D90003E85828003D727006316B70003C707007C
:101DA000E308A7FEDC47E5B7C1C1797122D406D6A6
:101DB00026D24AD04ECE01444147B3D78540858BC9
:101DC000B9CF1205314722953305E502B727002028
:101DD00003A9C79D8544B3948400C204C18093893C
:101DE000C79D2A990327090011C7032549002EC65C
:101DF0000297B24531473304E40283A709003E94B9
:101E00001C4489E72320090023220900B2502254F0
:101E1000A58D02599254F2492E85456182800504B0
:101E2000E31DE4F88144DDB72E85828041111397CC
:101E3000050122C406C626C24AC041872E84635EBD
:101E40000700853D11C1ED3BA1673D8C2285B24065
:101E500022449244024941018280EDD9AA87014778
:101E60004146B356E440858A9DCA9207BA97B14667
:101E7000B387D702B726002003A9C69D8544B39433
:101E8000E400C204C1803E9983270900032549006C
:101E900082972320090023220900258C45BF0507CE
:101EA000E311C7FC8144D5BFB727002083A747B9FA
:101EB000411122C406C6372400201304849991C717
:101EC00082971C403E9508C031A0B727002083A709
:101ED000079FFDF70840B74703009387D73F3305B7
:101EE000F502B7A72600938737ECB2403E9508C0AD
:101EF0002244410182800111680006CE22CC26CA0C
:101F0000EF40E154FD57630BF50C37240020930696
:101F100044B783C756013247130444B763F5E70A51
:101F2000B7240020938404BB98483706C0A8630BED
:101F3000C702B727002083A7079F829732479C4894
:101F40006373F700BA8703475401998F3E9583075F
:101F5000640163CE0700B707C0A8636AF500B7073E
:101F600040579DA88386660163D406061D8D3724DD
:101F70000020930784E89C4F130484E899CBB7278B
:101F8000002083A647AE3707CDFF7D179C46F98F0B
:101F90009CC619E13705C0A8B727002083A787B9D9
:101FA000829719E51C4C85C3EF00422FEFF0510AD0
:101FB0001C4C91CBB727002003A747AEB7063300D0
:101FC0001C47D58F1CC7F2406244D2440561828011
:101FD000E37EF5F8B307F7403E9551BF3724002064
:101FE000130404BB1C48B704C0A8E38E97FCB727B2
:101FF000002083A7079F829737270020130747B742
:10200000834657011C48958F3E9583076701E3C0BF
:1020100007F6E36E95F4A1B775C53748F6A6130821
:1020200008C889476361C80E7971B727002022D498
:102030005AC803A8C79D138BC79D06D626D24AD07F
:102040004ECE52CC56CA5EC662C40144B148C147A6
:10205000B30B1403137CF40F330378010323030041
:10206000631D0308AE8AC165AA84938505F04145C6
:102070003A8AB689328997E0FB1FE780A0FC05E920
:10208000B727002083A747BA99EF8147B25022545F
:1020900092540259F249624AD24A424BB24B224C04
:1020A0003E8545618280814511458297F9BFB726FB
:1020B00000209386869E98420DEF88C2230005007B
:1020C00083270B00054733148700232605002324AC
:1020D00025012311850023224501DE9784C323A215
:1020E000570123A44701E38209FA2380890171BFC4
:1020F00036875447F5FE48C7D1B70504E31AF4F410
:10210000A14769B789473E858280B727002083A70A
:10211000479E411122C406C637240020130404BB85
:1021200089C782975C483E9548C84848B2402244D7
:1021300041018280B727002083C717BB6370F50277
:1021400037270020931715000325879D3E95835759
:102150000500DD8D2310B500014582800D4582808C
:10216000B727002083C717BB6372F502372700200B
:10217000931715000325879D93C5F5FF3E9583575B
:102180000500FD8D2310B500014582800D4582803C
:102190009307F00263E7A70AB146B306D502B72753
:1021A000002003A7C79D89473697184341CF0111E7
:1021B00022CC4EC60544935945003D893315A400F1
:1021C00013140501418026CA4E85AE84A2854AC8F3
:1021D00006CE553E2A89814729CDA2854E854937AD
:1021E000B727002083A7079F8297B727002083D7B0
:1021F00087BD2A8413060064338797028146B3B7EC
:10220000970213050732B335E500BE95EF906204DF
:10221000B72700208387A7B8229563C90700B707AF
:10222000C0A86365F500B70740573E952324A90071
:102230008147F2406244D2444249B2493E85056139
:10224000828089473E85828001114EC6B7290020D1
:10225000938909BB83C7190006CE22CC26CA4AC877
:1022600052C4636BF5000145F2406244D2444249D6
:10227000B249224A05618280B727002083A4079FC4
:10228000FDD02E8A83D589022A843289B387C5027C
:102290008146B3B5C50213850732B337F50013067F
:1022A0000064BE95EF80F27AB747F6A6938707C819
:1022B000E3EBA7FA829483D58902AA84130600640B
:1022C000B38725038146B3B5250313850732B3379A
:1022D000F500BE95EF80F277B7270020138747B748
:1022E00003076701AA94138947B763490700B70733
:1022F000C0A863E5F400B7074057BE94D285228595
:10230000593401C504C5054585B7936504F0C20578
:10231000C181414597E0FB1FE780C0D201E98327D7
:102320000903B1D3A2851145829735BF3727002015
:102330001307879E1C4385E308C3854723260500B2
:1023400004C52311450123008500A300F5002322C5
:10235000050055BFBA87D84775FFC8C7F9BF41CD3B
:10236000797122D426D24AD04ECE52CC56CA5EC6FD
:1023700062C466C206D65AC8B689B28A2E8A2A892B
:102380009304000C4144372C0020854C930B000330
:10239000130BCC9D83270B00A6979C43A9E793754D
:1023A000F400B395BC00C2055686C18113554400A4
:1023B000613D15C983270B000145BE9423A024016C
:1023C00023A244016384090023808900B25022546F
:1023D00092540259F249624AD24A424BB24B224CC1
:1023E000924C4561828005041374F40FB104E3112B
:1023F00074FB2145E1BF09458280411122C426C2F8
:102400004AC006C62A842E89B2843D3DCA852285EB
:102410009D3A05CDB727002083D587BD2A841306B2
:102420000064B38795028146B3B5950213850732E0
:10243000B337F500BE95EF80D26148C00145B24088
:10244000224492440249410182802145CDBF41117D
:1024500022C426C24AC006C62A892E842D32AA84E6
:1024600019C123110500A2854A85DD39B72700204F
:1024700083C707BB639B2701B72700209387079E6D
:1024800003D70700598C23908700014591E0194537
:10249000B240224492440249410182809307F002F3
:1024A00063E8A7044111B14722C43304F50226C2F0
:1024B000B72400209384C49D9C4006C6A2979843ED
:1024C00089470DC39377F5008545B395F500C2059F
:1024D000C1811181AD3F9C40A29723A0070023A298
:1024E00007008147B240224492443E8541018280E8
:1024F00089473E858280411106C622C4693011E5B4
:102500000145B240224441018280B727002083A7C1
:10251000079F00458297B72700208387A7B863D815
:102520000702B747F6A63305A4409387F7C7E3E948
:10253000A7FC93070064B335F50237270020035644
:1025400087BD81463305F502EF80B2505DBFE37A67
:10255000A4FCB707C0A83E94E9B74111B7270020F3
:1025600006C623A2A79E0295B240B727002023A447
:10257000A7BC014541018280994763EAB700939760
:102580002500B72500209385C5BDBE9588C18280F2
:10259000B727002023A4079E37250020B727002057
:1025A000411123A2079E7146B727002081451305DC
:1025B000C5BD06C623A8079E22C426C297E0FB1FFE
:1025C000E78080C5372500201306C002814513042B
:1025D00005BB130505BB97E0FB1FE780E0C3EFF0E9
:1025E000AFD6B727002083C7B7B88545B7240020EA
:1025F00013D527008D8B3E958D473305F5029947FE
:102600009384C49D39051375F50F2301A400330588
:10261000F5021305052497E0FB1FE780A0A288C000
:1026200041C103462400994781453306F60213064B
:10263000062497E0FB1FE78020BE9C400347240050
:10264000B7240020938707249384C49E0A079CC064
:10265000BA9737270020232CF79CEFF02FF2252183
:1026600083471400944037260400139727003697B9
:10267000130686DA10C3138717001377F70F0A07BC
:102680003726040036971306C6E210C313873700B7
:10269000890793F7F70F8A07A300E400B69790C362
:1026A000B240224492444101828037270020130720
:1026B00007BB834717008346270063F0D702B7267E
:1026C000002083A6C69E13861700A300C700139799
:1026D0002700369708C33E8582809307F00FE5BF39
:1026E0001C41638F071041777D8FB7060020894713
:1026F0006319D7100357450063050710411126C21F
:102700001946AA849305F00F690506C622C44AC07B
:1027100097E0FB1FE78040BA05478D47630BE50C48
:102720009C4491C7D858994769C7985C79C33724A6
:1027300000201306C0038145130544B797E0FB1F33
:10274000E78080AD1306C003A685130544B797E064
:10275000FB1FE780E0A8130944B70357C90093079C
:1027600044B709E7130700102396E70003C7E70003
:1027700001E705472387E70003D7070101E76D4716
:102780002398E70003C7F70001E71547A387E70091
:1027900003C7270101E705472389E70003C737017E
:1027A00009E703C7F700A389E70003C7470101E76B
:1027B0003547238AE70003C7970109E7130780021B
:1027C000A38CE70003C7570109E71307D002A38AC8
:1027D000E70003C7840109E71307C003238CE70060
:1027E0009C5791C78297B7270020239CA7BA4D33E7
:1027F0008147B2402244924402493E854101828091
:1028000089473E858280B727002083A7079F011153
:1028100006CE22CC26CA4AC84EC6829793070064C9
:10282000B335F50237290020130409BB835984020C
:1028300081464E863305F502EF80B221004CAA8412
:10284000014563049402130909BB33858440636C1A
:1028500094004E868146370500B09305E041EF8035
:10286000521F018D2695232C9900F2406244D244D8
:102870004249B24905618280011122CC2E84B7B54C
:1028800006000A8541469385056A06CEEF80F2551B
:10289000180806043A94B7270020035504FF83D78D
:1028A000A7BDF2406244AA9737450F0013050524DF
:1028B0003355F50205618280B727002083D7A7BD75
:1028C00051471D45637CF702794719456378F70244
:1028D0001307200315456373F7021307B00411456E
:1028E000637EF700130740060D456379F700130771
:1028F000600909456374F70013B5B70F82800111B1
:1029000022CC06CE2A842EC6EFF00FDAB245F24072
:10291000818D33A5A502229562441375F50F0561DB
:102920008280011122CC06CE2A842EC6EFF0CFD7AA
:10293000B245F240818D33A5A5022295624442053D
:10294000418105618280011122CC06CE2A842EC6E7
:10295000EFF08FD5B245F240818D33B5A5022295B7
:10296000624405618280B7270020138747B7185754
:102970002DC3411122C426C24AC006C6138947B7D7
:102980000297B7270020138707BB035787002A84C5
:10299000938407BB0DCBBA876373A700AA87C207CE
:1029A000C183BA866373E400A286C206C182958F92
:1029B0005147635AF7008327C90291C38297EFF00A
:1029C000217823948400B240224492440249410178
:1029D00082808280B7270020138747B7585701119C
:1029E00022CC06CE138447B701C72AC602973245C8
:1029F000B727002037270020938707BB1307079FBF
:102A00000DC1B7863200938626A194D708C3373507
:102A10000400130565809136F2406244014505616A
:102A200082808346640113968601618663540602A0
:102A3000B7863200938626A123AE070094D7B7C786
:102A40000040FD5623A4D726B70700209387675D73
:102A50001CC375BF13F6160019CAB78620039386E8
:102A600006D094D7B707002093878760D5B76176E3
:102A70002394C70291C6930600322395D702DDB78F
:102A800093062003DDBF011122CC372400209307D9
:102A900044B7884706CE26CA4AC801E90545F24030
:102AA0006244D244424905618280130444B75C58B1
:102AB000F5D7185C65D77000854582971844B247F2
:102AC000E30EF7FC0355C4009305E004B72400208F
:102AD00097D0FB1FE7800057138704BB08D393846C
:102AE00004BB4DDD0356C4009305F00F014997D098
:102AF000FB1FE78060728347E4009050634DF9004C
:102B0000328597D0FB1FE7802060014523A0040297
:102B100023A2040269B78355C4000844185CB38734
:102B20002503898105093E9508C20297E9B741113D
:102B300022C437240020930744B79C4726C206C608
:102B4000B72400204AC0938404BB91EB88503DE138
:102B5000B24022449244024901454101828013045B
:102B600044B71C5CE5D79C5091EB0355C40093051A
:102B7000E00497D0FB1FE780E04C88D0885079D5DF
:102B80000356C4009305F00F014997D0FB1FE7805F
:102B9000A0688347E4009050E35AF9FA8355C400D3
:102BA0001C4433852503898105093E951C5C08C2B8
:102BB0008297C5B797D0FB1FE780005523A004027A
:102BC00023A2040271B701114EC6B72900209387D2
:102BD00049B79C4726CA4AC852C406CE22CC56C220
:102BE0005AC02A8AAE843289638C071E938949B7FA
:102BF00003A74903630207127D476361A7123724C5
:102C00000020130704BB832A0702130404BB639A42
:102C10000A0803D5C9009565938515E097D0FB1F79
:102C2000E780404208D02A8665C983D5C90083A7BA
:102C3000490303A589008981829783A78900832A94
:102C400004025CD089476316FA08C1476396F40C06
:102C500083D5C9009147938505FCB3C5F5028A0564
:102C6000D69503C705009307A0056313F70A83C72A
:102C70001500639F47094A852686910597D0FB1F5B
:102C8000E78000561C505685639357130145F24068
:102C90006244D2444249B249224A924A024B0561F7
:102CA00082805850E380E7FA03D5C9009565938583
:102CB00025E097D0FB1FE780E038AA8A31CD83D585
:102CC000C9002A8683A7490303A5890089818297C1
:102CD00095BF8D47631BFA00C147639FF40283D5FC
:102CE000C900938545FDF199A5BF91476318FA0086
:102CF0006394440383D5C900A115F5B7C147631D8B
:102D0000FA00A14763EA970083D5C900C115E1BF66
:102D10001C5056856391570D294595BF1307F00642
:102D2000636CA708930A05FE1947B3CAEA0203D7E2
:102D3000C900372B0020B38AEA02BE9A93070BBB67
:102D4000DC53130B0BBB6395570103240B021DE0EF
:102D500003D5C9009305E00497D0FB1FE780802EC0
:102D60002A845DD983D5C90083A749032A8689812E
:102D70005685829791451307A00589819397250071
:102D8000A29783C607006393E60483C61700639C7B
:102D9000460385058A052686A2954A8597D0FB1F9E
:102DA000E780004483270B02E38287EE228597D0D9
:102DB000FB1FE7806035D9BD1307E007E36EA7F47A
:102DC000930A05F9ADB783D5270045BF83270B02CA
:102DD000E38487F4228597D0FB1FE780E0322DBF84
:102DE000B727002083A507BD85D991479306A00585
:102DF0008983139727002E9703460700E31ED6F01A
:102E000003461700631C460185078A072686BE9580
:102E10004A8597D0FB1FE780A03C8DBD83572700D4
:102E2000C1BFB7270020938747B7984729C3985F4A
:102E30001DCF8546631DD502411122C437240020D1
:102E4000130404BB105006C619CE83D5C7004850E2
:102E500089810297085097D0FB1FE780E02A232042
:102E6000040223220402B240224441018280828073
:102E7000011122CC37240020930744B756C283AAFD
:102E8000870026CA4AC84EC606CE52C42A89AE84D6
:102E9000B289130444B7638B0A1C1C5C99EB294567
:102EA000F2406244D2444249B249224A924A056100
:102EB00082805C58EDD7FD4763E7A70C372A0020D6
:102EC00093070ABB9C53130A0ABBB9C7084483275C
:102ED0004A02639FA70489476317F906C147E39035
:102EE000F4FC0355C4009147130505FC3345F50276
:102EF0009317250003250A022686CE853E95930763
:102F0000A0052300F500A3002501110597D0FB1FA4
:102F1000E780002D014569B70355C4009305E0041F
:102F200097D0FB1FE78000122320AA0245F185BF3E
:102F30008355C4005C5803260A02898182971C4489
:102F40002322FA0249BF8D47631CF900C147E39869
:102F5000F4F40355C400130545FD9377C5FF59BF2D
:102F600091476318F900E39C24F30355C40021152D
:102F7000EDB7C147E315F9F2A147E3E297F2035534
:102F8000C4004115D9BF9307F00663E9A70693076C
:102F900005FE1947B3C7E7020357C400372A0020CC
:102FA000B387E702BE9A93070ABB9C53130A0ABB76
:102FB000A9CF83274A026396570703250A02914641
:102FC0001308A005FD5593D72600C207C1831397A8
:102FD00027002A9703460700631406078348170053
:102FE00003562700639C2805B306D64063C69604A3
:102FF00085078A072686CE853E9509BF9307E00799
:10300000E3EFA7E8930705F941BF0355C400930513
:10301000E00497D0FB1FE780E0022320AA0251F9C9
:10302000BDBD8355C4005C5803260A0289815685BC
:10303000829723225A0351B7A300B700B28661B723
:103040000356C400B38596009105130606FCE3F809
:10305000C5E4138634001376C60F1106B29623001A
:103060000701A30027012311D70059B7372A0020F1
:1030700093070ABB9C53130A0ABBA1C303250A0288
:1030800091461308A005FD5593D72600C207C183BA
:10309000139727002A970346070063120605834803
:1030A00017000356270063982801B306D640E3D1E2
:1030B00096F4A300B700B286C1BF0345E40083576E
:1030C000C4009305E0043305F5024205418197D021
:1030D000FB1FE78020F72320AA024DF1C9B3035656
:1030E000C4008345E400B385C5023386960011060B
:1030F000E3E7C5DAB9BF0145828083C70500230035
:10310000F50083D72500A300F50083D72500A18310
:103110002301F50083C74500A301F5001145828016
:10312000B727002023AC079EB727002023AA079EBD
:10313000828029C1411126C206C622C4AA84014543
:103140008DC52E84B7B50600228541469385056B53
:1031500097D0FB1FE780C00883C7040005452306FE
:10316000F40083C71400A306F400B2402244924442
:103170004101828001458280011122CC26CA06CEFF
:103180000947AA8432846381E50441468147639BF1
:10319000C500638FE6006397B6000DA841478147DD
:1031A000638EE600F2406244D2443E85056182802F
:1031B0008A852285BD3F41468A8519A88A85953F23
:1031C00041468A85228531A0E39AB6FC2E86A285E7
:1031D000268597D0FB1FE7808009AA87E1B7B7272C
:1031E000002023AAA79E8280B727002023ACA79E99
:1031F0008280011122CC0354650006CE26CA4AC83B
:103200004EC641C083298500AE842A8803C90900BF
:10321000814713178901618763550702B147054547
:1032200063FA870451144204035528004180338710
:103230008900A2864E868545EFB0D06DB337A000D9
:1032400085077D1413556900420405891379F90334
:1032500041802380F400A380A400238124012392D1
:103260008400014719C01387190098C40947638374
:10327000E7000145F2406244D2444249B249056147
:1032800082800545C5BFC167F917630AF502D947B2
:1032900063F7B702011122CC2EC606CE2A84EF9026
:1032A000602DB2456368B50022856244F240056135
:1032B0006FA0D04FF240624405450561828005450C
:1032C0008280C167F9176314F5006F90A02A41113D
:1032D00006C6EFA0703C11E15D45B240410182801D
:1032E00091476394F502834705002300F600834766
:1032F000250003471500A207D98F2311F600834745
:10330000350001452302F60082801145828041117B
:10331000814522C426C206C6AA8405252A8409E955
:10332000B727002083A7479F81C7F9452685829745
:103330002285B240224492444101828039714ED6A6
:1033400056D25AD006DE22DC26DA4AD852D4AA8ACD
:103350002E8BB28941EF36C6AD379145EF904033A1
:10336000AA844D492DC9B246054A2380340105443B
:10337000630A0B00B68513851400029B0505131420
:1033800005014180E20993D9894163D30902C1450E
:103390005685EFA0B03E654905E933868400A285D5
:1033A0002685EFB0D01D2A8905E131044204418011
:1033B00091472C085685231CF10026CE231D810041
:1033C000EFA060442A8901C963070A00268597D0C7
:1033D000FB1FE78060D3F25062544A85D2544259B1
:1033E000B259225A925A025B21618280BA84014A00
:1033F000ADBF011122CC26CA4AC84EC606CE2A89C4
:103400003284B689253FAA840DE1B727002083A71F
:10341000879F81CF05476317E40003C409000504B3
:103420001374F40FA2854A858297F2406244268580
:103430004249D244B24905618280AE86B735040064
:10344000014705469385A50F6DB783D70500230077
:10345000F50083D70500A183A300F500094582800C
:1034600083D705002300F50083D70500A183A300BF
:10347000F50083D725002301F50083D72500A1831C
:10348000A301F5001145828083D705002300F500D4
:1034900083D70500A183A300F50083D7250023016E
:1034A000F50083D72500A183A301F50083C755004C
:1034B0002302F50083C76500A302F50003D585004C
:1034C000190542054181828083D705002300F5005C
:1034D00083D70500A183A300F5000945828083D727
:1034E00005002300F50083D70500A183A300F500A4
:1034F00083D725002301F50083D72500A183A301ED
:10350000F5001145828003D545000605420541813D
:10351000828083D705002300F50083D70500A183AF
:10352000A300F50003D525000905420541818280ED
:1035300083D705002300F50083D70500A183A300EE
:10354000F50083D725002301F50083D72500A1834B
:10355000A301F50003D54500110542054181828094
:1035600083C705002300F5000545828083D7050049
:10357000411122C406C62300F50083D705002E841E
:103580001105A183A30EF5FE83D725009505230F12
:10359000F5FE83D7D5FFA183A30FF5FE03C6F5FF84
:1035A00097D0FB1FE780C0C303454400B2402244CC
:1035B0001105410182808947639CF500834715000E
:1035C000034705000145A207D98F2310F60082802A
:1035D0001145828003D70500D94763FEE702011138
:1035E00022CC06CE2EC62A84EF80D078B24683D76E
:1035F0000600636DF50022856244F240B735040091
:10360000014709469385A54405610DBBF24062441C
:103610000945056182800945828091479DC58346A1
:103620000500FD15C2058547C1816392F60213D7D7
:1036300025008D89914791E9914701CB050523012B
:10364000D6002310E60048C281473E8582800947A4
:103650009147E39CE6FEC94733D7F502B3F5F5027F
:10366000D1BFAE86B73504000147114693850546A4
:10367000F1B193F7350091EB8981914789C523100A
:10368000B60048C281473E8582809147EDBF03C79F
:1036900045008947631AF702011122CC2A84C845E4
:1036A00006CEAE86014719C52EC69D45EFE0EFD385
:1036B000B2462A8722856244F240B7350400194693
:1036C0009385854805619DB90945828099E1114539
:1036D00082808347050005472311F600E379F7FE52
:1036E000FD1593F5F50F33D7F502B387E702E390A5
:1036F000F5FE050548C22310E6000145828083C718
:1037000045000947AE866385E70041476399E700B6
:10371000B7350400014721469385C55605B10945D3
:1037200082802310B60091E1014548C201458280A4
:10373000AE86B7350400014729469385854CFDBE0A
:103740002310B60091E1014548C201458280AE8652
:10375000B7350400014731469385E54DC5B62310C2
:10376000B60091E1014548C20145828003D745007A
:10377000854763FDE702011122CC2A84884106CEE9
:103780000DC12EC68545EFE04FC62A8722856244CB
:10379000B246F240B735040039469385655005615D
:1037A00071BEF2406244094505618280094582800C
:1037B00091479DC5034705008D46914763F2E60298
:1037C000FD15C205C181B3C6E5023308D70263996E
:1037D000050105052310D6002311E60048C28147E4
:1037E0003E85828083C745000947AE866385E70032
:1037F00041476399E700B735040001474146938587
:10380000C5562DBE09458280B335B00013952500FD
:103810008280011122CC26CA06CE03C785008547C7
:10382000AA842E8449466310F702613C8357240022
:1038300049151306200963C8A700F2406244D24428
:103840000945056182800347940085476314F700AA
:1038500013660604484011C58D4532C6EFE0EFB847
:103860003246A2866244F2402A872685D244B73582
:103870000400938525510561D1B48D4763FFB702DC
:103880008347150003470500F115A207D98F2310C0
:10389000F6008347350003472500C205A207C18112
:1038A000D98F2311F6002312B60089C5110508C669
:1038B0000145828023240600E5BF11458280011165
:1038C00022CC2A84884506CEAE8611C52EC69545E3
:1038D000EFE0AFB1B2462A8722856244F240B735A5
:1038E0000400594693850553056189BCB335B00082
:1038F000139525008280AE86B735040001476146E6
:103900009385055625BC8547114563F4D702834747
:10391000160083450600A207CD8F2310F70093877A
:10392000E6FF2311F70089476386F600090650C3B6
:103930000145828023220700E5BF01478146794681
:103940008145EDBA83D705002300F50083D7050034
:10395000A183A300F5000945828083C725000547A0
:103960002300F50003D505006397E7000A05050568
:10397000420541818280C9473305F502CDBF03D599
:1039800005000A0542054181828083D72500230076
:10399000F50003D5050083D725003305F50205059D
:1039A00042054181828003D50500828003D5050050
:1039B000828003D50500828083D725002300F5008F
:1039C00003D5050083D725003305F502050542051B
:1039D0004181828083D705002300F50083D705004D
:1039E000A183A300F50083D725002301F50083D729
:1039F0002500A183A301F50003D54500110542056B
:103A00004181828083D705002300F50083D705001C
:103A1000A183A300F50003D52500090542054181D6
:103A2000828089471145639BF600834716008346D1
:103A300006000145A207D58F2310F700828003D727
:103A40000500D947AE8663F9E700B7450400014792
:103A50000D469385459471BA09458280114563935B
:103A6000A60283471600834606000145A207D58FAC
:103A70002310F7008347360083462600A207D58F20
:103A80002311F700828083C725000547FD1793F7B0
:103A9000F70F6361F70483D705008DCF011122CCA6
:103AA0002A84C84106CE15C12EC68945EFE0EF93A2
:103AB0002A8722856244B246F240B7450400154683
:103AC0009385A59505616FF0DF92F2406244094548
:103AD00005618280094582809547114563F9D706C3
:103AE000411122C426C24AC006C683471600BA84C2
:103AF00003470600A2073284D98F2390F40083473E
:103B000036000347260093054400A207D98F23916E
:103B1000F40089472382F40009461385540036894E
:103B200097C0FB1FE780C06B9307A9FF2394F400A5
:103B30009947631BF90023A60400B2402244924433
:103B400002490145410182801904C0C4FDB7828049
:103B500083D705008DCF011122CC2A84C84106CE1F
:103B600015C12EC68545EFE04F882A87228562441D
:103B7000B246F240B74504001D469385E5970561BE
:103B80006FF03F87F2406244094505618280094534
:103B9000828099476395F6048947411106C623023E
:103BA000F7008347160083460600B285A207D58F2B
:103BB0002310F7008347360083462600034647005C
:103BC000A207D58F130557002311F700910597C061
:103BD000FB1FE780E060B240014541018280D14790
:103BE00011456394F600C1474DBF828083D705001D
:103BF0008DCF011122CC2A84C84106CE15C12EC614
:103C00008945EFD09FFE2A8722856244B246F24062
:103C1000B745040025469385A59805616FF06FFDB3
:103C2000F2406244094505618280094582808947E6
:103C30001145639BF6008347160083460600014545
:103C4000A207D58F2310F7008280011122CC2A848D
:103C5000C84106CEAE86014719C52EC68545EFD0B0
:103C6000DFF8B2462A8722856244F240B745040055
:103C70002D469385659A05616FF0AFF71145639303
:103C8000A60283471600834606000145A207D58F8A
:103C90002310F7008347360083462600A207D58FFE
:103CA0002311F7008280011122CC2A84C84106CE5C
:103CB000AE8611C52EC68545EFD03FF3B2462A87A2
:103CC00022856244F240B745040035469385C59A83
:103CD00005616FF00FF293F71600114589EB8947E4
:103CE0006387F60085822312D70010C301458280C6
:103CF000011122CC2A84C84106CE15C12EC68545A5
:103D0000EFD0BFEE2A8722856244B246F240B74523
:103D100004003D469385259B05616FF08FEDF240D1
:103D2000624409450561828083D705008DCF01116A
:103D300022CC2A84C84106CE15C12EC68945EFD0B3
:103D4000DFEA2A8722856244B246F240B745040082
:103D500045469385859B05616FF0AFE9F24062446B
:103D600009450561828009458280854763FCD70249
:103D70002304A700A304B700834716008345060069
:103D8000A207CD8F2310F7009387E6FF2311F700DA
:103D900089476386F600090650C3014582802322C5
:103DA0000700E5BF11458280014781464D468145A8
:103DB0006FF02FE48D47114563FBD7028347160050
:103DC00083450600A207CD8F2310F70083473600F6
:103DD00083452600A207CD8F2311F7009387C6FFE6
:103DE0002312F7006386A600110610C701458280E2
:103DF00023240700E5BF011122CC2A84884506CE82
:103E0000AE8611C52EC69545EFD03FDEB2462A8755
:103E100022856244F240B74504005D469385459D86
:103E200005616FF00FDD854711456397F600834705
:103E3000060001452300F700828001478146654660
:103E400081456FF00FDB011122CC2A84C84106CED8
:103E5000AE86014719C52EC68D45EFD01FD9B24693
:103E60002A8722856244F240B74504006D46938557
:103E700045A005616FF08FCC011122CC2A84C84186
:103E800006CEAE86014719C52EC68D45EFD0FFD5AB
:103E9000B2462A8722856244F240B745040075463F
:103EA000938545A005616FF06FC9011106CE2EC63E
:103EB000EF90B07A01C9B245F24003552500056183
:103EC0006FE0E046F240494505618280B727002057
:103ED000A38207A2B7270020238207A2B7270020CA
:103EE00023A607A0B727002023A807A0B7270020F4
:103EF00023AA07A0B727002023AC07A0B7270020DC
:103F000023A407A0B727002023A207A0B7270020DB
:103F1000938787BF370684033707B40090D337C62B
:103F2000070098C3130606B83747A000D8C3D0D3FC
:103F30003707100041669306070AB705500093083B
:103F4000060194C723A4170393860501930816F866
:103F5000D4C723A61703B706D007B7087F001308F6
:103F6000070513850601410723A81703B0C393086B
:103F700016009386060513861500D8CBF8C323A830
:103F8000070188CF23AE070023AA170323AC07023B
:103F900023AE070223A40704F0C7B4CB23AA070467
:103FA000ACCF23AE0705B8D33707A000F8D7130767
:103FB000000AB8DB1307C01CF8DB7D57E8D323A445
:103FC0000706239CE7068280011126CAAA842145A0
:103FD00022CC06CE2E8432C636C43AC2EFD01FC9D8
:103FE0001DC9A24612473246930700FD2300F50083
:103FF0009947A30095002301F5002303D500A303EF
:10400000E5002312C500AA8522856244F240D2440D
:1040100005616FD0BFD0F2406244D2440561828016
:10402000B727002023A6A7A08280B727002023A8B7
:10403000A7A08280B727002023AAA7A08280B72745
:10404000002023ACA7A08280011122CC4AC806CE52
:1040500026CA2A890144B30489006368B400F24087
:104060006244D2444249056182802EC6EFD0DFE32C
:1040700093170501C183A183B2452380F400930700
:10408000140093F7F70F850463F9B700CA97090482
:104090002380A7001374F40F7DBF3E847DBF4111C0
:1040A00022C437240020130444C703556400C167A9
:1040B00006C6FD17630FF500B727002003C647D6D5
:1040C000B72500209385C5A1EF90D036FD57231367
:1040D000F400B24022444101828009C925151375BC
:1040E000F50F1335850E134515008280014582803A
:1040F00023900500C9C6797122D426D24ECE52CC67
:104100005AC806D64AD056CA5EC63684328AAE89A6
:104110002A8B814463F34407B307940083C70700E5
:10412000138914004209939A070193DA0A0113597B
:10413000090163840A04CA976341FA04B30724019E
:1041400083CB07005E85513F0DC99387FAFF23900B
:10415000F90063906B03130519002295B2502254A5
:1041600092540259F249624AD24A424BB24B4561DB
:104170008280D694C204C18071BF0145C5B7014594
:104180008280011122CC3724002026CA4AC84EC69C
:10419000930744C706CE2E89D0CB8CCBC8C7AA8440
:1041A00041469305F00F4A8597C0FB1FE780C0107A
:1041B0008549130444C7631935030848C145693567
:1041C00041469305F00F268597C0FB1FE780C00E80
:1041D00005496315250348446244F240D2444249EC
:1041E000B249C14505618DB5414681454A8597C0B3
:1041F000FB1FE780600CE31535FDC1B741468145E3
:10420000268597C0FB1FE780200BE30625FDF240C3
:104210006244D2444249B24905618280011122CCF4
:104220003724002026CA4EC6AE84AA89130600028F
:10423000130544C7814506CE4AC897C0FB1FE780D7
:10424000A0FDB7270020130944C7238497D6A301F4
:104250003901EFE00010130444C7854719C18147B5
:1042600049452300F400F2406244D2444249B24935
:1042700005618280814781CD19C98547631BF5009F
:1042800083C7550093E707FCA382F50085473E8569
:10429000828089476317F50083C7550093F7F703BA
:1042A000E5B70D478547E314E5FE03C755001377CF
:1042B000F70313670704A382E500D1BF81478DC1CF
:1042C00005C103C755009306000C85471377070CFB
:1042D0006308D700930600048D476303D70089471E
:1042E0003E858280411122C4005D06C626C21DC8DB
:1042F000AA84085009C597C0FB1FE780E0E048503A
:1043000009C597C0FB1FE78020E0085409C597C086
:10431000FB1FE78060DF228597C0FB1FE780C0DEC0
:1043200023AC0402B2402244924441018280B72768
:104330000020938747C719E903C727001385870122
:1043400001CB372500201305C59F82801385870187
:104350008280B727002003C567C78280B727002067
:1043600003A507C88280B727002003A547C882801D
:10437000B727002083A787C888438280B7270020FB
:10438000938747C7D44B9842050798C203C53700A7
:104390009307F00F6305F50091656FD0BFD9828058
:1043A000011122CC06CE2E8432C6EF90B03B91474D
:1043B000B2456310F502B727002083A787A195C3F4
:1043C00003A30700630F030022856244F2400561E6
:1043D0000283B727002083A707A181C703A3470053
:1043E000D5B7F2406244054505618280011122CCB7
:1043F0002A840355450006CE26CA4AC84EC6EF9009
:1044000090143DC92A89834405008349C500D93DDC
:104410004A85EF90507403554400EF90F02F3729F0
:104420000020130949A283470900B9CB639A970476
:10443000B727002083C557A22685853C19E12300B4
:10444000090003554400EF90F0319147631FF500D8
:10445000B7270020938747C78356440003D76700D8
:104460006395E6007D572393E700F2406244D2440F
:104470004249B2490561828081499304F00F45B7F2
:104480009307F00FE38FF4FA834664000356440069
:10449000034524004E87A685053E65B779715EC643
:1044A000AA8B2E8552CC56CA5AC806D622D426D2FA
:1044B0004AD04ECEAE8A328B368AEF90D0087DC17C
:1044C000045D2A89E5C09C50614599C313054003EA
:1044D0009C5481C751054205418163050A0071055D
:1044E00042054181DC5081C7590542054181EFD029
:1044F000EFF72A8445C96146814597C0FB1FE780D5
:10450000A0D1B727002083C987C2639409008349DB
:104510000900930700FD2300F400A947A3007401DC
:104520002301F400230364018C502312540113056A
:10453000840191C908C47146930A440397C0FB1FC4
:10454000E78000CA56858C5491C948C45146930AE5
:10455000450197C0FB1FE780A0C85685630C0A0081
:1045600008C87146D285930AC50197C0FB1FE78032
:1045700020C75685CC5099C548C8594697C0FB1FDF
:10458000E78000C6A2854E85EFD04FF92254B25085
:104590009254F249624AD24A424BB24B4A8502597E
:1045A000456189B3B250225492540259F249624A89
:1045B000D24A424BB24B4561828001114EC6AA8954
:1045C0002E854AC806CE22CC26CA2E89EF90A07727
:1045D00021C9B727002083C487C299E0834405001E
:1045E0001945EFD0AFE82A8405CD8145194697C01B
:1045F000FB1FE78060C2930700FD2300F400B9476A
:10460000A30034012301F40023122401A285624493
:10461000F2404249B2492685D24405616FD00FF07D
:10462000F2406244D2444249B24905618280397104
:104630005ECEAA8B2E8526DA4ED652D456D25AD0CA
:1046400006DE22DC4AD8AE84328BB68A3A8ABE892C
:1046500042C6EF90406F21CD2A894145EFD00FE14E
:104660002A8431C54146814597C0FB1FE780C0BA07
:10467000B727002003C587C219E103450900930746
:1046800000FD2300F400BD472301F400B247A3005E
:1046900074012312940023046401A304540123052C
:1046A0004401A30534015CC4A285EFD02FE7F2508A
:1046B0006254D2544259B259225A925A025BF24B76
:1046C00021618280797126D2AA8439454AD04ECEA2
:1046D00006D622D42EC6B2893689EFD02FD921C171
:1046E000B2459307000D2310F500B1472A84231229
:1046F000B5002301F500CE851905194697C0FB1FAB
:10470000E78000AE23062401A2852254B25002594C
:10471000F24913F5F40F925445616FD02FE0B25077
:10472000225492540259F24945618280411126C2B5
:10473000B7240020938444C703C7340006C622C4AC
:104740004AC09307F00F630AF7042A893945EFD06E
:10475000EFD12A8439C1930700FD2300F500A3009F
:10476000250123010500938584010D05194697C095
:10477000FB1FE780E0A683D78400A28503C5340031
:104780002315F40083C714002306F4002244B2402A
:104790009244024941016FD06FD8B2402244924402
:1047A00002494101828001115AC02A8B314526CA33
:1047B0004EC652C456C206CE22CC4AC8AE84B28A75
:1047C000368ABA89EFD08FCA3DCD2A842685EF90EC
:1047D000805711C50347C500A1476314F704B727E5
:1047E000002003C977C7930700FD2300F4009D470D
:1047F000A30064012301F400231294002313540145
:104800002314440123153401A2856244F240D244AA
:10481000B249224A924A024B4A85424905616FD009
:10482000EFCFB727002003C997D6E31E0BFAB727AF
:10483000002083A787B49C47DDD7CE865286D685D5
:10484000268582974DB7F2406244D2444249B2492C
:10485000224A924A024B05618280011122CC2A84AD
:10486000214506CE2EC6EFD06FC021C1B2459307B9
:1048700000FD2300F500C5472301F50083C735007F
:10488000A301F50083D745002312F50083C7650017
:104890002303F50083C77500AA85A303F5002285CD
:1048A0006244F24005616FD06FC7F2406244056117
:1048B0008280397162CC2A8C594526DA4AD84ED684
:1048C00052D456D25AD05ECE06DE22DCAE8432C638
:1048D00036C4BA8B3E8BC28A468A83590104034987
:1048E0004104EFD0AFB825C93246930700FDA24678
:1048F0002300F5009547A301C500A300850123010E
:10490000F5002A8419461105A9C2B68597C0FB1F78
:10491000E780008D23066401230A24012315740116
:10492000231754012318440123193401A28562542A
:10493000F2504259B259225A925A025BF24B624CDF
:104940002685D25421616FD06FBD814597C0FB1F72
:10495000E780808CC1B7F2506254D2544259B259A8
:10496000225A925A025BF24B624C216182804111C1
:1049700022C437240020130444C78347240006C6FA
:1049800026C28DCBB7240020AA8519461385C49F63
:1049900097C0FB1FE780C084034524009385C49F14
:1049A000EFF05F8D2244B2401385C49F92444101D1
:1049B0006FD0F01AB24022449244014541018280F6
:1049C000411126C2B7240020938744C706C622C4DB
:1049D0004AC003C737009307F00F938444C76304AA
:1049E000F7042A892945EFD06FA82A840DCD9307B3
:1049F00000FD2300F500A147A30025012301F500D8
:104A000083C72400B72500209385C59FA301F50027
:104A10001946110597B0FB1FE780807C03C5340061
:104A2000A285EFD0AFAF03C724008D476311F70213
:104A3000B727002083A747A199CB03A3870063086A
:104A400003002244B2409244024941010283B24031
:104A500022449244024941018280797122D406D6CF
:104A600026D24AD04ECE52CC56CA09445DCD2A89B0
:104A700003550500AE895144EF90E02CAA8455C53A
:104A800037270020930747D683C747008546BA8A51
:104A9000FD1793F7F70F494463F9F6080347C5007C
:104AA000A1476314F700639209089C5C4544B5EF85
:104AB0009165938545711305C00297B0FB1FE78090
:104AC000605888DC2A8A4D442DC11306C0028145F6
:104AD00097B0FB1FE78040748357090093064A0094
:104AE00036852311FA0071469305490036C697B002
:104AF000FB1FE780E06E89472300FA0003C5C4006E
:104B0000B2460356090083C54AD661151335150010
:104B1000EFA020542A8463860900CE852685EF9075
:104B2000303301C42685EFF0EFFB2285B2502254CA
:104B300092540259F249624AD24A45618280B727AB
:104B4000002083C787D60547FD1793F7F70F637AD1
:104B5000F708894741CA011122CC26CA4AC84EC665
:104B600052C406CEAA89368AB2842E89EF90A01D3F
:104B70002A84D14739C9485509C597B0FB1FE7803A
:104B8000A058F145268597B0FB1FE780406B48D4BD
:104B9000CD4705CD8346C40021478147639FE6008A
:104BA000630D0A000347A50103560501930625017D
:104BB000AA854E85EF907031AA8703474400630FA2
:104BC0000900136767002302E400F2406244D24404
:104BD0004249B249224A3E850561828013674700F7
:104BE000DDB7C9473E8582809307B00363ECA70019
:104BF0009317150037250020130585BF3E950355F3
:104C00000500828041657D158280011122CC2A84B5
:104C10002E8526CA06CEAE84EF90E0121DCDB74792
:104C20000F009387F723094563E4870281450A85CE
:104C3000414697B0FB1FE780205EA68523108100C8
:104C40000A85418023018100A3010100EFA080219A
:104C5000F2406244D244056182804945D5BFB727FE
:104C600000202383A7D682806FA0C038797152CCF0
:104C70002A8A328522D426D24AD04ECE56CA5AC863
:104C80005EC606D662C4AE8BB28A368BBA843E89C3
:104C9000C2894684EF90200B15C92A8C63140A023E
:104CA00013774B008347450015CF93E72701230275
:104CB000FC008DEC631C0902639A090205E8ED9B78
:104CC0002302FC00832B8C0363910B08B250225407
:104CD00092540259F249624AD24A424BB24B224C98
:104CE00045618280F59B93E70701D1B793E74700C1
:104CF0002302FC0001CC1C484146A2852324FC026F
:104D000013058C0197B0FB1FE780804D63930B0266
:104D1000D5D80325CC0209C597B0FB1FE780C03E5C
:104D2000F145268597B0FB1FE78060512326AC0232
:104D300051BFE30909F80325CC0209C597B0FB1F51
:104D4000E780803CF1454A85F1BF9DC483A70B02F3
:104D500099EB916593853571714597B0FB1FE7809D
:104D6000602E23A0AB0203A50B0219C57146A685D0
:104D700097B0FB1FE780C0466388090283A74B02F8
:104D800099EB916593852571594597B0FB1FE78095
:104D9000602B23A2AB0203A54B0219C55946CE8551
:104DA00097B0FB1FE780C0431DC483A78B0299EB1C
:104DB000916593851571514597B0FB1FE780802859
:104DC00023A4AB0203A58B0219C55146A28597B057
:104DD000FB1FE780E0402254B2509254F249B24B9C
:104DE000224CCA865A860259424BD6855285D24AEF
:104DF000624A45616FF08FEA011126CA52C406CE9D
:104E000022CC4AC84EC62A8AAE84EF80D07325C50C
:104E1000AA893945EFC09FE52A8431CDB727002004
:104E200003C987C26314090003C909009307000D71
:104E30002310F400AD472301F400938569001305A6
:104E40003400194697B0FB1FE780803993F71400B0
:104E5000858085882306F400A30694002315440169
:104E6000A2856244F240D244B249224A4A8542496C
:104E700005616FC0BFEAF2406244D2444249B24980
:104E8000224A0561828001114EC652C456C206CE26
:104E900022CC26CA4AC8AA8A2E8AB289EF80B06A72
:104EA0002DCD2A891305C002EFC05FDC2A8435C5E9
:104EB000B727002083C487C299E083440900930781
:104EC000000D2310F400E9472301F4009305690065
:104ED00013053400194697B0FB1FE7806030D28578
:104EE000231554011305C400414697B0FB1FE7800A
:104EF000202FCE851305C401414697B0FB1FE780E4
:104F0000202EA2856244F2404249B249224A924A86
:104F10002685D24405616FC07FE0F2406244D244EE
:104F20004249B249224A924A05618280411122C413
:104F300037240020130444A0084006C619C597B0C2
:104F4000FB1FE780601C23200400B2402244410183
:104F50008280011106CE22CC26CA4AC82EC6EF8016
:104F6000905E39CDB245B727002003C987C20CD562
:104F7000AA8463140900034905004145EFC01FCF0F
:104F80002A841DCD9307000D2310F500A5472301AA
:104F9000F50083C75400938564001105A30FF5FE47
:104FA000194697B0FB1FE780A0239C54A285F240CE
:104FB0005CC46244D2444A85424905616FC01FD631
:104FC000F2406244D2444249056182801D71A2CC04
:104FD00086CE2A842EC6EF80105705CD8346C500A5
:104FE0001147AA8749456392E6029C5FB24599C37F
:104FF00083C56701B70605002308B1009386E60064
:10500000100889452285EF90605BF6406644256173
:1050100082805145DDBFB727002083C787D605476B
:10502000FD1793F7F70F637AF704894721CA4111F7
:1050300022C426C24AC006C6B2842E89EF80B05070
:105040002A84D14705C5630809008347450093E7D3
:1050500027002302F5004146A6851305840197B079
:10506000FB1FE780E0179C481CD48147B2402244D4
:10507000924402493E8541018280C9473E85828033
:10508000797122D406D62A842EC6EF80D04B01CD6A
:10509000B2452285230EB1006C08EF90E057B25064
:1050A0002254456182805145DDBF6F807060C167C9
:1050B0001387E7FF6395E502B727002083A707A1C1
:1050C00091EB494582804945B240224492440249CD
:1050D0004101828003A30700E30503FE028341111F
:1050E00022C426C24AC006C6FD172A892E84B2846D
:1050F000639AF502B727002083A707A191CF9C43AD
:1051000081CF829711E9B7270020238227A3B727F1
:105110000020A38297A24DBFA6854A85EFE0FFD865
:1051200045F5D5B72E85EF80104251DD8347050048
:105130000D45E39B27F922852244B2400249A6850A
:10514000924441016FD0A01E1307B0036360A7060D
:105150004111C16722C406C626C2FD172A8409452B
:105160006382F502C547AE846313F4022E85EFD047
:10517000C02337250020130585BF06042A94231079
:1051800094000145B2402244924441018280930739
:10519000A0036316F4002E85EFD0201AD9BFE31ABE
:1051A000E4FC13F5F50FEFD08019E1B709458280D3
:1051B000011106CE2AC6EFE07FD1EF202075EF1057
:1051C000901EEF50F20AB7270020938747C71307B6
:1051D00000F02391E70023820700B7270020324523
:1051E000138747D6FD562301D700F2402382A7D666
:1051F000954505616F7020441D7193970501CAC8DC
:1052000086CEA2CCA6CACEC6D2C4D6C2DAC05EDED4
:1052100062DC66DA6AD86ED6C1872E8963DB0754F2
:10522000B72A002003C54AD6B7240020372B002018
:10523000EFC03FA82A84372A0020372C0020372DC2
:105240000020938444C71DE021653345A900F64042
:105250006644D6444649B649264A964A064BF25B0E
:10526000625CD25C425DB25D25618280834704004E
:105270001307200A639CE70083C934000355240008
:10528000C1652286FD15EFF0AF91B9AA13874AD602
:1052900083492700130710096394E7168347140016
:1052A0001547639EE7002285EFF04F942285EFC0FB
:1052B0003F9903C54AD6EFC0DF9F2A8469B73947B3
:1052C000639AE716035544008567A5076315F5043F
:1052D0000C4483CB0500639D0B00850591C9B7275E
:1052E000002019461385C7C897B0FB1FE78040EF21
:1052F00003C7040085476315F71063880B002380FC
:1053000004005E85EFF08FC255B789472380F40013
:10531000EFD0A00461BF896713872700631CE504F1
:10532000832B8400638E0B0C83C70B0089EF83C72C
:105330002B0003C71B00A207D98F2394F40083C757
:105340003B00A380F40003C704008947631AF70AEF
:1053500083C70B0091C72380040003C50B005DB712
:1053600083C5140003D584008D472380F400EF70BB
:10537000802FE5B795076318F5001C4403C50700A7
:10538000EFF00FE425B7F9771387A7FF2A974207B5
:105390004183914663F1E6049387A7FCAA97C2076D
:1053A000C18371476371F70289671387B700631080
:1053B000E5048327CAA0E38B07EE9C43A285E3871D
:1053C00007EE829715A0370700181307F770B35739
:1053D000F700858BB1CB83274BA1E38907EC9C4376
:1053E000E38607EC22858297E31205EC11A8138768
:1053F000C7006310E5021C4483C70700E38807EA7F
:105400009307F00FE384F9EAA2854E85EFC01F9160
:105410004DB5B907631AF500B727002083A707A188
:10542000E38607E8DC4359BF896793871704E302E3
:10543000F5F8F9B73D47639BE704035544008967D6
:105440001387D700E30AE5FC13879701E306E5FC21
:10545000CD07E317F5FA03D76400C167FD17631F93
:10546000F700B727002083A707A1E38107E4DC4307
:10547000E38E07E20965A2854D05A1B7B727002095
:1054800083A787A1E38407E29C43DDB71307E0030A
:10549000E398E7F68347240005476396E70E8347C2
:1054A000640037270020930D47A0F1E383A70D0088
:1054B000C5CF83CB0700A14903457400930C84003A
:1054C000E685EFE0BFDF83474401A303A4008358D0
:1054D00004010358E400035744002A8603453400BE
:1054E0003EC283572401E686DE853EC0CE87EFF0BC
:1054F0004FBC8347340095E7DD47835804010358C8
:10550000E40083467400835544003EC2835724015F
:105510003EC06687CE8705465E85EF80B03BA3011F
:10552000A40083A70D0081C71145EFF03FA0930BA6
:105530004CA203C50B00E30B05D683455DA2EFE04B
:10554000DF96E30505D68346340093071003638A8C
:10555000F6000356440083C50B004E873685EFE006
:10556000BFA623020CA299B383CB3400A9B783272B
:105570004BA183CB34009149A1D3DC4395DF814516
:105580000145829715BF29476390E70A8347640066
:1055900037270020930D47A0A5EF83A70D00B5C7BF
:1055A00083CB0700A14903457400930C84009377D3
:1055B00025001376150089E7E685EFE03FD02A86BF
:1055C00083470402A303C4008358C4010358A40101
:1055D00003574400034534003EC28357E401E68686
:1055E000DE853EC0CE87EFF0CFAC8347340095FB1D
:1055F000DD478358C4010358A401834674008355D2
:1056000044003EC28357E40121B783CB340059BF25
:1056100083274BA183CB34009149D1D7DC43C1D739
:1056200081450145829741B70947639CE70083277D
:10563000CAA0E38D07C6DC43E38A07C622858297AA
:10564000B5B12D476398E7008327CAA0E38007C65A
:105650009C47DDB70D476397E70022868D450355CC
:10566000440015B119476395E706930561011305D9
:105670001031EF5082482C0813052031EF50E247DB
:1056800003566400835781010355440063E8C70053
:10569000835684000357610163F7E6009305000217
:1056A000EFC0B04F21B16374E6002313E40063F44C
:1056B000D7002314F4000357C4008356A4000356F4
:1056C00084008355640001488147EFC0D04CF9BE87
:1056D0001D47E387E7D231476395E7002286B1454E
:1056E000BDBF35476398E7008327CAA0E38007BCA6
:1056F000DC4799B739476396E7002285EF0030070A
:1057000075B63D476398E7008327CAA0E38007BAD0
:105710009C4B1DB741476396E7002285EF00501070
:1057200071B645476396E7000145EF00D01FBDBE47
:105730004947639DE70083274BA1E38307CCDC4304
:10574000E38007CC8145054582975DB94D47639C51
:10575000E70083274BA1E38507CADC43E38207CA3E
:10576000A2850945D5B76147E39CE7C82286E14594
:10577000FDB593F7150089CFB727002083A7C7A0F1
:1057800089C7DC4399C30145829713451900C1B409
:1057900093F7250091CFB727002083A747A191C792
:1057A000DC4381C78145054582971345290045B4EF
:1057B00093F745000145E38C07A8B727002083A78E
:1057C00087A037240020130444C791CF85472302C4
:1057D000F400B727002083A747A191C7DC4381C706
:1057E00081450545829748442C08EF9000542808CD
:1057F000EFF0EF97B727002083D7A7C181CF13061B
:1058000000643386C702B727002003C547D69145F9
:10581000EFC09FA3134549001DBC011122CC2A846F
:10582000554506CE26CAEFF02FBCAA8413054002C8
:10583000EFF08FBB2AC613055002EFF0EFBAAA862D
:10584000228562443246F240B3359000D24405616D
:105850006FC0103B797122D406D68D472E84631F0A
:10586000F50003D7A50083D6850003D66500034560
:10587000340083D54500EFE01FF309A8896713873B
:10588000D7006311E50403C5250019E58547B2502B
:1058900022543E8545618280B727002083A647A019
:1058A000F5D603C6360083C50600814802C202C091
:1058B0000148814701479106EFE0BFFF0545EFF042
:1058C000EFE6E9B71387E700E302E5FC138737014A
:1058D000631AE50003C5250055D9014781460146F5
:1058E000814551BFE507E303F5FAB1476319F500B8
:1058F000B727002003C577C7EFE03FF641BF4167F8
:105900007D178147E315E5F803C75500C947E31F35
:10591000F7F683D6E50003D6C5000355840083D58A
:10592000A500EFC0F03351C15D45EFF0EFAB33356B
:10593000A000231CA1008345440003552400300827
:10594000EF80A03083578101B1F36C08130510314B
:10595000EF50A21A9305E10113052031EF50E2192F
:105960008357C101035784006374F7002314F400C4
:105970008357E1010357A40063F4E7002315F40003
:10598000835584008357A40063F4B7002315B40043
:105990000357E4008356C4000356A40003552400B3
:1059A00001488147EFC0F01CD5B58547231CF100A5
:1059B00059B7B7270020138747D6834677001307C8
:1059C000F00F638CE60851C9411122C426C24AC0B7
:1059D00006C6AA840345A500138947D64105EFC032
:1059E000EFA82A842DC59307000D2310F500D94791
:1059F0002301F50083D744002312F50083C7640018
:105A00002303F50083C77400A303F50083C7840054
:105A10002304F50083C79400A304F50003C6A40083
:105A20002305C50015C2CC44410548C497A0FB1FFF
:105A3000E780007BA285224403457900B24092446E
:105A4000024941016FC08FAD23260500E5B7B24082
:105A5000224492440249410182808280C1671387B7
:105A6000E7FF639EE500B727002083A747A09DC3FB
:105A700083C707000D47639DA7006FC0D00EFD17B9
:105A800049476397F500B727002083A747A0F5F79C
:105A90003A8582804947EDBF397122DC06DE26DA7D
:105AA0004AD84ED652D456D25AD05ECE62CC034794
:105AB000050085472A84630DF70403468500930695
:105AC00095009305E1000545EFE08FE2814719C19C
:105AD000834705008346040011476383E6043727A4
