:020000021000EC
:100000006FA0E2130000000000180118002801286A
:100010000228032800290129022903290429052986
:10002000062907290829002A012A022A032A042A64
:10003000052AA62A9CA50300961E01005A0200204C
:10004000A40200201602002004020020CC0100209F
:10005000202101004C21010028220100DE230100A3
:10006000822401000C1D0100301C0100A21C0100B3
:100070005C1C01000E290100F0030020F6200100A5
:1000800008260100D64D0300CE4F03004650030062
:10009000CC070300E0070300605702004849020054
:1000A000BE4703003E260100FE100300A6DC01004F
:1000B00034DD01008CDD0100FC310100483201001B
:1000C000B2300100869901004A940100F4A20100B7
:1000D000C4A6010070AA0100A686010044860100A2
:1000E0002E8A0100F28601001A8601009E86010018
:1000F000CC85010076870100CE8701007E87010054
:10010000828701001C880100D68701000888010051
:100110002A8D0100328D0100728701007A8701006B
:100120001A8801002E8D0100CA880100668E010028
:10013000BCB801003AB9010078B90100B29B0100D6
:10014000CA9B0100069C0100468001002A81010033
:1001500092810100465001008C4B0100587601004D
:100160000A4C01009C710100AA840300B8810300BD
:10017000A48B03000E9C0300DE9A0300E29E0300A2
:10018000CA9E0300DA9E03008A9F0300E66F030005
:100190001A9F0300D8920300FE92030026930300E7
:1001A000FA9F0300D89803006E9803006AA003002A
:1001B00048720300E47203000C730300AE72030084
:1001C000382B03006E160300FC19030052170300BE
:1001D000D22003005E480300444703001A70030066
:1001E000002B010008090300DE100300D6110300F4
:1001F000523F0300F23F0300A2410300B89F0100F9
:10020000E62A03005221030082270300EA230300A9
:100210002216030016060020CE090300069F0300E5
:10022000CE9E0300D69E0300D29E030098230100B9
:10023000049D01000E9F0300322D0300842E030055
:10024000E42E0300E28B03000A9F0300129F0300C9
:10025000D4480200169F03008A0F00209614002045
:10026000000000000000000000000000000000008E
:10027000000000000000000000000000000000007E
:100280006373B60082801C419105110523AEF5FE13
:10029000C5BFB7270020372700209387879C130707
:1002A000C7F26373F700828023A007009107D5BFD0
:1002B0005DCDAA870145D5CD8D07C207C183F19BCE
:1002C000C207C18313074003636CF702372700207E
:1002D000032587B637270020832607B66397A60233
:1002E00037270020032787BF014541C74111C207B7
:1002F00006C60545DD8D0297B24001454101828069
:1003000037270020032547B6F1B70357650031EFC3
:1003100003574500636BF704B72600203306F74008
:100320002148938606B76378C8028328050003D85E
:100330006600138687001D8F2A9661172312E60038
:10034000232016012313060010C12312F500130702
:1003500088FF2393E6002313B50083D566002105AB
:10036000B387F5402393F6008280084185BF01459D
:100370008280828009CDB727002003A387B6B727E4
:10038000002083A807B681469A8763E3170182801D
:1003900003A807006369F50A6367A80A1387870043
:1003A000E367E5FE03D66700216705076319E600EA
:1003B00037260020034746A50507230AE6A437266B
:1003C0000020130506B783D5470003576500239324
:1003D0000700130606B72E97420741832313E50053
:1003E0006387670237250020032545B66301F502C0
:1003F00003D5660009ED83D7460023A00601210737
:10040000BE95A1052392B6002313E600B687984354
:10041000E30F17F7B726002083A646B6E309D7F601
:1004200083566700ADF683D64700835547001843CF
:10043000A106AE962392D70098C383576600A10702
:100440002313F6008280BE86C28781B719CD91CD75
:1004500009CE81473387F500834607003307F5004F
:1004600085072300D700E397C7FE828019C991C989
:1004700009CA910583A7C5FF11057D16232EF5FE38
:10048000C5BF828001C919C62A960505A30FB5FE0E
:10049000E31DA6FE828081473307F50003070700AE
:1004A00019E33E8582808507C5BF01112E8626CAC5
:1004B000AA84131506019305F004418122CC06CECF
:1004C00032C6FD332A8401C53246A68541372285CE
:1004D000F2406244D24405618280854715C18DC1D6
:1004E00005C28147B306F5003387F50083C60600D1
:1004F000034707006398E6008507E315F6FE854786
:100500003E8582808147EDBF9307F6FFBE952A9610
:100510006313C5008280FD1583C715000505A30F71
:10052000F5FEFDB7AA87014581CF09CE3E96850726
:1005300003C7F7FF6317B700E31BF6FE054582808C
:10054000828001458280797126D2B724002022D48E
:1005500003A444BC06D64AD04ECE52CC56CA5AC882
:100560005EC662C44DC43729002037CAC901B72905
:100570000020814B372B0020130989BC130AFA375E
:10058000938909B7B70AC0A88357240099EF5C4440
:10059000639A0B0023A2F4BC032CC4002285D93B30
:1005A000628499A823A6FB00C5BF8327CBC082978E
:1005B000830669011C4463D806063307F54063626D
:1005C000EA0823A809008355240003450400972066
:1005D00001E0E78020DD5C405844A1CF1444B69789
:1005E0008306690163C7060063E55701B7064057F4
:1005F000B6971CC4A28B3A8441F8B7270020938792
:1006000007B7984B894663F2E606791798CBB25044
:10061000225492540259F249624AD24A424BB24B96
:10062000224C45618280E37AF5F83387FA402A97B5
:1006300079B763950B0023A2E4BCB9BF23A6EB00F6
:10064000A1BF0327490219CB63DD06003385A7400C
:1006500083A709016374F50023A8A900A28B404475
:1006600061BFE3F5A7FED697D5B723A8070045B726
:1006700001114AC837290020832709BA06CE22CCA7
:1006800026CA4EC652C456C25AC081C7829723207A
:1006900009BA930709BADC4337240020130404BACB
:1006A00091C38297832709BA63900718B724002063
:1006B000938784E783C75700938484E7858B8DC332
:1006C00003C77400A3820400914763FBE700EF00B7
:1006D000904783C77400F9178A07A2979C438297B3
:1006E000372A002093078AEB83C7C700130A8AEBD7
:1006F000918B99C3EF1020351C4491C38297372406
:100700000020B7290020930704B703A709BC03C63C
:100710001700930A04B7834704B793961700BA9655
:1007200083D60600C1CA834704B763EDC708832791
:1007300009BA230804B6EDEB83C7940091CB83C7B5
:10074000740099E7A3840400971003E0E780809089
:10075000B727002083A7C7C0E1CBB707C0A823A84D
:10076000FA00D533B7270020938787BCD8534DCFE5
:1007700083C7570103A70A016368F70A03C7740018
:10078000914763E3E70A8347CA00918BD1EF83C6A1
:100790001A0003A609BC63C3D70A6244F240D244DC
:1007A0004249B249224A924A024B0561172301E0AD
:1007B0006700839B850793F7F70F2308F4B6E3ECF4
:1007C000C7F495B786073E978355070023100700A7
:1007D000034504B7B727002083A7C7B9131725001F
:1007E000372B0020BA979C43231E0BBA829783575E
:1007F000CBBB034704B793C7F7FF7D8D9317170053
:1008000003A709BC3E97835707005D8D2310A700FF
:10081000834704B781C785072308F4B6034704B7A5
:1008200083C71A00E375F7F0F2406244D2444249AC
:10083000B249224A924A024B0561828013971700FF
:100840003297035707006DF38507B1B7AD6737C718
:100850000040BD072326F7200F100000B727002017
:10086000938707B7C84F83278726BD66BD0693C702
:10087000F7FF99836A052326D7205D8D8280411179
:10088000B7170040985F3AC6945F3247E39CE6FE94
:10089000324541018280828003278511630007125F
:1008A000411122C406C68347C5008345C5042A8476
:1008B00093F7C70F2306F500834697000356C7003A
:1008C00013958601618563F1C508635A05060345E2
:1008D000870093F6F607A304D700054693E62700A2
:1008E0006314C50093E617002306D4005C43890710
:1008F0005CC3A30AB400032504112E864C430905EA
:10090000B1368327841103465401D44303D7C7006B
:10091000B296118FD4C32396E7008947A30DF40044
:10092000B72700200347440383C7A7BD6378F704B4
:100930008347C40093E707012306F40081A093E7EF
:1009400017002306F40075B79376F60F635D050272
:1009500003458700854513E627006314B50013E6B9
:1009600017002306C400A30AD400A3040700854788
:10097000A30DF400832784119C43DDF3B24022448D
:1009800001454101828093E717002306F400A30A82
:10099000D400A3040700032504114C4309057D344A
:1009A0008327841103465401D44303D7C700B2966A
:1009B000118FD4C32396E7008D475DBF0545828024
:1009C000B727002083A787E6411122C406C6858B7E
:1009D0002A84DDEB4165130525F5976002E0E78089
:1009E00000345DC18347A5002315F5008327041259
:1009F000B5E72320A4122322A41285472310F40470
:100A0000232005008347640154412316F500034762
:100A1000D4002304E5000547A304E50037270020A0
:100A2000032707E91385170215811C437D151375EC
:100A3000F50F9CC25C43DCC21C479CC65C47DCC60D
:100A40001C4B9CCA5C4BDCCA1C4F9CCE5C4FDCCE62
:100A500019CD9386060213070702C1BF83274412EC
:100A600088C3835704042322A412850741BFB727F4
:100A70000020938707D503D7870005072394E70055
:100A8000B2402244410182808347C400230904000C
:100A9000054593C747002306F400DDB7834785016A
:100AA00093F7E70FD5E783479501DDE3034625017B
:100AB0008346C50009CA37270020834545030347FD
:100AC000B7BD63E7E50013F7060141C7014709C653
:100AD000C18A0357851B81C68356C51B369735CB04
:100AE000B727002083D687B9B7470F00938707241D
:100AF000B3C7D7021307C712411126C222C406C6C4
:100B00007D543357F702B727002083C717BEB3843D
:100B1000E700B727002083A6C7DD83A7060963F394
:100B200087003E849442F5FAB727002083A7C7C008
:100B3000829781476364A400B307A440B240224473
:100B4000B3B7970093C7170092443E854101828056
:100B500081473E858280797126D206D622D44AD03A
:100B60004ECE52CC56CA5AC85EC68347350303449C
:100B70007513AA843E941374F40F9307400263F62E
:100B800087001304B4FD1374F40F03AA841383AA1B
:100B9000C413A38B841222865285D68597A003E0C6
:100BA000E7806086058915E503CBD41201498149A8
:100BB000337B6403930B50024A865285D68597A0F7
:100BC00003E0E7804084058915C5639169031374C8
:100BD000F90F238B8412B250225492540259F249D5
:100BE000624AD24A424BB24B456182808509E20992
:100BF00093D989410509E31179FDE1BF832785096F
:100C00000356E503797193D60701BD8EC206C182F2
:100C1000358E1357764093575640898B058B5D8FE1
:100C200093573640918B5D8F93571640A18B5D8F04
:100C300093171600C18B5D8F9317360093F7070249
:100C40005D8F931756009355860093F707041E0691
:100C50005D8F1376F60F518F93D7554013D63540DD
:100C6000118A898BD18F13D67540D18F13D6154039
:100C7000218AD18F13961500418AD18F13963500A2
:100C800013760602D18F13965500137606049E053F
:100C9000D18F93F5F50FCD8FA20745465D8F3307B2
:100CA000C70222D42A8426D252CC56CA032A8413DD
:100CB000832AC4135AC806D63697420741839357EE
:100CC0007740135557400989858BC98F1355374095
:100CD0001189C98F135517402189C98F1315170022
:100CE0004189C98F1315370013750502C98F131574
:100CF000570093558700137505041E07C98F137796
:100D0000F70FD98F13D5354013D755401189098B6B
:100D1000498F13D57540498F13D515402189498FC7
:100D2000139515004189498F1395350013750502F8
:100D3000498F13955500137505049E05498F93F54A
:100D4000F50F4D8F2207D98FB387C7024AD04ECEF9
:100D50005EC662C4B697C207C18313D7774013D566
:100D600057400989058B498F13D537401189498F21
:100D700013D517402189498F139517004189498F51
:100D80001395370013750502498F1395570093D5B6
:100D90008700137505049E07498F93F7F70FD98FC6
:100DA00013D5354013D755401189098B498F13D579
:100DB0007540498F13D515402189498F139515002A
:100DC0004189498F1395350013750502498F139595
:100DD0005500137505049E05498F93F5F50F4D8F4A
:100DE0002207D98FB387C702130650025285D685D2
:100DF000B697BD8E93940601C18033F6C402137B6F
:100E0000F60F979003E0E780006005890DED8347BA
:100E1000D41201498149B3849702130C5002C18056
:100E20004A865285D685979003E0E780C05D0589A4
:100E3000937BF90F11C563863403850993F9F90F84
:100E40000509E31F89FD230B6413B2502254925409
:100E50000259F249624AD24A424BB24B224C456196
:100E600082805E8BCDB70111B727002022CC03A46E
:100E700087E026CA4AC84EC606CEAA8413092500B2
:100E8000854915C083C7140003473400858B63046C
:100E9000F700405CFDB71946930544004A85EFF022
:100EA000CFE3E31835FF2285F2406244D244424941
:100EB000B249056182804111B727002022C403A4F2
:100EC00087E026C24AC006C693042500054901E80A
:100ED0002285B24022449244024941018280A68583
:100EE0001305A40297B002E0E780A075E30225FF96
:100EF000405CF1BF4111B727002022C403A487E062
:100F000026C24AC006C693042500054901E8228589
:100F1000B24022449244024941018280A6851305D1
:100F2000A40197B002E0E780C071E30225FF405CB6
:100F3000F1BF011122CC604126CA4AC84EC652C434
:100F400006CEAA841D4A130965058549BC4463641D
:100F5000F400054581A803C7D40083474400631B00
:100F6000470503C784026304F7000040C5B7034781
:100F7000540083C75405E31AF7FE1946CA851305C2
:100F80006400EFF08FD5E31235FF0347C40083C739
:100F90009402E31CF7FC0357E40083D7A402E31692
:100FA000F7FC0145F2406244D2444249B249224A28
:100FB00005618280E31BF7FA0347540083C7540599
:100FC000E315F7FA1946CA8513056400EFF0EFD070
:100FD000E31D35F9F9B70111B727002022CC03A48E
:100FE00007E026CA06CE2AC42EC6854419E4014568
:100FF000F2406244D24405618280834791000347F6
:101000001400858B6304F7000044CDB7194693059F
:10101000A10013052400EFF04FCCE31795FE054522
:10102000C1BF011122CC37240020032744E92AC67E
:101030002EC432C206CE3C4B93F7F7F73CCB970059
:1010400003E0E78060FE032744E9B72600203C4B1D
:1010500093E707083CCB83A7C6E63245A24523A009
:10106000070003471500034825002207420842975E
:10107000034805004297034835006208429798D715
:10108000034755000348650022074208429703487A
:10109000450042970348750062084297D8D7034736
:1010A00095000348A500220742084297034885009F
:1010B00042970348B5006208429798DB0347D50082
:1010C0000348E5002207420842970348C50003454C
:1010D000F500429762052A97D8DB03C7150003C5C0
:1010E0002500220742052A9703C505002A9703C554
:1010F000350062052A9798CF03C7550003C56500E0
:10110000220742052A9703C545002A9703C57500A3
:1011100062052A97D8CF03C7950003C5A50022070B
:1011200042052A9703C585002A9703C5B5006205C5
:101130002A9798D303C7D50003C5E50022074205C7
:101140002A9703C5C50083C5F5002A97E2052E97A7
:10115000D8D3D843759BD8C3D84313671700D8C3D7
:1011600098431367170098C3124603A7C6E65C436B
:10117000858BD1EB1C4F01452300F60083A7C6E603
:101180009C4FA183A300F60083A7C6E69C4FC183B2
:101190002301F60083A7C6E69C4FE183A301F60076
:1011A00083A7C6E6D84F2302E600D84F2183A302C7
:1011B000E600D84F41832303E600D84F6183A303A1
:1011C000E60098532304E60098532183A304E60025
:1011D000985341832305E60098536183A305E600F5
:1011E000D8532306E600D8532183A306E600D8533C
:1011F00041832307E600DC53E183A307F600F240B6
:1012000062440561828001008DB75D7136D4B726D6
:1012100000203AD203A706E73ED04ACA1C5F4EC858
:1012200086C6998396C49AC29EC022DE26DC2ADA3C
:101230002ED832D642CE46CC72C676C47AC27EC092
:10124000858BB68937290020ADCF1C5F372400205D
:10125000930484E793F7F7F91CDF930784E783C7C8
:101260006700130700086319F7008327C9E69C434A
:1012700093F707042383F400834784E793F7070475
:1012800089CFB727002083A7C7C0829788C8834724
:1012900084E793F7F70B230CF4E683C7440093F736
:1012A000070485E38547A382F400B727002083A7BE
:1012B00047E9096798C7130700FC2382E400D84474
:1012C000F8D383A709E7985F1183058B19CB985F43
:1012D00085463D9B98DF37270020130787E72302C9
:1012E000D700985F1D83058B01CF985F1377F7F7C1
:1012F00098DFB7270020938787E705472382E70019
:101300008327C9E6D8430583058B19C7D843759B46
:10131000D8C3D843799BD8C37254B640A64216436B
:101320008643E2545255C2553256A256125782573E
:101330007248E2485249C249324EA24E124F824F81
:10134000616173002030B7270020B726002003A674
:1013500047E9938786E703C786E7058B11C7238292
:101360000700A3820700828003C71700058B65FB77
:10137000785275F303C75700EDB7372800200327CD
:1013800008E71C5F9583858BC5EB0DC6B72700204A
:10139000839867D9030306001C5BBD83630B0308B6
:1013A00093F7F71FB38717419A970947B3C7E70227
:1013B0002300F60085CA832708E7985B4607935702
:1013C00067016356070093E707C0C207C18303970D
:1013D0000600C207C18709C7BA970947B3C7E70222
:1013E0002390F60037270020130787E78DC983472E
:1013F000150095C7034667009386970091471376BB
:10140000060415C6369583460500054693F5F6068F
:10141000639FC500E206E186B14763CA06008327E1
:1014200008E79C5FED838D8BA305F70081473E8520
:101430008280B3871741ADBF8947D5BF411122C410
:1014400006C63724002026C2032744E959E5AE87A3
:101450007453FDFEB7240020938484E73E85B28553
:1014600023810400970003E0E780609AB7270020FB
:1014700083A707E7B70680009843558F98C3D857CE
:10148000719BD8D7832744E9A3820400A38004007A
:10149000094798C3B7F700E003A707D16D9B23A8BE
:1014A000E7D003A707D15D9B23A8E7D073005010B6
:1014B000832644E9B7270020938787E703C72700DF
:1014C000058B19E703C73700058B59C7238207002F
:1014D000B24022449244410182808D47631FF5004F
:1014E000B727002083A707E7B70680009843558FEA
:1014F00098C3D857719BD8D765BF8547E31AF5FACB
:10150000B567BD075CC70F100000832744E9096772
:10151000930600F898C737270020130787E72302B0
:10152000D70037270020832607E7094698423183F2
:101530000D8B6319C7001307E043F8D33D673D07E0
:10154000D8C7BDB7984231830D8B01E713076019E7
:10155000EDB71307E01BD5B7F8522DF395BF5D71BA
:101560004EDEB729002003A709E786C6A2C4A6C29B
:10157000CAC052DC1C4337290020372A002093F7C9
:10158000F7E793E707081CC3832689ED3707CEFFEB
:101590007D179C46130680022A84F98F9CC68327F8
:1015A0004AE9130700082800B8CBAE849305100859
:1015B000EFE05FED970003E0E78000A7970003E00E
:1015C000E780E0B283A709E79376F41FB70EFCFF2C
:1015D00023A40700984B130510F8CE851367F70373
:1015E00098CBF84F4A88B70F0400137707E0558F60
:1015F000F8CF9843F576FD16758F98C39843B706D4
:10160000330091421377F7E798C39843FD1E854353
:101610001377F7E71367071098C3032789ED130FB4
:1016200080021C47D58F1CC783274AE91307900DFA
:101630003400B8CB014793583700A69883C70800F9
:1016400013767700B3D7C740858BC5CB83A705E753
:10165000032E88ED239C0704239007060323CE0264
:101660001373D3FF23266E0203AE07001373F7072D
:10167000137E0EF833636E0023A0670003A34702B6
:101680003363F30123A26702014303DE0706630706
:10169000C30303A30703038E06001353F30062037F
:1016A0001353834163586E0003A307031353F300DE
:1016B0002380660003D307061373F30F03DE870549
:1016C000E3F5C2FD03A347023373D30123A26702EC
:1016D00083870600635CF40003C308003396C300ED
:1016E0001346F6FF337666002380C8003E8663D338
:1016F000A7002A8613158601618505071377F70F62
:101700008506E31AE7F3B640264496440649F259A3
:10171000625A61618280011132CA372600203EC4BC
:10172000832746E93AC636C8D8472ACE2ECC931628
:10173000170163D2060298479316170163DD06006E
:101740007D57B8D737270020130707B7544F8506B2
:1017500054CF116798C798470D83058B0DC3372762
:101760000020130787E78346270093E6160023012E
:10177000D700930600F82302D700214798C798475F
:10178000058B09CF37270020130787E7834617000B
:1017900093E61600A300D700054798C7984709832A
:1017A000058B09E798470583058B21CF9447372799
:1017B0000020372500208982858A638806108326C9
:1017C00005E79442B1828D8AF5EEAC4B930687E72C
:1017D000944E93F5050283C61600DDCDEDE2930627
:1017E0007006D4CF834687E793E61600230CD7E62E
:1017F000114798C7032705E75C57F19B93E717004C
:101800005CD7032746E91C479396370163D4060249
:10181000B7270020938607D503C60607938707D509
:10182000418A55CE83C7060793E707022388F60649
:1018300085671CC71C479396270163D10602B7270B
:101840000020938787E783C64700E206E18663D5D9
:10185000060085462382D70089671CC71C479396DC
:10186000070163D20602B7270020938707D583C6F6
:101870001707858AC9C683C6170793E62600A3887B
:10188000D706A1671CC77245E2455246C246324799
:10189000A247056173002030B9D285456395B60033
:1018A0009306B0063DBF89456395B6009306F006E2
:1018B0000DBF8D456395B600930630071DB793069F
:1018C000500705B79306600729BF130787E78346CC
:1018D000370093E61600A301D700094719BF83C656
:1018E00007070946BD8A6388C60083C607070D46F9
:1018F000BD8AE39FC6F291462388D70615BF83C6EB
:101900001707918ABDDE83C6170793E6860085BF59
:10191000B726002037270020938786EB130687E938
:101920000346B60183C7D700938686EB130787E982
:10193000B29793F7F70F7D466361F604A300F700B3
:1019400083471700484B05463316F600A386F6007A
:10195000698E05EE03C6160113080002814633F6B0
:10196000C7028147B355F500858993F8F70F99C9E8
:101970006317D600A300170182808117C1B78506BF
:1019800093F6F60F8507E39F07FD8280B7270020B7
:1019900083A7C7C0011122CC26CA52C406CE4AC8AA
:1019A0004EC656C25AC08297B7240020938784EB54
:1019B0008047014A6306A406B7270020138787BC27
:1019C00003076701938484EB138987BC635507067B
:1019D000018D37270020930787E983C7A701135498
:1019E0005500137AF501930987E96368F402B70A91
:1019F000C0A8370B4057293F83C6A9019C441397C1
:101A000056003E9783076901158C63C50700636321
:101A100057015A9798C4E370D4FE1604336A440100
:101A2000F24062445285D2444249B249224A924A23
:101A3000024B05618280E37D85F8B707C0A8338437
:101A40008740229579B7B727002083A7C7C04111E7
:101A500022C44AC006C626C28297372900209307AF
:101A600089EB80476308A406B72700208387E7BD7A
:101A7000130989EB63D80704018DB72400209387ED
:101A800084E983C7A70113545500938484E96363F1
:101A9000F404BD3D83C7A401032789009396570032
:101AA00036971D8C2324E900E375F4FE224403C518
:101AB0001400B2409244024981454101170303E0FA
:101AC000670023B2E37A85FAB707C0A8338487405A
:101AD000229565B7B2402244924402494101828076
:101AE000B727002003A787EDB75702009387079F0A
:101AF00083260709139656006358060083260709B4
:0E1B00001396660063440600FD17FDF3828015
:101B1000B72700203727002083A787B6032707B6FB
:101B200001456313F700828083D6670081E683D680
:101B3000470036959C43F5B7B727002083A587BC9F
:101B400037270020938787BC138605222324C7B636
:101B500003D74700938785FFB72600204111BA9726
:101B6000056523A0F6B606C61D05935637006374B7
:101B7000E500930600203307D600372500202322F6
:101B8000E5B623A0E522E1162312D60023130600B2
:101B90001CC3998FE1172312F700231307008D3F11
:101BA000B240B7270020239BA7B641018280B72708
:101BB00000203727002083A787B6832607B6014574
:101BC0006393F600828003D7670011E703D74700CD
:101BD0006373E5003A859C43E5B7B7270020B72635
:101BE000002083A787B603A606B62A87B305B540AB
:101BF0006314F6003A8529A8938687009C43E3691D
:101C0000D7FEE377F7FE2E85E3E4D5FEE3F2F5FE9B
:101C1000828023AC05FE1C4191E7010001000CC14C
:101C20008280BA8703A787FF6DFF23ACB7FE82804F
:101C30001DC18346E5FF1307F00F9147639EE60041
:101C4000411106C697E0FE1FE780004BB240814776
:101C50003E854101828095473E85828001E90145AC
:101C600082800145B2402244410182809565411144
:101C7000938505D022C4C98D2A842105C205420559
:101C8000C181418106C697E0FE1FE780A03A71D965
:101C9000FD5723200500231285002303F5002105AD
:101CA000D1B7411126C2B724002083A7C4B622C4ED
:101CB0004AC006C60144014989E7A1650D2715C43C
:101CC00001A803C7E7FF6319A70205CCA16589290D
:101CD00003A7C4B6832784FF6317E40223A6F4B6E0
:101CE000FD57232C04FE230FF4FE2285B24022442C
:101CF000924402494101828011E03E8983A787FF17
:101D000065BF3E84E5BF232CF9FED9BFB1CDB7270F
:101D1000002083C717B7411122C406C62A842E8526
:101D20006375F400894763E8870019370D45B240B1
:101D300022444101828083A785FF99E703C7E5FF1D
:101D40009307F00F6305F700E5351545CDB7372547
:101D50000020238F85FE1305C5B6653D22852244EC
:101D6000B240A16541016DAE15458280B7270020C4
:101D700023A607B68280B727002083A747BC99E334
:101D80003E85828003D727006316B70003C707008C
:101D9000E308A7FEDC47E5B7BDCD797122D406D6AE
:101DA00026D24AD04ECE01444147B3D78540858BD9
:101DB000B1CF1205314722953305E502B727002040
:101DC00003A947C08544B3948400C204C180BE897E
:101DD0002A990327090011C7032549002EC6029737
:101DE000B24531473304E40283A749C03E941C4402
:101DF00089E72320090023220900B2502254A58D2F
:101E000002599254F2492E85456182800504E31EF1
:101E1000E4F88144DDB72E858280411113970501D6
:101E200022C406C626C24AC041872E84635E0700CC
:101E30008D3D11C1F53BA1673D8C2285B240224406
:101E40009244024941018280EDD9AA870147414667
:101E5000B356E440858A9DCA9207BA97B146B387C4
:101E6000D702B726002003A946C08544B394E400F6
:101E7000C204C1803E998327090003254900829747
:101E80002320090023220900258C45BF0507E31103
:101E9000C7FC8144D5BFB727002083A787BE411167
:101EA00022C406C6372400201304049991C78297E0
:101EB0001C403E9508C031A0B727002083A7C7C0AB
:101EC000FDF70840B74703009387D73F3305F50276
:101ED000B7A72600938737ECB2403E9508C022444E
:101EE000410182800111680006CE22CC26CAEF3063
:101EF000816EFD57630BF50C37240020930684BCDC
:101F000083C756013247130484BC63F5E70AB7243C
:101F10000020938404B798483706C0A8630BC70213
:101F2000B727002083A7C7C0829732479C486373B6
:101F3000F700BA8703475401998F3E9583076401E0
:101F400063CE0700B707C0A8636AF500B70740571C
:101F50009DA88386660163D406061D8D3724002064
:101F6000930784E79C4F130484E799CBB72700209D
:101F700083A687ED3707CDFF7D179C46F98F9CC65A
:101F800019E13705C0A8B727002083A7C7BE8297ED
:101F900019E51C4C85C3EFF04137EFE011181C4CDC
:101FA00091CBB727002003A787EDB70633001C4766
:101FB000D58F1CC7F2406244D24405618280E37E23
:101FC000F5F8B307F7403E9551BF372400201304BE
:101FD00004B71C48B704C0A8E38E97FCB7270020BD
:101FE00083A7C7C0829737270020130787BC834683
:101FF00057011C48958F3E9583076701E3C007F69C
:10200000E36E95F4A1B76DC53748F6A6130808C866
:1020100089476360C80E7971B727002022D45AC857
:1020200003A847C03E8B06D626D24AD04ECE52CC0D
:1020300056CA5EC662C40144B148C147B30B14031B
:10204000137CF40F3303780103230300631D03089B
:10205000AE8AC165AA84938505F041453A8AB6895E
:10206000328997E0FE1FE780E0FC05E9B7270020F2
:1020700083A787BF99EF8147B250225492540259E7
:10208000F249624AD24A424BB24B224C3E854561EC
:102090008280814511458297F9BFB726002003A7AA
:1020A00046BC15EF23A2A6BC2300050083274BC026
:1020B0000547331487002326050023242501231117
:1020C000850023224501DE9784C323A2570123A460
:1020D0004701E38209FA2380890171BF368754479B
:1020E000F5FE48C7D1B70504E31AF4F4A14769B770
:1020F00089473E858280B727002083A787C041118A
:1021000022C406C637240020130404B789C7829767
:102110005C483E9548C84848B2402244410182800C
:10212000B727002083C717B76370F5023727002051
:1021300093171500032507BC3E9583570500DD8DD9
:102140002310B500014582800D458280B72700200D
:1021500083C717B76372F50237270020931715005E
:10216000032507BC93C5F5FF3E9583570500FD8DFC
:102170002310B500014582800D4582809307F0024F
:1021800063E1A70A31463306C502B727002083A6BC
:1021900047C02A870945B2969C42D1C7011122CC7B
:1021A0004EC60544935947003D8B3317E400131482
:1021B0000701418026CA4E85AE84A2854AC806CE54
:1021C0005D3E2A89014563070904A2854E85BD3F0E
:1021D000B727002083A7C7C08297B727002083D7DF
:1021E00087B913070064B387970293870732B3D781
:1021F000E7023E95B72700208387E7BD63C9070044
:10220000B707C0A86365F500B70740573E9523247C
:10221000A9000145F2406244D2444249B2490561F5
:10222000828009458280828001114EC6B729002034
:1022300006CE22CC26CA4AC852C4938909B783C79E
:102240001900636BF5000145F2406244D2444249F3
:10225000B249224A05618280B727002083A7C7C000
:10226000FDD3328A2E89AA84829703D489029307E8
:10227000006433044403130404323354F402B727D4
:102280000020138787BC03076701938987BC2A94C2
:1022900063490700B707C0A86365F400B707405754
:1022A0003E94CA852685C13C01C500C5054569BF68
:1022B00093E504F0C205C181414597E0FE1FE78028
:1022C00060D701E983A70903BDDFA6851145829781
:1022D0009DBF37270020832747BC8DE32322A7BC5F
:1022E00085472326050000C52311250123009500FD
:1022F000A300F5002322050055BFBA87D84775FF14
:10230000C8C7F9BF41C9797122D426D24AD04ECE6E
:1023100052CC56CA5AC85EC662C406D6B689B28ABC
:102320002E8A2A899304000C4144372B0020054C47
:10233000930B000383274BC0A6979C43A1E793759B
:10234000F400B315BC00C2055686C1811355440084
:10235000E13D0DC983274BC00145BE9423A0240154
:1023600023A244016384090023808900B2502254CF
:1023700092540259F249624AD24A424BB24B224C21
:102380004561828005041374F40FB104E31474FBF7
:102390002145E9BF09458280411122C426C24AC0B5
:1023A00006C6AA842E8932844135CA852685E13243
:1023B0000DC5B727002003D687B9930700643306FD
:1023C0008602130606323356F60250C10145B2406A
:1023D000224492440249410182802145CDBF4111EE
:1023E00022C426C24AC006C62A892E846932AA841B
:1023F00019C123110500A2854A85893BB727002012
:1024000083C707B763992701B727002003D7C7BB46
:10241000598C239E87BA014591E01945B240224468
:1024200092440249410182809307F00263E8A704C5
:102430004111B14722C43304F50226C2B72400205B
:1024400083A744C006C6A2979843894715C39377CC
:10245000F5008545B395F500C205C181118141376D
:1024600083A744C0A29723A0070023A207008147A7
:10247000B240224492443E854101828089473E8594
:102480008280411106C622C4FD3011E50145B240EB
:10249000224441018280B727002083A7C7C000459E
:1024A0008297B72700208387E7BD63D50702B74728
:1024B000F6A63305A4409387F7C7E3E9A7FC930783
:1024C00000643305F502B727002083D787B9335559
:1024D000F50275BFE37DA4FCB707C0A83E94C1BF59
:1024E0004111B727002006C623A4A7C00295B24019
:1024F000B727002023A4A7B801454101828099474E
:1025000063E9B700B72700208A05938707BABE950D
:1025100088C182803725002041117146814513050D
:1025200005BA06C622C426C23724002097E0FE1F43
:10253000E78080CD1306C002130504B7814597E0FC
:10254000FE1FE78060CCEFF02FDFB727002023A22B
:1025500007BCB727002023A407C0B727002083C7E4
:10256000F7BD130404B7854513D527008D8B3E9521
:102570008D473305F5029947B724002039051375B7
:10258000F50F2301A4003305F5021305052497E098
:10259000FE1FE78020AAB727002023A2A7C08347F9
:1025A00024001305052423AEA4B88A073E95B72757
:1025B000002023A0A7BCEFF06FFB19218347140074
:1025C00083A6C4B937260100139727003697130650
:1025D00086D910C3138717001377F70F0A0737261A
:1025E000010036971306A6E110C313873700890749
:1025F00093F7F70FA300E400B24022448A07B6978E
:1026000090C392444101828037270020130707B707
:10261000834717008346270063F0D702B7260020C0
:1026200083A6C6B913861700A300C7001397270017
:10263000369708C33E8582809307F00FE5BF1C41A3
:10264000638F071041777D8FB70600208947631994
:10265000D7100357450063050710411126C21946DC
:10266000AA849305F00F690506C622C44AC097E004
:10267000FE1FE78060C305478D47630BE50C3729D4
:102680000020930789BC9C47130489BC91C7585804
:1026900099475DEF185C4DEF1306C00381451305A4
:1026A00089BC97E0FE1FE78020B61306C003A6850D
:1026B000130589BC97E0FE1FE78080B18357C400F3
:1026C00089E7930700102316F4008347E40081E7AD
:1026D00085472307F4008357040181E7ED4723185A
:1026E000F4008347F40081E79547A307F40083478C
:1026F000240181E785472309F4008347340189E7F2
:102700008347F400A309F4008347440181E7B547F8
:10271000230AF4008347940189E793078002A30CFE
:10272000F4008347540189E79307D002A30AF40019
:1027300083C7840189E79307C003230CF4001C546A
:1027400091C78297B7270020239CA7B6E133814722
:10275000B2402244924402493E8541018280894729
:102760003E858280B727002083A7C7C0411106C6D7
:10277000829793070064B307F5023727002093067A
:1027800007B703D68602944E0145B3D7C702638FBD
:10279000F600130707B73385D74063E8F60037051F
:1027A00000B03355C502158D3E951CCFB240410196
:1027B0008280011122CC2E84B7A503000A854146F0
:1027C0009385052906CEEF705221180806043A9425
:1027D000B7270020035504FF83D7A7B9F24062440E
:1027E000AA9737450F00130505243355F5020561F7
:1027F0008280B727002083D7A7B951471D45637C46
:10280000F702794719456378F70213072003154546
:102810006373F7021307B0041145637EF7001307D3
:1028200040060D456379F700130760090945637495
:10283000F70013B5B70F8280011122CC06CE2A848F
:102840002EC6EFF04FE5B245F240818D33A5A502CB
:10285000229562441375F50F05618280011122CC27
:1028600006CE2A842EC6EFF00FE3B245F240818DEA
:1028700033A5A5022295624442054181056182800B
:10288000011122CC06CE2A842EC6EFF0CFE0B2454D
:10289000F240818D33B5A5022295624405618280A4
:1028A000B7270020138787BC18572DC3411122C4B6
:1028B00026C24AC006C6138987BC0297B7270020E4
:1028C000138707B7035787002A84938407B70DCB74
:1028D000BA876373A700AA87C207C183BA866373E6
:1028E000E400A286C206C182958F5147635AF70061
:1028F0008327C90291C38297EFE0F10D23948400EE
:10290000B240224492440249410182808280B7272A
:102910000020138787BC5857011122CC06CE1384A0
:1029200087BC01C72AC602973245B7270020938784
:1029300007B73727002015C1B7863200938626A136
:1029400094D72326A7C03725010013054576493EB5
:10295000F24062440145056182808346640113961A
:102960008601618663550602B7863200938626A1EA
:1029700023AE070094D7B7C70040FD5623A4D7263F
:10298000B70700209387C75C2326F7C06DBF13F6F7
:10299000160019CAB7862003938606D094D7B707C6
:1029A00000209387E75FCDB761762394C70291C675
:1029B000930600322395D702DDB793062003DDBFCF
:1029C000011122CC37240020930784BC884706CE0F
:1029D00026CA4AC801E90545F2406244D244424948
:1029E00005618280130484BC5C58F5D7185C65D7F8
:1029F0007000854582971844B247E30EF7FC0355F3
:102A0000C4009305E004B724002097D0FE1FE780A0
:102A10006062138704B708D3938404B74DDD03566F
:102A2000C4009305F00F014997D0FE1FE780C07DD9
:102A30008347E4009050634DF900328597D0FE1F24
:102A4000E780806B014523A0040223A2040269B73A
:102A50008355C4000844185CB387250389810509A0
:102A60003E9508C20297E9B7411122C437240020DD
:102A7000930784BC9C4726C206C6B72400204AC0E0
:102A8000938404B791EB88503DE1B24022449244D4
:102A90000249014541018280130484BC1C5CE5D7D6
:102AA0009C5091EB0355C4009305E00497D0FE1FA2
:102AB000E780405888D0885079D50356C4009305E4
:102AC000F00F014997D0FE1FE78000748347E400B0
:102AD0009050E35AF9FA8355C4001C44338525030A
:102AE000898105093E951C5C08C28297C5B797D0BD
:102AF000FE1FE780606023A0040223A2040271B7D6
:102B000001114EC6B7290020938789BC9C4726CA6D
:102B10004AC852C406CE22CC56C25AC02A8AAE84B3
:102B20003289638C071E938989BC03A7490363021A
:102B300007127D476361A71237240020130704B7EB
:102B4000832A0702130404B7639A0A0803D5C9004D
:102B50009565938515E097D0FE1FE780A04D08D0BE
:102B60002A8665C983D5C90083A7490303A58900BF
:102B70008981829783A78900832A04025CD08947D0
:102B80006316FA08C1476396F40C83D5C9009147D0
:102B9000938505FCB3C5F5028A05D69503C70500E4
:102BA0009307A0056313F70A83C71500639F4709BE
:102BB0004A852686910597D0FE1FE78060611C50EC
:102BC0005685639357130145F2406244D24442490B
:102BD000B249224A924A024B056182805850E380F2
:102BE000E7FA03D5C9009565938525E097D0FE1FC8
:102BF000E7804044AA8A31CD83D5C9002A8683A7BD
:102C0000490303A589008981829795BF8D47631B7E
:102C1000FA00C147639FF40283D5C900938545FD3F
:102C2000F199A5BF91476318FA006394440383D5D3
:102C3000C900A115F5B7C147631DFA00A14763EAB2
:102C4000970083D5C900C115E1BF1C50568563911B
:102C5000570D294595BF1307F006636CA708930A23
:102C600005FE1947B3CAEA0203D7C900372B002073
:102C7000B38AEA02BE9A93070BB7DC53130B0BB768
:102C80006395570103240B021DE003D5C90093058A
:102C9000E00497D0FE1FE780E0392A845DD983D510
:102CA000C90083A749032A86898156858297914561
:102CB0001307A005898193972500A29783C6070073
:102CC0006393E60483C61700639C460385058A0563
:102CD0002686A2954A8597D0FE1FE780604F8327FE
:102CE0000B02E38287EE228597D0FE1FE780C0406B
:102CF000D9BD1307E007E36EA7F4930A05F9ADB752
:102D000083D5270045BF83270B02E38487F4228500
:102D100097D0FE1FE780403E2DBFB727002083A538
:102D200007B985D991479306A00589831397270092
:102D30002E9703460700E31ED6F003461700631CD8
:102D4000460185078A072686BE954A8597D0FE1FCD
:102D5000E78000488DBD83572700C1BFB7270020FB
:102D6000938787BC984729C3985F1DCF8546631D0D
:102D7000D502411122C437240020130404B7105097
:102D800006C619CE83D5C7004850898102970850DE
:102D900097D0FE1FE780403623200402232204023E
:102DA000B2402244410182808280011122CC37242A
:102DB0000020930784BC56C283AA870026CA4AC84B
:102DC0004EC606CE52C42A89AE84B289130484BC8E
:102DD000638B0A1C1C5C99EB2945F2406244D24487
:102DE0004249B249224A924A056182805C58EDD735
:102DF000FD4763E7A70C372A002093070AB79C53C7
:102E0000130A0AB7B9C7084483274A02639FA70475
:102E100089476317F906C147E390F4FC0355C400E2
:102E20009147130505FC3345F5029317250003254B
:102E30000A022686CE853E959307A0052300F5005D
:102E4000A3002501110597D0FE1FE78060380145DA
:102E500069B70355C4009305E00497D0FE1FE780CF
:102E6000601D2320AA0245F185BF8355C4005C582C
:102E700003260A02898182971C442322FA0249BF51
:102E80008D47631CF900C147E398F4F40355C4006F
:102E9000130545FD9377C5FF59BF91476318F900A6
:102EA000E39C24F30355C4002115EDB7C147E31596
:102EB000F9F2A147E3E297F20355C4004115D9BFE7
:102EC0009307F00663E9A706930705FE1947B3C702
:102ED000E7020357C400372A0020B387E702BE9AEF
:102EE00093070AB79C53130A0AB7A9CF83274A024C
:102EF0006396570703250A0291461308A005FD555E
:102F000093D72600C207C183139727002A97034649
:102F10000700631406078348170003562700639CC5
:102F20002805B306D64063C6960485078A07268619
:102F3000CE853E9509BF9307E007E3EFA7E8930727
:102F400005F941BF0355C4009305E00497D0FE1F67
:102F5000E780400E2320AA0251F9BDBD8355C4006D
:102F60005C5803260A0289815685829723225A03D8
:102F700051B7A300B700B28661B70356C400B3854A
:102F800096009105130606FCE3F8C5E413863400A9
:102F90001376C60F1106B29623000701A30027017E
:102FA0002311D70059B7372A002093070AB79C533B
:102FB000130A0AB7A1C303250A0291461308A00504
:102FC000FD5593D72600C207C183139727002A9780
:102FD00003460700631206058348170003562700BF
:102FE00063982801B306D640E3D196F4A300B70056
:102FF000B286C1BF0345E4008357C4009305E004D3
:103000003305F5024205418197D0FE1FE78080021B
:103010002320AA024DF1C9B30356C4008345E4003E
:10302000B385C502338696001106E3E7C5DAB9BF5A
:103030000145828083C705002300F50083D7250062
:10304000A300F50083D72500A1832301F50083C7E2
:103050004500A301F50011458280B727002023A673
:10306000079CB727002023A4079C828029C1411117
:1030700026C206C622C4AA8401458DC52E84B7A5E2
:103080000300228541469385052A97D0FE1FE780DD
:10309000201483C7040005452306F40083C71400E9
:1030A000A306F400B24022449244410182800145CB
:1030B0008280011122CC26CA06CE0947AA84328416
:1030C0006381E50441468147639BC500638FE60049
:1030D0006397B6000DA841478147638EE600F24032
:1030E0006244D2443E85056182808A852285BD3F47
:1030F00041468A8519A88A85953F41468A85228559
:1031000031A0E39AB6FC2E86A285268597D0FE1FB5
:10311000E780E014AA87E1B7B727002023A4A79C83
:103120008280B727002023A6A79C8280011122CC91
:103130000354650006CE26CA4AC84EC641C083293C
:103140008500AE842A8803C90900814713178901C5
:10315000618763550702B147054563FA8704511437
:10316000420403552800418033878900A2864E8699
:103170008545EFD0A052B337A00085077D141355C5
:103180006900420405891379F90341802380F40022
:10319000A380A4002381240123928400014719C045
:1031A0001387190098C409476383E7000145F2407B
:1031B0006244D2444249B249056182800545C5BF97
:1031C000C167F917630AF502D94763F7B70201111E
:1031D00022CC2EC606CE2A84EF908019B2456368B1
:1031E000B50022856244F24005616FA0B037F2401D
:1031F000624405450561828005458280C167F917F3
:103200006314F5006F90C016411106C6EFA050245C
:1032100011E15D45B2404101828091476394F5021E
:10322000834705002300F600834725000347150068
:10323000A207D98F2311F6008347350001452302E9
:10324000F6008280114582804111814522C426C248
:1032500006C6AA8405252A8409E9B727002083A782
:10326000879C81C7F945268582972285B2402244F2
:1032700092444101828039714ED656D25AD006DE30
:1032800022DC26DA4AD852D4AA8A2E8BB28941EFA0
:1032900036C6AD379145EF90601FAA844D492DC9C0
:1032A000B246054A238034010544630A0B00B68503
:1032B00013851400029B0505131405014180E209E2
:1032C00093D9894163D30902C1455685EFA0902661
:1032D000654905E933868400A2852685EFC0507DC7
:1032E0002A8905E131044204418091472C08568522
:1032F000231CF10026CE231D8100EFA020302A8957
:1033000001C963070A00268597D0FE1FE780C0DE4B
:10331000F25062544A85D2544259B259225A925AB2
:10332000025B21618280BA84014AADBF011122CCC7
:1033300026CA4AC84EC606CE2A893284B689253F97
:10334000AA840DE1B727002083A7C79C81CF05473A
:103350006317E40003C4090005041374F40FA28585
:103360004A858297F240624426854249D244B24956
:1033700005618280AE86B735010001470546938519
:1033800045036DB783D705002300F50083D70500FB
:10339000A183A300F5000945828083D7050023009F
:1033A000F50083D70500A183A300F50083D725008E
:1033B0002301F50083D72500A183A301F500114562
:1033C000828083D705002300F50083D70500A18301
:1033D000A300F50083D725002301F50083D725003E
:1033E000A183A301F50083C755002302F50083C71D
:1033F0006500A302F50003D585001905420541814A
:10340000828083D705002300F50083D70500A183C0
:10341000A300F5000945828083D705002300F5004D
:1034200083D70500A183A300F50083D725002301DE
:10343000F50083D72500A183A301F5001145828003
:1034400003D54500060542054181828083D70500EA
:103450002300F50083D70500A183A300F50003D561
:103460002500090542054181828083D7050023009C
:10347000F50083D70500A183A300F50083D72500BD
:103480002301F50083D72500A183A301F50003D50F
:103490004500110542054181828083C70500230054
:1034A000F5000545828083D70500411122C406C678
:1034B0002300F50083D705002E841105A183A30EF8
:1034C000F5FE83D725009505230FF5FE83D7D5FF9D
:1034D000A183A30FF5FE03C6F5FF97D0FE1FE7807B
:1034E00020CF03454400B2402244110541018280AF
:1034F0008947639CF5008347150003470500014594
:10350000A207D98F2310F60082801145828003D74D
:103510000500D94763FEE702011122CC06CE2EC674
:103520002A84EF80F064B24683D70600636DF5000D
:1035300022856244F240B735010001470946938570
:10354000453805610DBBF240624409450561828042
:103550000945828091479DC583460500FD15C2053A
:103560008547C1816392F60213D725008D89914763
:1035700091E9914701CB05052301D6002310E60010
:1035800048C281473E85828009479147E39CE6FE19
:10359000C94733D7F502B3F5F502D1BFAE86B735CB
:1035A0000100014711469385A539F1B193F7350024
:1035B00091EB8981914789C52310B60048C28147A4
:1035C0003E8582809147EDBF03C745008947631A56
:1035D000F702011122CC2A84C84506CEAE860147E7
:1035E00019C52EC69D45EFE04FDFB2462A872285DA
:1035F0006244F240B735010019469385253C0561C8
:103600009DB90945828099E1114582808347050073
:1036100005472311F600E379F7FEFD1593F5F50F45
:1036200033D7F502B387E702E390F5FE050548C2FC
:103630002310E6000145828083C745000947AE8616
:103640006385E70041476399E700B735010001470B
:1036500021469385654A05B1094582802310B6004D
:1036600091E1014548C201458280AE86B73501002F
:103670000147294693852540FDBE2310B60091E100
:10368000014548C201458280AE86B7350100014739
:10369000314693858541C5B62310B60091E10145B9
:1036A00048C20145828003D74500854763FDE70294
:1036B000011122CC2A84884106CE0DC12EC6854533
:1036C000EFE0AFD12A8722856244B246F240B73597
:1036D0000100394693850544056171BEF24062449C
:1036E0000945056182800945828091479DC5034750
:1036F00005008D46914763F2E602FD15C205C181C2
:10370000B3C6E5023308D702639905010505231006
:10371000D6002311E60048C281473E85828083C7D8
:1037200045000947AE866385E70041476399E70096
:10373000B7350100014741469385654A2DBE0945CD
:103740008280B335B000139525008280011122CC10
:1037500026CA06CE03C785008547AA842E8449461B
:103760006310F702613C83572400491513062009B2
:1037700063C8A700F2406244D244094505618280D3
:103780000347940085476314F70013660604484016
:1037900011C58D4532C6EFE04FC43246A286624461
:1037A000F2402A872685D244B73501009385C54467
:1037B0000561D1B48D4763FFB70283471500034706
:1037C0000500F115A207D98F2310F60083473500B5
:1037D00003472500C205A207C181D98F2311F60036
:1037E0002312B60089C5110508C60145828023242D
:1037F0000600E5BF11458280011122CC2A8488454C
:1038000006CEAE8611C52EC69545EFE00FBDB24679
:103810002A8722856244F240B735010059469385D4
:10382000A546056189BCB335B0001395250082809B
:10383000AE86B7350100014761469385A54925BC91
:103840008547114563F4D702834716008345060078
:10385000A207CD8F2310F7009387E6FF2311F7000F
:1038600089476386F600090650C3014582802322FA
:103870000700E5BF0147814679468145EDBA83D708
:1038800005002300F50083D70500A183A300F50000
:103890000945828083C7250005472300F50003D52D
:1038A00005006397E7000A0505054205418182800E
:1038B000C9473305F502CDBF03D505000A0542050A
:1038C0004181828083D725002300F50003D50500C0
:1038D00083D725003305F502050542054181828025
:1038E00003D50500828003D50500828003D505003D
:1038F000828083D725002300F50003D5050083D7F8
:1039000025003305F502050542054181828083D7F4
:1039100005002300F50083D70500A183A300F5006F
:1039200083D725002301F50083D72500A183A301B8
:10393000F50003D54500110542054181828083D7FA
:1039400005002300F50083D70500A183A300F5003F
:1039500003D525000905420541818280894711452B
:10396000639BF60083471600834606000145A207C5
:10397000D58F2310F700828003D70500D947AE8684
:1039800063F9E700B745010001470D469385E587D8
:1039900071BA0945828011456393A60283471600D8
:1039A000834606000145A207D58F2310F700834701
:1039B000360083462600A207D58F2311F7008280A8
:1039C00083C725000547FD1793F7F70F6361F704D9
:1039D00083D705008DCF011122CC2A84C84106CEA1
:1039E00015C12EC68945EFE04F9F2A872285624484
:1039F000B246F240B74501001546938545890561F9
:103A00006FF0DF92F240624409450561828009450A
:103A100082809547114563F9D706411122C426C219
:103A20004AC006C683471600BA8403470600A207A9
:103A30003284D98F2390F400834736000347260051
:103A400093054400A207D98F2391F400894723826C
:103A5000F400094613855400368997C0FE1FE7809D
:103A600020779307A9FF2394F4009947631BF9007B
:103A700023A60400B2402244924402490145410178
:103A800082801904C0C4FDB7828083D705008DCF22
:103A9000011122CC2A84C84106CE15C12EC6854507
:103AA000EFE0AF932A8722856244B246F240B745E1
:103AB00001001D469385858B05616FF03F87F240BD
:103AC0006244094505618280094582809947639572
:103AD000F6048947411106C62302F7008347160002
:103AE00083460600B285A207D58F2310F7008347CF
:103AF00036008346260003464700A207D58F1305EC
:103B000057002311F700910597C0FE1FE780406C16
:103B1000B240014541018280D14711456394F600CE
:103B2000C1474DBF828083D705008DCF011122CCC4
:103B30002A84C84106CE15C12EC68945EFE0EF891B
:103B40002A8722856244B246F240B74501002546E5
:103B50009385458C05616FF06FFDF2406244094525
:103B6000056182800945828089471145639BF60083
:103B700083471600834606000145A207D58F231010
:103B8000F7008280011122CC2A84C84106CEAE867D
:103B9000014719C52EC68545EFE02F84B2462A8716
:103BA00022856244F240B74501002D469385058E7B
:103BB00005616FF0AFF711456393A60283471600C6
:103BC000834606000145A207D58F2310F7008347DF
:103BD000360083462600A207D58F2311F700828086
:103BE000011122CC2A84C84106CEAE8611C52EC64C
:103BF0008545EFD09FFEB2462A8722856244F24077
:103C0000B745010035469385658E05616FF00FF26B
:103C100093F71600114589EB89476387F600858283
:103C20002312D70010C301458280011122CC2A84BF
:103C3000C84106CE15C12EC68545EFD01FFA2A878A
:103C400022856244B246F240B74501003D46938565
:103C5000C58E05616FF08FEDF24062440945056144
:103C6000828083D705008DCF011122CC2A84C841E0
:103C700006CE15C12EC68945EFD03FF62A8722858C
:103C80006244B246F240B745010045469385258F10
:103C900005616FF0AFE9F240624409450561828039
:103CA00009458280854763FCD7022304A700A3044B
:103CB000B7008347160083450600A207CD8F231067
:103CC000F7009387E6FF2311F70089476386F60024
:103CD000090650C30145828023220700E5BF114534
:103CE0008280014781464D4681456FF02FE48D4724
:103CF000114563FBD7028347160083450600A207E0
:103D0000CD8F2310F7008347360083452600A20796
:103D1000CD8F2311F7009387C6FF2312F700638628
:103D2000A600110610C70145828023240700E5BFC5
:103D3000011122CC2A84884506CEAE8611C52EC636
:103D40009545EFD09FE9B2462A8722856244F2402A
:103D5000B74501005D469385E59005616FF00FDD85
:103D6000854711456397F600834706000145230008
:103D7000F700828001478146654681456FF00FDB81
:103D8000011122CC2A84C84106CEAE86014719C54E
:103D90002EC68D45EFD07FE4B2462A872285624445
:103DA000F240B74501006D469385E59305616FF0DC
:103DB0008FCC011122CC2A84C84106CEAE860147A1
:103DC00019C52EC68D45EFD05FE1B2462A87228500
:103DD0006244F240B745010075469385E59305615D
:103DE0006FF06FC9011106CE2EC6EF90906201C927
:103DF000B245F2400355250005616FD0607AF2406C
:103E0000494505618280B7270020A38C079EB7270C
:103E10000020238C079EB727002023A0079EB727EA
:103E2000002023A2079EB727002023A4079EB727C0
:103E3000002023A6079EB727002023AE079CB727A4
:103E4000002023AC079CB7270020239807C2130645
:103E50004038938707C32391C70271761307400B3D
:103E6000130606B82391E7002392C70211671D4687
:103E7000930600059305000A1305007D2392E700D1
:103E80002393C70241470546130810F82395E7001E
:103E90002396E7002399E700239AE700239BE70096
:103EA000239CE7002394E702239607032393B7009C
:103EB0002394B7002397D7002398D700239DA7000A
:103EC000239E0700239F0700239007022395C70224
:103ED000239707021308F007239807022392E704A9
:103EE0002393E704239FE7042390E7062391E70643
:103EF0002392E706239907031307C01C239AC702DE
:103F0000239BC702239C0702239D0702239E0702CF
:103F1000239F0702239007042391C70423940704D7
:103F2000239507042396C7042397D7042398D7041F
:103F30002399A704239A0704239B0704239C0704BF
:103F4000239DD704239ED7042393A7062394070613
:103F500023950706239607062397B7062398B706E7
:103F600023990706239AE7067D57239B0706239C80
:103F7000E7068280011126CAAA84214522CC06CEFA
:103F80002E8432C636C43AC2EFD05FCD1DC9A246D8
:103F900012473246930700FD2300F5009947A3001E
:103FA00095002301F5002303D500A303E5002312A8
:103FB000C500AA8522856244F240D24405616FD0D3
:103FC000FFD4F2406244D24405618280B7270020CA
:103FD00023A0A79E8280B727002023A2A79E8280CD
:103FE000B727002023A4A79E8280B727002023A6FE
:103FF000A79E8280011122CC4AC806CE26CA2A89F1
:104000000144B30489006368B400F2406244D244BE
:104010004249056182802EC6EFD0FFE79317050164
:10402000C183A183B2452380F4009307140093F762
:10403000F70F850463F9B700CA9709042380A70026
:104040001374F40F7DBF3E847DBF411122C4372419
:104050000020130404C103556400C16706C6FD17A0
:10406000630FF500B727002003C687D3B7250020CC
:104070009385059FEF90901AFD572313F400B240EB
:1040800022444101828009C925151375F50F1335A6
:10409000850E13451500828001458280239005001E
:1040A000C9C6797122D426D24ECE52CC5AC806D671
:1040B0004AD056CA5EC63684328AAE892A8B81447B
:1040C00063F34407B307940083C707001389140000
:1040D0004209939A070193DA0A011359090163848B
:1040E0000A04CA976341FA04B307240183CB07008B
:1040F0005E85513F0DC99387FAFF2390F9006390C5
:104100006B03130519002295B250225492540259A0
:10411000F249624AD24A424BB24B45618280D69400
:10412000C204C18071BF0145C5B70145828001113C
:1041300022CC3724002026CA4AC84EC6930704C1A1
:1041400006CE2E89D0CB8CCBC8C7AA844146930516
:10415000F00F4A8597C0FE1FE780001585491304BC
:1041600004C1631935030848C145693541469305C3
:10417000F00F268597C0FE1FE780001305496315E1
:10418000250348446244F240D2444249B249C14501
:1041900005618DB5414681454A8597C0FE1FE78080
:1041A000A010E31535FDC1B741468145268597C06E
:1041B000FE1FE780600FE30625FDF2406244D24413
:1041C0004249B24905618280411122C4372400204E
:1041D00026C24AC0AE842A8913060002814513050F
:1041E00004C106C697C0FE1FE7800002930704C102
:1041F000A3812701B7270020238E97D2EFD0803CE0
:10420000854719C1814749452308F4C0B24022447B
:104210009244024941018280814781CD19C9854775
:10422000631BF50083C7550093E707FCA382F500E5
:1042300085473E85828089476317F50083C755000F
:1042400093F7F703E5B70D478547E314E5FE03C78A
:1042500055001377F70313670704A382E500D1BF66
:1042600081478DC105C103C755009306000C8547E2
:104270001377070C6308D700930600048D47630388
:10428000D70089473E858280411122C4005D06C661
:1042900026C21DC8AA84085009C597C0FE1FE78022
:1042A000A0E5485009C597C0FE1FE780E0E4085428
:1042B00009C597C0FE1FE78020E4228597C0FE1F36
:1042C000E78080E323AC0402B240224492444101DF
:1042D000828019E9B727002083C727C191C73725F6
:1042E00000201305059D828037250020130585C217
:1042F0008280B727002003C527C18280B72700200E
:1043000003A5C7C18280B727002003A507C282800A
:10431000B727002083A747C288438280B7270020A1
:10432000938707C1D44B9842050798C203C537004D
:104330009307F00F6305F50091656FD07FDE8280F3
:10434000011122CC06CE2E8432C6EF90301D91474B
:10435000B2456310F502B727002083A7C79E95C317
:1043600003A30700630F030022856244F240056146
:104370000283B727002083A7479E81C703A3470076
:10438000D5B7F2406244054505618280011122CC17
:104390002A840355450006CE26CA4AC84EC6EF9069
:1043A00000763DC92A89834405008349C500E93D5B
:1043B0004A85EFA0207703554400EF90701137290C
:1043C00000201309899F83470900B9CB639A97049A
:1043D000B727002083C5979F2685293419E123003C
:1043E000090003554400EF9070139147631FF500D7
:1043F000B7270020938707C18356440003D767007F
:104400006395E6007D572393E700F2406244D2446F
:104410004249B2490561828081499304F00F45B752
:104420009307F00FE38FF4FA8346640003564400C9
:10443000034524004E87A685353E65B779715EC673
:10444000AA8B2E8552CC56CA5AC806D622D426D25A
:104450004AD04ECEAE8A328B368AEF90406A7DC10A
:10446000045D2A89E5C09C50614599C3130540034A
:104470009C5481C751054205418163050A007105BD
:1044800042054181DC5081C7590542054181EFD089
:10449000EFFC2A8445C96146814597C0FE1FE7802D
:1044A000A0D6B727002083C907C6639409008349B3
:1044B0000900930700FD2300F400A947A30074013D
:1044C0002301F400230364018C50231254011305CB
:1044D000840191C908C47146930A440397C0FE1F22
:1044E000E78000CF56858C5491C948C45146930A41
:1044F000450197C0FE1FE780A0CD5685630C0A00DA
:1045000008C87146D285930AC50197C0FE1FE7808F
:1045100020CC5685CC5099C548C8594697C0FE1F37
:10452000E78000CBA2854E85EFD04FFE2254B250DB
:104530009254F249624AD24A424BB24B4A850259DE
:10454000456199B3B250225492540259F249624AD9
:10455000D24A424BB24B4561828001114EC6AA89B4
:104560002E854AC806CE22CC26CA2E89EF90205925
:1045700021C9B727002083C407C699E083440500FA
:104580001945EFD0AFED2A8405CD8145194697C076
:10459000FE1FE78060C7930700FD2300F400B947C2
:1045A000A30034012301F40023122401A2856244F4
:1045B000F2404249B2492685D24405616FD00FF5D9
:1045C000F2406244D2444249B24905618280397165
:1045D0005ECEAA8B2E8526DA4ED652D456D25AD02B
:1045E00006DE22DC4AD8AE84328BB68A3A8ABE898D
:1045F00042C6EF90C05021CD2A894145EFD00FE649
:104600002A8431C54146814597C0FE1FE780C0BF5F
:10461000B727002003C507C619E103450900930722
:1046200000FD2300F400BD472301F400B247A300BE
:1046300074012312940023046401A304540123058C
:104640004401A30534015CC4A285EFD02FECF250E5
:104650006254D2544259B259225A925A025BF24BD6
:1046600021618280797126D2AA8439454AD04ECE02
:1046700006D622D42EC6B2893689EFD02FDE21C1CC
:10468000B2459307000D2310F500B1472A84231289
:10469000B5002301F500CE851905194697C0FE1F08
:1046A000E78000B323062401A2852254B2500259A8
:1046B000F24913F5F40F925445616FD02FE5B250D3
:1046C000225492540259F24945618280411126C216
:1046D000B7240020938404C103C7340006C622C453
:1046E0004AC09307F00F630CF7042A893945EFD0CD
:1046F000EFD62A8429C5930700FDB72500202300A3
:10470000F500A300250123010500938585C20D0551
:10471000194697C0FE1FE780A0AB83D78400A2850F
:1047200003C534002315F40083C714002306F400E6
:104730002244B2409244024941016FD02FDDB24081
:104740002244924402494101828001115AC02A8BBD
:10475000314526CA4EC652C456C206CE22CC4AC8DD
:10476000AE84B28A368ABA89EFD04FCF3DCD2A8443
:104770002685EF90C03811C50347C500A1476314D3
:10478000F704B727002003C937C1930700FD2300B2
:10479000F4009D47A30064012301F4002312940058
:1047A000231354012314440123153401A2856244C8
:1047B000F240D244B249224A924A024B4A854249C7
:1047C00005616FD0AFD4B727002003C9D7D3E31E4C
:1047D0000BFAB727002083A7C7AB9C47DDD7CE864F
:1047E0005286D685268582974DB7F2406244D244E0
:1047F0004249B249224A924A024B05618280011124
:1048000022CC2A84214506CE2EC6EFD02FC521C149
:10481000B245930700FD2300F500C5472301F500CD
:1048200083C73500A301F50083D745002312F500A7
:1048300083C765002303F50083C77500AA85A3031A
:10484000F50022856244F24005616FD02FCCF24022
:10485000624405618280397162CC2A8C594526DA1E
:104860004AD84ED652D456D25AD05ECE06DE22DC7C
:10487000AE8432C636C4BA8B3E8BC28A468A83590E
:10488000010403494104EFD06FBD25C932469307A7
:1048900000FDA2462300F5009547A301C500A30033
:1048A00085012301F5002A8419461105A9C2B685A0
:1048B00097C0FE1FE780C09123066401230A2401EC
:1048C00023157401231754012318440123193401BB
:1048D000A2856254F2504259B259225A925A025B4E
:1048E000F24B624C2685D25421616FD02FC2814594
:1048F00097C0FE1FE7804091C1B7F2506254D25476
:104900004259B259225A925A025BF24B624C2161CF
:104910008280411122C437240020130404C183473C
:10492000240006C626C28DCBB7240020AA851946CE
:104930001385049D97C0FE1FE780808903452400EE
:104940009385049DEFF05F8D2244B2401385049D52
:10495000924441016FC0D047B24022449244014585
:1049600041018280411126C2B7240020938704C1EF
:1049700006C622C44AC003C737009307F00F9384CA
:1049800004C16304F7042A892945EFD02FAD2A8496
:104990000DCD930700FD2300F500A147A3002501DD
:1049A0002301F50083C72400B72500209385059DCA
:1049B000A301F5001946110597C0FE1FE78040814D
:1049C00003C53400A285EFD06FB403C724008D4720
:1049D0006311F702B727002083A7879E99CB03A313
:1049E0008700630803002244B24092440249410117
:1049F0000283B2402244924402494101828079718B
:104A000022D406D626D24AD04ECE52CC56CA09441B
:104A10005DCD2A8903550500AE895144EF90200EE3
:104A2000AA8455C537270020930787D383C747003B
:104A30008546BA8AFD1793F7F70F494463F9F608DC
:104A40000347C500A1476314F700639209089C5C03
:104A50004544B5EF9165938545711305C00297B044
:104A6000FE1FE780205D88DC2A8A4D442DC1130695
:104A7000C002814597B0FE1FE78000798357090087
:104A800093064A0036852311FA00714693054900C2
:104A900036C697B0FE1FE780A07389472300FA004F
:104AA00003C5C400B2460356090083C58AD3611505
:104AB00013351500EFB090312A8463860900CE8546
:104AC0002685EFA0403201C42685EFF0EFFB22855A
:104AD000B250225492540259F249624AD24A456174
:104AE0008280B727002083C7C7D30547FD1793F7F8
:104AF000F70F637AF708894741CA011122CC26CA09
:104B00004AC84EC652C406CEAA89368AB2842E89B5
:104B1000EF80F07E2A84D14739C9485509C597B03E
:104B2000FE1FE780605DF145268597B0FE1FE78098
:104B3000007048D4CD4705CD8346C4002147814746
:104B4000639FE600630D0A000347A50103560501B4
:104B500093062501AA854E85EF90501DAA8703472D
:104B60004400630F0900136767002302E400F2406A
:104B70006244D2444249B249224A3E85056182805C
:104B800013674700DDB7C9473E8582809307B003AE
:104B900063EBA700B7270020938707C306053E9560
:104BA00003550500828041657D158280011122CC6C
:104BB0002A842E8526CA06CEAE84EF8050741DCD81
:104BC000B7470F009387F723094563E487028145C0
:104BD0000A85414697B0FE1FE7800063A685231033
:104BE00081000A85418023018100A3010100EFB00B
:104BF000207FF2406244D244056182804945D5BF9E
:104C0000B7270020238DA7D282806FB0501479710E
:104C100052CC2A8A328522D426D24AD04ECE56CAC7
:104C20005AC85EC606D662C4AE8BB28A368BBA84C8
:104C30003E89C2894684EF80906C15C92A8C631422
:104C40000A0213774B008347450015CF93E72701EE
:104C50002302FC008DEC631C0902639A090205E83B
:104C6000ED9B2302FC00832B8C0363910B08B25055
:104C7000225492540259F249624AD24A424BB24BF0
:104C8000224C45618280F59B93E70701D1B793E7FA
:104C900047002302FC0001CC1C484146A285232486
:104CA000FC0213058C0197B0FE1FE78060526393EE
:104CB0000B02D5D80325CC0209C597B0FE1FE780AB
:104CC000A043F145268597B0FE1FE7804056232676
:104CD000AC0251BFE30909F80325CC0209C597B01E
:104CE000FE1FE7806041F1454A85F1BF9DC483A75F
:104CF0000B0299EB916593853571714597B0FE1F55
:104D0000E780403323A0AB0203A50B0219C571460F
:104D1000A68597B0FE1FE780A04B6388090283A792
:104D20004B0299EB916593852571594597B0FE1F0C
:104D3000E780403023A2AB0203A54B0219C55946B8
:104D4000CE8597B0FE1FE780A0481DC483A78B02C5
:104D500099EB916593851571514597B0FE1FE780DA
:104D6000602D23A4AB0203A58B0219C55146A28571
:104D700097B0FE1FE780C0452254B2509254F249CA
:104D8000B24B224CCA865A860259424BD68552856E
:104D9000D24A624A45616FF06FEA011126CA52C4D5
:104DA00006CE22CC4AC84EC62A8AAE84EF80305541
:104DB00025C5AA893945EFC07FEA2A8431CDB727B6
:104DC000002003C907C66314090003C9090093073B
:104DD000000D2310F400AD472301F4009385690012
:104DE00013053400194697B0FE1FE780603E93F725
:104DF0001400858085882306F400A30694002315FB
:104E00004401A2856244F240D244B249224A4A8512
:104E1000424905616FC09FEFF2406244D24442496B
:104E2000B249224A05618280411122C43724002000
:104E30001304849D084006C619C597B0FE1FE7807D
:104E4000A02B23200400B2402244410182800111A2
:104E500006CE22CC26CA4AC82EC6EF80504A39CD8B
:104E6000B245B727002003C907C60CD5AA8463142E
:104E70000900034905004145EFC05FDE2A841DCDCE
:104E80009307000D2310F500A5472301F50083C704
:104E90005400938564001105A30FF5FE194697B0E1
:104EA000FE1FE780E0329C54A285F2405CC462445D
:104EB000D2444A85424905616FC05FE5F2406244D1
:104EC000D244424905618280797122D406D62A846F
:104ED0002EC6EF80D0420DCD8346C5001147AA876C
:104EE00049456393E6029C5FB24599C383C5670158
:104EF0000808EF907078B7F601009386A67710083F
:104F000089452285EF90A067B25022544561828086
:104F10005145DDBFB727002083C7C7D30547FD171D
:104F200093F7F70F637AF704894721CA411122C426
:104F300026C24AC006C6B2842E89EF80503C2A841D
:104F4000D14705C5630809008347450093E727005B
:104F50002302F5004146A6851305840197B0FE1F84
:104F6000E78000279C481CD48147B24022449244E9
:104F700002493E8541018280C9473E858280797120
:104F800022D406D62A842EC6EF80703701CDB245D2
:104F90002285230EB1006C08EF907061B25022544C
:104FA000456182805145DDBF6F80104CC16713871A
:104FB000E7FF6395E502B727002083A7479E91EBA3
:104FC000494582804945B240224492440249410108
:104FD000828003A30700E30503FE0283411122C47C
:104FE00026C24AC006C6FD172A892E84B284639A57
:104FF000F502B727002083A7479E91CF9C4381CF1E
:10500000829711E9B7270020238C279FB72700201C
:10501000A38C979E4DBFA6854A85EFE0BFDC45F582
:10502000D5B72E85EF80B02D51DD834705000D45A6
:10503000E39B27F922852244B2400249A685924487
:1050400041016FC0E0551307B0036360A70641112B
:10505000C16722C406C626C2FD172A840945638299
:10506000F502C547AE846313F4022E85EFC0005BE2
:1050700037250020130505C306042A942310940045
:105080000145B24022449244410182809307A0032B
:105090006316F4002E85EFC06051D9BFE31AE4FC1B
:1050A00013F5F50FEFC0C050E1B70945828001113B
:1050B00006CE2AC6EFE03FD5EF20606FEF10B01D9F
:1050C000EF405219B7270020938707C1130700F05C
:1050D0002391E70023820700B7270020324513877A
:1050E00087D3FD562301D700F240238CA7D29545E4
:1050F00005616F700034597193970501CAD086D647
:10510000A2D4A6D2CECED2CCD6CADAC8DEC6E2C4EB
:10511000E6C2EAC06EDEC1872E8963DC0754B7247D
:10512000002003C584D3B7290020372B0020EFC00F
:105130005FB72A8426CEB72A0020372C002093841C
:1051400009C1B72C00201DE021653345A900B650E8
:10515000265496540659F649664AD64A464BB64BEB
:10516000264C964C064DF25D6561828083470400B3
:105170001307200A639CE70003CA34000355240088
:10518000C1652286FD15EFF0AF9B8DA27247130714
:1051900087D3034A2700130710096395E71683474F
:1051A00014001547639FE7002285EFF02F9E2285AC
:1051B000EFC01FA8F24703C587D3EFC09FAE2A8474
:1051C00059B739476398E716035544008567A50723
:1051D0006315F5040C4483CB0500639D0B00850526
:1051E00091C9372500201946130585C297B0FE1FC7
:1051F000E78000FE03C709C185476315F710638880
:105200000B00238809C05E85EFF04FCC4DB789476E
:105210002388F9C0EFC0803B59BF896713872700F7
:10522000631CE504832B8400638E0B0C83C70B0087
:1052300089EF83C72B0003C71B00A207D98F2394D4
:10524000F40083C73B00A380F40003C709C189476A
:10525000631AF70A83C70B0091C7238809C003C5E7
:105260000B005DB783C5140003D584008D472388E8
:10527000F9C0EF70001FE5B795076318F5001C44EF
:1052800003C50700EFF00FEE1DB7F9771387A7FFEF
:105290002A9742074183914663F1E6049387A7FC6E
:1052A000AA97C207C18371476371F70289671387A1
:1052B000B7006310E50483A70A9EE38A07EE9C43C8
:1052C000A285E38607EE829715A03707001813071B
:1052D000F770B357F700858BA1CB83278B9EE388AC
:1052E00007EC9C43E38507EC22858297E31105ECEC
:1052F00011A81387C7006310E5021C4483C7070089
:10530000E38707EA9307F00FE303FAEAA2855285E1
:10531000EFC0DF9F45B5B9076318F50083A74C9E22
:10532000E38707E8DC4369BF896793871704E304D1
:10533000F5F8C9BF3D476399E70403554400896701
:105340001387D700E30CE5FC13879701E308E5FC1E
:10535000CD07E319F5FA03D76400C167FD17631D94
:10536000F70083A74C9EE38407E4DC43E38107E472
:105370000965A2854D0581BFB727002083A7C79E79
:10538000E38707E29C43DDB71307E003E39CE7F6FE
:105390008347240005476398E70E83476400372757
:1053A0000020930D879DE1E783A70D00D5CF83CB28
:1053B0000700214A03457400130D8400EA85EFE0DD
:1053C0003FEA83474401A303A40083580401035820
:1053D000E400035744002A86034534003EC2835745
:1053E0002401EA86DE853EC0D287EFF0CFC6834730
:1053F000340095E7DD47835804010358E4008346F1
:105400007400835544003EC2835724013EC06A871E
:10541000D28705465E85EF807027A301A40083A78D
:105420000D0081C71145EFF03FA0930B8C9F03C582
:105430000B00E30E05D6B727002083C5979FEFE04A
:105440007F9AE30605D68346340093071003638AE8
:10545000F6000356440083C50B0052873685EFE003
:105460007FB1230C0C9EA1B383CB340099B7832763
:105470008B9E83CB3400114A95DFDC4385DF814569
:105480000145829705BF29476390E70A8347640077
:1054900037270020930D879DA5EF83A70D00B5C783
:1054A00083CB0700214A03457400130D84009377D2
:1054B00025001376150089E7EA85EFE07FDA2A8672
:1054C00083470402A303C4008358C4010358A40102
:1054D00003574400034534003EC28357E401EA8683
:1054E000DE853EC0D287EFF00FB78347340085FBDF
:1054F000DD478358C4010358A401834674008355D3
:1055000044003EC28357E40111B783CB340059BF36
:1055100083278B9E83CB3400114AD1D7DC43C1D77C
:1055200081450145829741B70947639CE70083A7FE
:105530000A9EE38E07C6DC43E38B07C6228582976B
:10554000BDB12D476398E70083A70A9EE38107C694
:105550009C47DDB70D476397E70022868D450355CD
:10556000440015B119476395E706930561021305D9
:105570001031EF40C2562C1013052031EF40225657
:1055800003566400835781020355440063E8C70053
:10559000835684000357610263F7E6009305000217
:1055A000EFC0C00629B16374E6002313E40063F47E
:1055B000D7002314F4000357C4008356A4000356F5
:1055C00084008355640001488147EFC0E003C5B6FD
:1055D0001D47E389E7D231476395E7002286B1454D
:1055E000BDBF35476398E70083A70A9EE38107BCE8
:1055F000DC4799B739476396E7002285EF005007EB
:105600007DB63D476398E70083A70A9EE38107BA0A
:105610009C4B1DB741476396E7002285EF00700F52
:1056200079B645476396E7000145EF00F01E41B6A5
:105630004947639DE70083278B9EE38507CCDC43C6
:10564000E38207CC8145054582976DB94D47639C40
:10565000E70083278B9EE38707CADC43E38407CAFE
:10566000A2850945D5B76147E39EE7C82286E14593
:10567000FDB593F7150089CFB727002083A7079EB4
:1056800089C7DC4399C30145829713451900C1B40A
:1056900093F7250091CFB727002083A7879E91C756
:1056A000DC4381C78145054582971345290045B4F0
:1056B00093F745000145E38C07A8B727002083A78F
:1056C000C79D37240020130404C191CF85472302CE
:1056D000F400B727002083A7879E91C7DC4381C7CA
:1056E00081450545829748442C10EFA0303728109B
:1056F000EFF02FA2B727002083D727C581CF13064D
:1057000000643386C702B727002003C587D39145BD
:10571000EFC09FB1134549001DBC011122CC2A8462
:10572000554506CE26CAEFF06FC6AA84130540027F
:10573000EFF0CFC52AC613055002EFF02FC5AA8699
:10574000228562443246F240B3359000D24405616E
:105750006FB03072797122D406D68D472E84631FC4
:10576000F50003D7A50083D6850003D66500034561
:10577000340083D54500EFE05FFD09A889671387F2
:10578000D7006311E50403C5250019E58547B2502C
:1057900022543E8545618280B727002083A6879DDD
:1057A000F5D603C6360083C50600814802C202C092
:1057B0000148814701479106EFF0EF890545EFF079
:1057C000AFE6E9B71387E700E302E5FC138737018B
:1057D000631AE50003C5250055D9014781460146F6
:1057E000814551BFE507E303F5FAB1476319F500B9
:1057F000B727002003C537C1EFF06F8041BF416775
:105800007D178147E315E5F803C75500C947E31F36
:10581000F7F683D6E50003D6C5000355840083D58B
:10582000A500EFB0106B51C15D45EFF02FB63335D9
:10583000A000231CA1008345440003552400300828
:10584000EF80201F83578101B1F36C0813051031DD
:10585000EF40E2289305E10113052031EF402228B3
:105860008357C101035784006374F7002314F400C5
:105870008357E1010357A40063F4E7002315F40004
:10588000835584008357A40063F4B7002315B40044
:105890000357E4008356C4000356A40003552400B4
:1058A00001488147EFB01054D5B58547231CF1005E
:1058B00059B7B7270020138787D38346770013078C
:1058C000F00F638CE60851C9411122C426C24AC0B8
:1058D00006C6AA840345A500138987D34105EFC0F6
:1058E000EFB72A842DC59307000D2310F500D94783
:1058F0002301F50083D744002312F50083C7640019
:105900002303F50083C77400A303F50083C7840055
:105910002304F50083C79400A304F50003C6A40084
:105920002305C50015C2CC44410548C497B0FE1FED
:10593000E780008AA285224403457900B240924460
:10594000024941016FC08FBC23260500E5B7B24074
:10595000224492440249410182808280C1671387B8
:10596000E7FF639EE500B727002083A7879D9DC3BF
:1059700083C707000D47639DA7006FB0F045FD1773
:1059800049476397F500B727002083A7879DF5F760
:105990003A8582804947EDBF39714AD837290020BE
:1059A000832709A006DE22DC26DA4ED652D456D250
:1059B0005AD05ECE89EF0545F2506254D254425916
:1059C000B259225A925A025BF24B216182800347FC
:1059D00005008547130909A02A846302F7040346DA
:1059E0008500930695009305E1000545EFE00FEB78
:1059F000814719C183470500834604001147638826
:105A0000E602372700200327C79F8D46034717006C
:105A1000630FD70089CF01CF11E5014571BF8147E1
:105A20000145D9BF85466310D70A8D8BFDD7034545
:105A30001400130B2400DA85EFE09F82A300A4007A
:105A4000832709002A8A8149A1C7B7240020930B24
:105A5000F00F83C7A49F63FDF90203250900939A01
:105A600049005695834705006384770783471500EF
:105A7000639047071946DA85090597A0FE1FE7805E
:105A8000007E39C58324090003470400D694B9E495
:105A9000834604009147E382F6F883270900B5DFC7
:105AA000372700200346A79F9305F00F0147E30621
:105AB000E6F6BE84C10703C507FF6307B50C0507FB
:105AC0001377F70FEDB78946E319D7F4858BB9BF84
:105AD000850993F9F90FB5BF88C4F5A09147631AFA
