:020000024000BC
:100000006FB07224000000000018011800280128B9
:100010000228032800290129022903290429052986
:10002000062907290829002A012A022A032A042A64
:10003000052AA62A78C20600AE1E04006A02002025
:10004000B40200202602002014020020DC0100205F
:1000500038210400642104004C2204004A240400D6
:10006000EE240400241D0400481C0400BA1C0400F3
:10007000741C0400C2290400000400200E210400A6
:10008000A0260400A46206009C6406001465060015
:10009000441B0600581B0600566805004E59050013
:1000A0008C5C0600D6260400FC240600BCE004009C
:1000B0004AE10400A2E10400B0320400FC32040072
:1000C00066310400E69C0400A097040084A60400A6
:1000D00054AA040000AE0400C28904006089040030
:1000E0004A8D04000E8A040036890400BA8904008F
:1000F000E8880400928A0400EA8A04009A8A0400CC
:100100009E8A0400388B0400F28A0400248B0400C9
:10011000469004004E9004008E8A0400968A0400E3
:10012000368B04004A900400E68B0400BC91040066
:100130005EBC0400DCBC04001ABD04004A9F04003D
:10014000629F04009E9F04006083040044840400B6
:10015000AC840400B2510400544C0400B87804008C
:10016000D24C0400E47304000C9F0600289706009C
:10017000329C06007CB4060042B30600C6B70600F7
:100180007EB70600BEB706006EB8060042860600BF
:10019000FEB7060082AA0600A8AA0600D0AA06009A
:1001A000DEB806003CB10600D2B006004EB906002B
:1001B000A488060040890600688906000A890600AE
:1001C000763F0600942A0600222E0600782B0600B1
:1001D000063506002C5D0600125C060076860600D9
:1001E000B42B0400801C0600DC240600D425060085
:1001F000BA5306006C5406001C5606004EA30400B9
:10020000243F060086350600BC3B06002438060065
:10021000482A060026060020461D0600EAB706000A
:1002200082B70600BAB70600B6B70600F623040088
:100230009CA00400F2B7060070410600C24206000E
:100240003C430600909C0600EEB70600F6B7060099
:10025000DA580500FAB70600A40F0020AE140020FB
:10026000709C06000E9E06000000000000000000CA
:10027000000000000000000000000000000000007E
:100280006373B60082801C419105110523AEF5FE13
:10029000C5BFB7270020372700209387079D130786
:1002A00047F56373F700828023A007009107D5BF4D
:1002B0005DCDAA870145D5CD8D07C207C183F19BCE
:1002C000C207C18313074003636CF702372700207E
:1002D0000325C7B537270020832647B56397A602B5
:1002E000372700200327C7BE014541C74111C20778
:1002F00006C60545DD8D0297B24001454101828069
:1003000037270020032587B5F1B70357650031EF84
:1003100003574500636BF704B72600203306F74008
:100320002148938646B66378C8028328050003D81F
:100330006600138687001D8F2A9661172312E60038
:10034000232016012313060010C12312F500130702
:1003500088FF2393E6002313B50083D566002105AB
:10036000B387F5402393F6008280084185BF01459D
:100370008280828009CDB727002003A3C7B5B727A5
:10038000002083A847B581469A8763E317018280DE
:1003900003A807006369F50A6367A80A1387870043
:1003A000E367E5FE03D66700216705076319E600EA
:1003B00037260020034746A605072302E6A6372670
:1003C0000020130546B683D54700035765002393E5
:1003D0000700130646B62E97420741832313E50014
:1003E0006387670237250020032585B56301F50281
:1003F00003D5660009ED83D7460023A00601210737
:10040000BE95A1052392B6002313E600B687984354
:10041000E30F17F7B726002083A686B5E309D7F6C2
:1004200083566700ADF683D64700835547001843CF
:10043000A106AE962392D70098C383576600A10702
:100440002313F6008280BE86C28781B719CD91CD75
:1004500009CE81473387F500834607003307F5004F
:1004600085072300D700E317F6FE828019C991C9DA
:1004700009CA910583A7C5FF11057D16232EF5FE38
:10048000C5BF828001C919C62A960505A30FB5FE0E
:10049000E31DA6FE828081473307F50003070700AE
:1004A00019E33E8582808507C5BF01112E8626CAC5
:1004B000AA84131506019305F004418122CC06CECF
:1004C00032C6FD332A8401C53246A68541372285CE
:1004D000F2406244D24405618280854715C18DC1D6
:1004E00005C28147B306F5003387F50083C60600D1
:1004F000034707006398E6008507E315F6FE854786
:100500003E8582808147EDBF9307F6FFBE952A9610
:100510006313C5008280FD1583C715000505A30F71
:10052000F5FEFDB7AA87014581CF09CE3E96850726
:1005300003C7F7FF6317B700E39BC7FE054582803B
:10054000828001458280797126D2B724002022D48E
:1005500003A484BB06D64AD04ECE52CC56CA5AC843
:100560005EC662C44DC43729002037CAC901B72905
:100570000020814B372B00201309C9BB130AFA371F
:10058000938949B6B70AC0A88357240099EF5C4401
:10059000639A0B0023ACF4BA032CC4002285D93B28
:1005A000628499A823A6FB00C5BF83270BC082974E
:1005B000830669011C4463D806063307F54063626D
:1005C000EA0823A809008355240003450400972066
:1005D00004E0E780A0DD5C405844A1CF1444B69706
:1005E0008306690163C7060063E55701B7064057F4
:1005F000B6971CC4A28B3A8441F8B7270020938792
:1006000047B6984B894663F2E606791798CBB25005
:10061000225492540259F249624AD24A424BB24B96
:10062000224C45618280E37AF5F83387FA402A97B5
:1006300079B763950B0023ACE4BAB9BF23A6EB00EE
:10064000A1BF0327490219CB63DD06003385A7400C
:1006500083A709016374F50023A8A900A28B404475
:1006600061BFE3F5A7FED697D5B723A8070045B726
:1006700001114AC837290020832749B906CE22CC68
:1006800026CA4EC652C456C25AC081C78297232A70
:1006900009B8930749B9DC4337240020130444B94F
:1006A00091C38297832749B963900718B724002024
:1006B000938744E983C75700938444E9858B8DC3AE
:1006C00003C77400A3820400954763FBE700EF00B3
:1006D000F04883C77400F5178A07A2979C43829756
:1006E000372A002093074AED83C7C700130A4AED53
:1006F000918B99C3EF10C0361C4491C38297372465
:100700000020B7290020930744B603A749BB03C6BE
:100710001700930A44B6834744B693961700BA96D7
:1007200083D60600C1CA834744B663EDC708832752
:1007300049B9230204B6EDEB83C7940091CB83C77C
:10074000740099E7A3840400972006E0E78000CFB7
:10075000B727002083A707C0E1CBB707C0A823A80D
:10076000FA00D533B72700209387C7BBD8534DCFA6
:1007700083C7570103A70A016368F70A03C7740018
:10078000954763E3E70A8347CA00918BD1EF83C69D
:100790001A0003A649BB63C3D70A6244F240D2449D
:1007A0004249B249224A924A024B0561172304E0AA
:1007B0006700039C850793F7F70F2302F4B6E3EC79
:1007C000C7F495B786073E978355070023100700A7
:1007D000034544B6B727002083A707B913172500A0
:1007E000372B0020BA979C4323180BBA8297835764
:1007F0000BBB034744B693C7F7FF7D8D93171700D4
:1008000003A749BB3E97835707005D8D2310A700C0
:10081000834744B681C785072302F4B6034744B62D
:1008200083C71A00E375F7F0F2406244D2444249AC
:10083000B249224A924A024B0561828013971700FF
:100840003297035707006DF38507B1B7AD6737C718
:100850000040BD072326F7200F100000B727002017
:10086000938747B6C84F83278726BD66BD0693C7C3
:10087000F7FF99836A052326D7205D8D8280411179
:10088000B7170040985F3AC6945F3247E39CE6FE94
:10089000324541018280828003278511630007125F
:1008A000411122C406C68347C5008345C5042A8476
:1008B00093F7C70F2306F500834697000356C7003A
:1008C00013958601618563F1C508635A05060345E2
:1008D000870093F6F607A304D700054693E62700A2
:1008E0006314C50093E617002306D4005C43890710
:1008F0005CC3A30AB400032504112E864C430905EA
:10090000B1368327841103465401D44303D7C7006B
:10091000B296118FD4C32396E7008947A30DF40044
:10092000B72700200347440383C7E7BC6378F70475
:100930008347C40093E707012306F40081A093E7EF
:1009400017002306F40075B79376F60F635D050272
:1009500003458700854513E627006314B50013E6B9
:1009600017002306C400A30AD400A3040700854788
:10097000A30DF400832784119C43DDF3B24022448D
:1009800001454101828093E717002306F400A30A82
:10099000D400A3040700032504114C4309057D344A
:1009A0008327841103465401D44303D7C700B2966A
:1009B000118FD4C32396E7008D475DBF0545828024
:1009C000B727002083A7C7E7411122C406C6858B3D
:1009D0002A84DDEB4165130525F5977005E0E78076
:1009E00020455DC18347A5002315F5008327041228
:1009F000B5E72320A4122322A41285472310F40470
:100A0000232005008347640154412316F500034762
:100A1000D4002304E5000547A304E50037270020A0
:100A20000327C7EA1385170215811C437D1513752B
:100A3000F50F9CC25C43DCC21C479CC65C47DCC60D
:100A40001C4B9CCA5C4BDCCA1C4F9CCE5C4FDCCE62
:100A500019CD9386060213070702C1BF83274412EC
:100A600088C3835704042322A412850741BFB727F4
:100A70000020938707D603D7870005072394E70054
:100A8000B2402244410182808347C400230904000C
:100A9000054593C747002306F400DDB7834785016A
:100AA00093F7E70FDDEB83479501C5EB034625017F
:100AB0008346C50009CA37270020834545030347FD
:100AC000F7BC63E7E50013F7060149CB014709C608
:100AD000C18A0357651C81C68356A51C36973DCF36
:100AE000B727002003D5C7B81307C71237460F0032
:100AF000B335A702411113060624814622C426C23B
:100B000006C67D543305A70297B006E0E780A0240F
:100B1000B727002083C757BDB384A700B72700209D
:100B200003A707DF8327070963F387003E84184381
:100B300075FBB727002083A707C0829781476364AE
:100B4000A400B307A440B2402244B3B7970093C7B0
:100B5000170092443E854101828081473E85828014
:100B6000797126D206D622D44AD04ECE52CC56CA5D
:100B70005AC85EC68347350303447513AA843E945E
:100B80001374F40F9307400263F687001304B4FD57
:100B90001374F40F03AA841383AAC413A38B8412BF
:100BA00022865285D68597B006E0E78040150589F4
:100BB00015E503CBD41201498149337B6403930BC0
:100BC00050024A865285D68597B006E0E78020130A
:100BD000058915C5639169031374F90F238B84127A
:100BE000B250225492540259F249624AD24A424BBC
:100BF000B24B456182808509E20993D98941050993
:100C0000E31179FDE1BF832785090356E503797177
:100C100093D60701BD8EC206C182358E135776402A
:100C200093575640898B058B5D8F93573640918B38
:100C30005D8F93571640A18B5D8F93171600C18B64
:100C40005D8F9317360093F707025D8F9317560059
:100C50009355860093F707041E065D8F1376F60FF3
:100C6000518F93D7554013D63540118A898BD18F38
:100C700013D67540D18F13D61540218AD18F139684
:100C80001500418AD18F1396350013760602D18F55
:100C900013965500137606049E05D18F93F5F50F34
:100CA000CD8FA20745465D8F3307C70222D42A8421
:100CB00026D252CC56CA032A8413832AC4135AC894
:100CC00006D63697420741839357774013555740CE
:100CD0000989858BC98F135537401189C98F1355E1
:100CE00017402189C98F131517004189C98F131522
:100CF000370013750502C98F1315570093558700E8
:100D0000137505041E07C98F1377F70FD98F13D5F5
:100D1000354013D755401189098B498F13D575403C
:100D2000498F13D515402189498F139515004189A5
:100D3000498F1395350013750502498F139555009A
:100D4000137505049E05498F93F5F50F4D8F220706
:100D5000D98FB387C7024AD04ECE5EC662C4B6975B
:100D6000C207C18313D7774013D557400989058B34
:100D7000498F13D537401189498F13D517402189E1
:100D8000498F139517004189498F139537001375C3
:100D90000502498F1395570093D5870013750504F5
:100DA0009E07498F93F7F70FD98F13D5354013D787
:100DB00055401189098B498F13D57540498F13D53B
:100DC00015402189498F139515004189498F139545
:100DD000350013750502498F1395550013750504E9
:100DE0009E05498F93F5F50F4D8F2207D98FB38755
:100DF000C702130650025285D685B697BD8E9394CE
:100E00000601C18033F6C402137BF60F97B006E0EB
:100E1000E780E0EE05890DED8347D4120149814951
:100E2000B3849702130C5002C1804A865285D6853E
:100E300097B006E0E780A0EC0589937BF90F11C518
:100E400063863403850993F9F90F0509E31F89FDCA
:100E5000230B6413B250225492540259F249624A4D
:100E6000D24A424BB24B224C456182805E8BCDB759
:100E70000111B727002022CC03A4C7E126CA4AC823
:100E80004EC606CEAA8413092500854915C083C71E
:100E9000140003473400858B6304F700405CFDB702
:100EA0001946930544004A85EFF02FE3E31835FF18
:100EB0002285F2406244D2444249B24905618280AF
:100EC0004111B727002022C403A4C7E126C24AC0AB
:100ED00006C693042500054901E82285B240224454
:100EE0009244024941018280A6851305A40297D04D
:100EF00005E0E78080A4E30225FF405CF1BF4111DB
:100F0000B727002022C403A4C7E126C24AC006C6F0
:100F100093042500054901E82285B2402244924409
:100F2000024941018280A6851305A40197D005E0FE
:100F3000E780A0A0E30225FF405CF1BF011122CCB5
:100F4000604126CA4AC84EC652C406CEAA841D4A6B
:100F5000130965058549BC446364F400054581A80F
:100F600003C7D40083474400631B470503C78402BB
:100F70006304F7000040C5B70347540083C7540516
:100F8000E31AF7FE1946CA8513056400EFF0EFD4A3
:100F9000E31235FF0347C40083C79402E31CF7FC48
:100FA0000357E40083D7A402E316F7FC0145F2409F
:100FB0006244D2444249B249224A05618280E31B1D
:100FC000F7FA0347540083C75405E315F7FA1946A7
:100FD000CA8513056400EFF04FD0E31D35F9F9B76A
:100FE0000111B727002022CC03A447E126CA06CE70
:100FF0002AC42EC6854419E40145F2406244D24415
:10100000056182808347910003471400858B630448
:10101000F7000044CDB719469305A100130524003D
:10102000EFF0AFCBE31795FE0545C1BF011122CC10
:1010300037240020032704EB2AC62EC432C206CE72
:101040003C4B93F7F7F73CCB971006E0E780403C2A
:10105000032704EBB72600203C4B93E707083CCB63
:1010600083A746E83245A24523A0070003471500A1
:10107000034825002207420842970348050042978B
:10108000034835006208429798D703475500034844
:1010900065002207420842970348450042970348EB
:1010A000750062084297D8D7034795000348A5000A
:1010B0002207420842970348850042970348B5003B
:1010C0006208429798DB0347D5000348E5002207F2
:1010D000420842970348C5000345F5004297620560
:1010E0002A97D8DB03C7150003C525002207420550
:1010F0002A9703C505002A9703C5350062052A977C
:1011000098CF03C7550003C56500220742052A97FB
:1011100003C545002A9703C5750062052A97D8CFF5
:1011200003C7950003C5A500220742052A9703C5FA
:1011300085002A9703C5B50062052A9798D303C78F
:10114000D50003C5E500220742052A9703C5C5005F
:1011500083C5F5002A97E2052E97D8D3D843759B0F
:10116000D8C3D84313671700D8C398431367170031
:1011700098C3124603A746E85C43858BD1EB1C4F0E
:1011800001452300F60083A746E89C4FA183A300F6
:10119000F60083A746E89C4FC1832301F60083A78E
:1011A00046E89C4FE183A301F60083A746E8D84FA9
:1011B0002302E600D84F2183A302E600D84F4183E3
:1011C0002303E600D84F6183A303E600985323046A
:1011D000E60098532183A304E60098534183230536
:1011E000E60098536183A305E600D8532306E60082
:1011F000D8532183A306E600D85341832307E60092
:10120000DC53E183A307F600F2406244056182806B
:1012100001008DB7B726002003A786E801114AC850
:101220001C5F4EC606CE998322CC26CA858BB68912
:1012300037290020ADCF1C5F37240020930444E9F8
:1012400093F7F7F91CDF930744E983C76700130797
:1012500000086319F700832749E89C4393F70704C4
:101260002383F400834744E993F7070489CFB72722
:10127000002083A707C0829788C8834744E993F773
:10128000F70B230AF4E883C7440093F7070485E3C8
:101290008547A382F400B727002083A707EB0967DF
:1012A00098C7130700FC2382E400D844F8D383A72F
:1012B00089E8985F1183058B19CB985F85463D9B24
:1012C00098DF37270020130747E92302D700985FEC
:1012D0001D83058B01CF985F1377F7F798DFB7274A
:1012E0000020938747E905472382E700832749E8E1
:1012F000D8430583058B19C7D843759BD8C3D843FA
:10130000799BD8C3F2406244D2444249B249056154
:101310008280397106DE16DC1ADA1ED82AD62ED45F
:1013200032D236D03ACE3ECC42CA46C872C676C415
:101330007AC27EC0C535F250E2525253C253325582
:10134000A255125682567247E2475248C248324E60
:10135000A24E124F824F216173002030B727002028
:10136000B726002003A607EB938746E903C746E9A3
:10137000058B11C723820700A3820700828003C761
:101380001700058B65FB785275F303C75700EDB75F
:1013900037280020032788E81C5F9583858BD1E7D9
:1013A00009C61C5BBD832300F60085CA832788E835
:1013B000985B4607935767016356070093E707C09A
:1013C000C207C18303970600C207C18709C7BA973E
:1013D0000947B3C7E7022390F60037270020130719
:1013E00047E995C9834715009DC703466700938663
:1013F00097008947137606041DC636958346050077
:101400000546994793F5F606639FC500E206E18617
:10141000B94763CA0600832788E89C5FED838D8BFC
:10142000A305F70081473E8582808547EDBF4111C6
:1014300022C406C63724002026C2032704EB59E540
:10144000AE877453FDFEB7240020938444E93E85A3
:10145000B28523810400971006E0E78040D2B727C9
:10146000002083A787E8B70680009843558F98C36C
:10147000D857719BD8D7832704EBA3820400A3809D
:101480000400094798C3B7F700E003A707D16D9B95
:1014900023A8E7D003A707D15D9B23A8E7D073005B
:1014A0005010832604EBB7270020938747E903C732
:1014B0002700058B19E703C73700058B59C723821F
:1014C0000700B24022449244410182808D47631F4D
:1014D000F500B727002083A787E8B7068000984368
:1014E000558F98C3D857719BD8D765BF8547E31AE6
:1014F000F5FAB567BD075CC70F100000832704EB42
:101500000967930600F898C737270020130747E9B3
:101510002302D70037270020832687E80946984210
:1015200031830D8B6319C7001307E043F8D33D6780
:101530003D07D8C7BDB7984231830D8B01E713072C
:101540006019EDB71307E01BD5B7F8522DF395BF1F
:101550005D7152DC372A002003278AE886C6A2C4C0
:10156000A6C2CAC04EDE1C43B7290020372900207E
:1015700093F7F7E793E707081CC383A6C9EF37077C
:10158000CEFF7D179C46130680022A84F98F9CC6E5
:10159000832709EB130700082800B8CBAE84930516
:1015A0001008EFE03FEE971006E0E78060E6971046
:1015B00006E0E78040F283278AE89376F41F370F2E
:1015C000FCFF23A40700984B4E88CA881367F703D3
:1015D00098CBF84F130510F8D285137707E0558F95
:1015E000F8CF9843F576FD16758F98C39843B706E4
:1015F0003300B70204001377F7E798C398439303C7
:10160000401F7D1F1377F7E71367071098C303A7E1
:10161000C9EF930F800285491C47D58F1CC78327CC
:1016200009EB1307900D3400B8CB11490147135350
:10163000370026938347030013767700B3D7C7405C
:10164000858BE1C383A785E8832EC8EF239C07041D
:101650002390070603AECE02137EDEFF23A6CE0341
:1016600083AE0700137EF70793FE0EF833EECE012C
:1016700023A0C70103AE4702336E5E0023A2C70357
:1016800083AE08EB014E23A27E0603DA070663074A
:101690004E0303AE0703038A0600135EFE00620ECC
:1016A000135E8E416358CA0103AE0703135EFE004A
:1016B0002380C60103DE0706137EFE0F03AA4E0633
:1016C00063060A0003DA8705E37F49FB03AE47029E
:1016D000337EEE0123A2C70383870600635CF40018
:1016E000034E03003396C9001346F6FF3376C60156
:1016F0002300C3003E8663D3A7002A861315860104
:10170000618505071377F70F8506E312F7F3B640F7
:10171000264496440649F259625A6161828037260E
:101720000020832706EBD8479316170163D20602E1
:1017300098479316170163DD06007D57B8D7372702
:101740000020130747B6544F850654CF116798C73A
:1017500098470D83058B0DC337270020130747E9F2
:101760008346270093E616002301D700930600F86E
:101770002302D700214798C79847058B09CF372701
:101780000020130747E98346170093E61600A300DD
:10179000D700054798C798470983058B09E79847FD
:1017A0000583058B21CF944737270020372500205C
:1017B0008982858A63800610832685E89442B182F7
:1017C0008D8AF5E6AC4B930647E9944E93F50502F6
:1017D00083C61600DDC5E9EA93067006D4CF8346BA
:1017E00047E993E61600230AD7E8114798C703276D
:1017F00085E85C57F19B93E717005CD7032706EB5E
:101800001C479396370163D40602B72700209386BE
:1018100007D603C64607938707D6418A55C683C7AE
:10182000460793E70702238AF60685671CC71C470D
:101830009396270163D10602B7270020938747E9D3
:1018400083C64700E206E18663D50600854623820B
:10185000D70089671CC71C479396070163D206020D
:10186000B7270020938707D683C65707858AADCE52
:1018700083C6570793E62600A38AD706A1671CC72D
:101880008280B9DA85456395B6009306B006B9B78C
:1018900089456395B6009306F00689B78D45639533
:1018A000B600930630071DBF9306500705BF930689
:1018B00060072DB7130747E98346370093E6160004
:1018C000A301D70009471DB783C647070946BD8A4C
:1018D0006388C60083C647070D46BD8AE397C6F4F2
:1018E0009146238AD70691B783C65707918AD9D6DE
:1018F00083C6570793E6860041B7397106DE16DCCA
:101900001ADA1ED82AD62ED432D236D03ACE3ECCCF
:1019100042CA46C872C676C47AC27EC00935F25041
:10192000E2525253C2533255A25512568256724752
:10193000E2475248C248324EA24E124F824F2161B6
:101940007300203037270020B7260020138646EB8F
:10195000130747ED8347D7008345B601484AAE9742
:10196000FD8BB355F500A300F600A306F7008589AB
:1019700095E903471701814613080002B3F7E70210
:101980000147B355E50085899378F70F89C96395B9
:10199000D700A30016018280850693F6F60F05078F
:1019A000E31107FF8280B727002083A707C001113A
:1019B00022CC26CA52C406CE4AC84EC656C25AC007
:1019C0008297B7240020938744ED8047014A63063D
:1019D000A406B72700201387C7BB030767019384BA
:1019E00044ED1389C7BB63550706018D37270020D7
:1019F000930747EB83C7A70113545500137AF501EA
:101A0000930947EB6368F402B70AC0A8370B405745
:101A1000153F83C6A9019C44139756003E97830740
:101A20006901158C63C50700636357015A9798C411
:101A3000E370D4FE1604336A4401F24062445285D6
:101A4000D2444249B249224A924A024B05618280FD
:101A5000E37D85F8B707C0A833848740229579B71E
:101A6000B727002083A707C0411122C44AC006C679
:101A700026C2829737290020930749ED80476308E3
:101A8000A406B7270020838727BD130949ED63D833
:101A90000704018DB7240020938744EB83C7A70177
:101AA00013545500938444EB6363F404613D83C78E
:101AB000A401032789009396570036971D8C232491
:101AC000E900E375F4FE224403C51400B2409244D9
:101AD000024981454101171306E06700E3F1E37A0B
:101AE00085FAB707C0A833848740229565B7B2400E
:101AF00022449244024941018280B727002003A773
:101B0000C7EFB75702009387079F832607091396ED
:101B1000560063580600832607091396660063443F
:081B20000600FD17FDF38280B1
:101B2800B72700203727002083A7C7B5032747B565
:101B380001456313F700828083D6670081E683D668
:101B4800470036959C43F5B7B727002083A5C7BB48
:101B5800372700209387C7BB13860522232EC7B4D7
:101B680003D74700938785FFB72600204111BA970E
:101B7800056523AAF6B406C61D0593563700637497
:101B8800E500930600203307D60037250020232CD4
:101B9800E5B423A0E522E1162312D600231306009C
:101BA8001CC3998FE1172312F700231307008D3FF9
:101BB800B240B72700202395A7B641018280B727F6
:101BC80000203727002083A7C7B5832647B50145DE
:101BD8006393F600828003D7670011E703D74700B5
:101BE8006373E5003A859C43E5B7B7270020B7261D
:101BF800002083A7C7B503A646B52A87B305B54015
:101C08006314F6003A8529A8938687009C43E36904
:101C1800D7FEE377F7FE2E85E3E4D5FEE3F2F5FE83
:101C2800828023AC05FE1C4191E7010001000CC134
:101C38008280BA8703A787FF6DFF23ACB7FE828037
:101C48001DC18346E5FF1307F00F9147639EE60029
:101C5800411106C697E0FB1FE780804AB2408147E2
:101C68003E854101828095473E85828001E9014594
:101C780082800145B240224441018280956541112C
:101C8800938505D022C4C98D2A842105C205420541
:101C9800C181418106C697E0FB1FE780203A71D9D0
:101CA800FD5723200500231285002303F500210595
:101CB800D1B7411126C2B724002083A704B622C495
:101CC8004AC006C60144014989E7A1659D2F15C48C
:101CD80001A803C7E7FF6319A70205CCA1658929F5
:101CE80003A704B6832784FF6317E40223A0F4B68E
:101CF800FD57232C04FE230FF4FE2285B240224414
:101D0800924402494101828011E03E8983A787FFFE
:101D180065BF3E84E5BF232CF9FED9BFB1CDB727F7
:101D2800002083C757B6411122C406C62A842E85CF
:101D38006375F400894763E8870019370D45B24099
:101D480022444101828083A785FF99E703C7E5FF05
:101D58009307F00F6305F700E5351545CDB737252F
:101D68000020238F85FE130505B6653D2285224494
:101D7800B240A16541016DAE15458280B7270020AC
:101D880023A007B68280B727002083A787BB99E3E3
:101D98003E85828003D727006316B70003C7070074
:101DA800E308A7FEDC47E5B7BDCD797122D406D696
:101DB80026D24AD04ECE01444147B3D78540858BC1
:101DC800B1CF1205314722953305E502B727002028
:101DD80003A987BF8544B3948400C204C180BE8927
:101DE8002A990327090011C7032549002EC602971F
:101DF800B24531473304E40283A789BF3E941C44AB
:101E080089E72320090023220900B2502254A58D16
:101E180002599254F2492E85456182800504E31ED9
:101E2800E4F88144DDB72E858280411113970501BE
:101E380022C406C626C24AC041872E84635E0700B4
:101E48008D3D11C1F53BA1673D8C2285B2402244EE
:101E58009244024941018280EDD9AA87014741464F
:101E6800B356E440858A9DCA9207BA97B146B387AC
:101E7800D702B726002003A986BF8544B394E4009F
:101E8800C204C1803E99832709000325490082972F
:101E98002320090023220900258C45BF0507E311EB
:101EA800C7FC8144D5BFB727002083A7C7BD411110
:101EB80022C406C6372400201304049A91C78297C7
:101EC8001C403E9508C031A0B727002083A707C053
:101ED800FDF70840B74703009387D73F3305F5025E
:101EE800B7A72600938737ECB2403E9508C0224436
:101EF800410182800111680006CE22CC26CAEF403B
:101F08004177FD57630BF50C372400209306C4BBBB
:101F180083C7560132471304C4BB63F5E70AB724E5
:101F28000020938444B698483706C0A8630BC702BC
:101F3800B727002083A707C0829732479C4863735E
:101F4800F700BA8703475401998F3E9583076401C8
:101F580063CE0700B707C0A8636AF500B707405704
:101F68009DA88386660163D406061D8D372400204C
:101F7800930744E99C4F130444E999CBB727002001
:101F880083A6C7EF3707CDFF7D179C46F98F9CC600
:101F980019E13705C0A8B727002083A707BE829795
:101FA80019E51C4C85C3EF002278EFF0114E1C4C4C
:101FB80091CBB727002003A7C7EFB70633001C470C
:101FC800D58F1CC7F2406244D24405618280E37E0B
:101FD800F5F8B307F7403E9551BF372400201304A6
:101FE80044B61C48B704C0A8E38E97FCB727002066
:101FF80083A707C08297372700201307C7BB8346EC
:1020080057011C48958F3E9583076701E3C007F683
:10201800E36E95F4A1B76DC53748F6A6130808C84E
:1020280089476360C80E7971B727002022D45AC83F
:1020380003A887BF3E8B06D626D24AD04ECE52CCB6
:1020480056CA5EC662C40144B148C147B30B140303
:10205800137CF40F3303780103230300631D030883
:10206800AE8AC165AA84938505F041453A8AB68946
:10207800328997E0FB1FE78060FC05E9B72700205D
:1020880083A7C7BE99EF8147B25022549254025990
:10209800F249624AD24A424BB24B224C3E854561D4
:1020A8008280814511458297F9BFB726002003A792
:1020B80086BB15EF23ACA6BA2300050083278BBF88
:1020C80005473314870023260500232425012311FF
:1020D800850023224501DE9784C323A2570123A448
:1020E8004701E38209FA2380890171BF3687544783
:1020F800F5FE48C7D1B70504E31AF4F4A14769B758
:1021080089473E858280B727002083A7C7BF411132
:1021180022C406C637240020130444B689C7829710
:102128005C483E9548C84848B240224441018280F4
:10213800B727002083C757B66370F50237270020FA
:1021480093171500032547BB3E9583570500DD8D82
:102158002310B500014582800D458280B7270020F5
:1021680083C757B66372F502372700209317150007
:10217800032547BB93C5F5FF3E9583570500FD8DA5
:102188002310B500014582800D4582809307F00237
:1021980063E7A70AB146B306D502B727002003A70D
:1021A80087BF89473697184341CF011122CC4EC6C5
:1021B8000544935945003D893315A40013140501BE
:1021C800418026CA4E85AE84A2854AC806CE653EA1
:1021D8002A89814729CDA2854E854937B72700200E
:1021E80083A707C08297B727002083D7C7B82A8458
:1021F80013060064338797028146B3B79702130525
:102208000732B335E500BE95EF90320DB7270020B1
:10221800838727BD229563C90700B707C0A86365F0
:10222800F500B70740573E952324A9008147F2409F
:102238006244D2444249B2493E8505618280894759
:102248003E85828001114EC6B7290020938949B680
:1022580083C7190006CE22CC26CA4AC852C4636B6B
:10226800F5000145F2406244D2444249B249224A4B
:1022780005618280B727002083A407C0FDD02E8A7D
:1022880083D589022A843289B387C5028146B3B5CA
:10229800C50213850732B337F50013060064BE95EF
:1022A800EF90B203B747F6A6938707C8E3EBA7FA00
:1022B800829483D58902AA8413060064B387250310
:1022C8008146B3B5250313850732B337F500BE95AC
:1022D800EF90B200B72700201387C7BB0307670139
:1022E800AA941389C7BB63490700B707C0A863E569
:1022F800F400B7074057BE94D2852285693401C5DA
:1023080004C5054585B7936504F0C205C1814145FB
:1023180097E0FB1FE78080D201E983270903B1D347
:10232800A2851145829735BF37270020832787BBB1
:102338008DE3232CA7BA85472326050004C523115E
:10234800450123008500A300F5002322050055BFA1
:10235800BA87D84775FFC8C7F9BF41C9797122D470
:1023680026D24AD04ECE52CC56CA5AC85EC662C48D
:1023780006D6B689B28A2E8A2A899304000C41446B
:10238800372B0020054C930B000383278BBFA697A0
:102398009C43A1E79375F400B315BC00C2055686AB
:1023A800C18113554400793D0DC983278BBF014571
:1023B800BE9423A0240123A244016384090023803E
:1023C8008900B250225492540259F249624AD24AC0
:1023D800424BB24B224C4561828005041374F40FC2
:1023E800B104E31474FB2145E9BF0945828041111A
:1023F80022C426C24AC006C62A842E89B2849935C8
:10240800CA852285493205CDB727002083D5C7B8AC
:102418002A8413060064B38795028146B3B59502F2
:1024280013850732B337F500BE95EF90026B48C0AD
:102438000145B2402244924402494101828021452B
:10244800CDBF411122C426C24AC006C62A892E849D
:102458001D3AAA8419C123110500A2854A85FD39B0
:10246800B727002083C747B663992701B7270020FD
:1024780003D707BB598C239887BA014591E01945C2
:10248800B240224492440249410182809307F002FB
:1024980063E8A7044111B14722C43304F50226C2F8
:1024A800B724002083A784BF06C6A297984389470C
:1024B80015C39377F5008545B395F500C205C1812D
:1024C8001181413783A784BFA29723A0070023A2C5
:1024D80007008147B240224492443E8541018280F0
:1024E80089473E858280411106C622C4693811E5B4
:1024F8000145B240224441018280B727002083A7CA
:1025080007C000458297B7270020838727BD63D877
:102518000702B747F6A63305A4409387F7C7E3E950
:10252800A7FC93070064B335F5023727002003564C
:10253800C7B881463305F502EF90225A5DBFE37AAA
:10254800A4FCB707C0A83E94E9B74111B7270020FB
:1025580006C623AEA7BE0295B240B727002023AE19
:10256800A7B6014541018280994763E9B700B727BB
:1025780000208A05938747B9BE9588C18280B7270E
:10258800002023AC07BA37250020B72700204111C7
:1025980023AE07BE7146B72700208145130545B90C
:1025A80006C623A007C022C426C23724002097E00D
:1025B800FB1FE780E0C5130544B61306C00281453A
:1025C80097E0FB1FE780C0C4EFF00FD8B7270020C3
:1025D80083C737BD130444B6854513D527008D8BB3
:1025E8003E958D473305F5029947B72400203905F4
:1025F8001375F50F2301A4003305F502130505240F
:1026080097E0FB1FE78080A323ACA4BE49C1034623
:102618002400994781453306F6021306062497E0FD
:10262800FB1FE780E0BE83A784BF03472400B724CD
:102638000020938707240A0723A8F4B8BA973727F6
:102648000020232AF7BAEFF06FF30D218347140017
:1026580083A604B937260400139727003697130674
:1026680006DB10C3138717001377F70F0A073726FF
:1026780004003697130626E310C31387370089072B
:1026880093F7F70F8A07A300E400B69790C3B24008
:10269800224492444101828037270020130747B61D
:1026A800834717008346270063F0D702B726002028
:1026B80083A606B913861700A300C700139727003F
:1026C800369708C33E8582809307F00FE5BF1C410B
:1026D800638B071041777D8FB70600208947631504
:1026E800D7100357450063010710411126C2194648
:1026F800AA849305F00F690506C622C497E0FB1F5C
:10270800E78000BB05478D476309E50C9C4491C7EA
:10271800D858994779C3985C69C3372400201306B1
:10272800C00381451305C4BB97E0FB1FE78040AE9B
:102738001306C003A6851305C4BB97E0FB1FE780FB
:10274800A0A99307C4BB03D7C70009E71307001064
:102758002396E70003C7E70001E705472387E7005B
:1027680003D7070101E76D472398E70003C7F70080
:1027780001E71547A387E70003C7270101E70547D6
:102788002389E70003C7370109E703C7F700A389CF
:10279800E70003C7470101E73547238AE70003C776
:1027A800970109E713078002A38CE70003C75701C5
:1027B80009E71307D002A38AE70003C7840109E7E2
:1027C8001307C003238CE7009C5791C78297B7274C
:1027D80000202396A7B665338147B240224492442D
:1027E8003E854101828089473E858280B727002047
:1027F80083A707C0011106CE22CC26CA4AC84EC6F6
:10280800829793070064B335F50237290020130433
:1028180049B68359840281464E863305F502EF9006
:10282800C22B004CAA84014563049402130949B6DB
:1028380033858440636C94004E868146370500B02A
:102848009305E041EF906229018D2695232C99008C
:10285800F2406244D2444249B24905618280011182
:1028680022CC2E84B7C506000A854146938505F318
:1028780006CEEF900260180806043A94B7270020A5
:10288800035504FF83D7E7B8F2406244AA97374557
:102898000F00130505243355F50205618280B7271B
:1028A800002083D7E7B851471D45637CF702794775
:1028B80019456378F7021307200315456373F70278
:1028C8001307B0041145637EF700130740060D4552
:1028D8006379F7001307600909456374F70013B5B6
:1028E800B70F8280011122CC06CE2A842EC6EFF0C3
:1028F8008FDBB245F240818D33A5A5022295624453
:102908001375F50F05618280011122CC06CE2A8449
:102918002EC6EFF04FD9B245F240818D33A5A502FE
:10292800229562444205418105618280011122CCD1
:1029380006CE2A842EC6EFF00FD7B245F240818D1D
:1029480033B5A5022295624405618280B72700202D
:102958001387C7BB18572DC3411122C426C24AC0CA
:1029680006C61389C7BB0297B7270020138747B647
:10297800035787002A84938447B60DCBBA876373BD
:10298800A700AA87C207C183BA866373E400A28638
:10299800C206C182958F5147635AF7008327C9023F
:1029A80091C38297EFF0914223948400B24022446D
:1029B80092440249410182808280B7270020138710
:1029C800C7BB5857011122CC06CE1384C7BB01C719
:1029D8002AC602973245B7270020938747B637277C
:1029E800002015C1B7863200938626A194D72320EC
:1029F800A7C0372504001305457F813EF240624495
:102A080001450561828083466401139686016186CB
:102A180063550602B7863200938626A123AE0700C7
:102A280094D7B7C70040FD5623A4D726B707002080
:102A38009387C75D2320F7C06DBF13F6160019CA28
:102A4800B7862003938606D094D7B70700209387CC
:102A5800E760CDB761762394C70291C6930600322A
:102A68002395D702DDB793062003DDBF011122CCE1
:102A7800372400209307C4BB884706CE26CA4AC815
:102A880001E90545F2406244D24442490561828029
:102A98001304C4BB5C58F5D7185C65D7700085452E
:102AA80082971844B247E30EF7FC0355C400930518
:102AB800E004B724002097D0FB1FE7802058138735
:102AC80044B608D3938444B64DDD0356C400930539
:102AD800F00F014997D0FB1FE78080738347E4001C
:102AE8009050634DF900328597D0FB1FE780406115
:102AF800014523A0040223A2040269B78355C40038
:102B08000844185CB3872503898105093E9508C2E6
:102B18000297E9B7411122C4372400209307C4BBA8
:102B28009C4726C206C6B72400204AC0938444B6F0
:102B380091EB88503DE1B24022449244024901455C
:102B4800410182801304C4BB1C5CE5D79C5091EB07
:102B58000355C4009305E00497D0FB1FE780004E9F
:102B680088D0885079D50356C4009305F00F0149E1
:102B780097D0FB1FE780C0698347E4009050E35A71
:102B8800F9FA8355C4001C44338525038981050956
:102B98003E951C5C08C28297C5B797D0FB1FE7809B
:102BA800205623A0040223A2040271B701114EC6C5
:102BB800B72900209387C9BB9C4726CA4AC852C474
:102BC80006CE22CC56C25AC02A8AAE843289638C79
:102BD800071E9389C9BB03A74903630207127D47F0
:102BE8006361A71237240020130744B6832A07021B
:102BF800130444B6639A0A0803D5C90095659385FA
:102C080015E097D0FB1FE780604308D02A8665C986
:102C180083D5C90083A7490303A5890089818297C1
:102C280083A78900832A04025CD089476316FA08BF
:102C3800C1476396F40C83D5C9009147938505FC79
:102C4800B3C5F5028A05D69503C705009307A00505
:102C58006313F70A83C71500639F47094A852686C9
:102C6800910597D0FB1FE78020571C50568563932A
:102C780057130145F2406244D2444249B249224ABC
:102C8800924A024B056182805850E380E7FA03D5E7
:102C9800C9009565938525E097D0FB1FE780003A2A
:102CA800AA8A31CD83D5C9002A8683A7490303A5FB
:102CB80089008981829795BF8D47631BFA00C147B8
:102CC800639FF40283D5C900938545FDF199A5BF9B
:102CD80091476318FA006394440383D5C900A1158A
:102CE800F5B7C147631DFA00A14763EA970083D58A
:102CF800C900C115E1BF1C5056856391570D294580
:102D080095BF1307F006636CA708930A05FE1947D9
:102D1800B3CAEA0203D7C900372B0020B38AEA02F4
:102D2800BE9A93074BB6DC53130B4BB6639557010A
:102D380003240B021DE003D5C9009305E00497D0D6
:102D4800FB1FE780A02F2A845DD983D5C90083A7FC
:102D580049032A8689815685829791451307A005DC
:102D6800898193972500A29783C607006393E60499
:102D780083C61700639C460385058A052686A295A7
:102D88004A8597D0FB1FE780204583270B02E38203
:102D980087EE228597D0FB1FE7808036D9BD1307C1
:102DA800E007E36EA7F4930A05F9ADB783D52700CA
:102DB80045BF83270B02E38487F4228597D0FB1F46
:102DC800E78000342DBFB727002083A547B885D9F1
:102DD80091479306A0058983139727002E970346EA
:102DE8000700E31ED6F003461700631C460185075B
:102DF8008A072686BE954A8597D0FB1FE780C03D87
:102E08008DBD83572700C1BFB72700209387C7BB55
:102E1800984729C3985F1DCF8546631DD502411188
:102E280022C437240020130444B6105006C619CE15
:102E380083D5C700485089810297085097D0FB1F57
:102E4800E780002C2320040223220402B2402244FB
:102E5800410182808280011122CC3724002093070F
:102E6800C4BB56C283AA870026CA4AC84EC606CE25
:102E780052C42A89AE84B2891304C4BB638B0A1C6A
:102E88001C5C99EB2945F2406244D2444249B2495C
:102E9800224A924A056182805C58EDD7FD4763E774
:102EA800A70C372A002093074AB69C53130A4AB640
:102EB800B9C7084483274A02639FA7048947631751
:102EC800F906C147E390F4FC0355C4009147130584
:102ED80005FC3345F5029317250003250A022686CB
:102EE800CE853E959307A0052300F500A300250194
:102EF800110597D0FB1FE780202E014569B70355C0
:102F0800C4009305E00497D0FB1FE780201323201B
:102F1800AA0245F185BF8355C4005C5803260A02FE
:102F2800898182971C442322FA0249BF8D47631C7A
:102F3800F900C147E398F4F40355C400130545FDAF
:102F48009377C5FF59BF91476318F900E39C24F3B1
:102F58000355C4002115EDB7C147E315F9F2A147A0
:102F6800E3E297F20355C4004115D9BF9307F00671
:102F780063E9A706930705FE1947B3C7E702035796
:102F8800C400372A0020B387E702BE9A93074AB6DF
:102F98009C53130A4AB6A9CF83274A026396570758
:102FA80003250A0291461308A005FD5593D726006C
:102FB800C207C183139727002A97034607006314A3
:102FC80006078348170003562700639C2805B306A5
:102FD800D64063C6960485078A072686CE853E9521
:102FE80009BF9307E007E3EFA7E8930705F941BF97
:102FF8000355C4009305E00497D0FB1FE780000445
:103008002320AA0251F9BDBD8355C4005C5803268C
:103018000A0289815685829723225A0351B7A30051
:10302800B700B28661B70356C400B3859600910510
:10303800130606FCE3F8C5E4138634001376C60FBE
:103048001106B29623000701A30027012311D70018
:1030580059B7372A002093074AB69C53130A4AB631
:10306800A1C303250A0291461308A005FD5593D76D
:103078002600C207C183139727002A970346070033
:103088006312060583481700035627006398280132
:10309800B306D640E3D196F4A300B700B286C1BF09
:1030A8000345E4008357C4009305E0043305F502A3
:1030B8004205418197D0FB1FE78040F82320AA02F0
:1030C8004DF1C9B30356C4008345E400B385C50276
:1030D800338696001106E3E7C5DAB9BF0145828059
:1030E80083C705002300F50083D72500A300F5005A
:1030F80083D72500A1832301F50083C74500A301D9
:10310800F50011458280B727002023AA079CB7271E
:10311800002023A8079C828029C1411126C206C627
:1031280022C4AA8401458DC52E84B7C50600228510
:103138004146938505F497D0FB1FE780E00983C7D4
:10314800040005452306F40083C71400A306F40011
:10315800B24022449244410182800145828001119B
:1031680022CC26CA06CE0947AA8432846381E504A4
:1031780041468147639BC500638FE6006397B600AD
:103188000DA841478147638EE600F2406244D2446D
:103198003E85056182808A852285BD3F41468A85B4
:1031A80019A88A85953F41468A85228531A0E39AE8
:1031B800B6FC2E86A285268597D0FB1FE780A00A3D
:1031C800AA87E1B7B727002023A8A79C8280B72742
:1031D800002023AAA79C8280011122CC03546500F9
:1031E80006CE26CA4AC84EC641C083298500AE8489
:1031F8002A8803C909008147131789016187635524
:103208000702B147054563FA870451144204035580
:103218002800418033878900A2864E868545EFC005
:10322800400DB337A00085077D141355690042048B
:1032380005891379F90341802380F400A380A40051
:103248002381240123928400014719C013871900A0
:1032580098C409476383E7000145F2406244D244B9
:103268004249B249056182800545C5BFC167F91762
:10327800630AF502D94763F7B702011122CC2EC6BB
:1032880006CE2A84EF90004CB2456368B5002285CB
:103298006244F24005616FA0D06DF240624405457A
:1032A8000561828005458280C167F9176314F500BE
:1032B8006F904049411106C6EFA0705A11E15D4573
:1032C800B2404101828091476394F502834705002B
:1032D8002300F6008347250003471500A207D98F6E
:1032E8002311F6008347350001452302F60082804A
:1032F800114582804111814522C426C206C6AA848E
:1033080005252A8409E9B727002083A7079D81C7D7
:10331800F945268582972285B2402244924441018C
:10332800828039714ED656D25AD006DE22DC26DA91
:103338004AD852D4AA8A2E8BB28941EF36C6AD3705
:103348009145EF90E051AA844D492DC9B246054AEE
:10335800238034010544630A0B00B68513851400E5
:10336800029B0505131405014180E20993D989419F
:1033780063D30902C1455685EFA0B05C654905E9EC
:1033880033868400A2852685EFB0D03B2A8905E1E3
:1033980031044204418091472C085685231CF100D2
:1033A80026CE231D8100EFA0C0622A8901C96307C8
:1033B8000A00268597D0FB1FE78080D4F25062541C
:1033C8004A85D2544259B259225A925A025B216113
:1033D8008280BA84014AADBF011122CC26CA4AC8EC
:1033E8004EC606CE2A893284B689253FAA840DE1C5
:1033F800B727002083A7479D81CF05476317E400BF
:1034080003C4090005041374F40FA2854A85829742
:10341800F240624426854249D244B249056182801D
:10342800AE86B7350400014705469385850E6DB70E
:1034380083D705002300F50083D70500A183A300E7
:10344800F5000945828083D705002300F50083D75E
:103458000500A183A300F50083D725002301F5000B
:1034680083D72500A183A301F5001145828083D766
:1034780005002300F50083D70500A183A300F5000C
:1034880083D725002301F50083D72500A183A30155
:10349800F50083C755002302F50083C76500A30222
:1034A800F50003D58500190542054181828083D73F
:1034B80005002300F50083D70500A183A300F500CC
:1034C8000945828083D705002300F50083D70500CE
:1034D800A183A300F50083D725002301F50083D736
:1034E8002500A183A301F5001145828003D545007D
:1034F800060542054181828083D705002300F50037
:1035080083D70500A183A300F50003D5250009058D
:1035180042054181828083D705002300F50083D7C7
:103528000500A183A300F50083D725002301F5003A
:1035380083D72500A183A301F50003D54500110514
:1035480042054181828083C705002300F5000545B7
:10355800828083D70500411122C406C62300F500E6
:1035680083D705002E841105A183A30EF5FE83D70A
:1035780025009505230FF5FE83D7D5FFA183A30F5B
:10358800F5FE03C6F5FF97D0FB1FE780E0C40345AF
:103598004400B24022441105410182808947639C5E
:1035A800F50083471500034705000145A207D98F99
:1035B8002310F60082801145828003D70500D94781
:1035C80063FEE702011122CC06CE2EC62A84EF90B4
:1035D8006017B24683D70600636DF5002285624402
:1035E800F240B735040001470946938585430561D4
:1035F8000DBBF2406244094505618280094582801D
:1036080091479DC583460500FD15C2058547C181C3
:103618006392F60213D725008D89914791E9914766
:1036280001CB05052301D6002310E60048C28147D7
:103638003E85828009479147E39CE6FEC94733D718
:10364800F502B3F5F502D1BFAE86B73504000147E0
:1036580011469385E544F1B193F7350091EB8981E3
:10366800914789C52310B60048C281473E858280AC
:103678009147EDBF03C745008947631AF702011157
:1036880022CC2A84C84506CEAE86014719C52EC667
:103698009D45EFE08FD5B2462A8722856244F240E5
:1036A800B735040019469385654705619DB90945F5
:1036B800828099E1114582808347050005472311DF
:1036C800F600E379F7FEFD1593F5F50F33D7F5020C
:1036D800B387E702E390F5FE050548C22310E6002C
:1036E8000145828083C745000947AE866385E700A8
:1036F80041476399E700B7350400014721469385A0
:10370800A55505B1094582802310B60091E1014510
:1037180048C201458280AE86B73504000147294674
:103728009385654BFDBE2310B60091E1014548C263
:1037380001458280AE86B73504000147314693853E
:10374800C54CC5B62310B60091E1014548C20145F4
:10375800828003D74500854763FDE702011122CC2B
:103768002A84884106CE0DC12EC68545EFE0EFC7F5
:103778002A8722856244B246F240B73504003946AA
:103788009385454F056171BEF24062440945056164
:1037980082800945828091479DC5034705008D4673
:1037A800914763F2E602FD15C205C181B3C6E50281
:1037B8003308D7026399050105052310D6002311A4
:1037C800E60048C281473E85828083C74500094795
:1037D800AE866385E70041476399E700B735040083
:1037E800014741469385A5552DBE09458280B335CD
:1037F800B000139525008280011122CC26CA06CE7E
:1038080003C785008547AA842E8449466310F702BA
:10381800613C8357240049151306200963C8A70093
:10382800F2406244D244094505618280034794000E
:1038380085476314F70013660604484011C58D4593
:1038480032C6EFE08FBA3246A2866244F2402A8737
:103858002685D244B7350400938505500561D1B457
:103868008D4763FFB7028347150003470500F1152D
:10387800A207D98F2310F600834735000347250098
:10388800C205A207C181D98F2311F6002312B60001
:1038980089C5110508C60145828023240600E5BFB5
:1038A80011458280011122CC2A84884506CEAE8635
:1038B80011C52EC69545EFE04FB3B2462A8722853B
:1038C8006244F240B735040059469385E5510561D5
:1038D80089BCB335B000139525008280AE86B73514
:1038E8000400014761469385E55425BC8547114589
:1038F80063F4D7028347160083450600A207CD8FDD
:103908002310F7009387E6FF2311F70089476386A2
:10391800F600090650C30145828023220700E5BF4F
:103928000147814679468145EDBA83D705002300D2
:10393800F50083D70500A183A300F500094582801F
:1039480083C7250005472300F50003D505006397C5
:10395800E7000A050505420541818280C94733050C
:10396800F502CDBF03D505000A05420541818280D5
:1039780083D725002300F50003D5050083D725004C
:103988003305F502050542054181828003D505000E
:10399800828003D50500828003D50500828083D705
:1039A80025002300F50003D5050083D7250033053E
:1039B800F502050542054181828083D70500230071
:1039C800F50083D70500A183A300F50083D7250060
:1039D8002301F50083D72500A183A301F50003D5B2
:1039E8004500110542054181828083D705002300E7
:1039F800F50083D70500A183A300F50003D52500B2
:103A0800090542054181828089471145639BF6007B
:103A180083471600834606000145A207D58F231069
:103A2800F700828003D70500D947AE8663F9E7001F
:103A3800B745040001470D469385259371BA09459A
:103A4800828011456393A6028347160083460600C9
:103A58000145A207D58F2310F70083473600834618
:103A68002600A207D58F2311F700828083C725007F
:103A78000547FD1793F7F70F6361F70483D7050030
:103A88008DCF011122CC2A84C84106CE15C12EC67D
:103A98008945EFE08F952A8722856244B246F24035
:103AA800B745040015469385859405616FF0DF924C
:103AB800F240624409450561828009458280954744
:103AC800114563F9D706411122C426C24AC006C669
:103AD80083471600BA8403470600A2073284D98FA9
:103AE8002390F400834736000347260093054400DB
:103AF800A207D98F2391F40089472382F40009464D
:103B080013855400368997C0FB1FE780E06C930744
:103B1800A9FF2394F4009947631BF90023A6040026
:103B2800B24022449244024901454101828019046D
:103B3800C0C4FDB7828083D705008DCF011122CC88
:103B48002A84C84106CE15C12EC68545EFE0EF8907
:103B58002A8722856244B246F240B74504001D46D2
:103B68009385C59605616FF03F87F2406244094529
:103B7800056182800945828099476395F6048947E3
:103B8800411106C62302F700834716008346060044
:103B9800B285A207D58F2310F700834736008346E6
:103BA800260003464700A207D58F130557002311A7
:103BB800F700910597C0FB1FE7800062B2400145FE
:103BC80041018280D14711456394F600C1474DBF3A
:103BD800828083D705008DCF011122CC2A84C84169
:103BE80006CE15C12EC68945EFE02F802A8722858B
:103BF8006244B246F240B74504002546938585974E
:103C080005616FF06FFDF2406244094505618280ED
:103C18000945828089471145639BF6008347160052
:103C2800834606000145A207D58F2310F70082803E
:103C3800011122CC2A84C84106CEAE86014719C597
:103C48002EC68545EFD07FFAB2462A872285624480
:103C5800F240B74504002D469385459905616FF0FC
:103C6800AFF711456393A602834716008346060003
:103C78000145A207D58F2310F700834736008346F6
:103C88002600A207D58F2311F7008280011122CCCC
:103C98002A84C84106CEAE8611C52EC68545EFD00A
:103CA800DFF4B2462A8722856244F240B745040011
:103CB80035469385A59905616FF00FF293F71600C5
:103CC800114589EB89476387F60085822312D7005F
:103CD80010C301458280011122CC2A84C84106CE36
:103CE80015C12EC68545EFD05FF02A87228562442C
:103CF800B246F240B74504003D469385059A0561F2
:103D08006FF08FEDF240624409450561828083D7E8
:103D180005008DCF011122CC2A84C84106CE15C1D9
:103D28002EC68945EFD07FEC2A8722856244B246A9
:103D3800F240B745040045469385659A05616FF0E2
:103D4800AFE9F240624409450561828009458280F5
:103D5800854763FCD7022304A700A304B700834761
:103D6800160083450600A207CD8F2310F70093871E
:103D7800E6FF2311F70089476386F600090650C35A
:103D88000145828023220700E5BF11458280014753
:103D980081464D4681456FF02FE48D47114563FB01
:103DA800D7028347160083450600A207CD8F23104C
:103DB800F7008347360083452600A207CD8F2311DD
:103DC800F7009387C6FF2312F7006386A600110643
:103DD80010C70145828023240700E5BF011122CCCA
:103DE8002A84884506CEAE8611C52EC69545EFD0E5
:103DF800DFDFB2462A8722856244F240B7450400D5
:103E08005D469385259C05616FF00FDD854711455B
:103E18006397F6008347060001452300F700828078
:103E280001478146654681456FF00FDB011122CCC1
:103E38002A84C84106CEAE86014719C52EC68D45CF
:103E4800EFD0BFDAB2462A8722856244F240B745EE
:103E580004006D469385259F05616FF08FCC011195
:103E680022CC2A84C84106CEAE86014719C52EC683
:103E78008D45EFD09FD7B2462A8722856244F2400B
:103E8800B745040075469385259F05616FF06FC996
:103E9800011106CE2EC6EFA0A01801C9B245F24006
:103EA8000355250005616FE00066F240494505614C
:103EB8008280B7270020A38007A0B727002023808F
:103EC80007A0B727002023A4079EB727002023A612
:103ED800079EB727002023A8079EB727002023AAFC
:103EE800079EB727002023A2079EB727002023A0FC
:103EF800079EB7270020239207C29306403893876E
:103F080047C22391D702F1761307400B938606B870
:103F18002391E7002392D70211679D4613060005F7
:103F28009305000A1305007D2392E7002393D70227
:103F380041478546130810F82395E7002396E700C4
:103F48002399E700239AE700239BE700239CE700D7
:103F58002394E702239607032393B7002394B7001B
:103F68002397C7002398C700239DA700239E070017
:103F7800239F0700239007022395D7022397070260
:103F88001308F007239807022392E7042393E70412
:103F9800239FE7042390E7062391E7062392E70689
:103FA800239907031307C01C239AD702239BD70220
:103FB800239C0702239D0702239E0702239F0702D3
:103FC800239007042391D704239407042395070417
:103FD8002396D7042397C7042398C7042399A704D3
:103FE800239A0704239B0704239C0704239DC704E3
:103FF800239EC7042393A706239407062395070641
:10400800239607062397B7062398B706239907062A
:10401800239AE7065147239DE7067D57239B07060A
:10402800239C0706239ED706239F07062390E708AD
:104038008280011126CAAA84214522CC06CE2E846C
:1040480032C636C43AC2EFD07FC21DC9A246124753
:104058003246930700FD2300F5009947A300950019
:104068002301F5002303D500A303E5002312C500AF
:10407800AA8522856244F240D24405616FD01FCAE6
:10408800F2406244D24405618280B727002023A40D
:10409800A79E8280B727002023A6A79E8280B727E5
:1040A800002023A8A79E8280B727002023AAA79EC6
:1040B8008280011122CC4AC806CE26CA2A89014428
:1040C800B30489006368B400F2406244D2444249B0
:1040D800056182802EC6EFD01FDD93170501C183CD
:1040E800A183B2452380F4009307140093F7F70FD8
:1040F800850463F9B700CA9709042380A7001374DD
:10410800F40F7DBF3E847DBF411122C437240020B7
:10411800130444C003556400C16706C6FD17630F46
:10412800F500B727002003C6C7D4B725002093851C
:10413800859FEF90F04CFD572313F400B2402244C2
:104148004101828009C925151375F50F1335850EB0
:104158001345150082800145828023900500C9C659
:10416800797122D426D24ECE52CC5AC806D64AD01D
:1041780056CA5EC63684328AAE892A8B814463F376
:104188004407B307940083C7070013891400420942
:10419800939A070193DA0A011359090163840A04FF
:1041A800CA976341FA04B307240183CB07005E85ED
:1041B800513F0DC99387FAFF2390F90063906B0371
:1041C800130519002295B250225492540259F2490B
:1041D800624AD24A424BB24B45618280D694C204AD
:1041E800C18071BF0145C5B701458280011122CC4C
:1041F8003724002026CA4AC84EC6930744C006CEB4
:104208002E89D0CB8CCBC8C7AA8441469305F00F22
:104218004A8597C0FB1FE780A0098549130444C05D
:10422800631935030848C145693541469305F00FC0
:10423800268597C0FB1FE780A0070549631525035E
:1042480048446244F240D2444249B249C1450561FA
:104258008DB5414681454A8597C0FB1FE7804005DB
:10426800E31535FDC1B741468145268597C0FB1F3B
:10427800E7800004E30625FDF2406244D244424947
:10428800B24905618280411122C43724002026C228
:104298004AC0AE842A89130600028145130544C02A
:1042A80006C697C0FB1FE780A0F6930744C0A3810A
:1042B8002701B7270020238897D4EFE000278547F8
:1042C80019C1814749452302F4C0B24022449244AF
:1042D800024941018280814781CD19C98547631B05
:1042E800F50083C7550093E707FCA382F5008547CF
:1042F8003E85828089476317F50083C7550093F789
:10430800F703E5B70D478547E314E5FE03C75500F6
:104318001377F70313670704A382E500D1BF81472A
:104328008DC105C103C755009306000C8547137757
:10433800070C6308D700930600048D476303D70072
:1043480089473E858280411122C4005D06C626C287
:104358001DC8AA84085009C597C0FB1FE78040DA2A
:10436800485009C597C0FB1FE78080D9085409C584
:1043780097C0FB1FE780C0D8228597C0FB1FE78046
:1043880020D823AC0402B2402244924441018280E6
:1043980019E9B727002083C767C091C737250020D0
:1043A8001305859D8280372500201305C5C18280AD
:1043B800B727002003C567C08280B727002003A560
:1043C80007C18280B727002003A547C18280B7278D
:1043D800002083A787C188438280B727002093875E
:1043E80047C0D44B9842050798C203C537009307C6
:1043F800F00F6305F50091656FD09FD3828001119E
:1044080022CC06CE2E8432C6EF9030529147B24568
:104418006310F502B727002083A7479F95C303A31E
:104428000700630F030022856244F240056102839E
:10443800B727002083A7C79E81C703A34700D5B726
:10444800F2406244054505618280011122CC2A842C
:104458000355450006CE26CA4AC84EC6EF90102B13
:1044680025CD2A89834405008349C500E93D4A854D
:10447800EFA0C00A03554400EF907046372900208A
:10448800130909A083470900A1CF639B9704B727A5
:10449800002083C517A02685EFF09F9F19E1230010
:1044A800090003554400EF9050489147631FF500F9
:1044B800B7270020938747C08356440003D7670077
:1044C8006395E6007D572393E700F2406244D244A7
:1044D8004249B2490561828081499304F00F79BF4E
:1044E8009307F00FE38FF4FA834664000356440001
:1044F800034524004E87A6852D3E65B779715EC6B3
:10450800AA8B2E8552CC56CA5AC806D622D426D291
:104518004AD04ECEAE8A328B368AEF90301F7DC19C
:10452800045D2A89E5C09C50614599C31305400381
:104538009C5481C751054205418163050A007105F4
:1045480042054181DC5081C7590542054181EFD0C0
:10455800EFF12A8445C96146814597C0FB1FE78072
:1045680020CBB727002083C947C563940900834936
:104578000900930700FD2300F400A947A300740174
:104588002301F400230364018C5023125401130502
:10459800840191C908C47146930A440397C0FB1F5C
:1045A800E78080C356858C5491C948C45146930A04
:1045B800450197C0FB1FE78020C25685630C0A009F
:1045C80008C87146D285930AC50197C0FB1FE780CA
:1045D800A0C05685CC5099C548C8594697C0FB1FFE
:1045E800E78080BFA2854E85EFD04FF32254B250AA
:1045F8009254F249624AD24A424BB24B4A85025916
:10460800456191B3B250225492540259F249624A18
:10461800D24A424BB24B4561828001114EC6AA89EB
:104628002E854AC806CE22CC26CA2E89EF90100EB7
:1046380021C9B727002083C447C599E083440500F2
:104648001945EFD0AFE22A8405CD8145194697C0B8
:10465800FB1FE780E0BB930700FD2300F400B94788
:10466800A30034012301F40023122401A28562442B
:10467800F2404249B2492685D24405616FD00FEA1B
:10468800F2406244D2444249B2490561828039719C
:104698005ECEAA8B2E8526DA4ED652D456D25AD062
:1046A80006DE22DC4AD8AE84328BB68A3A8ABE89C4
:1046B80042C6EF90B00521CD2A894145EFD00FDBE6
:1046C8002A8431C54146814597C0FB1FE78040B425
:1046D800B727002003C547C519E10345090093071B
:1046E80000FD2300F400BD472301F400B247A300F6
:1046F80074012312940023046401A30454012305C4
:104708004401A30534015CC4A285EFD02FE1F25027
:104718006254D2544259B259225A925A025BF24B0D
:1047280021618280797126D2AA8439454AD04ECE39
:1047380006D622D42EC6B2893689EFD02FD321C10E
:10474800B2459307000D2310F500B1472A842312C0
:10475800B5002301F500CE851905194697C0FB1F42
:10476800E78080A723062401A2852254B25002596B
:10477800F24913F5F40F925445616FD02FDAB25015
:10478800225492540259F24945618280411126C24D
:10479800B7240020938444C003C7340006C622C44B
:1047A8004AC09307F00F630CF7042A893945EFD004
:1047B800EFCB2A8429C5930700FDB72500202300E5
:1047C800F500A3002501230105009385C5C10D054A
:1047D800194697C0FB1FE78020A083D78400A285D5
:1047E80003C534002315F40083C714002306F4001E
:1047F8002244B2409244024941016FD02FD2B240C4
:104808002244924402494101828001115AC02A8BF4
:10481800314526CA4EC652C456C206CE22CC4AC814
:10482800AE84B28A368ABA89EFD04FC43DCD2A8485
:104838002685EF90A06D11C50347C500A1476314F5
:10484800F704B727002003C977C0930700FD2300AA
:10485800F4009D47A30064012301F400231294008F
:10486800231354012314440123153401A2856244FF
:10487800F240D244B249224A924A024B4A854249FE
:1048880005616FD0AFC9B727002003C917D5E31E4C
:104898000BFAB727002083A7C7AB9C47DDD7CE8686
:1048A8005286D685268582974DB7F2406244D24417
:1048B8004249B249224A924A024B0561828001115B
:1048C80022CC2A84214506CE2EC6EFD02FBA21C18C
:1048D800B245930700FD2300F500C5472301F50005
:1048E80083C73500A301F50083D745002312F500DF
:1048F80083C765002303F50083C77500AA85A30352
:10490800F50022856244F24005616FD02FC1F24064
:10491800624405618280397162CC2A8C594526DA55
:104928004AD84ED652D456D25AD05ECE06DE22DCB3
:10493800AE8432C636C4BA8B3E8BC28A468A835945
:10494800010403494104EFD06FB225C932469307E9
:1049580000FDA2462300F5009547A301C500A3006A
:1049680085012301F5002A8419461105A9C2B685D7
:1049780097C0FB1FE780408623066401230A2401B1
:1049880023157401231754012318440123193401F2
:10499800A2856254F2504259B259225A925A025B85
:1049A800F24B624C2685D25421616FD02FB78145D6
:1049B80097C0FB1FE780C085C1B7F2506254D2543C
:1049C8004259B259225A925A025BF24B624C216107
:1049D8008280411122C437240020130444C0834735
:1049E800240006C626C28DCBB7240020AA85194606
:1049F8001385849D97B0FB1FE780007E0345240044
:104A08009385849DEFF03F8D2244B2401385849DA9
:104A1800924441016FD03032B24022449244014561
:104A280041018280411126C2B7240020938744C0E7
:104A380006C622C44AC003C737009307F00F938401
:104A480044C06304F7042A892945EFD02FA22A8499
:104A58000DCD930700FD2300F500A147A300250114
:104A68002301F50083C72400B72500209385859D81
:104A7800A301F5001946110597B0FB1FE780C07523
:104A880003C53400A285EFD06FA903C724008D4762
:104A98006311F702B727002083A7079F99CB03A3C9
:104AA8008700630803002244B2409244024941014E
:104AB8000283B240224492440249410182807971C2
:104AC80022D406D626D24AD04ECE52CC56CA094453
:104AD8005DCD2A8903550500AE895144EF90004306
:104AE800AA8455C5372700209307C7D483C7470032
:104AF8008546BA8AFD1793F7F70F494463F9F60814
:104B08000347C500A1476314F700639209089C5C3A
:104B18004544B5EF9165938545711305C00297B07B
:104B2800FB1FE780A05188DC2A8A4D442DC113065B
:104B3800C002814597B0FB1FE780806D835709004D
:104B480093064A0036852311FA00714693054900F9
:104B580036C697B0FB1FE780206889472300FA0014
:104B680003C5C400B2460356090083C5CAD46115FB
:104B780013351500EFA0C06B2A8463860900CE8523
:104B88002685EF90504901C42685EFF0CFFB22859A
:104B9800B250225492540259F249624AD24A4561AB
:104BA8008280B727002083C707D50547FD1793F7ED
:104BB800F70F637AF708894741CA011122CC26CA40
:104BC8004AC84EC652C406CEAA89368AB2842E89ED
:104BD800EF90C0332A84D14739C9485509C597B0E1
:104BE800FB1FE780E051F145268597B0FB1FE78062
:104BF800806448D4CD4705CD8346C400214781470A
:104C0800639FE600630D0A000347A50103560501EB
:104C180093062501AA854E85EF909047AA870347FA
:104C28004400630F0900136767002302E400F240A1
:104C38006244D2444249B249224A3E850561828093
:104C480013674700DDB7C9473E8582809307F003A5
:104C580063EBA700B7270020938747C206053E9558
:104C680003550500828041657D158280011122CCA3
:104C78002A842E8526CA06CEAE84EF9020291DCD23
:104C8800B7470F009387F723094563E487028145F7
:104C98000A85414697B0FB1FE7808057A6852310F9
:104CA80081000A85418023018100A3010100EFA052
:104CB800C037F2406244D244056182804945D5BF7D
:104CC800B72700202387A7D482806FA080507971EE
:104CD80052CC2A8A328522D426D24AD04ECE56CAFF
:104CE8005AC85EC606D662C4AE8BB28A368BBA8400
:104CF8003E89C2894684EF90602115C92A8C6314C5
:104D08000A0213774B008347450015CF93E7270125
:104D18002302FC008DEC631C0902639A090205E872
:104D2800ED9B2302FC00832B8C0363910B08B2508C
:104D3800225492540259F249624AD24A424BB24B27
:104D4800224C45618280F59B93E70701D1B793E731
:104D580047002302FC0001CC1C484146A2852324BD
:104D6800FC0213058C0197B0FB1FE780E0466393B4
:104D78000B02D5D80325CC0209C597B0FB1FE780E5
:104D88002038F145268597B0FB1FE780C04A2326C7
:104D9800AC0251BFE30909F80325CC0209C597B055
:104DA800FB1FE780E035F1454A85F1BF9DC483A725
:104DB8000B0299EB916593853571714597B0FB1F8F
:104DC800E780C02723A0AB0203A50B0219C57146D3
:104DD800A68597B0FB1FE78020406388090283A758
:104DE8004B0299EB916593852571594597B0FB1F47
:104DF800E780C02423A2AB0203A54B0219C559467C
:104E0800CE8597B0FB1FE780203D1DC483A78B028A
:104E180099EB916593851571514597B0FB1FE78014
:104E2800E02123A4AB0203A58B0219C55146A28534
:104E380097B0FB1FE780403A2254B2509254F2498F
:104E4800B24B224CCA865A860259424BD6855285A5
:104E5800D24A624A45616FF06FEA011126CA52C40C
:104E680006CE22CC4AC84EC62A8AAE84EF90000AE3
:104E780025C5AA893945EFC07FDF2A8431CDB727F8
:104E8800002003C947C56314090003C90900930733
:104E9800000D2310F400AD472301F4009385690049
:104EA80013053400194697B0FB1FE780E03293F7EB
:104EB8001400858085882306F400A3069400231532
:104EC8004401A2856244F240D244B249224A4A854A
:104ED800424905616FC09FE4F2406244D2444249AE
:104EE800B249224A0561828001114EC652C456C297
:104EF80006CE22CC26CA4AC8AA8A2E8AB289EF9040
:104F0800E0002DCD2A891305C002EFC03FD62A84C0
:104F180035C5B727002083C447C599E083440900F5
:104F28009307000D2310F400E9472301F4009305CB
:104F3800690013053400194697B0FB1FE780C029A4
:104F4800D285231554011305C400414697B0FB1FB1
:104F5800E7808028CE851305C401414697B0FB1F22
:104F6800E7808027A2856244F2404249B249224A3A
:104F7800924A2685D24405616FC05FDAF2406244E6
:104F8800D2444249B249224A924A0561828041117B
:104F980022C4372400201304049E084006C619C5FD
:104FA80097B0FB1FE780C01523200400B2402244BD
:104FB80041018280011106CE22CC26CA4AC82EC6DB
:104FC800EF80D07439CDB245B727002003C947C553
:104FD8000CD5AA8463140900034905004145EFC0B4
:104FE800FFC82A841DCD9307000D2310F500A5479F
:104FF8002301F50083C75400938564001105A30FAE
:10500800F5FE194697B0FB1FE780001D9C54A2854A
:10501800F2405CC46244D2444A85424905616FC08B
:10502800FFCFF2406244D2444249056182801D713B
:10503800A2CC86CE2A842EC6EF80506D05CD83463D
:10504800C5001147AA8749456392E6029C5FB245AD
:1050580099C383C56701B70605002308B100938685
:10506800861F100889452285EF90A071F640664496
:10507800256182805145DDBFB727002083C707D54A
:105088000547FD1793F7F70F637AF704894721CA95
:10509800411122C426C24AC006C6B2842E89EF80B6
:1050A800F0662A84D14705C563080900834745008F
:1050B80093E727002302F5004146A68513058401DE
:1050C80097B0FB1FE78040119C481CD48147B24031
:1050D8002244924402493E8541018280C9473E8567
:1050E8008280797122D406D62A842EC6EF80106277
:1050F80001CDB2452285230EB1006C08EF90206ED9
:10510800B2502254456182805145DDBF6F80B07630
:10511800C1671387E7FF6395E502B727002083A7D8
:10512800C79E91EB494582804945B240224492444A
:1051380002494101828003A30700E30503FE0283BD
:10514800411122C426C24AC006C6FD172A892E84E8
:10515800B284639AF502B727002083A7C79E91CF30
:105168009C4381CF829711E9B7270020238027A18C
:10517800B7270020A38097A04DBFA6854A85EFE0FA
:105188003FD145F5D5B72E85EF80505851DD83477F
:1051980005000D45E39B27F922852244B2400249C8
:1051A800A685924441016FD000369307F00363E26D
:1051B800A7064111C16722C406C626C2FD172A8464
:1051C80009456382F502C547AE846313F4022E8550
:1051D800EFD0203B37250020130545C206042A944A
:1051E800231094000145B240224492444101828038
:1051F8009307A0036316F4002E85EFD08031D9BF42
:105208009307B003E318F4FC13F5F50FEFD0A030C3
:10521800D1B709458280011106CE2AC6EFE07FC9C1
:10522800EF20607EEF10701FEF608208B727002024
:10523800938747C0130700F02391E70023820700F4
:10524800B727002032451387C7D4FD562301D7005E
:10525800F2402386A7D4954505616F70C05A5971ED
:1052680093970501CAD086D6A2D4A6D2CECED2CCE8
:10527800D6CADAC8DEC6E2C4E6C2EAC06EDEC187B4
:105288002E8963DC0754B724002003C5C4D4B7298A
:105298000020372B0020EFC0DFA12A8426CEB72AB2
:1052A8000020372C0020938449C0B72C00201DE033
:1052B80021653345A900B650265496540659F64937
:1052C800664AD64A464BB64B264C964C064DF25D7E
:1052D80065618280834704001307200A639CE70006
:1052E80003CA340003552400C1652286FD15EFF07A
:1052F8000F918DA272471307C7D4034A27001307DB
:1053080010096395E716834714001547639FE70064
:105318002285EFF08F932285EFC09F92F24703C555
:10532800C7D4EFC01F992A8459B739476398E7163D
:10533800035544008567A5076315F5040C4483CB22
:105348000500639D0B00850591C937250020194686
:105358001305C5C197B0FB1FE78000E803C749C024
:1053680085476315F71063880B00238209C05E85A3
:10537800EFF0CFC14DB789472382F9C0EFD0601B4A
:1053880059BF896713872700631CE504832B8400B2
:10539800638E0B0C83C70B0089EF83C72B0003C7F1
:1053A8001B00A207D98F2394F40083C73B00A38076
:1053B800F40003C749C08947631AF70A83C70B007B
:1053C80091C7238209C003C50B005DB783C51400CC
:1053D80003D584008D472382F9C0EF70C045E5B737
:1053E80095076318F5001C4403C50700EFF08FE329
:1053F8001DB7F9771387A7FF2A974207418391467C
:1054080063F1E6049387A7FCAA97C207C183714793
:105418006371F70289671387B7006310E50483A7F0
:105428008A9EE38A07EE9C43A285E38607EE82976D
:1054380015A0370700181307F770B357F700858BC7
:10544800A1CB83270B9FE38807EC9C43E38507ECFC
:1054580022858297E31105EC11A81387C700631012
:10546800E5021C4483C70700E38707EA9307F00FA8
:10547800E303FAEAA2855285EFC05F8A45B5B9070A
:105488006318F50083A7CC9EE38707E8DC4369BF70
:10549800896793871704E304F5F8C9BF3D47639903
:1054A800E7040355440089671387D700E30CE5FC3C
:1054B80013879701E308E5FCCD07E319F5FA03D74D
:1054C8006400C167FD17631DF70083A7CC9EE384C2
:1054D80007E4DC43E38107E40965A2854D0581BF44
:1054E800B727002083A7479FE38707E29C43DDB7E0
:1054F8001307E003E39CE7F6834724000547639816
:10550800E70E8347640037270020930D079EE1E7E5
:1055180083A70D00D5CF83CB0700214A034574002C
:10552800130D8400EA85EFE09FDF83474401A3035E
:10553800A400835804010358E400035744002A8652
:10554800034534003EC283572401EA86DE853EC007
:10555800D287EFF04FBC8347340095E7DD47835887
:1055680004010358E40083467400835544003EC296
:10557800835724013EC06A87D28705465E85EF803F
:10558800D051A301A40083A70D0081C71145EFF0F6
:105598001FA0930B0CA003C50B00E30E05D6B7277D
:1055A800002083C517A0EFE0BF8EE30605D683462B
:1055B800340093071003638AF6000356440083C53A
:1055C8000B0052873685EFE0DFA623000CA0A1B3BD
:1055D80083CB340099B783270B9F83CB3400114AC0
:1055E80095DFDC4385DF81450145829705BF294763
:1055F8006390E70A8347640037270020930D079ECE
:10560800A5EF83A70D00B5C783CB0700214A034543
:105618007400130D8400937725001376150089E72D
:10562800EA85EFE0DFCF2A8683470402A303C4009C
:105638008358C4010358A4010357440003453400A8
:105648003EC28357E401EA86DE853EC0D287EFF08A
:105658008FAC8347340085FBDD478358C40103586A
:10566800A40183467400835544003EC28357E40175
:1056780011B783CB340059BF83270B9F83CB3400EA
:10568800114AD1D7DC43C1D781450145829741B73B
:105698000947639CE70083A78A9EE38E07C6DC431D
:1056A800E38B07C622858297BDB12D476398E70033
:1056B80083A78A9EE38107C69C47DDB70D4763979A
:1056C800E70022868D450355440015B119476395B7
:1056D800E7069305610213051031EF5012462C10AE
:1056E80013052031EF507245035664008357810239
:1056F8000355440063E8C7008356840003576102DA
:1057080063F7E60093050002EFC0B06629B1637441
:10571800E6002313E40063F4D7002314F4000357CE
:10572800C4008356A40003568400835564000148CE
:105738008147EFC0D063C5B61D47E389E7D231473B
:105748006395E7002286B145BDBF35476398E700FA
:1057580083A78A9EE38107BCDC4799B739476396DC
:10576800E7002285EF00F0077DB63D476398E70024
:1057780083A78A9EE38107BA9C4B1DB7414763966E
:10578800E7002285EF00101179B645476396E700D8
:105798000145EF00902041B64947639DE700832704
:1057A8000B9FE38507CCDC43E38207CC81450545A5
:1057B80082976DB94D47639CE70083270B9FE3876A
:1057C80007CADC43E38407CAA2850945D5B7614700
:1057D800E39EE7C82286E145FDB593F7150089CF1A
:1057E800B727002083A7879E89C7DC4399C3014553
:1057F800829713451900C1B493F7250091CFB727B5
:10580800002083A7079F91C7DC4381C781450545D1
:1058180082971345290045B493F745000145E38C69
:1058280007A8B727002083A7479E37240020130422
:1058380044C091CF85472302F400B727002083A7EF
:10584800079F91C7DC4381C7814505458297484436
:105858002C10EF90E0692810EFF0AF97B7270020E1
:1058680083D767C481CF130600643386C702B7277E
:10587800002003C5C7D49145EFC0DF9C13454900FC
:105888001DBC011122CC2A84554506CE26CAEFF04C
:10589800EFBBAA8413054002EFF04FBB2AC61305DD
:1058A8005002EFF0AFBAAA86228562443246F2402F
:1058B800B3359000D24405616FC01052797122D47B
:1058C80006D68D472E84631FF50003D7A50083D61F
:1058D800850003D665000345340083D54500EFE015
:1058E800DFF209A889671387D7006311E50403C5A8
:1058F800250019E58547B25022543E8545618280CE
:10590800B727002083A6079EF5D603C6360083C5B1
:105918000600814802C202C001488147014791063A
:10592800EFE07FFF0545EFF08FE6E9B71387E70063
:10593800E302E5FC13873701631AE50003C5250078
:1059480055D9014781460146814551BFE507E30323
:10595800F5FAB1476319F500B727002003C577C0EA
:10596800EFE0FFF541BF41677D178147E315E5F893
:1059780003C75500C947E31FF7F683D6E50003D6EA
:10598800C5000355840083D5A500EFC0704B41C9FD
:105998005D45EFF0AFAB3335A000231CA100834574
:1059A8004400035524003008EF80E0468357810106
:1059B800B1F36C0813051031EF5032189305E1016B
:1059C80013052031EF5072178357C1010357840024
:1059D8006374F7002314F4008357E1010357A4000C
:1059E80063F4E7002315F400835784000357A400E9
:1059F8006374F7002315F40003552400EF40B15DEC
:105A08000357E4008356C4000356A400835584005A
:105A18000355240001488147EFC03033E1BD854775
:105A2800231CF100ADBFB72700201387C7D48346D6
:105A380077001307F00F638CE60851C9411122C49F
:105A480026C24AC006C6AA840345A5001389C7D43E
:105A58004105EFC0AFA12A842DC59307000D23107F
:105A6800F500D9472301F50083D744002312F50038
:105A780083C764002303F50083C77400A303F500FC
:105A880083C784002304F50083C79400A304F500AA
:105A980003C6A4002305C50015C2CC44410548C46B
:105AA80097A0FB1FE7804073A28522440345790035
:105AB800B2409244024941016FC04FA62326050017
:105AC800E5B7B24022449244024941018280828073
