:020000021000EC
:100000006FC08212000000000018011800280128AB
:100010000228032800290129022903290429052986
:10002000062907290829002A012A022A032A042A64
:10003000052AA62A5CC90300861E01006A02002068
:10004000B40200202602002014020020DC0100205F
:10005000DE1F01000A200100502101005823010089
:10006000FC230100FC1C0100201C0100921C01006B
:100070004C1C0100B8290100FC030020B41F010042
:100080007C2601000E680300066A03007E6A0300F6
:10009000BE1E0300061F0300F05F0200465302006D
:1000A000C8610300B226010090280300F8E10100B6
:1000B00086E20100DEE2010076320100C232010078
:1000C0002C310100E09D01009A9801007EA70100FB
:1000D0004EAB0100FAAE0100BA8A0100588A010055
:1000E000448E0100068B01002E8A0100B28A0100B5
:1000F000E08901008A8B0100E28B0100928B0100F4
:10010000968B0100328C0100EA8B01001C8C0100EF
:100110004091010048910100868B01008E8B010007
:100120002E8C010044910100E08C0100B692010088
:1001300058BD0100D6BD010014BE010044A001005D
:100140005CA0010098A00100108401002E85010030
:10015000A485010080510100224C01001A790100A0
:10016000A04C01004674010006A60300389E03005F
:1001700042A3030060BB030026BA0300AABE03002B
:1001800062BE0300A2BE030052BF0300408C030006
:10019000E2BE030064B103008AB10300B2B1030000
:1001A000C2BF030020B80300B6B7030032C003008B
:1001B000DC8E0300788F0300A08F0300428F0300C2
:1001C000C2430300BC2D0300C23103001A2F0300F9
:1001D000AA3803006A6203004A610300748C0300BA
:1001E0007A2B01002E2003007028030068290300E9
:1001F0001A580300CC580300925A030048A4010087
:10020000F4420300323903008E3F0300F03B030049
:10021000702D030004060020F4200300CEBE03006E
:1002200066BE03009EBE03009ABE030004230100C5
:1002300096A10100D6BE0300BE450300224703007D
:100240009C470300A0A30300D2BE0300DABE030054
:10025000D2520200DEBE0300CA0F0020821400202A
:1002600080A3030020A503000000000000000000A0
:10027000000000000000000000000000000000007E
:100280006373B60082801C419105110523AEF5FE13
:10029000C5BFB7270020372700209387879A130709
:1002A00087F56373F700828023A007009107D5BF0D
:1002B0005DCDAA870145D5CD8D07C207C183F19BCE
:1002C000C207C18313074003636CF702372700207E
:1002D000032547AE372700208326C7AD6397A602C4
:1002E00037270020032747B7014541C74111C207FF
:1002F00006C60545DD8D0297B24001454101828069
:1003000037270020032507AEF1B70357650031EF0B
:1003100003574500636BF704B72600203306F74008
:1003200021489386C6AE6378C8028328050003D8A7
:100330006600138687001D8F2A9661172312E60038
:10034000232016012313060010C12312F500130702
:1003500088FF2393E6002313B50083D566002105AB
:10036000B387F5402393F6008280084185BF01459D
:100370008280828009CDB727002003A347AEB7272C
:10038000002083A8C7AD81469A8763E31701828066
:1003900003A807006369F50A6367A80A1387870043
:1003A000E367E5FE03D66700216705076319E600EA
:1003B000372600200347C6A30507230EE6A23726EB
:1003C00000201305C6AE83D547000357650023936D
:1003D00007001306C6AE2E97420741832313E5009C
:1003E0006387670237250020032505AE6301F50208
:1003F00003D5660009ED83D7460023A00601210737
:10040000BE95A1052392B6002313E600B687984354
:10041000E30F17F7B726002083A606AEE309D7F649
:1004200083566700ADF683D64700835547001843CF
:10043000A106AE962392D70098C383576600A10702
:100440002313F6008280BE86C28781B719CD91CD75
:1004500009CE81473387F500834607003307F5004F
:1004600085072300D700E317F6FE828019C991C9DA
:1004700009CA910583A7C5FF11057D16232EF5FE38
:10048000C5BF828001C919C62A960505A30FB5FE0E
:10049000E31DA6FE828081473307F50003070700AE
:1004A00019E33E8582808507C5BF01112E8626CAC5
:1004B000AA84131506019305F004418122CC06CECF
:1004C00032C6FD332A8401C53246A68541372285CE
:1004D000F2406244D24405618280854715C18DC1D6
:1004E00005C28147B306F5003387F50083C60600D1
:1004F000034707006398E6008507E315F6FE854786
:100500003E8582808147EDBF9307F6FFBE952A9610
:100510006313C5008280FD1583C715000505A30F71
:10052000F5FEFDB7AA87014581CF09CE3E96850726
:1005300003C7F7FF6317B700E39BC7FE054582803B
:10054000828001458280797126D2B724002022D48E
:1005500003A404B406D64AD04ECE52CC56CA5AC8CA
:100560005EC662C44DC8372A002037290020B7294B
:100570000020814BB72A002037CBC901130A4AB4A7
:100580001309C9AE938989B88357240099EF5C4455
:10059000639A0B0023A0F4B4032CC4002285D93B3A
:1005A0006284B9A823A6FB00C5BF83A78AB382973C
:1005B0001C443307F5406376F50003A749001D8FFF
:1005C0002A979306FB3763ECE60623280900835538
:1005D000240003450400972001E0E78080C75C40C9
:1005E0005844B1C70C4403A64900AE97BE8663E4E5
:1005F000B70063E4C700B386C74014C4A28B3A8433
:1006000041F4B72700209387C7AE984B894663FC17
:10061000E604791798CBB250225492540259F24909
:10062000624AD24A424BB24B224C4561828063956A
:100630000B0023A0E4B48DB723A6EB00B1BF0327C2
:100640004A0219CB63EDA7003385A7408327090130
:100650006374F5002328A900A28B404455B703A773
:100660004900BA97D5B723A8070075B701114AC842
:1006700037290020832789B106CE22CC26CA4EC650
:1006800052C456C281C78297232C09B0B7240020D8
:10069000938744E683C7570037240020938444E6B9
:1006A000858B130484B18DC3A382040083C77400B7
:1006B0001547637BF700EF00D04C83C77400F51734
:1006C0008A07A2979C4382971C4491C38297372440
:1006D0000020B72900209307C4AE03A7C9B303C6FF
:1006E0001700130AC4AE8347C4AE93961700BA9698
:1006F00083D60600C5C28347C4AE63E5C70A832715
:1007000089B1230604AE6391071083C7940081CF9B
:1007100083C7740093F7F70F99E7A3840400972029
:1007200003E0E780600CB727002083A787B3E9CFF9
:10073000B727002083A7C7B82328FA002935B72791
:100740000020938747B4D85361C383C75701032759
:100750000A01636BF70A83C7740015476366F70ADB
:10076000B7270020938747EA83C7C700918BC9EF5B
:1007700083461A0003A6C9B363C1D70A6244F24094
:10078000D2444249B249224A924A0561172301E004
:100790006700E3F3850793F7F70F2306F4AEE3E46E
:1007A000C7F491BF86073E978355070023100700C3
:1007B0000345C4AEB727002083A747B11317250010
:1007C000B72A0020BA979C43239A0AB2829783D70C
:1007D0004AB30347C4AE93C7F7FF7D8D9317170045
:1007E00003A7C9B33E97835707005D8D2310A70069
:1007F0008347C4AE81C785072306F4AE0347C4AE62
:1008000083471A00E37DF7EEF2406244D244424946
:10081000B249224A924A05618280139717003297A3
:100820000357070075F3850781BFAD6737C70040E1
:10083000BD072326F7200F100000B727002093875D
:10084000C7AEC84F83278726BD66BD0693C7F7FF8F
:1008500099836A052326D7205D8D82804111B717C1
:100860000040985F3AC6945F3247E39CE6FE32450B
:10087000410182801305F00F8280032785116300F8
:100880000712411122C406C68347C5008345E5040B
:100890002A8493F7C70F2306F50083469700035673
:1008A000C70013958601618563F1C508635A050683
:1008B0000345870093F6F607A304D700054693E6A1
:1008C00027006314C50093E617002306D4005C4399
:1008D00089075CC3A30AB400032504112E864C4388
:1008E0000905AD368327841103465401D44303D749
:1008F000C700B296118FD4C32396E7008947A30D92
:10090000F400B72700200347640383C767B5637803
:10091000F7048347C40093E707012306F40081A08E
:1009200093E717002306F40075B79376F60F635D1F
:10093000050203458700854513E627006314B500CB
:1009400013E617002306C400A30AD400A30407007B
:100950008547A30DF400832784119C43DDF3B24047
:10096000224401454101828093E717002306F400E9
:10097000A30AD400A3040700032504114C4309056E
:10098000F1348327841103465401D44303D7C700AD
:10099000B296118FD4C32396E7008D475DBF0545FE
:1009A0008280B727002083A747E3411122C406C6EF
:1009B000858B2A84DDEB4165130525F5977002E0F0
:1009C000E78020CB5DC18347A5002315F500832771
:1009D0000412B5E72320A4122322A4128547231171
:1009E000F404232005008347640154412316F500D5
:1009F0000347D4002304E5000547A304E500372797
:100A000000200327C7E71385170215811C437D15B6
:100A10001375F50F9CC25C43DCC21C479CC65C4747
:100A2000DCC61C4B9CCA5C4BDCCA1C4F9CCE5C4F8A
:100A3000DCCE19CD9386060213070702C1BF8327B8
:100A4000441288C3835724042322A412850741BF7C
:100A5000B7270020938787D003D787000507239403
:100A6000E700B2402244410182808347C400230949
:100A70000400054593C747002306F400DDB783470C
:100A8000850193F7E70FDDEB83479501C5EB03463F
:100A900025018346C50009CA372700208345650321
:100AA000034777B563E7E50013F7060149CB014734
:100AB00009C6C18A0357651C81C68356A51C369793
:100AC0003DCFB727002003D507B91307C712374614
:100AD0000F00B335A702411113060624814622C434
:100AE00026C206C67D543305A70297C003E0E780FF
:100AF000A094B727002083C7D7B5B384A700B72732
:100B0000002003A707DA8327070963F387003E84E1
:100B1000184375FBB727002083A787B382978147C7
:100B20006364A400B307A440B2402244B3B7970063
:100B300093C7170092443E854101828081473E85DC
:100B40008280B727002003A707E87C53FDFF82803F
:100B5000797126D206D622D44AD04ECE52CC56CA6D
:100B60005AC85EC68347550303447513AA843E944E
:100B70001374F40F9307400263F687001304B4FD67
:100B80001374F40F03AA841383AAC413A38B8412CF
:100B900022865285D68597C003E0E7806084058968
:100BA00015E503CBD41201498149337B6403930BD0
:100BB00050024A865285D68597C003E0E78040827E
:100BC000058915C5639169031374F90F238B84128A
:100BD000B250225492540259F249624AD24A424BCC
:100BE000B24B456182808509E20993D989410509A3
:100BF000E31179FDE1BF8327850903560504797167
:100C000093D60701BD8EC206C182358E135776403A
:100C100093575640898B058B5D8F93573640918B48
:100C20005D8F93571640A18B5D8F93171600C18B74
:100C30005D8F9317360093F707025D8F9317560069
:100C40009355860093F707041E065D8F1376F60F03
:100C5000518F93D7554013D63540118A898BD18F48
:100C600013D67540D18F13D61540218AD18F139694
:100C70001500418AD18F1396350013760602D18F65
:100C800013965500137606049E05D18F93F5F50F44
:100C9000CD8FA20745465D8F3307C70222D42A8431
:100CA00026D252CC56CA032A8413832AC4135AC8A4
:100CB00006D63697420741839357774013555740DE
:100CC0000989858BC98F135537401189C98F1355F1
:100CD00017402189C98F131517004189C98F131532
:100CE000370013750502C98F1315570093558700F8
:100CF000137505041E07C98F1377F70FD98F13D506
:100D0000354013D755401189098B498F13D575404C
:100D1000498F13D515402189498F139515004189B5
:100D2000498F1395350013750502498F13955500AA
:100D3000137505049E05498F93F5F50F4D8F220716
:100D4000D98FB387C7024AD04ECE5EC662C4B6976B
:100D5000C207C18313D7774013D557400989058B44
:100D6000498F13D537401189498F13D517402189F1
:100D7000498F139517004189498F139537001375D3
:100D80000502498F1395570093D587001375050405
:100D90009E07498F93F7F70FD98F13D5354013D797
:100DA00055401189098B498F13D57540498F13D54B
:100DB00015402189498F139515004189498F139555
:100DC000350013750502498F1395550013750504F9
:100DD0009E05498F93F5F50F4D8F2207D98FB38765
:100DE000C702130650025285D685B697BD8E9394DE
:100DF0000601C18033F6C402137BF60F97B003E0FF
:100E0000E780005E05890DED8347D41201498149D1
:100E1000B3849702130C5002C1804A865285D6854E
:100E200097B003E0E780C05B0589937BF90F11C59C
:100E300063863403850993F9F90F0509E31F89FDDA
:100E4000230B6413B250225492540259F249624A5D
:100E5000D24A424BB24B224C456182805E8BCDB769
:100E6000797122D406D683C735002E84231601005B
:100E7000A307F10083C74500100802C02307F10053
:100E800083C755008A8502C2A306F10002C402C8C6
:100E900002CA02CC02CED5220347F10183470400E7
:100EA00001456310F7020347E10183471400014540
:100EB0006319F7000345D101834724001D8D1335C5
:100EC0001500B2502254456182800111B7270020DD
:100ED00022CC03A407DD26CA4AC84EC606CEAA8481
:100EE00013092500854915C083C714000347340042
:100EF000858B6304F700405CFDB7194693054400F9
:100F00004A85EFF08FDDE31835FF2285F240624419
:100F1000D2444249B249056182804111B72700207D
:100F200022C403A407DD26C24AC006C693042500D6
:100F3000054901E82285B240224492440249410118
:100F40008280A6851305A402213FE30525FF405CAE
:100F5000CDB74111B727002022C403A407DD26C264
:100F60004AC006C693042500054901E82285B2401F
:100F700022449244024941018280A6851305A401BE
:100F8000C535E30525FF405CCDB7011122CC60419A
:100F900026CA4AC84EC652C406CEAA841D4A1309A0
:100FA00065058549BC446364F400054581A803C711
:100FB000D40083474400631B470503C784026304CE
:100FC000F7000040C5B70347540083C75405E31A30
:100FD000F7FE1946CA8513056400EFF00FD0E3123F
:100FE00035FF0347C40083C79402E31CF7FC035793
:100FF000E40083D7A402E316F7FC0145F240624403
:10100000D2444249B249224A05618280E31BF7FA81
:101010000347540083C75405E315F7FA1946CA85F8
:1010200013056400EFF06FCBE31D35F9F9B701113B
:10103000B727002022CC03A487DC26CA06CE2AC408
:101040002EC6854419E40145F2406244D24405614C
:1010500082808347910003471400858B6304F70067
:101060000044CDB719469305A10013052400EFF005
:10107000CFC6E31795FE0545C1BF3727002083275C
:1010800047E59306001094C3010001000100010030
:10109000832747E523A00700834615000348250062
:1010A000A2064208C29603480500C29603483500CE
:1010B0006208C29694D78346550003486500A2068D
:1010C0004208C29603484500C2960348750062086C
:1010D000C296D4D7834695000348A500A2064208CD
:1010E000C29603488500C2960348B5006208C296BE
:1010F00094DB8346D5000348E500A2064208C29669
:101100000348C5000345F500C2966205AA96D4DBE4
:1011100083C6150003C52500A2064205AA9603C58D
:101120000500AA9603C535006205AA9694CF83C62A
:10113000550003C56500A2064205AA9603C54500F1
:10114000AA9603C575006205AA96D4CF83C69500FA
:1011500003C5A500A2064205AA9603C58500AA9666
:1011600003C5B5006205AA9694D383C6D50003C50E
:10117000E500A2064205AA9603C5C50083C5F50091
:10118000AA96E205AE96D4D3D443F59AD4C3D443F9
:1011900093E61600D4C3944393E6160094C3BA872B
:1011A00083A647E5D842058B59E7984E01452300B1
:1011B000E60003A747E5184F2183A300E60003A735
:1011C00047E5184F41832301E60003A747E5184F81
:1011D0006183A301E60083A747E5D84F2302E60019
:1011E000D84F2183A302E600D84F41832303E600B2
:1011F000D84F6183A303E60098532304E600985375
:101200002183A304E600985341832305E600985305
:101210006183A305E600D8532306E600D853218353
:10122000A306E600D85341832307E600DC53E1839D
:10123000A307F60082800100A5B7B726002003A708
:1012400086E501114AC81C5F4EC606CE998322CCA2
:1012500026CA858BB68937290020ADCF1C5F37247D
:101260000020930444E693F7F7F91CDF930744E664
:1012700083C76700130700086319F700832749E550
:101280009C4393F707042383F400834744E693F7D2
:10129000070489CFB727002083A787B3829788C820
:1012A000834744E693F7F70B2302F4E683C7440031
:1012B00093F7070485E38547A382F400B72700204E
:1012C00083A707E8096798C7130700FC2382E40097
:1012D000D844F8D383A789E5985F1183058B19CB90
:1012E000985F85463D9B98DF37270020130747E628
:1012F0002302D700985F1D83058B01CF985F13777A
:10130000F7F798DFB7270020938747E60547238242
:10131000E700832749E5D8430583058B19C7D843E0
:10132000759BD8C3D843799BD8C3F2406244D2445A
:101330004249B24905618280397106DE16DC1ADA4B
:101340001ED82AD62ED432D236D03ACE3ECC42CA7D
:1013500046C872C676C47AC27EC0C535F250E25223
:101360005253C2533255A255125682567247E24723
:101370005248C248324EA24E124F824F2161730032
:101380002030B7270020B726002003A607E8938760
:1013900046E603C746E6058B11C723820700A382F2
:1013A0000700828003C71700058B65FB785275F331
:1013B00003C75700EDB737280020032788E51C5FD7
:1013C0009583858BD1E709C61C5BBD832300F6009E
:1013D00085CA832788E5985B46079357670163565C
:1013E000070093E707C0C207C18303970600C2073F
:1013F000C18709C7BA970947B3C7E7022390F60028
:1014000037270020130747E695C9834715009DC776
:1014100003466700938697008947137606041DC626
:101420003695834605000546994793F5F606639F72
:10143000C500E206E186B94763CA0600832788E54E
:101440009C5FED838D8BA305F70081473E858280ED
:101450008547EDBF411122C406C63724002026C2AD
:10146000032704E82DE9AE877453FDFEB72400205E
:10147000938444E63E85B28523810400971003E0FF
:10148000E780C00AB727002083A787E5B70680005A
:101490009843558F98C3D857719BD8D7832704E8B2
:1014A000A3820400A3800400094798C3832604E8AC
:1014B000B7270020938747E603C72700058B19E766
:1014C00003C73700058B59C723820700B240224467
:1014D0009244410182808D47631FF500B7270020A9
:1014E00083A787E5B70680009843558F98C3D857E0
:1014F000719BD8D765BF8547E31AF5FA5447F9774A
:10150000FD17F58F5CC70F100000832704E80967FB
:10151000130600F898C737270020130747E6230271
:10152000C70037270020032687E5184231830D8B3B
:1015300011E713076019F8D3D4C78DBF18420946C5
:1015400031830D8B6315C7001307E043EDB7130715
:10155000E01BD5B7F8522DF395BF5D71A2C4A6C2AA
:101560002A84130680022800AE849305100886C6DC
:10157000CAC04EDE52DCEFE0FFF03545971003E0C5
:10158000E780603837230020832783E59376F41FB4
:10159000372E002023A40700984BB72E0020370FCA
:1015A000FCFF1367F70398CBF84F130510F8B70249
:1015B0000400137707E0558FF8CF9843F576FD16B2
:1015C000758F98C39843B70633009303802513772C
:1015D000F7E798C3984311497D1F1377F7E713671F
:1015E000071098C303274EED8549930F80021C47CF
:1015F000D58F1CC783A70EE81307900D3400B8CB16
:10160000014793553700A69583C7050013767700E9
:10161000B3D7C740858BE1C3832783E583284EED8D
:10162000239C07042390070603A8C8021378D8FF59
:1016300023A6080383A807001378F70793F808F890
:1016400033E8080123A0070103A8470233685800C4
:1016500023A2070383A80EE8014823A2780603DA31
:1016600007066307480303A80703038A0600135805
:10167000F80062081358884163580A0103A8070359
:101680001358F8002380060103D807061378F80FD3
:1016900003AA480663060A0003DA8705E37F49FBCD
:1016A00003A847023378E80123A2070383870600D3
:1016B000635CF40003C805003396C9001346F6FFC7
:1016C000337606012380C5003E8663D3A7002A86B1
:1016D00013158601618505071377F70F8506E31259
:1016E000F7F3B640264496440649F259625A6161BE
:1016F000828037260020832706E8D84793161701F3
:1017000063D2060298479316170163DD06007D57E2
:10171000B8D7372700201307C7AE544F850654CFDC
:10172000116798C798470D83058B0DC33727002095
:10173000130747E68346270093E616002301D700E8
:10174000930600F82302D700214798C79847058BD6
:1017500009CF37270020130747E68346170093E693
:101760001600A300D700054798C798470983058B43
:1017700009E798470583058B21CF94473727002039
:10178000372500208982858A63800610832685E5B7
:101790009442B1828D8AF5E6AC4B930647E6944EAF
:1017A00093F5050283C61600DDC5E9EA93067006C7
:1017B000D4CF834647E693E616002302D7E61147C7
:1017C00098C7032785E55C57F19B93E717005CD723
:1017D000032706E81C479396370163D40602B72710
:1017E0000020938687D003C68607938787D0418AD7
:1017F00055C683C7860793E70702238CF6068567DD
:101800001CC71C479396270163D10602B727002007
:10181000938747E683C64700E206E18663D5060064
:1018200085462382D70089671CC71C47939607010A
:1018300063D20602B7270020938787D083C6970715
:10184000858AADCE83C6970793E62600A38CD7067C
:10185000A1671CC78280B9DA85456395B6009306F7
:10186000B006B9B789456395B6009306F00689B707
:101870008D456395B600930630071DBF930650074C
:1018800005BF930660072DB7130747E68346370069
:1018900093E61600A301D70009471DB783C6870743
:1018A0000946BD8A6388C60083C687070D46BD8A80
:1018B000E397C6F49146238CD70691B783C6970762
:1018C000918AD9D683C6970793E6860041B73971C6
:1018D00006DE16DC1ADA1ED82AD62ED432D236D03C
:1018E0003ACE3ECC42CA46C872C676C47AC27EC0E0
:1018F0000935F250E2525253C2533255A255125694
:1019000082567247E2475248C248324EA24E124FA8
:10191000824F21617300203037270020B726002036
:10192000138646E8130747EA8347D7008345B60185
:10193000484AAE97FD8BB355F500A300F600A30609
:10194000F700858995E903471701814613080002CE
:10195000B3F7E7020147B355E50085899378F70FA0
:1019600089C96395D700A30016018280850693F686
:10197000F60F0507E31107FF8280B7270020938742
:1019800047E683C7570093F7F70FD1EBB72700203F
:1019900083A787B3411122C44AC006C626C28297D4
:1019A00037290020930749EA8047130949EA63026F
:1019B000A40663688504018DB7240020938744E85A
:1019C00083C7A70113545500938444E86363F40468
:1019D000A13783C7A4010327890093965700369740
:1019E0001D8C2324E900E375F4FE224403C5140092
:1019F000B2409244024981454101171303E0670058
:101A00004339B727002083A7C7B83384874022957E
:101A100065B7B240224492440249410182808280EB
:101A2000B727002083A787B3011122CC26CA52C44E
:101A300006CE4AC84EC68297B7240020938744EA50
:101A40008047014A6301A406938444EA63668506DD
:101A5000018D37270020930747E883C7A701135458
:101A60005500137AF501130947E8636BF402B729AF
:101A70000020938989B84D358346A90103A88400C5
:101A800083A54900139756004297158C3A866364E4
:101A900007016364B7003306B74090C4E37DD4FC0C
:101AA0001604336A4401F24062445285D2444249EA
:101AB000B249224A05618280B727002083A7C7B8B0
:101AC00033848740229571B7B727002003A707E822
:101AD0008567938707777CD3B727002083A747EDD7
:101AE00083A60709139656006358060083A60709C4
:101AF00013966600634406007453FDF28280000072
:101B0000B72700203727002083A747AE0327C7AD9C
:101B100001456313F700828083D6670081E683D690
:101B2000470036959C43F5B7B727002083A547B4F7
:101B300037270020938747B4138605222322C7AE98
:101B400003D74700938785FFB72600204111BA9736
:101B5000056523AEF6AC06C61D05935637006374C3
:101B6000E500930600203307D60037250020232008
:101B7000E5AE23A0E522E1162312D60023130600CA
:101B80001CC3998FE1172312F700231307008D3F21
:101B9000B240B72700202399A7AE41018280B72722
:101BA00000203727002083A747AE8326C7AD014515
:101BB0006393F600828003D7670011E703D74700DD
:101BC0006373E5003A859C43E5B7B7270020B72645
:101BD000002083A747AE03A6C6AD2A87B305B5404C
:101BE0006314F6003A8529A8938687009C43E3692D
:101BF000D7FEE377F7FE2E85E3E4D5FEE3F2F5FEAC
:101C0000828023AC05FE1C4191E7010001000CC15C
:101C10008280BA8703A787FF6DFF23ACB7FE82805F
:101C20001DC18346E5FF1307F00F9147639EE60051
:101C3000411106C697E0FE1FE780004DB240814784
:101C40003E854101828095473E85828001E90145BC
:101C500082800145B2402244410182809565411154
:101C6000938505D022C4C98D2A842105C205420569
:101C7000C181418106C697E0FE1FE780A03C71D973
:101C8000FD5723200500231285002303F5002105BD
:101C9000D1B7411126C2B724002083A784AE22C445
:101CA0004AC006C60144014989E7A165752515C4E6
:101CB00001A803C7E7FF6319A70205CCA1650526A4
:101CC00003A784AE832784FF6317E40223A4F4AE42
:101CD000FD57232C04FE230FF4FE2285B24022443C
:101CE000924402494101828011E03E8983A787FF27
:101CF00065BF3E84E5BF232CF9FED9BFB1CDB72720
:101D0000002083C7D7AE411122C406C62A842E857F
:101D10006375F400894763E8870019370D45B240C1
:101D200022444101828083A785FF99E703C7E5FF2D
:101D30009307F00F6305F700E5351545CDB7372557
:101D40000020238F85FE130585AE653D2285224444
:101D5000B240A165410161A415458280B7270020EA
:101D600023A407AE8280B727002083A707B499E396
:101D70003E85828003D727006316B70003C707009C
:101D8000E308A7FEDC47E5B7BDCD797122D406D6BE
:101D900026D24AD04ECE01444147B3D78540858BE9
:101DA000B1CF1205314722953305E502B727002050
:101DB00003A907B88544B3948400C204C180BE89D6
:101DC0002A990327090011C7032549002EC6029747
:101DD000B24531473304E40283A709B83E941C445A
:101DE00089E72320090023220900B2502254A58D3F
:101DF00002599254F2492E85456182800504E31E02
:101E0000E4F88144DDB72E858280411113970501E6
:101E100022C406C626C24AC041872E84635E0700DC
:101E20008D3D11C1F53BA1673D8C2285B240224416
:101E30009244024941018280EDD9AA870147414677
:101E4000B356E440858A9DCA9207BA97B146B387D4
:101E5000D702B726002003A906B88544B394E4004E
:101E6000C204C1803E998327090003254900829757
:101E70002320090023220900258C45BF0507E31113
:101E8000C7FC8144D5BFB727002083A747B64111BF
:101E900022C406C6372400201304849791C7829772
:101EA0001C403E9508C031A0B727002083A787B308
:101EB000FDF70840B74703009387D73F3305F50286
:101EC000B7A72600938737ECB2403E9508C022445E
:101ED0004101828071CDB727002083A787B3797134
:101EE00022D426D24AD04ECE52CC56CA5AC806D692
:101EF0005EC63A8AB689328BAE8A2A898297B7271C
:101F0000002003A707B8BE840144B146C147B30B04
:101F1000D40233067701104259E6C165938505F076
:101F2000414597E0FE1FE780E01115E5B727002047
:101F300083A747B72D4589C71145814582972D4510
:101F4000B250225492540259F249624AD24A424B48
:101F5000B24B45618280B727002003A707B421E375
:101F600023A0A7B42300050083A704B805473317AF
:101F7000870023260500232465012311E500232281
:101F80004501DE9723A0270123A2570123A447017F
:101F90000145E38709FA238089005DB73E875C47E6
:101FA000F5FF48C7C1B70504E313F4F6214549BF5F
:101FB00009458280B727002083A747B8411122C472
:101FC00006C6372400201304C4AE89C782975C4834
:101FD0003E9548C84848B240224441018280B72714
:101FE000002083C7D7AE6370F50237270020931710
:101FF00015000325C7B33E9583570500DD8D2310DB
:10200000B500014582800D458280B727002083C737
:10201000D7AE6372F502372700209317150003250A
:10202000C7B393C5F5FF3E9583570500FD8D23107B
:10203000B500014582800D458280130705FF1377A7
:10204000F70FFD4763E5E70AB146B306D502B727A8
:10205000002003A707B889473697184351CB0111D1
:1020600022CC26CA0544935445003D893315A4006B
:102070001314050141804AC826852E89A2854EC6C3
:1020800006CED531AA89814739C9A2852685B53FB3
:10209000B727002083A787B3B7240020938484B890
:1020A000829783D784002A848146B3852703130649
:1020B0000064B3B7270313850532B335B500BE9569
:1020C000EFA04210B30785003E87D44063E4A70029
:1020D00063E4D7003387D74023A4E9008147F24067
:1020E0006244D2444249B2493E85056182808947B3
:1020F0003E858280011126CA06CE22CC4AC84EC631
:10210000BD47894463EEA70231473307E502B7278D
:10211000002083A707B88944BA979C4395C3054418
:102120003314A400420441802E890145A28525393B
:10213000AA89814411C5A2850145C13D23A4290175
:10214000F240624426854249D244B2490561828008
:10215000B727002083C7D7AE6364F50001458280AE
:102160000111B727002056C283AA87B306CE22CC1E
:1021700026CA4AC84EC652C463880A0A37290020B4
:10218000130989B82E8A8324490083558900B747EB
:1021900036FE938707C8BE94B387C5022A84B289E6
:1021A0008146B3B5C50213850732B337F500130670
:1021B0000064BE95EFA0020163E8A406829A8355ED
:1021C0008900AA8413060064B38735038146B3B53A
:1021D000350313850732B337F500BE95EF90927E35
:1021E000B3079500BE840327490063E4A70063E4B6
:1021F000E700B384E740D2852285B53601C504C522
:10220000054525A0936504F0C205C181414597E0CD
:10221000FE1FE78020E31DE1B727002083A747B713
:1022200081C7A285114582970145F2406244D2449C
:102230004249B249224A924A0561828037270020EA
:10224000832707B48DE32320A7B485472326050001
:1022500004C52311450123008500A300F5002322B6
:10226000050079BFBA87D84775FFC8C7F9BF49C904
:10227000797122D426D24AD04ECE52CC56CA5EC6EE
:1022800062C466C206D65AC83689328AAE89AA8422
:102290004144314CB72A0020854C930B0003330B8B
:1022A000840303A70AB85A971C43B1E79375F40057
:1022B000B395BC0013554440C2055286C1811375C5
:1022C000F50F79350DC983A70AB80145DA9784C39C
:1022D00023A237016304090023008900B25022546D
:1022E00092540259F249624AD24A424BB24B224CB2
:1022F000924C456182800504E31374FB2145F9BFCC
:1023000009458280411122C426C24AC006C62A84D9
:102310002E89B284353DCA852285B13405CDB727D3
:10232000002083D507B92A8413060064B387950279
:102330008146B3B5950213850732B337F500BE95D4
:10234000EF90526848C00145B2402244924402498D
:10235000410182802145CDBF411122C426C24AC01D
:1023600006C62A892E840134AA8419C123110500C6
:10237000A2854A855939B727002083C7C7AE63991C
:102380002701B727002003D747B3598C239A87B278
:10239000014591E01945B24022449244024941016D
:1023A00082809307F00263E8A7044111B14722C479
:1023B0003304F50226C2B724002083A704B806C65A
:1023C000A2979843894715C39377F5008545B39540
:1023D000F500C205C1811181413783A704B8A297D6
:1023E00023A0070023A207008147B2402244924461
:1023F0003E854101828089473E858280411106C623
:1024000022C4953211E50145B24022444101828047
:10241000B727002083A787B300458297B7270020FE
:10242000938787B86368A402D843B74636FE93867D
:1024300006C83305A4403697E377E5FC130700642C
:10244000B335E50203D6870081463305E502EF90F8
:1024500072575DBFD8433A94C1BF411122C426C20E
:1024600037240020B7240020130784B89384C4AE17
:10247000944858434AC0B72700203729002006C691
:1024800083A787B3130484B8130949B46391E6089A
:1024900082975440B74736FE938707C8B69733876D
:1024A000A7003A856364F7006364D7003305D7401B
:1024B000B7240020938744E69C4F938444E699CB4D
:1024C000B727002083A647ED3707CDFF7D179C4631
:1024D000F98F9CC611E1484083274902829719E58C
:1024E0009C4C85C3EF00625EEFF091359C4C91CB24
:1024F000B727002003A747EDB70633001C47D58F49
:102500001CC7B24022449244024941018280829712
:1025100083475901984854401D8FB307A7003E8553
:1025200063E4E700E3E6D7F83385D74051B74111BC
:10253000B727002006C623A2A7B80295B240B72746
:10254000002023A2A7B0014541018280994763E999
:10255000B700B72700208A05938787B1BE9588C149
:102560008280B727002023A007B437250020B72793
:102570000020411123A207B87146B72700208145EA
:10258000130585B106C623AC07B222C426C2372480
:10259000002097E0FE1FE78020C81305C4AE130695
:1025A0008002814597E0FE1FE78000C7EFF0CFD79C
:1025B000B727002083C7B7B51304C4AE854513D52C
:1025C00027008D8B3E958D473305F5029947B7243B
:1025D000002039051375F50F2301A4003305F5021A
:1025E0001305052497E0FE1FE780C0A523A0A4B82B
:1025F00049C103462400994781453306F602130674
:10260000062497E0FE1FE78020C183A704B8034794
:102610002400B7240020938707240A0723AAF4B0D4
:10262000BA9737270020232EF7B2EFF02FF355216A
:102630008347140083A644B137260100139727006F
:102640003697130686D810C3138717001377F70F32
:102650000A073726010036971306A6E010C3138732
:102660003700890793F7F70F8A07A300E400B697AE
:1026700090C3B24022449244410182803727002017
:102680001307C7AE834717008346270063F0D702BE
:10269000B726002083A646B113861700A300C70003
:1026A00013972700369708C33E8582809307F00F63
:1026B000E5BF1C416380071241777D8FB70600207C
:1026C0008947631AD7100357450063060710411165
:1026D00026C21946AA849305F00F690506C622C4CE
:1026E00097E0FE1FE78040BD05478D47630EE50C70
:1026F0009C4491C7D858994761CB985C71C73724DF
:1027000000201306C0038145130544B497E0FE1F63
:10271000E78080B01306C003A685130544B497E094
:10272000FE1FE780E0AB930744B403D7C70009E777
:10273000130700102396E70003C7E70001E70547EA
:102740002387E70003D7070101E76D472398E700D8
:1027500003C7F70001E71547A387E70003C7270171
:1027600001E705472389E70003C7370109E703C7E6
:10277000F700A389E70003C7470101E73547238A2C
:10278000E70003C7970109E713078002A38CE7005E
:1027900003C7570109E71307D002A38AE70003C75D
:1027A000840109E71307C003238CE7009C5791C7F6
:1027B0008297B7270020239AA7AEB72700207D571E
:1027C000A38CE7F2793B8147B240224492443E8594
:1027D0004101828089473E85828001114AC837299C
:1027E0000020832789B806CE22CC26CA52C456C2FE
:1027F0004EC68297130A0064B3354503130989B89E
:10280000835A89008146568633054503EF90921B13
:10281000B72700201387C7AE004FAA84014563067F
:1028200094029389C7AE33858440636E9400032578
:10283000490056868146B335AA023305AA02EF90B5
:102840007218018D269523AC9900F2406244D2445F
:102850004249B249224A924A05618280011122CC42
:102860002E84B7C503000A8541469385456106CE8F
:10287000EF90D24E180806043A94B727002003556B
:1028800004FF83D727B9F2406244AA9737450F0067
:10289000130505243355F50205618280B727002012
:1028A00083D727B951471D45637CF70279471945FE
:1028B0006378F7021307200315456373F7021307C4
:1028C000B0041145637EF700130740060D45637998
:1028D000F7001307600909456374F70013B5B70FD4
:1028E0008280011122CC06CE2A842EC6EFF0AFD909
:1028F000B245F240818D33A5A5022295624413753D
:10290000F50F05618280011122CC06CE2A842EC6E5
:10291000EFF06FD7B245F240818D33A5A502229525
:1029200062444205418105618280011122CC06CEBC
:102930002A842EC6EFF02FD5B245F240818D33B5F3
:10294000A5022295624405618280B7270020138783
:1029500047B418572DC3411122C426C24AC006C627
:10296000138947B40297B72700201387C7AE0357D0
:1029700087002A849384C7AE0DCBBA876373A70000
:10298000AA87C207C183BA866373E400A286C2061F
:10299000C182958F5147635AF7008327C90291C3BB
:1029A0008297EFF0717C23948400B24022449244D9
:1029B0000249410182808280011122CC372400200B
:1029C000930744B4DC5706CEAA85130444B481C7E8
:1029D0002AC68297B245BDCD9C410545A5CBDC41B9
:1029E000B5C783D78500BDC383D7A500A5C383C75B
:1029F000C500A9EF372500204146130585B897D0BB
:102A0000FE1FE780E07DB727002083A687B8372721
:102A10000020232CD7B2034794011DE3938787B886
:102A200003D587009307800237460F003305F50270
:102A30001306062481468145EF90C278A30CA400BA
:102A4000372501001305A57DDD340145F2406244C0
:102A5000056182808346640137270020930787B889
:102A600013968601618663580602B7260020938676
:102A7000C6AE23AE0600B70600209386A65B2324CD
:102A8000D7B87D57D8C337873200130727A198C717
:102A9000238607008DBF13F6160005C2B7862003F4
:102AA000938606D094C7B706C0A8D4C3B706002043
:102AB0009386C65E2324D7B8E1BF61762394C7000E
:102AC00091C6930600322395D700F1BF93062003E9
:102AD000DDBF011122CC37240020930744B488477E
:102AE00006CE26CA4AC801E90545F2406244D244EE
:102AF000424905618280130444B45C58F5D7185CE0
:102B000065D77000854582971844B247E30EF7FCFD
:102B10000355C4009305E004B724002097D0FE1F9E
:102B2000E78040521387C4AE08D39384C4AE4DDD12
:102B30000356C4009305F00F014997D0FE1FE780AC
:102B4000A06D8347E4009050634DF900328597D023
:102B5000FE1FE780605B014523A0040223A204025C
:102B600069B78355C4000844185CB387250389817D
:102B700005093E9508C20297E9B701114EC6B7296B
:102B80000020938749B49C4726CA4AC852C406CE3F
:102B900022CC56C25AC02A8AAE843289638C071E60
:102BA000938949B403A74903630207127D47636110
:102BB000A712372400201307C4AE832A0702130488
:102BC000C4AE639A0A0803D5C9009565938515E0DC
:102BD00097D0FE1FE780004708D02A8665C983D5B5
:102BE000C90083A7490303A589008981829783A728
:102BF0008900832A04025CD089476316FA08C1471A
:102C00006396F40C83D5C9009147938505FCB3C541
:102C1000F5028A05D69503C705009307A00563133F
:102C2000F70A83C71500639F47094A8526869105E1
:102C300097D0FE1FE780C05A1C50568563935713E8
:102C40000145F2406244D2444249B249224A924A82
:102C5000024B056182805850E380E7FA03D5C90032
:102C60009565938525E097D0FE1FE780A03DAA8A51
:102C700031CD83D5C9002A8683A7490303A58900DE
:102C80008981829795BF8D47631BFA00C147639F77
:102C9000F40283D5C900938545FDF199A5BF9147FD
:102CA0006318FA006394440383D5C900A115F5B7EE
:102CB000C147631DFA00A14763EA970083D5C900A5
:102CC000C115E1BF1C5056856391570D294595BF2D
:102CD0001307F006636CA708930A05FE1947B3CAE9
:102CE000EA0203D7C900372B0020B38AEA02BE9A52
:102CF0009307CBAEDC53130BCBAE63955701032484
:102D00000B021DE003D5C9009305E00497D0FE1F18
:102D1000E78040332A845DD983D5C90083A749035E
:102D20002A8689815685829791451307A005898156
:102D300093972500A29783C607006393E60483C692
:102D40001700639C460385058A052686A2954A8559
:102D500097D0FE1FE780C04883270B02E38287EEEF
:102D6000228597D0FE1FE780203AD9BD1307E007E0
:102D7000E36EA7F4930A05F9ADB783D5270045BFE5
:102D800083270B02E38487F4228597D0FE1FE78018
:102D9000A0372DBFB727002083A5C7B085D991479D
:102DA0009306A0058983139727002E9703460700F3
:102DB000E31ED6F003461700631C460185078A0709
:102DC0002686BE954A8597D0FE1FE78060418DBD5F
:102DD00083572700C1BFB7270020938747B4984780
:102DE00029C3985F1DCF8546631DD502411122C4BA
:102DF000372400201304C4AE105006C619CE83D564
:102E0000C700485089810297085097D0FE1FE7807D
:102E1000A02F2320040223220402B24022444101B5
:102E200082808280011122CC37240020930744B491
:102E300056C283AA870026CA4AC84EC606CE52C4C6
:102E40002A89AE84B289130444B4638B0A1C1C5CC7
:102E500099EB2945F2406244D2444249B249224AA0
:102E6000924A056182805C58EDD7FD4763E7A70C65
:102E7000372A00209307CAAE9C53130ACAAEB9C7BB
:102E8000084483274A02639FA70489476317F9060A
:102E9000C147E390F4FC0355C4009147130505FCBA
:102EA0003345F5029317250003250A022686CE85B1
:102EB0003E959307A0052300F500A3002501110509
:102EC00097D0FE1FE780C031014569B70355C400A4
:102ED0009305E00497D0FE1FE780C0162320AA02C6
:102EE00045F185BF8355C4005C5803260A028981D9
:102EF00082971C442322FA0249BF8D47631CF900C4
:102F0000C147E398F4F40355C400130545FD9377D6
:102F1000C5FF59BF91476318F900E39C24F303559B
:102F2000C4002115EDB7C147E315F9F2A147E3E26B
:102F300097F20355C4004115D9BF9307F00663E922
:102F4000A706930705FE1947B3C7E7020357C40056
:102F5000372A0020B387E702BE9A9307CAAE9C5374
:102F6000130ACAAEA9CF83274A02639657070325DF
:102F70000A0291461308A005FD5593D72600C20703
:102F8000C183139727002A97034607006314060797
:102F90008348170003562700639C2805B306D640D4
:102FA00063C6960485078A072686CE853E9509BFA7
:102FB0009307E007E3EFA7E8930705F941BF03553F
:102FC000C4009305E00497D0FE1FE780A0072320EC
:102FD000AA0251F9BDBD8355C4005C5803260A02FC
:102FE00089815685829723225A0351B7A300B700DF
:102FF000B28661B70356C400B385960091051306E7
:1030000006FCE3F8C5E4138634001376C60F1106F8
:10301000B29623000701A30027012311D70059B757
:10302000372A00209307CAAE9C53130ACAAEA1C325
:1030300003250A0291461308A005FD5593D72600E3
:10304000C207C183139727002A970346070063121C
:103050000605834817000356270063982801B30626
:10306000D640E3D196F4A300B700B286C1BF0345B2
:10307000E4008357C4009305E0043305F5024205DC
:10308000418197D0FE1FE780E0FB2320AA024DF18B
:10309000C9B30356C4008345E400B385C502338633
:1030A00096001106E3E7C5DAB9BF0145828083C700
:1030B00005002300F50083D72500A300F50083D782
:1030C0002500A1832301F50083C74500A301F50076
:1030D00011458280B727002023A6079AB727002032
:1030E00023A4079A828029C1411126C206C622C4A0
:1030F000AA8401458DC52E84B7C5030022854146AB
:103100009385456297D0FE1FE780800D83C704003A
:1031100005452306F40083C71400A306F400B2405B
:10312000224492444101828001458280011122CCD7
:1031300026CA06CE0947AA8432846381E504414643
:103140008147639BC500638FE6006397B6000DA8B7
:1031500041478147638EE600F2406244D2443E8597
:10316000056182808A852285BD3F41468A8519A8EE
:103170008A85953F41468A85228531A0E39AB6FC2F
:103180002E86A285268597D0FE1FE780400EAA874F
:10319000E1B7B727002023A4A79A8280B727002091
:1031A00023A6A79A8280011122CC0354650006CE83
:1031B00026CA4AC84EC641C083298500AE842A88E3
:1031C00003C9090081471317890161876355070205
:1031D000B147054563FA870451144204035528009A
:1031E000418033878900A2864E868545EFC0C02482
:1031F000B337A00085077D14135569004204058983
:103200001379F90341802380F400A380A400238173
:10321000240123928400014719C01387190098C420
:1032200009476383E7000145F2406244D2444249C2
:10323000B249056182800545C5BFC167F917630AB8
:10324000F502D94763F7B702011122CC2EC606CE8C
:103250002A84EF90405FB2456368B50022856244DE
:10326000F24005616FB02005F240624405450561FA
:10327000828005458280C167F9176314F5006F905D
:10328000805C411106C6EFA0D07111E15D45B240EE
:103290004101828091476394F50283470500230032
:1032A000F6008347250003471500A207D98F231195
:1032B000F6008347350001452302F6008280114560
:1032C00082804111814522C426C206C6AA840525F2
:1032D0002A8409E9B727002083A7879A81C7F9457F
:1032E000268582972285B240224492444101828001
:1032F00039714ED656D25AD006DE22DC26DA4AD8AA
:1033000052D4AA8A2E8BB28941EF36C6AD37914589
:10331000EF902065AA844D492DC9B246054A238005
:1033200034010544630A0B00B68513851400029B23
:103330000505131405014180E20993D9894163D33E
:103340000902C1455685EFA01074654905E9338629
:103350008400A2852685EFB050532A8905E1310407
:103360004204418091472C085685231CF10026CE4B
:10337000231D8100EFA0207A2A8901C963070A0072
:10338000268597D0FE1FE78020D8F25062544A85E8
:10339000D2544259B259225A925A025B2161828018
:1033A000BA84014AADBF011122CC26CA4AC84EC612
:1033B00006CE2A893284B689253FAA840DE1B72733
:1033C000002083A7C79A81CF05476317E40003C491
:1033D000090005041374F40FA2854A858297F24010
:1033E000624426854249D244B24905618280AE8654
:1033F000B7350100014705469385E50A6DB783D7C8
:1034000005002300F50083D70500A183A300F50084
:103410000945828083D705002300F50083D7050086
:10342000A183A300F50083D725002301F50083D7EE
:103430002500A183A301F5001145828083D70500F3
:103440002300F50083D70500A183A300F50083D7EF
:1034500025002301F50083D72500A183A301F500F2
:1034600083C755002302F50083C76500A302F5005A
:1034700003D58500190542054181828083D7050067
:103480002300F50083D70500A183A300F5000945BB
:10349000828083D705002300F50083D70500A18330
:1034A000A300F50083D725002301F50083D725006D
:1034B000A183A301F5001145828003D545000605CF
:1034C00042054181828083D705002300F50083D720
:1034D0000500A183A300F50003D5250009054205D9
:1034E0004181828083D705002300F50083D7050042
:1034F000A183A300F50083D725002301F50083D71E
:103500002500A183A301F50003D54500110542055F
:103510004181828083C705002300F5000545828034
:1035200083D70500411122C406C62300F50083D7C6
:1035300005002E841105A183A30EF5FE83D7250077
:103540009505230FF5FE83D7D5FFA183A30FF5FEC5
:1035500003C6F5FF97D0FE1FE78080C803454400EF
:10356000B24022441105410182808947639CF500E5
:1035700083471500034705000145A207D98F231093
:10358000F60082801145828003D70500D94763FE8B
:10359000E702011122CC06CE2EC62A84EF90A02A83
:1035A000B24683D70600636DF50022856244F2407F
:1035B000B7350100014709469385E53F05610DBB1D
:1035C000F240624409450561828009458280914745
:1035D0009DC583460500FD15C2058547C1816392DF
:1035E000F60213D725008D89914791E9914701CBC8
:1035F00005052301D6002310E60048C281473E8519
:10360000828009479147E39CE6FEC94733D7F5021C
:10361000B3F5F502D1BFAE86B735010001471146BB
:1036200093854541F1B193F7350091EB898191473D
:1036300089C52310B60048C281473E8582809147E4
:10364000EDBF03C745008947631AF702011122CC79
:103650002A84C84506CEAE86014719C52EC69D45AB
:10366000EFE0AFD6B2462A8722856244F240B735F2
:10367000010019469385C54305619DB909458280BE
:1036800099E1114582808347050005472311F60023
:10369000E379F7FEFD1593F5F50F33D7F502B38700
:1036A000E702E390F5FE050548C22310E600014558
:1036B000828083C745000947AE866385E70041479E
:1036C0006399E700B735010001472146938505520C
:1036D00005B1094582802310B60091E1014548C239
:1036E00001458280AE86B7350100014729469385A2
:1036F000C547FDBE2310B60091E1014548C2014512
:103700008280AE86B7350100014731469385254951
:10371000C5B62310B60091E1014548C2014582803B
:1037200003D74500854763FDE702011122CC2A84B7
:10373000884106CE0DC12EC68545EFE00FC92A8708
:1037400022856244B246F240B7350100394693857E
:10375000A54B056171BEF240624409450561828056
:103760000945828091479DC5034705008D469147D5
:1037700063F2E602FD15C205C181B3C6E502330856
:10378000D7026399050105052310D6002311E60031
:1037900048C281473E85828083C745000947AE867F
:1037A0006385E70041476399E700B73501000147AA
:1037B0004146938505522DBE09458280B335B00040
:1037C000139525008280011122CC26CA06CE03C79C
:1037D00085008547AA842E8449466310F702613C20
:1037E0008357240049151306200963C8A700F24037
:1037F0006244D244094505618280034794008547AD
:103800006314F70013660604484011C58D4532C69F
:10381000EFE0AFBB3246A2866244F2402A8726859B
:10382000D244B73501009385654C0561D1B48D470D
:1038300063FFB7028347150003470500F115A20790
:10384000D98F2310F6008347350003472500C205B2
:10385000A207C181D98F2311F6002312B60089C5B2
:10386000110508C60145828023240600E5BF1145E5
:103870008280011122CC2A84884506CEAE8611C5ED
:103880002EC69545EFE06FB4B2462A872285624482
:10389000F240B735010059469385454E056189BC14
:1038A000B335B000139525008280AE86B735010090
:1038B000014761469385455125BC8547114563F411
:1038C000D7028347160083450600A207CD8F231039
:1038D000F7009387E6FF2311F70089476386F60018
:1038E000090650C30145828023220700E5BF014736
:1038F000814679468145EDBA83D705002300F5005E
:1039000083D70500A183A300F5000945828083C702
:10391000250005472300F50003D505006397E70060
:103920000A050505420541818280C9473305F50234
:10393000CDBF03D505000A0542054181828083D7AA
:1039400025002300F50003D5050083D725003305A6
:10395000F502050542054181828003D5050082807C
:1039600003D50500828003D50500828083D725001A
:103970002300F50003D5050083D725003305F502A4
:10398000050542054181828083D705002300F500AB
:1039900083D70500A183A300F50083D72500230169
:1039A000F50083D72500A183A301F50003D54500C9
:1039B000110542054181828083D705002300F5006F
:1039C00083D70500A183A300F50003D525000905D1
:1039D00042054181828089471145639BF6008347F8
:1039E0001600834606000145A207D58F2310F70075
:1039F000828003D70500D947AE8663F9E700B74553
:103A0000010001470D469385858F71BA0945828073
:103A100011456393A60283471600834606000145BD
:103A2000A207D58F2310F700834736008346260070
:103A3000A207D58F2311F700828083C72500054791
:103A4000FD1793F7F70F6361F70483D705008DCF58
:103A5000011122CC2A84C84106CE15C12EC6894543
:103A6000EFE0AF962A8722856244B246F240B7451E
:103A7000010015469385E59005616FF0DF92F240F5
:103A80006244094505618280094582809547114558
:103A900063F9D706411122C426C24AC006C683472D
:103AA0001600BA8403470600A2073284D98F2390F8
:103AB000F400834736000347260093054400A2071D
:103AC000D98F2391F40089472382F4000946138596
:103AD0005400368997C0FE1FE78080709307A9FFC6
:103AE0002394F4009947631BF90023A60400B24015
:103AF0002244924402490145410182801904C0C414
:103B0000FDB7828083D705008DCF011122CC2A8496
:103B1000C84106CE15C12EC68545EFE00F8B2A871A
:103B200022856244B246F240B74501001D469385A6
:103B3000259305616FF03F87F240624409450561B6
:103B400082800945828099476395F604894741112F
:103B500006C62302F7008347160083460600B28597
:103B6000A207D58F2310F70083473600834626002F
:103B700003464700A207D58F130557002311F7000E
:103B8000910597C0FE1FE780A065B2400145410145
:103B90008280D14711456394F600C1474DBF8280B2
:103BA00083D705008DCF011122CC2A84C84106CECF
:103BB00015C12EC68945EFE04F812A8722856244D0
:103BC000B246F240B745010025469385E59305616D
:103BD0006FF06FFDF240624409450561828009453E
:103BE000828089471145639BF60083471600834610
:103BF00006000145A207D58F2310F700828001112E
:103C000022CC2A84C84106CEAE86014719C52EC6ED
:103C10008545EFD09FFBB2462A8722856244F24059
:103C2000B74501002D469385A59505616FF0AFF767
:103C300011456393A602834716008346060001459B
:103C4000A207D58F2310F70083473600834626004E
:103C5000A207D58F2311F7008280011122CC2A847C
:103C6000C84106CEAE8611C52EC68545EFD0FFF5FC
:103C7000B2462A8722856244F240B74501003546A4
:103C80009385059605616FF00FF293F716001145C5
:103C900089EB89476387F60085822312D70010C31A
:103CA00001458280011122CC2A84C84106CE15C16B
:103CB0002EC68545EFD07FF12A8722856244B24621
:103CC000F240B74501003D469385659605616FF06A
:103CD0008FEDF240624409450561828083D705007B
:103CE0008DCF011122CC2A84C84106CE15C12EC623
:103CF0008945EFD09FED2A8722856244B246F24083
:103D0000B745010045469385C59605616FF0AFE95B
:103D1000F2406244094505618280094582808547F9
:103D200063FCD7022304A700A304B700834716004F
:103D300083450600A207CD8F2310F7009387E6FF87
:103D40002311F70089476386F600090650C3014531
:103D5000828023220700E5BF11458280014781460A
:103D60004D4681456FF02FE48D47114563FBD70227
:103D70008347160083450600A207CD8F2310F70066
:103D80008347360083452600A207CD8F2311F70015
:103D90009387C6FF2312F7006386A600110610C79B
:103DA0000145828023240700E5BF011122CC2A842B
:103DB000884506CEAE8611C52EC69545EFD0FFE0EC
:103DC000B2462A8722856244F240B74501005D462B
:103DD0009385859805616FF00FDD854711456397E1
:103DE000F6008347060001452300F7008280014763
:103DF0008146654681456FF00FDB011122CC2A8494
:103E0000C84106CEAE86014719C52EC68D45EFD0F6
:103E1000DFDBB2462A8722856244F240B7450100C3
:103E20006D469385859B05616FF08FCC011122CC87
:103E30002A84C84106CEAE86014719C52EC68D45D7
:103E4000EFD0BFD8B2462A8722856244F240B745F8
:103E5000010075469385859B05616FF06FC901115F
:103E600006CE2EC6EFA0003001C9B245F240035580
:103E7000250005616FE01005F2404945056182802B
:103E8000B7270020A38C079CB7270020238C079C12
:103E9000B727002023A0079CB727002023A2079C58
:103EA000B727002023A4079CB727002023A6079C40
:103EB000B727002023AE079AB727002023AC079A24
:103EC000B7270020239C07BA93064038938787BB07
:103ED0002391D702F1761307400B938606B82391FE
:103EE000E7002392D70211679D461306000593054C
:103EF000000A1305007D2392E7002393D702414770
:103F00008546130810F82395E7002396E7002399C8
:103F1000E700239AE700239BE700239CE700239414
:103F2000E702239607032393B7002394B700239750
:103F3000C7002398C700239DA700239E0700239F47
:103F40000700239007022395D7022397070213083F
:103F5000F007239807022392E7042393E704239FA3
:103F6000E7042390E7062391E7062392E7062399C7
:103F700007031307C01C239AD702239BD702239C55
:103F80000702239D0702239E0702239F0702239017
:103F900007042391D7042394070423950704239649
:103FA000D7042397C7042398C7042399A704239A07
:103FB0000704239B0704239C0704239DC704239E17
:103FC000C7042393A7062394070623950706239681
:103FD00007062397B7062398B70623990706239A5F
:103FE000E7065147239DE7067D57239B0706239C41
:103FF0000706239ED706239F0706239007082391D1
:1040000007082392E7088280011126CAAA84214565
:1040100022CC06CE2E8432C636C43AC2EFD01FC39D
:104020001DC9A24612473246930700FD2300F50042
:104030009947A30095002301F5002303D500A303AE
:10404000E5002312C500AA8522856244F240D244CD
:1040500005616FD0BFCAF2406244D24405618280DC
:10406000B727002023A0A79C8280B727002023A287
:10407000A79C8280B727002023A4A79C8280B72713
:10408000002023A6A79C8280011122CC4AC806CE1C
:1040900026CA2A890144B30489006368B400F24047
:1040A0006244D2444249056182802EC6EFD0BFDD12
:1040B00093170501C183A183B2452380F4009307C0
:1040C000140093F7F70F850463F9B700CA97090442
:1040D0002380A7001374F40F7DBF3E847DBF411180
:1040E00022C437240020130484B903556400C16737
:1040F00006C6FD17630FF500B727002003C687CF5C
:10410000B72500209385059DEF90D063FD572313BD
:10411000F400B24022444101828009C9251513757B
:10412000F50F1335850E13451500828001458280F9
:1041300023900500C9C6797122D426D24ECE52CC26
:104140005AC806D64AD056CA5EC63684328AAE8966
:104150002A8B814463F34407B307940083C70700A5
:10416000138914004209939A070193DA0A0113593B
:10417000090163840A04CA976341FA04B30724015E
:1041800083CB07005E85513F0DC99387FAFF2390CB
:10419000F90063906B03130519002295B250225465
:1041A00092540259F249624AD24A424BB24B45619B
:1041B0008280D694C204C18071BF0145C5B7014554
:1041C0008280011122CC3724002026CA4AC84EC65C
:1041D000930784B906CE2E89D0CB8CCBC8C7AA84CE
:1041E00041469305F00F4A8597C0FE1FE780C00C3B
:1041F0008549130484B9631935030848C1456935F5
:1042000041469305F00F268597C0FE1FE780C00A40
:1042100005496315250348446244F240D2444249AB
:10422000B249C14505618DB5414681454A8597C072
:10423000FE1FE7806008E31535FDC1B741468145A3
:10424000268597C0FE1FE7802007E30625FDF24084
:104250006244D2444249B24905618280411122C47C
:104260003724002026C24AC0AE842A8913060002E1
:104270008145130584B906C697C0FE1FE780C0F9C3
:10428000930784B9A3812701B7270020238E97CEF7
:10429000EFE08045854719C181474945230CF4B8B3
:1042A000B24022449244024941018280814781CD3B
:1042B00019C98547631BF50083C7550093E707FCC1
:1042C000A382F50085473E85828089476317F50004
:1042D00083C7550093F7F703E5B70D478547E31408
:1042E000E5FE03C755001377F70313670704A3829E
:1042F000E500D1BF81478DC105C103C755009306B5
:10430000000C85471377070C6308D7009306000459
:104310008D476303D70089473E858280411122C4BF
:10432000005D06C626C21DC8AA84085009C597C0EC
:10433000FE1FE78060DD485009C597C0FE1FE7807B
:10434000A0DC085409C597C0FE1FE780E0DB22858A
:1043500097C0FE1FE78040DB23AC0402B24022443A
:1043600092444101828019E9B727002083C7A7B989
:1043700091C7372500201305059B82803725002033
:10438000130505BB8280B727002003C5A7B982802B
:10439000B727002003A547BA8280B727002003A5CE
:1043A00087BA8280B727002083A7C7BA8843828054
:1043B000B7270020938787B9D44B9842050798C246
:1043C00003C537009307F00F6305F50091656FD0C3
:1043D0001FC18280011122CC06CE2E8432C6EF90FE
:1043E00010699147B2456310F502B727002083A7F3
:1043F000C79C95C303A30700630F03002285624493
:10440000F24005610283B727002083A7479C81C73C
:1044100003A34700D5B7F240624405450561828099
:10442000011122CC2A840355450006CE26CA4AC86B
:104430004EC6EF90F04125CD2A898344050083497B
:10444000C500E93D4A85EFA0A02103554400EF9047
:10445000505D372900201309899D83470900A1CFAA
:10446000639B9704B727002083C5979D2685EFF0AF
:104470001F9F19E12300090003554400EF90305FAE
:104480009147631FF500B7270020938787B98356AC
:10449000440003D767006395E6007D572393E70048
:1044A000F2406244D2444249B24905618280814966
:1044B0009304F00F79BF9307F00FE38FF4FA83466C
:1044C000640003564400034524004E87A6852D3E14
:1044D00065B779715EC6AA8B2E8552CC56CA5AC86A
:1044E00006D622D426D24AD04ECEAE8A328B368A17
:1044F000EF9010367DC1045D2A89E5C09C5061456E
:1045000099C3130540039C5481C75105420541815D
:1045100063050A00710542054181DC5081C75D05D4
:1045200042054181EFD08FF22A8445C96146814519
:1045300097C0FE1FE78040CEB727002083C987BE03
:104540006394090083490900930700FD2300F400E8
:10455000A947A30074012301F400230364018C50D4
:10456000231254011305840191C908C47146930AAA
:10457000440397C0FE1FE780A0C656858C5491C99E
:1045800048C45146930A450197C0FE1FE78040C5C5
:104590005685630C0A0008C87146D285930AC50186
:1045A00097C0FE1FE780C0C35685CC5099C548C848
:1045B0005D4697C0FE1FE780A0C2A2854E85EFD062
:1045C000EFF32254B2509254F249624AD24A424B1B
:1045D000B24B4A850259456191B3B250225492546C
:1045E0000259F249624AD24A424BB24B456182803B
:1045F00001114EC6AA892E854AC806CE22CC26CAEB
:104600002E89EF90F02421C9B727002083C487BEEC
:1046100099E0834405001945EFD04FE32A8405CD86
:104620008145194697C0FE1FE78000BF930700FD34
:104630002300F400B947A30034012301F40023123E
:104640002401A2856244F2404249B2492685D244FF
:1046500005616FD0AFEAF2406244D2444249B249A8
:104660000561828039715ECEAA8B2E8526DA4ED600
:1046700052D456D25AD006DE22DC4AD8AE84328BCF
:10468000B68A3A8ABE8942C6EF90901C21CD2A890B
:104690004145EFD0AFDB2A8431C54146814597C003
:1046A000FE1FE78060B7B727002003C587BE19E16A
:1046B00003450900930700FD2300F400BD472301D3
:1046C000F400B247A3007401231294002304640190
:1046D000A304540123054401A30534015CC4A2854D
:1046E000EFD0CFE1F2506254D2544259B259225A1B
:1046F000925A025BF24B21618280797126D2AA84A0
:1047000039454AD04ECE06D622D42EC6B289368935
:10471000EFD0CFD321C1B2459307000D2310F50090
:10472000B1472A842312B5002301F500CE8519056F
:10473000194697C0FE1FE780A0AA23062401A28580
:104740002254B2500259F24913F5F40F92544561C4
:104750006FD0CFDAB250225492540259F2494561D7
:104760008280411126C2B7240020938484B903C7F4
:10477000340006C622C44AC09307F00F630CF70446
:104780002A893945EFD08FCC2A8429C5930700FDAB
:10479000B72500202300F500A30025012301050013
:1047A000938505BB0D05194697C0FE1FE78040A302
:1047B00083D78400A28503C534002315F40083C782
:1047C00014002306F4002244B240924402494101FD
:1047D0006FD0CFD2B240224492440249410182803C
:1047E00001115AC02A8B314526CA4EC652C456C240
:1047F00006CE22CC4AC8AE84B28A368ABA89EFD0B5
:10480000EFC43DCD2A842685EF90900411C503475F
:10481000C500A1476314F704B727002003C9B7B93F
:10482000930700FD2300F4009D47A30064012301CA
:10483000F40023129400231354012314440123157C
:104840003401A2856244F240D244B249224A924ADB
:10485000024B4A85424905616FD04FCAB7270020F5
:1048600003C9D7CFE31E0BFAB727002083A787A879
:104870009C47DDD7CE865286D685268582974DB752
:10488000F2406244D2444249B249224A924A024B1F
:1048900005618280011122CC2A84214506CE2EC6D4
:1048A000EFD0CFBA21C1B245930700FD2300F50038
:1048B000C5472301F50083C73500A301F50083D761
:1048C00045002312F50083C765002303F50083C765
:1048D0007500AA85A303F50022856244F2400561B4
:1048E0006FD0CFC1F240624405618280397162CCE1
:1048F0002A8C594526DA4AD84ED652D456D25AD0A6
:104900005ECE06DE22DCAE8432C636C4BA8B3E8B67
:10491000C28A468A8359010403494104EFD00FB388
:1049200025C93246930700FDA2462300F5009547AE
:10493000A301C500A30085012301F5002A841946BF
:104940001105A9C2B68597C0FE1FE78060892306BE
:104950006401230A24012315740123175401231829
:10496000440123193401A2856254F2504259B259CC
:10497000225A925A025BF24B624C2685D254216134
:104980006FD0CFB7814597C0FE1FE780E088C1B7E1
:10499000F2506254D2544259B259225A925A025B8E
:1049A000F24B624C21618280411122C437240020E5
:1049B000130484B98347240006C626C28DCBB724CE
:1049C0000020AA8519461385049B97C0FE1FE78027
:1049D0002081034524009385049BEFF03F8D224402
:1049E000B2401385049B924441016FD0B050B24055
:1049F00022449244014541018280411126C2B724DC
:104A00000020938784B906C622C44AC003C7370072
:104A10009307F00F938484B96304F7042A89294526
:104A2000EFD0CFA22A840DCD930700FD2300F5001F
:104A3000A147A30025012301F50083C72400B72562
:104A400000209385059BA301F5001946110597B039
:104A5000FE1FE780E07803C53400A285EFD00FAADF
:104A600003C724008D476311F702B727002083A7EF
:104A7000879C99CB03A38700630803002244B240BC
:104A80009244024941010283B240224492440249C5
:104A900041018280797122D406D626D24AD04ECEE8
:104AA00052CC56CA09445DCD2A8903550500AE890A
:104AB0005144EF90E059AA8455C537270020930749
:104AC00087CF83C747008546BA8AFD1793F7F70F4C
:104AD000494463F9F6080347C500A1476314F7008A
:104AE000639209089C5C4544B5EF916593854571D7
:104AF0001305C00297B0FE1FE780C05488DC2A8AE5
:104B00004D442DC11306C002814597B0FE1FE780BA
:104B1000A0708357090093064A0036852311FA00D6
:104B200071469305490036C697B0FE1FE780406B7B
:104B300089472300FA0003C5C400B24603560900A2
:104B400083C58ACF611513351500EFA0D0022A84E2
:104B500063860900CE852685EF90306001C42685E6
:104B6000EFF0CFFB2285B250225492540259F24901
:104B7000624AD24A45618280B727002083C7C7CFE7
:104B80000547FD1793F7F70F637AF708894741CA7E
:104B9000011122CC26CA4AC84EC652C406CEAA89E2
:104BA000368AB2842E89EF90A04A2A84D14739C927
:104BB000485509C597B0FE1FE7800055F145268589
:104BC00097B0FE1FE780A06748D4CD4705CD834648
:104BD000C40021478147639FE600630D0A00034735
:104BE000A5010356050193062501AA854E85EF9080
:104BF000705EAA8703474400630F090013676700CC
:104C00002302E400F2406244D2444249B249224ABB
:104C10003E850561828013674700DDB7C9473E8541
:104C200082809307100463EBA700B72700209387C7
:104C300087BB06053E9503550500828041657D15BD
:104C40008280011122CC2A842E8526CA06CEAE840B
:104C5000EF9000401DCDB7470F009387F72309451C
:104C600063E4870281450A85414697B0FE1FE780CD
:104C7000A05AA685231081000A8541802301810066
:104C8000A3010100EFA0C04EF2406244D24405618E
:104C900082804945D5BFB7270020238DA7CE8280CB
:104CA0006FA08067797152CC2A8A328522D426D2AD
:104CB0004AD04ECE56CA5AC85EC606D662C4AE8B1D
:104CC000B28A368BBA843E89C2894684EF904038D6
:104CD00015C92A8C63140A0213774B0083474500D9
:104CE00015CF93E727012302FC008DEC631C09021A
:104CF000639A090205E8ED9B2302FC00832B8C03D9
:104D000063910B08B250225492540259F249624AFC
:104D1000D24A424BB24B224C45618280F59B93E7CD
:104D20000701D1B793E747002302FC0001CC1C48E0
:104D30004146A2852324FC0213058C0197B0FE1F77
:104D4000E780004A63930B02D5D80325CC0209C53E
:104D500097B0FE1FE780403BF145268597B0FE1FC8
:104D6000E780E04D2326AC0251BFE30909F8032593
:104D7000CC0209C597B0FE1FE7800039F1454A858E
:104D8000F1BF9DC483A70B0299EB916593853571A3
:104D9000714597B0FE1FE780E02A23A0AB0203A570
:104DA0000B0219C57146A68597B0FE1FE7804043E8
:104DB0006388090283A74B0299EB9165938525715E
:104DC0005D4597B0FE1FE780E02723A2AB0203A555
:104DD0004B0219C55D46CE8597B0FE1FE780404067
:104DE0001DC483A78B0299EB91659385157151457D
:104DF00097B0FE1FE780002523A4AB0203A58B021A
:104E000019C55146A28597B0FE1FE780603D225428
:104E1000B2509254F249B24B224CCA865A86025979
:104E2000424BD6855285D24A624A45616FF06FEA9D
:104E3000011126CA52C406CE22CC4AC84EC62A8ABE
:104E4000AE84EF90E02025C5AA893945EFC01FE068
:104E50002A8431CDB727002003C987BE6314090017
:104E600003C909009307000D2310F400AD47230187
:104E7000F4009385690013053400194697B0FE1FAE
:104E8000E780003693F71400858085882306F400B8
:104E9000A306940023154401A2856244F240D24443
:104EA000B249224A4A85424905616FC03FE5F24056
:104EB0006244D2444249B249224A056182800111CA
:104EC0004EC652C456C206CE22CC26CA4AC8AA8AA8
:104ED0002E8AB289EF90C0172DCD2A891305C00202
:104EE000EFC0DFD62A8435C5B727002083C487BE2C
:104EF00099E0834409009307000D2310F400E9476B
:104F00002301F4009305690013053400194697B096
:104F1000FE1FE780E02CD285231554011305C40041
:104F2000414697B0FE1FE780A02BCE851305C40134
:104F3000414697B0FE1FE780A02AA2856244F24056
:104F40004249B249224A924A2685D24405616FC03D
:104F5000FFDAF2406244D2444249B249224A924ABC
:104F600005618280411122C4372400201304849BF0
:104F7000084006C619C597B0FE1FE780E018232039
:104F80000400B240224441018280011106CE22CCAD
:104F900026CA4AC82EC6EF90A00B39CDB245B72716
:104FA000002003C987BE0CD5AA84631409000349F5
:104FB00005004145EFC09FC92A841DCD9307000D10
:104FC0002310F500A5472301F50083C754009385FE
:104FD00064001105A30FF5FE194697B0FE1FE78088
:104FE00020209C54A285F2405CC46244D2444A858D
:104FF000424905616FC09FD0F2406244D2444249A9
:10500000056182801D71A2CC86CE2A842EC6EF90C7
:10501000200405CD8346C5001147AA874945639200
:10502000E6029C5FB24599C383C56701B7060200DB
:105030002308B10093864634100889452285EF90F5
:105040009008F6406644256182805145DDBFB72750
:10505000002083C7C7CF0547FD1793F7F70F637A83
:10506000F704894721CA411122C426C24AC006C694
:10507000B2842E89EF80D07D2A84D14705C563088C
:1050800009008347450093E727002302F5004146C6
:10509000A6851305840197B0FE1FE78060149C4825
:1050A0001CD48147B2402244924402493E854101CA
:1050B0008280C9473E858280797122D406D62A84AF
:1050C0002EC6EF80F07801CDB2452285230EB100C7
:1050D0006C08EF901005B250225445618280514512
:1050E000DDBF6F90800DC1671387E7FF6395E50211
:1050F000B727002083A7479C91EB4945828049450B
:10510000B2402244924402494101828003A3070035
:10511000E30503FE0283411122C426C24AC006C62B
:10512000FD172A892E84B284639AF502B7270020DE
:1051300083A7479C91CF9C4381CF829711E9B727E2
:105140000020238C279DB7270020A38C979C4DBF60
:10515000A6854A85EFE0BFD045F5D5B72E85EF800F
:10516000306F51DD834705000D45E39B27F922850C
:105170002244B2400249A685924441016FD0805436
:105180009307100463E2A7064111C16722C406C653
:1051900026C2FD172A8409456382F502C547AE84FD
:1051A0006313F4022E85EFD0A05937250020130594
:1051B00085BB06042A94231094000145B240224482
:1051C0009244410182809307A0036316F4002E8568
:1051D000EFD00050D9BF9307B003E318F4FC13F5E8
:1051E000F50FEFD0204FD1B709458280011106CECF
:1051F0002AC6EFE0FFC8EF20B007EF101026EF60DF
:10520000E279B7270020938787B9130700F023912D
:10521000E70023820700B72700203245138787CF96
:10522000FD562301D700F240238CA7CE954505619A
:105230006F70806D597193970501CAD086D6A2D43C
:10524000A6D2CECED2CCD6CADAC8DEC6E2C4E6C278
:10525000EAC06EDEC1872E8963D40756B7240020CA
:1052600003C584CFB7290020372B0020EFC07FA2D1
:105270002A8426CCB72A0020372C0020938489B9B1
:10528000B72C00201DE021653345A900B6502654F7
:1052900096540659F649664AD64A464BB64B264CB2
:1052A000964C064DF25D65618280834704001307CA
:1052B000200A639CE70003CA340003552400C1653B
:1052C0002286FD15EFF00F918DA26247130787CF5D
:1052D000034A2700130710096395E7168347140054
:1052E0001547639FE7002285EFF08F932285EFC07B
:1052F0003F93E24703C587CFEFC0BF992A8459B7D0
:1053000039476398E716035544008567A507631579
:10531000F5040C4483CB0500639D0B00850591C902
:10532000372500201946130505BB97B0FE1FE780FF
:1053300020EB03C789B985476315F71063880B0015
:10534000238C09B85E85EFF0CFC14DB78947238C18
:10535000F9B8EFD0E03959BF896713872700631C7C
:10536000E504832B8400638E0B0C83C70B0089EF4D
:1053700083C72B0003C71B00A207D98F2394F40017
:1053800083C73B00A380F40003C789B98947631A28
:10539000F70A83C70B0091C7238C09B803C50B001C
:1053A0005DB783C5140003D584008D47238CF9B8FD
:1053B000EF708058E5B795076318F5001C4403C5E6
:1053C0000700EFF08FE31DB7F9771387A7FF2A9740
:1053D00042074183914663F1E6049387A7FCAA97AD
:1053E000C207C18371476371F70289671387B700EA
:1053F0006310E50483A70A9CE38A07EE9C43A28519
:10540000E38607EE829715A0370700181307F77099
:10541000B357F700858BA1CB83278B9CE38807ECE0
:105420009C43E38507EC22858297E31105EC11A8E4
:105430001387C7006310E5021C4483C70700E38796
:1054400007EA9307F00FE303FAEAA2855285EFC05B
:10545000FF8A45B5B9076318F50083A74C9CE3871D
:1054600007E8DC4369BF896793871704E304F5F80D
:10547000C9BF3D476399E704035544008967138713
:10548000D700E30CE5FC13879701E308E5FCCD07A3
:10549000E319F5FA03D76400C167FD17631DF70030
:1054A00083A74C9CE38407E4DC43E38107E40965BC
:1054B000A2854D0581BFB727002083A7C79CE3873E
:1054C00007E29C43DDB71307E003E39CE7F683475D
:1054D000240005476398E70E8347640037270020C0
:1054E000930D879BE1E783A70D00D5CF83CB070002
:1054F000214A03457400130D8400EA85EFE09FDF25
:1055000083474401A303A400835804010358E40023
:10551000035744002A86034534003EC283572401C2
:10552000EA86DE853EC0D287EFF04FBC8347340069
:1055300095E7DD47835804010358E400834674006F
:10554000835544003EC2835724016A873EC0D287F8
:1055500005465E85EF80B068A301A40083A70D0017
:1055600081C71145EFF01FA0930B8C9D03C50B0065
:10557000E30E05D6B727002083C5979DEFE03F8E49
:10558000E30605D68346340093071003638AF600CA
:105590000356440083C50B0052873685EFE0DFA633
:1055A000230C0C9CA1B383CB340099B783278B9C2D
:1055B00083CB3400114A95DFDC4385DF814501450B
:1055C000829705BF29476398E70A83476400372716
:1055D0000020930D879BA5EF83A70D00B5C783CB54
:1055E0000700214A03457400930684009377250041
:1055F000BDCB13761500130344018347040283587F
:10560000C4010358A40103574400034534003EC2BB
:105610008357E401DE851ACE3EC0D287EFF00FAD8E
:105620008347340072439DFBDD478358C401035810
:10563000A40183467400835544003EC28357E401AD
:105640001A873EC0D28729B783CB340059BF83273E
:105650008B9C83CB3400114AD1D7DC43C1D7814521
:105660000145829741B7B68536CEEFE0BFC8F24616
:105670002A86368359B70947639CE70083A70A9CAB
:10568000E38607C6DC43E38307C622858297B9B960
:105690002D476398E70083A70A9CE38907C49C47CA
:1056A000DDB70D476397E70022868D45035544001B
:1056B00011B919476395E706930561021305103187
:1056C000EF6062362C1013052031EF60C2350356AF
:1056D0006400835781020355440063E8C700835682
:1056E00084000357610263F7E60093050002EFD0E0
:1056F0002004EDBE6374E6002313E40063F4D700D6
:105700002314F4000357C4008356A40003568400F6
:105710008355640001488147EFD04001C1BE1D4759
:10572000E381E7D231476395E7002286B145BDBFEB
:1057300035476398E70083A70A9CE38907BADC47EB
:1057400099B739476396E7002285EF00F00779BEE5
:105750003D476398E70083A70A9CE38907B89C4B01
:105760001DB741476396E7002285EF001011BDBECB
:1057700045476396E7000145EF00902085BE494705
:10578000639DE70083278B9CE38D07CADC43E38A94
:1057900007CA8145054582976DB14D47639CE70077
:1057A00083278B9CE38F07C8DC43E38C07C8A28563
:1057B0000945D5B76147E396E7C82286E145FDB5BF
:1057C00093F7150089CFB727002083A7079C89C7C7
:1057D000DC4399C3014582971345190045BC93F7F3
:1057E000250091CFB727002083A7879C91C7DC4372
:1057F00081C78145054582971345290041BC93F730
:1058000045000145E38407A8B727002083A7C79B6D
:1058100037240020130484B991CF85472302F40074
:10582000B727002083A7879C91C7DC4381C78145A8
:105830000545829748442C10EF90E07F2810EFF048
:10584000AF96B727002083D7A7BD81CF130600648A
:105850003386C702B727002003C587CF9145EFC025
:105860003F8F134549001DB4011122CC2A845545B0
:1058700006CE26CAEFF0EFBAAA8413054002EFF075
:105880004FBA2AC613055002EFF0AFB9AA86228597
:1058900062443246F240B3359000D24405616FC095
:1058A0001071797122D406D68D472E84631FF500BE
:1058B00003D7A50083D6850003D6650003453400D1
:1058C00083D54500EFE0DFF109A889671387D7008A
:1058D0006311E50403C5250019E58547B25022543C
:1058E0003E8545618280B727002083A6879BF5D639
:1058F00003C6360083C50600814802C202C00148C3
:10590000814701479106EFE07FFE0545EFF08FE507
:10591000E9B71387E700E302E5FC13873701631A51
:10592000E50003C5250055D901478146014681455B
:1059300051BFE507E303F5FAB1476319F500B7274F
:10594000002003C5B7B9EFE0FFF441BF41677D1701
:105950008147E315E5F803C75500C947E31FF7F68C
:1059600083D6E50003D6C5000355840083D5A50082
:10597000EFC0706A41C95D45EFF0AFAA3335A000B2
:10598000231CA10083454400035524003008EF8008
:10599000C05C83578101B1F36C0813051031EF60CF
:1059A00082089305E10113052031EF60C207835798
:1059B000C101035784006374F7002314F400835774
:1059C000E1010357A40063F4E7002315F4008357B3
:1059D00084000357A4006374F7002315F4000355F3
:1059E0002400EF4001630357E4008356C4000356CC
:1059F000A400835584000355240001488147EFC06B
:105A0000B050E1BD8547231CF100ADBFB727002092
:105A1000138787CF834677001307F00F638CE60860
:105A200051C9411122C426C24AC006C6AA840345F0
:105A3000A500138987CF4105EFC04FA12A842DC54A
:105A40009307000D2310F500D9472301F50083D7F4
:105A500044002312F50083C764002303F50083C7C5
:105A60007400A303F50083C784002304F50083C7F3
:105A70009400A304F50003C6A4002305C50015C2C5
:105A8000CC44410548C497A0FE1FE7806075A285FD
:105A9000224403457900B2409244024941016FC05B
:105AA000EFA523260500E5B7B240224492440249FF
:105AB000410182808280C1671387E7FF639EE50012
:105AC000B727002083A7879B9DC383C707000D4787
:105AD000639DA7006FC09042FD1749476397F5008B
