:020000024000BC
:100000006FC08212000000000018011800280128AB
:100010000228032800290129022903290429052986
:10002000062907290829002A012A022A032A042A64
:10003000052AA62A5CC90600801E04006A02002068
:10004000B40200202602002014020020DC0100205F
:10005000D81F0400042004004A2104005A2304008D
:1000600002240400F41C0400181C04008A1C040070
:10007000441C0400C8290400FC030020AE1F040037
:1000800084260400DE670600D66906004E6A060074
:10009000A01E0600E81E0600D65F05002A530500D4
:1000A00098610600BA2604007428060098E104004E
:1000B00026E204007EE204008C320400D832040000
:1000C000423104007C9D0400369804001AA7040005
:1000D000EAAA040096AE0400568A0400F4890400DB
:1000E000E08D0400A28A0400CA8904004E8A04003C
:1000F0007C890400268B04007E8B04002E8B040078
:10010000328B0400CE8B0400868B0400B88B040075
:10011000DC900400E4900400228B04002A8B04008D
:10012000CA8B0400E09004007C8C0400529204000E
:10013000F4BC040072BD0400B0BD0400E09F0400E4
:10014000F89F040034A00400AC830400CA840400B7
:100150004085040022510400C24B0400B67804001C
:10016000424C0400E2730400F6A50600209E06003F
:100170002AA3060052BB060018BA0600A8BE060055
:1001800060BE0600A0BE060050BF0600248C06001C
:10019000E0BE060056B106007CB10600A4B1060020
:1001A000C0BF060012B80600A8B7060030C006009F
:1001B000C08E06005C8F0600848F0600268F060026
:1001C000B04306008A2D06007E310600E82E0600A8
:1001D0004E3806003A62060034610600588C06006C
:1001E000902B040010200600542806004C2906001D
:1001F00004580600B65806007C5A0600E4A3040022
:1002000088420600D63806002A3F0600983B0600C2
:100210003E2D060000060020D8200600CCBE0600B9
:1002200064BE06009CBE060098BE060006230400BD
:1002300032A10400D4BE0600AA45060010470600FD
:100240008C47060090A30600D0BE0600D8BE06006C
:10025000B6520500DCBE0600C00F00207A14002054
:1002600070A3060010A5060056430600000000001B
:10027000000000000000000000000000000000007E
:100280006373B60082801C419105110523AEF5FE13
:10029000C5BFB7270020372700209387079A130789
:1002A00007F46373F700828023A007009107D5BF8E
:1002B0005DCDAA870145D5CD8D07C207C183F19BCE
:1002C000C207C18313074003636CF702372700207E
:1002D0000325879A372700208326079A6397A6026B
:1002E000372700200327C7B8014541C74111C2077E
:1002F00006C60545DD8D0297B24001454101828069
:10030000372700200325479AF1B70357650031EFDF
:1003100003574500636BF704B72600203306F74008
:100320002148938686B96378C8028328050003D8DC
:100330006600138687001D8F2A9661172312E60038
:10034000232016012313060010C12312F500130702
:1003500088FF2393E6002313B50083D566002105AB
:10036000B387F5402393F6008280084185BF01459D
:100370008280828009CDB727002003A3879AB72700
:10038000002083A8079A81469A8763E31701828039
:1003900003A807006369F50A6367A80A1387870043
:1003A000E367E5FE03D66700216705076319E600EA
:1003B000372600200347C6A605072306E6A63726EC
:1003C0000020130586B983D54700035765002393A2
:1003D0000700130686B92E97420741832313E500D1
:1003E00063876702372500200325459A6301F502DC
:1003F00003D5660009ED83D7460023A00601210737
:10040000BE95A1052392B6002313E600B687984354
:10041000E30F17F7B726002083A6469AE309D7F61D
:1004200083566700ADF683D64700835547001843CF
:10043000A106AE962392D70098C383576600A10702
:100440002313F6008280BE86C28781B719CD91CD75
:1004500009CE81473387F500834607003307F5004F
:1004600085072300D700E317F6FE828019C991C9DA
:1004700009CA910583A7C5FF11057D16232EF5FE38
:10048000C5BF828001C919C62A960505A30FB5FE0E
:10049000E31DA6FE828081473307F50003070700AE
:1004A00019E33E8582808507C5BF01112E8626CAC5
:1004B000AA84131506019305F004418122CC06CECF
:1004C00032C6FD332A8401C53246A68541372285CE
:1004D000F2406244D24405618280854715C18DC1D6
:1004E00005C28147B306F5003387F50083C60600D1
:1004F000034707006398E6008507E315F6FE854786
:100500003E8582808147EDBF9307F6FFBE952A9610
:100510006313C5008280FD1583C715000505A30F71
:10052000F5FEFDB7AA87014581CF09CE3E96850726
:1005300003C7F7FF6317B700E39BC7FE054582803B
:10054000828001458280797126D2B724002022D48E
:1005500003A4449C06D64AD04ECE52CC56CA5AC8A2
:100560005EC662C455C8372A002037290020B72943
:1005700000209384449C814BB72A002037CBC901CB
:10058000130ACAB5130989B99389C9BD83572400D1
:1005900091EF5C4463990B009CC0032CC40022853E
:1005A000D13B6284B9A823A6FB00C5BF83A7CA9B21
:1005B00082971C443307F5406376F50003A7490092
:1005C0001D8F2A979306FB3763EBE6062328090065
:1005D0008355240003450400972004E0E78000C70A
:1005E0005C405844B1C70C4403A64900AE97BE8690
:1005F00063E4B70063E4C700B386C74014C4A28BAA
:100600003A8449F4B7270020938787B9984B8946E5
:1006100063FBE604791798CBB250225492540259E6
:10062000F249624AD24A424BB24B224C4561828027
:1006300063940B0098C095B723A6EB00B9BF0327BE
:100640004A0219CB63EDA7003385A7408327090130
:100650006374F5002328A900A28B40445DB703A76B
:100660004900BA97D5B723A807007DB701114AC83A
:1006700037290020832709BC06CE22CC26CA4EC6C5
:1006800052C4130909BC81C7829723200900B724EB
:100690000020938704E883C75700938404E8858B80
:1006A0008DC3A382040083C774001547637BF700E2
:1006B000EF00B04C83C77400F5178A07CA979C43B4
:1006C00082978327890091C382973724002093075C
:1006D00084B903C61700B729002003A7099B130498
:1006E00084B99389099B8347040093961700BA96AF
:1006F00083D60600C9CE8347040063E2C70A832776
:100700000900230004006390071083C7940081CF81
:1007100083C7740093F7F70F99E7A3840400972029
:1007200006E0E780A00AB727002083A7C79BE1CF98
:10073000B727002083A707BE1CC83135B727002084
:100740009387C7B5D85361C383C757011848636CF3
:10075000F70A83C7740015476367F70AB7270020B5
:100760009387C7EB83C7C700918BD1EF83461400F3
:1007700003A6090063C1D70A6244F240D244424949
:10078000B249224A0561172304E06700A3F48507F4
:1007900093F7F70F2300F400E3E7C7F4A9BF860738
:1007A0003E97835507002310070003450400B72731
:1007B000002083A7879C13172500372A0020BA97AB
:1007C0009C43130A8A9B23100A00829783570A00CE
:1007D0000347040093C7F7FF7D8D9317170003A706
:1007E00009003E97835707005D8D2310A7008347BC
:1007F000040081C785072300F400034704008347F2
:100800001400E37EF7EEF2406244D2444249B2491A
:10081000224A056182801397170032970357070019
:100820007DF3850781BFAD6737C70040BD0723262D
:10083000F7200F100000B7270020938787B9C84F13
:1008400083278726BD66BD0693C7F7FF99836A0590
:100850002326D7205D8D82804111B7170040985F15
:100860003AC6945F3247E39CE6FE324541018280FE
:100870001305F00F828003278511630007124111D1
:1008800022C406C68347C5008345E5042A8493F73E
:10089000C70F2306F500834697000356C70013953C
:1008A0008601618563F1C508635A05060345870023
:1008B00093F6F607A304D700054693E627006314D2
:1008C000C50093E617002306D4005C4389075CC388
:1008D000A30AB400032504112E864C430905BD3636
:1008E0008327841103465401D44303D7C700B2962B
:1008F000118FD4C32396E7008947A30DF400B727CF
:1009000000200347640383C7E7B66378F70483478F
:10091000C40093E707012306F40081A093E71700C2
:100920002306F40075B79376F60F635D0502034561
:100930008700854513E627006314B50013E617000A
:100940002306C400A30AD400A30407008547A30D0F
:10095000F400832784119C43DDF3B2402244014517
:100960004101828093E717002306F400A30AD40014
:10097000A3040700032504114C430905C13C832748
:10098000841103465401D44303D7C700B296118F94
:10099000D4C32396E7008D475DBF05458280B72706
:1009A000002083A747A9411122C406C6858B2A844B
:1009B000DDEB4165130525F5977005E0E780C0C9BB
:1009C0005DC18347A5002315F50083270412B5E711
:1009D0002320A4122322A41285472311F4042320E8
:1009E00005008347640154412316F5000347D400F2
:1009F0002304E5000547A304E5003727002003276B
:100A000087E91385170215811C437D151375F50FB2
:100A10009CC25C43DCC21C479CC65C47DCC61C4BCA
:100A20009CCA5C4BDCCA1C4F9CCE5C4FDCCE19CD03
:100A30009386060213070702C1BF8327441288C3A7
:100A4000835724042322A412850741BFB72700201F
:100A5000938787D503D7870005072394E700B24023
:100A60002244410182808347C400230904000545D4
:100A700093C747002306F400DDB78347850193F74A
:100A8000E70FDDEB83479501C5EB03462501834660
:100A9000C50009CA37270020834565030347F7B619
:100AA00063E7E50013F7060149CB014709C6C18A90
:100AB0000357651C81C68356A51C36973DCFB727C3
:100AC000002003D547BE1307C71237460F00B335C2
:100AD000A702411113060624814622C426C206C677
:100AE0007D543305A70297C006E0E780E094B7275E
:100AF000002083C757B7B384A700B727002003A7F8
:100B000007DF8327070963F387003E84184375FBDB
:100B1000B727002083A7C79B829781476364A400FF
:100B2000B307A440B2402244B3B7970093C717005D
:100B300092443E854101828081473E858280B7276D
:100B4000002003A747AC7C53FDFF8280797126D239
:100B500006D622D44AD04ECE52CC56CA5AC85EC609
:100B60008347550303447513AA843E941374F40F0A
:100B70009307400263F687001304B4FD1374F40F67
:100B800003AA841383AAC413A38B841222865285DA
:100B9000D68597C006E0E780A084058915E503CBDC
:100BA000D41201498149337B6403930B50024A8676
:100BB0005285D68597C006E0E7808082058915C5F5
:100BC000639169031374F90F238B8412B25022547A
:100BD00092540259F249624AD24A424BB24B4561A1
:100BE00082808509E20993D989410509E31179FDDC
:100BF000E1BF8327850903560504797193D6070160
:100C0000BD8EC206C182358E13577640935756402B
:100C1000898B058B5D8F93573640918B5D8F9357F2
:100C20001640A18B5D8F93171600C18B5D8F9317B4
:100C3000360093F707025D8F931756009355860091
:100C400093F707041E065D8F1376F60F518F93D727
:100C5000554013D63540118A898BD18F13D67540F4
:100C6000D18F13D61540218AD18F13961500418A52
:100C7000D18F1396350013760602D18F1396550047
:100C8000137606049E05D18F93F5F50FCD8FA2073D
:100C900045465D8F3307C70222D42A8426D252CC20
:100CA00056CA032A8413832AC4135AC806D6369711
:100CB0004207418393577740135557400989858BE5
:100CC000C98F135537401189C98F13551740218992
:100CD000C98F131517004189C98F13153700137574
:100CE0000502C98F13155700935587001375050426
:100CF0001E07C98F1377F70FD98F13D5354013D738
:100D000055401189098B498F13D57540498F13D5EB
:100D100015402189498F139515004189498F1395F5
:100D2000350013750502498F139555001375050499
:100D30009E05498F93F5F50F4D8F2207D98FB38705
:100D4000C7024AD04ECE5EC662C4B697C207C18300
:100D500013D7774013D557400989058B498F13D591
:100D600037401189498F13D517402189498F139531
:100D700017004189498F1395370013750502498F74
:100D80001395570093D58700137505049E07498F67
:100D900093F7F70FD98F13D5354013D755401189E5
:100DA000098B498F13D57540498F13D5154021897B
:100DB000498F139515004189498F13953500137597
:100DC0000502498F13955500137505049E05498F3B
:100DD00093F5F50F4D8F2207D98FB387C7021306FE
:100DE00050025285D685B697BD8E93940601C18078
:100DF00033F6C402137BF60F97B006E0E780405E3F
:100E000005890DED8347D41201498149B3849702C6
:100E1000130C5002C1804A865285D68597B006E0F1
:100E2000E780005C0589937BF90F11C56386340365
:100E3000850993F9F90F0509E31F89FD230B641355
:100E4000B250225492540259F249624AD24A424B59
:100E5000B24B224C456182805E8BCDB7797122D432
:100E600006D683C735002E8423160100A307F100A0
:100E700083C74500100802C02307F10083C755004F
:100E80008A8502C2A306F10002C402C802CA02CCCB
:100E900002CED5220347F1018347040001456310C8
:100EA000F7020347E1018347140001456319F70086
:100EB0000345D101834724001D8D13351500B25021
:100EC0002254456182800111B727002022CC03A45F
:100ED00007E226CA4AC84EC606CEAA8413092500D0
:100EE000854915C083C7140003473400858B63040C
:100EF000F700405CFDB71946930544004A85EFF0C2
:100F0000CFDDE31835FF2285F2406244D2444249E6
:100F1000B249056182804111B727002022C403A491
:100F200007E226C24AC006C693042500054901E827
:100F30002285B24022449244024941018280A68522
:100F40001305A402213FE30525FF405CCDB7411105
:100F5000B727002022C403A407E226C24AC006C65F
:100F600093042500054901E82285B24022449244B9
:100F7000024941018280A6851305A401C535E30518
:100F800025FF405CCDB7011122CC604126CA4AC87A
:100F90004EC652C406CEAA841D4A1309650585496A
:100FA000BC446364F400054581A803C7D4008347AB
:100FB0004400631B470503C784026304F700004035
:100FC000C5B70347540083C75405E31AF7FE194613
:100FD000CA8513056400EFF04FD0E31235FF0347D5
:100FE000C40083C79402E31CF7FC0357E40083D7D3
:100FF000A402E316F7FC0145F2406244D2444249A0
:10100000B249224A05618280E31BF7FA0347540084
:1010100083C75405E315F7FA1946CA85130564001A
:10102000EFF0AFCBE31D35F9F9B70111B727002079
:1010300022CC03A487E126CA06CE2AC42EC6854444
:1010400019E40145F2406244D2440561828083473D
:10105000910003471400858B6304F7000044CDB76B
:1010600019469305A10013052400EFF00FC7E317FD
:1010700095FE0545C1BFB7260020938746AB984330
:1010800013080010232007010100010001000100E6
:101090009C43938646AB23A00700034715000348F3
:1010A000250022074208429703480500429703485B
:1010B00035006208429798D70347550003486500FA
:1010C00022074208429703484500429703487500AB
:1010D00062084297D8D7034795000348A500220726
:1010E000420842970348850042970348B5006208CA
:1010F000429798DB0347D5000348E50022074208E2
:1011000042970348C5000345F500429762052A97B8
:10111000D8DB03C7150003C52500220742052A971F
:1011200003C505002A9703C5350062052A9798CFA5
:1011300003C7550003C56500220742052A9703C56A
:1011400045002A9703C5750062052A97D8CF03C7C3
:10115000950003C5A500220742052A9703C585000F
:101160002A9703C5B50062052A9798D303C7D5000F
:1011700003C5E500220742052A9703C5C50083C5BC
:10118000F5002A97E2052E97D8D3D843759BD8C38C
:10119000D84313671700D8C398431367170098C341
:1011A00098425C43858BD9E31C4F01452300F60030
:1011B0009C429C4FA183A300F6009C429C4FC1839C
:1011C0002301F6009C429C4FE183A301F6009C4260
:1011D000D84F2302E600D84F2183A302E600D84F60
:1011E00041832303E600D84F6183A303E6009853AD
:1011F0002304E60098532183A304E6009853418317
:101200002305E60098536183A305E600D85323061F
:10121000E600D8532183A306E600D8534183230771
:10122000E600DC53E183A307F600828001008DBF56
:10123000B726002003A786AB01114AC81C5F4EC623
:1012400006CE998322CC26CA858B938986AB372913
:101250000020ADCF1C5F37240020930404E893F7EF
:10126000F7F91CDF930704E883C76700130700083A
:101270006319F700832749AB9C4393F70704238343
:10128000F400834704E893F7070489CFB7270020C9
:1012900083A7C79B829788C8834704E893F7F70B17
:1012A0002300F4E883C7440093F7070485E38547E8
:1012B000A382F400B727002083A747AC096798C72B
:1012C000130700FC2382E400D844F8D383A7090065
:1012D000985F1183058B19CB985F85463D9B98DFFE
:1012E00037270020130707E82302D700985F1D83E4
:1012F000058B01CF985F1377F7F798DFB7270020AA
:10130000938707E805472382E700832749ABD84343
:101310000583058B19C7D843759BD8C3D843799BE0
:10132000D8C3F2406244D2444249B2490561828046
:10133000397106DE16DC1ADA1ED82AD62ED432D23D
:1013400036D03ACE3ECC42CA46C872C676C47AC2BD
:101350007EC0F93DF250E2525253C2533255A2556B
:10136000125682567247E2475248C248324EA24E47
:10137000124F824F216173002030B727002083A6CF
:1013800047ACB7270020938707E803C70700058B02
:1013900011C723820700A3820700828003C71700BA
:1013A000058B65FBF85275F303C75700EDB7372877
:1013B0000020032788AB1C5F9583858BD1E709C686
:1013C0001C5BBD832300F60085CA832788AB985B2E
:1013D0004607935767016356070093E707C0C207A4
:1013E000C18303970600C207C18709C7BA97094797
:1013F000B3C7E7022390F60037270020130707E85A
:1014000095C9834715009DC70346670093869700DB
:101410008947137606041DC63695834605000546A2
:10142000994793F5F606639FC500E206E186B94742
:1014300063CA0600832788AB9C5FED838D8BA30571
:10144000F70081473E8582808547EDBF411122C468
:1014500006C63724002026C2032744AC2DE9AE87F8
:101460007453FDFEB7240020938404E83E85B285C2
:1014700023810400971006E0E7808009B727002049
:1014800083A787ABB70680009843558F98C3D8577A
:10149000719BD8D7832744ACA3820400A3800400A7
:1014A000094798C3832644ACB7270020938707E8F1
:1014B00003C72700058B19E703C73700058B59C7FA
:1014C00023820700B24022449244410182808D472A
:1014D000631FF500B727002083A787ABB7068000FE
:1014E0009843558F98C3D857719BD8D765BF854708
:1014F000E31AF5FA5447F977FD17F58F5CC70F101B
:101500000000832744AC0967130600F898C7372703
:101510000020130707E82302C7003727002003260F
:1015200087AB184231830D8B11E713076019F8D38D
:10153000D4C78DBF1842094631830D8B6315C70090
:101540001307E043EDB71307E01BD5B7F8522DF3AF
:1015500095BF5D71A2C4A6C22A841306800228002A
:10156000AE849305100886C6CAC04EDE52DCEFE09A
:101570007FF13545971006E0E780203737230020BC
:10158000832783AB9376F41F372E002023A4070014
:10159000984BB72E0020370FFCFF1367F70398CB4B
:1015A000F84F130510F8B7020400137707E0558FC2
:1015B000F8CF9843F576FD16758F98C39843B70614
:1015C0003300930380251377F7E798C398431149B5
:1015D0007D1F1377F7E71367071098C30327CEAC77
:1015E0008549930F80021C47D58F1CC783A74EAC3B
:1015F0001307900D3400B8CB014793553700A695DB
:1016000083C7050013767700B3D7C740858BE1C346
:10161000832783AB8328CEAC239C07042390070643
:1016200003A8C8021378D8FF23A6080383A80700DD
:101630001378F70793F808F833E8080123A00701A7
:1016400003A847023368580023A2070383A84EACBF
:10165000014823A2780603DA07066307480303A8B4
:101660000703038A06001358F800620813588841DC
:1016700063580A0103A807031358F80023800601E2
:1016800003D807061378F80F03AA480663060A0072
:1016900003DA8705E37F49FB03A847023378E801B3
:1016A00023A2070383870600635CF40003C80500D8
:1016B0003396C9001346F6FF337606012380C50032
:1016C0003E8663D3A7002A86131586016185050728
:1016D0001377F70F8506E312F7F3B64026449644D6
:1016E0000649F259625A61618280372600208327B9
:1016F00046AC130646ACD8479316170163D20602D0
:1017000098479316170163DD06007D57B8D7372732
:101710000020130787B9544F850654CF116798C727
:1017200098470D83058B0DC337270020130707E863
:101730008346270093E616002301D700930600F89E
:101740002302D700214798C79847058B09CF372731
:101750000020130707E88346170093E61600A3004E
:10176000D700054798C798470983058B09E798472D
:101770000583058B39CB9447372700203725002078
:101780008982858AF5CE832685AB9442B1828D8A83
:10179000EDE6AC4B930607E8944E93F5050283C63D
:1017A0001600D5C5E1EA93067006D4CF834607E854
:1017B00093E616002300D7E8114798C7032785ABA7
:1017C0005C57F19B93E717005CD718421C47939630
:1017D000370163D40602B7270020938687D503C656
:1017E0008607938787D5418A55C683C7860793E7BF
:1017F0000702238CF60685671CC71C4793962701B2
:1018000063D10602B7270020938707E883C6470005
:10181000E206E18663D5060085462382D700896704
:101820001CC71C479396070163D20602B727002006
:10183000938787D583C69707858AADCE83C69707DA
:1018400093E62600A38CD706A1671CC78280A1DE81
:1018500085456395B6009306B00681BF89456395BB
:10186000B6009306F00691B78D456395B6009306D2
:10187000300725BF930650070DBF9306600735B7A5
:10188000130707E88346370093E61600A301D70045
:10189000094725B783C687070946BD8A6388C600FE
:1018A00083C687070D46BD8AE397C6F49146238C0D
:1018B000D70691B783C69707918AD9D683C697076B
:1018C00093E6860041B7397106DE16DC1ADA1ED8B7
:1018D0002AD62ED432D236D03ACE3ECC42CA46C8D0
:1018E00072C676C47AC27EC00935F250E2525253B3
:1018F000C2533255A255125682567247E247524899
:10190000C248324EA24E124F824F216173002030E6
:1019100037270020B72600201386C6E91307C7EB38
:101920008347D7008345B601484AAE97FD8BB35530
:10193000F500A300F600A306F700858995E90347A3
:101940001701814613080002B3F7E7020147B355B8
:10195000E50085899378F70F89C96395D700A300BF
:1019600016018280850693F6F60F0507E31107FF3F
:101970008280B7270020938707E883C7570093F733
:10198000F70FD1EBB727002083A7C79B411122C4D3
:101990004AC006C626C28297372900209307C9EBA2
:1019A00080471309C9EB6302A40663688504018DAF
:1019B000B72400209387C4E983C7A70113545500B7
:1019C0009384C4E96363F404A13783C7A4010327A4
:1019D00089009396570036971D8C2324E900E37500
:1019E000F4FE224403C51400B240924402498145EA
:1019F0004101171306E067000338B727002083A7CB
:101A000007BE33848740229565B7B2402244924492
:101A10000249410182808280B727002083A7C79BAB
:101A2000011122CC26CA52C406CE4AC84EC682979D
:101A3000B72400209387C4EB8047014A6301A406C2
:101A40009384C4EB63668506018D372700209307D6
:101A5000C7E983C7A70113545500137AF501130989
:101A6000C7E9636BF402B72900209389C9BD4D35DE
:101A70008346A90103A8840083A549001397560053
:101A80004297158C3A86636407016364B700330696
:101A9000B74090C4E37DD4FC1604336A4401F2409D
:101AA00062445285D2444249B249224A0561828049
:101AB000B727002083A707BE33848740229571B7DC
:101AC000B727002003A747AC8567938707777CD3A8
:101AD000B727002083A7C7AC83A607091396560033
:101AE0006358060083A60709139666006344060040
:081AF0007453FDF28280000036
:101AF800B72700203727002083A7879A0327079A4C
:101B080001456313F700828083D6670081E683D698
:101B1800470036959C43F5B7B727002083A5C7B57E
:101B2800372700209387C7B5138605222324C79A31
:101B380003D74700938785FFB72600204111BA973E
:101B4800056523A0F69A06C61D05935637006374EB
:101B5800E500930600203307D6003725002023220E
:101B6800E59A23A0E522E1162312D60023130600E6
:101B78001CC3998FE1172312F700231307008D3F29
:101B8800B240B7270020239FA7B841018280B7271A
:101B980000203727002083A7879A8326079A0145C4
:101BA8006393F600828003D7670011E703D74700E5
:101BB8006373E5003A859C43E5B7B7270020B7264D
:101BC800002083A7879A03A6069A2A87B305B540FB
:101BD8006314F6003A8529A8938687009C43E36935
:101BE800D7FEE377F7FE2E85E3E4D5FEE3F2F5FEB4
:101BF800828023AC05FE1C4191E7010001000CC165
:101C08008280BA8703A787FF6DFF23ACB7FE828067
:101C18001DC18346E5FF1307F00F9147639EE60059
:101C2800411106C697E0FB1FE780804DB24081470F
:101C38003E854101828095473E85828001E90145C4
:101C480082800145B240224441018280956541115C
:101C5800938505D022C4C98D2A842105C205420571
:101C6800C181418106C697E0FB1FE780203D71D9FD
:101C7800FD5723200500231285002303F5002105C5
:101C8800D1B7411126C2B724002022C44AC083A775
:101C9800C49A06C6014401499384C49A89E7A16598
:101CA8004D2D05C401A803C7E7FF6317A70215C890
:101CB800A165392E9840832784FF6316E4029CC0EF
:101CC800FD57232C04FE230FF4FE2285B240224444
:101CD800924402494101828011E03E8983A787FF2F
:101CE80075BF3E84E5BF232CF9FED9BFB1CDB72718
:101CF800002083C797B9411122C406C62A842E85BD
:101D08006375F400894763E8870019370D45B240C9
:101D180022444101828083A785FF99E703C7E5FF35
:101D28009307F00F6305F700E5351545CDB737255F
:101D38000020238F85FE1305C59A653D2285224420
:101D4800B240A165410169A415458280B7270020EA
:101D580023A6079A8280B727002083A7479C99E388
:101D68003E85828003D727006316B70003C70700A4
:101D7800E308A7FEDC47E5B7C1C1797122D406D6CE
:101D880026D24AD04ECE01444147B3D78540858BF1
:101D9800B9CF1205314722953305E502B727002050
:101DA80003A9479B8544B3948400C204C1809389E6
:101DB800479B2A990327090011C7032549002EC606
:101DC8000297B24531473304E40283A709003E94E1
:101DD8001C4489E72320090023220900B250225419
:101DE800A58D02599254F2492E85456182800504D9
:101DF800E31DE4F88144DDB72E85828041111397F5
:101E0800050122C406C626C24AC041872E84635EE5
:101E18000700853D11C1ED3BA1673D8C2285B2408D
:101E280022449244024941018280EDD9AA870147A0
:101E38004146B356E440858A9DCA9207BA97B1468F
:101E4800B387D702B726002003A9469B8544B394DD
:101E5800E400C204C1803E99832709000325490094
:101E680082972320090023220900258C45BF0507F6
:101E7800E311C7FC8144D5BFB727002083A7C7B7A4
:101E8800411122C406C6372400201304049791C7C1
:101E980082971C403E9508C031A0B727002083A731
:101EA800C79BFDF70840B74703009387D73F330523
:101EB800F502B7A72600938737ECB2403E9508C0D5
:101EC80022444101828071CDB727002083A7C79B98
:101ED800797122D426D24AD04ECE52CC56CA5AC88C
:101EE80006D65EC63A8AB689328BAE8A2A89829726
:101EF800B727002003A7479B9384479B0144B1461B
:101F0800C147B30BD40233067701104251E6C165CD
:101F1800938505F0414597E0FB1FE780201215E502
:101F2800B727002083A7C7B82D4589C71145814524
:101F380082972D45B250225492540259F249624A6E
:101F4800D24A424BB24B45618280B7260020938625
:101F5800469C984215EF88C2230005009C4005471F
:101F68003317870023260500232465012311E50084
:101F780023224501DE9723A0270123A2570123A48A
:101F880047010145E38809FA2380890065B73E8740
:101F98005C47F5FF48C7C9B70504E314F4F62145C3
:101FA80051BF09458280B727002083A7079C4111AC
:101FB80022C406C637240020130484B989C782972F
:101FC8005C483E9548C84848B24022444101828056
:101FD800B727002083C797B96370F5023727002019
:101FE800931715000325079B3E9583570500DD8D44
:101FF8002310B500014582800D458280B727002057
:1020080083C797B96372F502372700209317150025
:102018000325079B93C5F5FF3E9583570500FD8D66
:102028002310B500014582800D458280130705FF06
:102038001377F70FFD4763E5E70AB146B306D50204
:10204800B727002003A7479B89473697184351CBEA
:10205800011122CC26CA0544935445003D89331505
:10206800A4001314050141804AC826852E89A2853B
:102078004EC606CECD31AA89814739C9A2852685A3
:10208800B53FB727002083A7C79BB72400209384B8
:10209800C4BD829783D784002A848146B3852703E9
:1020A80013060064B3B7270313850532B335B500AB
:1020B800BE95EFA0A210B30785003E87D44063E425
:1020C800A70063E4D7003387D74023A4E9008147FA
:1020D800F2406244D2444249B2493E850561828059
:1020E80089473E858280011126CA06CE22CC4AC87D
:1020F8004EC6BD47894463EEA70231473307E50260
:10210800B727002083A7479B8944BA979C4395C368
:1021180005443314A400420441802E890145A28558
:102128001D39AA89814411C5A2850145C13D23A451
:102138002901F240624426854249D244B2490561E8
:102148008280B727002083C797B96364F5000145EB
:1021580082800111B727002056C283AAC79B06CEEA
:1021680022CC26CA4AC84EC652C463880A0A3729EE
:1021780000201309C9BD2E8A83244900835589008C
:10218800B74736FE938707C8BE94B387C5022A842B
:10219800B2898146B3B5C50213850732B337F50056
:1021A80013060064BE95EFA0620163E8A406829A54
:1021B80083558900AA8413060064B38735038146D2
:1021C800B3B5350313850732B337F500BE95EF90E5
:1021D800F27EB3079500BE840327490063E4A70095
:1021E80063E4E700B384E740D2852285AD3601C5B4
:1021F80004C5054525A0936504F0C205C181414584
:1022080097E0FB1FE78080E31DE1B727002083A745
:10221800C7B881C7A285114582970145F24062443B
:10222800D2444249B249224A924A056182803727FC
:1022380000201307479C1C4385E308C385472326D2
:10224800050004C52311450123008500A300F500FE
:102258002322050079BFBA87D84775FFC8C7F9BFD9
:1022680049CD797122D426D24AD04ECE52CC5EC600
:1022780062C466C26AC006D656CA5AC83689328A45
:10228800AE89AA844144314CB72C0020054D930BEC
:102298000003B30A8403138B4C9B03270B00569748
:1022A8001C43B9E79375F400B315BD0013554440BA
:1022B800C2055286C1811375F50F613515C983278B
:1022C8000B000145D69784C323A237016304090094
:1022D80023008900B250225492540259F249624AAA
:1022E800D24A424BB24B224C924C024D45618280FD
:1022F8000504E31074FB2145F1BF094582804111B3
:1023080022C426C24AC006C62A842E89B284153D34
:10231800CA852285893405CDB727002083D547BED5
:102328002A8413060064B38795028146B3B59502E3
:1023380013850732B337F500BE95EF90326848C071
:102348000145B2402244924402494101828021451C
:10235800CDBF411122C426C24AC006C62A892E848E
:10236800DD3AAA8419C123110500A2854A8579316D
:10237800B727002083C787B9639B2701B7270020A9
:102388009387879B03D70700598C239087000145C3
:1023980091E01945B24022449244024941018280A9
:1023A8009307F00263E8A7044111B14722C433043C
:1023B800F50226C2B72400209384449B9C4006C69D
:1023C800A297984389470DC39377F5008545B39540
:1023D800F500C205C1811181AD3F9C40A29723A0A1
:1023E800070023A207008147B240224492443E8559
:1023F8004101828089473E858280411106C622C4F8
:10240800993A11E50145B240224441018280B7273B
:10241800002083A7C79B00458297B7270020938792
:10242800C7BD6368A402D843B74636FE938606C87C
:102438003305A4403697E377E5FC13070064B3350A
:10244800E50203D6870081463305E502EF9012576F
:102458005DBFD8433A94C1BF411122C426C2372474
:102468000020B72400201307C4BD938484B994487E
:1024780058434AC0B72700203729002006C683A73B
:10248800C79B1304C4BD1309C9B56391E6088297B5
:102498005440B74736FE938707C8B6973387A700D7
:1024A8003A856364F7006364D7003305D740B724DF
:1024B8000020938704E89C4F938404E899CBB727BE
:1024C800002083A6C7AC3707CDFF7D179C46F98F40
:1024D8009CC611E1484083274902829719E59C4C24
:1024E80085C3EF00425CEFF051339C4C91CBB7278A
:1024F800002003A7C7ACB70633001C47D58F1CC7FD
:10250800B240224492440249410182808297834723
:102518005901984854401D8FB307A7003E8563E4CE
:10252800E700E3E6D7F83385D74051B74111B7271D
:10253800002006C623A0A79C0295B240B72700201A
:1025480023A8A7BA014541018280994763EAB700E9
:1025580093972500B7250020938505BCBE9588C1B3
:102568008280B727002023A2079C37250020B727A1
:102578000020411123A0079C7146B7270020814500
:10258800130505BC06C623AE079A22C426C297E0E7
:10259800FB1FE780E0C7372500201306800281452E
:1025A800130485B9130585B997E0FB1FE78040C67A
:1025B800EFF08FD6B727002083C737B78545B724F4
:1025C800002013D527008D8B3E958D473305F502E6
:1025D80099479384449B39051375F50F2301A4008B
:1025E8003305F5021305052497E0FB1FE78000A5D6
:1025F80088C041C103462400994781453306F60245
:102608001306062497E0FB1FE78080C09C40034721
:102618002400B7240020938707249384849C0A0706
:102628009CC0BA97372700202328F79AEFF00FF2BB
:102638004529834714009440372604001397270040
:102648003697130606D810C3138717001377F70FAA
:102658000A07372604003697130646E010C3138787
:102668003700890793F7F70F8A07A300E400B697A6
:1026780090C3B2402244924441018280372700200F
:10268800130787B9834717008346270063F0D702EB
:10269800B726002083A6869C13861700A300C700D0
:1026A80013972700369708C33E8582809307F00F5B
:1026B800E5BF1C416384071241777D8FB706002070
:1026C8008947631ED71003574500630A0710411155
:1026D80026C21946AA849305F00F690506C622C4C6
:1026E8004AC097E0FB1FE780A0BC05478D47630001
:1026F800E50E9C4491C7D858994771CB985C61CB3B
:10270800372400201306C00381451305C4B597E09C
:10271800FB1FE780E0AF1306C003A6851305C4B509
:1027280097E0FB1FE78040AB1309C4B50357C90006
:102738009307C4B509E7130700102396E70003C7FA
:10274800E70001E705472387E70003D7070101E70B
:102758006D472398E70003C7F70001E71547A387EC
:10276800E70003C7270101E705472389E70003C7F7
:10277800370109E703C7F700A389E70003C7470143
:1027880001E73547238AE70003C7970109E71307DD
:102798008002A38CE70003C7570109E71307D0029B
:1027A800A38AE70003C7840109E71307C003238C42
:1027B800E7009C5791C78297B72700202390A7BAB4
:1027C800B72700207D57A385E7B4613B8147B24016
:1027D8002244924402493E854101828089473E85D0
:1027E800828001114AC8372900201309C9BD8327EF
:1027F800090006CE22CC26CA52C456C24EC68297BB
:10280800130A0064B3354503835A89008146568606
:1028180033054503EF90921AB7270020138787B92D
:10282800004FAA84014563069402938987B93385CA
:102838008440636E94000325490056868146B3356B
:10284800AA023305AA02EF907217018D269523ACD0
:102858009900F2406244D2444249B249224A924A1B
:1028680005618280011122CC2E84B7C506000A8535
:1028780041469385456106CEEF90D24D180806046F
:102888003A94B7270020035504FF83D767BEF24068
:102898006244AA9737450F00130505243355F502FE
:1028A80005618280B727002083D767BE51471D4541
:1028B800637CF702794719456378F7021307200309
:1028C80015456373F7021307B0041145637EF700DB
:1028D800130740060D456379F7001307600909459A
:1028E8006374F70013B5B70F8280011122CC06CEAE
:1028F8002A842EC6EFF04FD8B245F240818D33A519
:10290800A502229562441375F50F056182800111B5
:1029180022CC06CE2A842EC6EFF00FD6B245F2405E
:10292800818D33A5A5022295624442054181056146
:102938008280011122CC06CE2A842EC6EFF0CFD396
:10294800B245F240818D33B5A502229562440561F6
:102958008280B72700201387C7B518572DC34111A8
:1029680022C426C24AC006C61389C7B50297B7272C
:102978000020138787B9035787002A84938487B96F
:102988000DCBBA876373A700AA87C207C183BA862B
:102998006373E400A286C206C182958F5147635AC9
:1029A800F7008327C90291C38297EFF0B179239486
:1029B8008400B240224492440249410182808280CC
:1029C800011122CC372400209307C4B5DC5706CE6A
:1029D800AA851304C4B581C72AC68297B245B5CD66
:1029E8009C410545BDC7DC41ADC783D78500B5C34C
:1029F80083D7A500B9CF83C7C500A1EF372500202D
:102A080041461305C5BD97D0FB1FE780E07CB7277B
:102A180000209387C7BD944337270020232ED79AD9
:102A2800034794010DE303D58700930780023746D7
:102A38000F003305F5021306062481468145EF9001
:102A4800E277A30CA400372504001305A57EF93C02
:102A58000145F24062440561828003476401B7275B
:102A680000209387C7BD93168701E18663DB0602C2
:102A780037270020130787B9232E070037070020C0
:102A88001307675B98C337873200FD56130727A1E2
:102A9800D4C398C723860700B7C7004023A4D72606
:102AA800BDB7937617008DC237872003130707D069
:102AB80098C73707C0A8D8C3370700201307875E11
:102AC80098C323860700A1B7E1762394D70011C7DE
:102AD800130700322395E700E9BF13072003DDBF82
:102AE800011122CC372400209307C4B5884706CEAD
:102AF80026CA4AC801E90545F2406244D24442491F
:102B0800056182801304C4B55C58F5D7185C65D795
:102B18007000854582971844B247E30EF7FC0355C9
:102B2800C4009305E004B724002097D0FB1FE7807A
:102B3800E050138784B908D3938484B94DDD0356D4
:102B4800C4009305F00F014997D0FB1FE780406C44
:102B58008347E4009050634DF900328597D0FB1FFE
:102B6800E780005A014523A0040223A2040269B7A2
:102B78008355C4000844185CB38725038981050977
:102B88003E9508C20297E9B701114EC6B729002041
:102B98009387C9B59C4726CA4AC852C406CE22CCD8
:102BA80056C25AC02A8AAE843289638C071E93891A
:102BB800C9B503A74903630207127D476361A712DA
:102BC80037240020130784B9832A0702130484B921
:102BD800639A0A0803D5C9009565938515E097D0CF
:102BE800FB1FE780A04508D02A8665C983D5C900A0
:102BF80083A7490303A589008981829783A7890050
:102C0800832A04025CD089476316FA08C147639691
:102C1800F40C83D5C9009147938505FCB3C5F5022B
:102C28008A05D69503C705009307A0056313F70A1D
:102C380083C71500639F47094A852686910597D063
:102C4800FB1FE78060591C50568563935713014555
:102C5800F2406244D2444249B249224A924A024B63
:102C6800056182805850E380E7FA03D5C90095656D
:102C7800938525E097D0FB1FE780403CAA8A31CD99
:102C880083D5C9002A8683A7490303A589008981BA
:102C9800829795BF8D47631BFA00C147639FF40273
:102CA80083D5C900938545FDF199A5BF9147631860
:102CB800FA006394440383D5C900A115F5B7C14749
:102CC800631DFA00A14763EA970083D5C900C115BF
:102CD800E1BF1C5056856391570D294595BF1307D1
:102CE800F006636CA708930A05FE1947B3CAEA02FF
:102CF80003D7C900372B0020B38AEA02BE9A93078C
:102D08008BB9DC53130B8BB96395570103240B0262
:102D18001DE003D5C9009305E00497D0FB1FE780A9
:102D2800E0312A845DD983D5C90083A749032A865F
:102D380089815685829791451307A00589819397C4
:102D48002500A29783C607006393E60483C617008D
:102D5800639C460385058A052686A2954A8597D0F1
:102D6800FB1FE780604783270B02E38287EE2285FB
:102D780097D0FB1FE780C038D9BD1307E007E36E83
:102D8800A7F4930A05F9ADB783D5270045BF832774
:102D98000B02E38487F4228597D0FB1FE780403637
:102DA8002DBFB727002083A587BB85D991479306F8
:102DB800A0058983139727002E9703460700E31E73
:102DC800D6F003461700631C460185078A07268646
:102DD800BE954A8597D0FB1FE78000408DBD83577D
:102DE8002700C1BFB72700209387C7B5984729C3D5
:102DF800985F1DCF8546631DD502411122C4372433
:102E08000020130484B9105006C619CE83D5C70014
:102E1800485089810297085097D0FB1FE780402EC1
:102E28002320040223220402B2402244410182806A
:102E38008280011122CC372400209307C4B556C2E2
:102E480083AA870026CA4AC84EC606CE52C42A8913
:102E5800AE84B2891304C4B5638B0A1C1C5C99EB5D
:102E68002945F2406244D2444249B249224A924A30
:102E7800056182805C58EDD7FD4763E7A70C372AC8
:102E8800002093078AB99C53130A8AB9B9C7084422
:102E980083274A02639FA70489476317F906C14736
:102EA800E390F4FC0355C4009147130505FC334532
:102EB800F5029317250003250A022686CE853E953E
:102EC8009307A0052300F500A3002501110597D05D
:102ED800FB1FE7806030014569B70355C4009305BF
:102EE800E00497D0FB1FE78060152320AA0245F174
:102EF80085BF8355C4005C5803260A0289818297DE
:102F08001C442322FA0249BF8D47631CF900C147BC
:102F1800E398F4F40355C400130545FD9377C5FF02
:102F280059BF91476318F900E39C24F30355C40083
:102F38002115EDB7C147E315F9F2A147E3E297F28E
:102F48000355C4004115D9BF9307F00663E9A706E6
:102F5800930705FE1947B3C7E7020357C400372A8A
:102F68000020B387E702BE9A93078AB99C53130AD5
:102F78008AB9A9CF83274A026396570703250A020D
:102F880091461308A005FD5593D72600C207C183B3
:102F9800139727002A9703460700631406078348F8
:102FA800170003562700639C2805B306D64063C65E
:102FB800960485078A072686CE853E9509BF93071E
:102FC800E007E3EFA7E8930705F941BF0355C400FD
:102FD8009305E00497D0FB1FE78040062320AA0250
:102FE80051F9BDBD8355C4005C5803260A02898186
:102FF8005685829723225A0351B7A300B700B28699
:1030080061B70356C400B38596009105130606FC04
:10301800E3F8C5E4138634001376C60F1106B2969A
:1030280023000701A30027012311D70059B7372A26
:10303800002093078AB99C53130A8AB9A1C30325B0
:103048000A0291461308A005FD5593D72600C2072A
:10305800C183139727002A970346070063120605C2
:10306800834817000356270063982801B306D64003
:10307800E3D196F4A300B700B286C1BF0345E400CC
:103088008357C4009305E0043305F50242054181E6
:1030980097D0FB1FE78080FA2320AA024DF1C9B31D
:1030A8000356C4008345E400B385C5023386960001
:1030B8001106E3E7C5DAB9BF0145828083C7050079
:1030C8002300F50083D72500A300F50083D725004A
:1030D800A1832301F50083C74500A301F50011452D
:1030E8008280B727002023A8079CB727002023A6A3
:1030F800079C828029C1411126C206C622C4AA841F
:1031080001458DC52E84B7C50600228541469385A5
:10311800456297D0FB1FE780200C83C70400054554
:103128002306F40083C71400A306F400B240224427
:1031380092444101828001458280011122CC26CA35
:1031480006CE0947AA8432846381E5044146814753
:10315800639BC500638FE6006397B6000DA84147DF
:103168008147638EE600F2406244D2443E850561A1
:1031780082808A852285BD3F41468A8519A88A852D
:10318800953F41468A85228531A0E39AB6FC2E8672
:10319800A285268597D0FB1FE780E00CAA87E1B7B8
:1031A800B727002023A6A79C8280B727002023A842
:1031B800A79C8280011122CC0354650006CE26CA42
:1031C8004AC84EC641C083298500AE842A8803C9EF
:1031D8000900814713178901618763550702B147C1
:1031E800054563FA870451144204035528004180B9
:1031F80033878900A2864E868545EFC0601DB337A8
:10320800A00085077D1413556900420405891379C8
:10321800F90341802380F400A380A40023812401C2
:1032280023928400014719C01387190098C40947DD
:103238006383E7000145F2406244D2444249B249FF
:10324800056182800545C5BFC167F917630AF502A4
:10325800D94763F7B702011122CC2EC606CE2A84BD
:10326800EF90A057B2456368B50022856244F240EA
:1032780005616FA0D07DF2406244054505618280FA
:1032880005458280C167F9176314F5006F90E05413
:10329800411106C6EFA0706A11E15D45B2404101D7
:1032A800828091476394F502834705002300F60066
:1032B8008347250003471500A207D98F2311F6007D
:1032C8008347350001452302F6008280114582803C
:1032D8004111814522C426C206C6AA8405252A842E
:1032E80009E9B727002083A7C79C81C7F945268528
:1032F80082972285B24022449244410182803971EA
:103308004ED656D25AD006DE22DC26DA4AD852D415
:10331800AA8A2E8BB28941EF36C6AD379145EF9018
:10332800805DAA844D492DC9B246054A23803401DF
:103338000544630A0B00B68513851400029B050536
:10334800131405014180E20993D9894163D3090225
:10335800C1455685EFA0B06C654905E93386840000
:10336800A2852685EFB0D04B2A8905E131044204B5
:10337800418091472C085685231CF10026CE231D39
:103388008100EFA0C0722A8901C963070A00268557
:1033980097D0FB1FE780C0D6F25062544A85D254BA
:1033A8004259B259225A925A025B21618280BA84E8
:1033B800014AADBF011122CC26CA4AC84EC606CE64
:1033C8002A893284B689253FAA840DE1B7270020CF
:1033D80083A7079D81CF05476317E40003C409004D
:1033E80005041374F40FA2854A858297F24062445B
:1033F80026854249D244B24905618280AE86B735F6
:103408000400014705469385450C6DB783D7050031
:103418002300F50083D70500A183A300F500094523
:10342800828083D705002300F50083D70500A18398
:10343800A300F50083D725002301F50083D72500D5
:10344800A183A301F5001145828083D705002300DD
:10345800F50083D70500A183A300F50083D72500D5
:103468002301F50083D72500A183A301F50083C7B5
:1034780055002302F50083C76500A302F50003D5B4
:103488008500190542054181828083D70500230004
:10349800F50083D70500A183A300F50009458280C4
:1034A80083D705002300F50083D70500A183A30077
:1034B800F50083D725002301F50083D72500A183D4
:1034C800A301F5001145828003D545000605420594
:1034D8004181828083D705002300F50083D705004A
:1034E800A183A300F50003D5250009054205418104
:1034F800828083D705002300F50083D70500A183C8
:10350800A300F50083D725002301F50083D7250004
:10351800A183A301F50003D54500110542054181AA
:10352800828083C705002300F5000545828083D784
:103538000500411122C406C62300F50083D7050003
:103548002E841105A183A30EF5FE83D725009505CA
:10355800230FF5FE83D7D5FFA183A30FF5FE03C67E
:10356800F5FF97D0FB1FE78020C703454400B24012
:1035780022441105410182808947639CF5008347F5
:103588001500034705000145A207D98F2310F6004F
:1035980082801145828003D70500D94763FEE70280
:1035A800011122CC06CE2EC62A84EF900023B24603
:1035B80083D70600636DF50022856244F240B73573
:1035C8000400014709469385454105610DBBF2405A
:1035D80062440945056182800945828091479DC5FD
:1035E80083460500FD15C2058547C1816392F60231
:1035F80013D725008D89914791E9914701CB05059E
:103608002301D6002310E60048C281473E85828008
:1036180009479147E39CE6FEC94733D7F502B3F55E
:10362800F502D1BFAE86B735040001471146938530
:10363800A542F1B193F7350091EB8981914789C58E
:103648002310B60048C281473E8582809147EDBF6E
:1036580003C745008947631AF702011122CC2A845F
:10366800C84506CEAE86014719C52EC69D45EFE072
:10367800CFD4B2462A8722856244F240B735040087
:1036880019469385254505619DB90945828099E1CB
:10369800114582808347050005472311F600E37929
:1036A800F7FEFD1593F5F50F33D7F502B387E7025B
:1036B800E390F5FE050548C22310E6000145828027
:1036C80083C745000947AE866385E700414763998C
:1036D800E700B7350400014721469385655305B1D6
:1036E800094582802310B60091E1014548C2014591
:1036F8008280AE86B735040001472946938525495F
:10370800FDBE2310B60091E1014548C20145828003
:10371800AE86B7350400014731469385854AC5B65C
:103728002310B60091E1014548C20145828003D7C4
:103738004500854763FDE702011122CC2A848841B0
:1037480006CE0DC12EC68545EFE02FC72A872285F4
:103758006244B246F240B735040039469385054DB8
:10376800056171BEF24062440945056182800945E0
:10377800828091479DC5034705008D46914763F2B6
:10378800E602FD15C205C181B3C6E5023308D702BA
:103798006399050105052310D6002311E60048C2E8
:1037A80081473E85828083C745000947AE86638589
:1037B800E70041476399E700B735040001474146F0
:1037C800938565532DBE09458280B335B0001395A6
:1037D80025008280011122CC26CA06CE03C78500A7
:1037E8008547AA842E8449466310F702613C8357B3
:1037F800240049151306200963C8A700F240624453
:10380800D2440945056182800347940085476314C3
:10381800F70013660604484011C58D4532C6EFE02F
:10382800CFB93246A2866244F2402A872685D2441E
:10383800B73504009385C54D0561D1B48D4763FF45
:10384800B7028347150003470500F115A207D98F72
:103858002310F6008347350003472500C205A20759
:10386800C181D98F2311F6002312B60089C511052D
:1038780008C60145828023240600E5BF11458280E1
:10388800011122CC2A84884506CEAE8611C52EC6E3
:103898009545EFE08FB2B2462A8722856244F2400E
:1038A800B735040059469385A54F056189BCB335E2
:1038B800B000139525008280AE86B7350400014715
:1038C80061469385A55225BC8547114563F4D70207
:1038D8008347160083450600A207CD8F2310F70003
:1038E8009387E6FF2311F70089476386F6000906E8
:1038F80050C30145828023220700E5BF0147814666
:1039080079468145EDBA83D705002300F50083D7B2
:103918000500A183A300F5000945828083C725001F
:1039280005472300F50003D505006397E7000A055E
:103938000505420541818280C9473305F502CDBF9F
:1039480003D505000A0542054181828083D72500F9
:103958002300F50003D5050083D725003305F502BC
:10396800050542054181828003D50500828003D583
:103978000500828003D50500828083D725002300B7
:10398800F50003D5050083D725003305F5020505A5
:1039980042054181828083D705002300F50083D743
:1039A8000500A183A300F50083D725002301F500B6
:1039B80083D72500A183A301F50003D54500110590
:1039C80042054181828083D705002300F50083D713
:1039D8000500A183A300F50003D5250009054205CC
:1039E8004181828089471145639BF6008347160011
:1039F800834606000145A207D58F2310F700828071
:103A080003D70500D947AE8663F9E700B745040038
:103A180001470D469385E59071BA094582801145A5
:103A28006393A60283471600834606000145A20752
:103A3800D58F2310F7008347360083462600A20758
:103A4800D58F2311F700828083C725000547FD170E
:103A580093F7F70F6361F70483D705008DCF011142
:103A680022CC2A84C84106CE15C12EC68945EFE06E
:103A7800CF942A8722856244B246F240B7450400B3
:103A880015469385459205616FF0DF92F2406244D6
:103A9800094505618280094582809547114563F98A
:103AA800D706411122C426C24AC006C6834716005B
:103AB800BA8403470600A2073284D98F2390F40002
:103AC800834736000347260093054400A207D98F91
:103AD8002391F40089472382F40009461385540092
:103AE800368997C0FB1FE780206F9307A9FF2394AF
:103AF800F4009947631BF90023A60400B24022444E
:103B0800924402490145410182801904C0C4FDB7AD
:103B1800828083D705008DCF011122CC2A84C84129
:103B280006CE15C12EC68545EFE02F892A87228546
:103B38006244B246F240B74504001D469385859419
:103B480005616FF03F87F240624409450561828054
:103B58000945828099476395F6048947411106C64D
:103B68002302F7008347160083460600B285A207A2
:103B7800D58F2310F7008347360083462600034677
:103B88004700A207D58F130557002311F7009105A9
:103B980097C0FB1FE7804064B24001454101828025
:103BA800D14711456394F600C1474DBF828083D742
:103BB80005008DCF011122CC2A84C84106CE15C13B
:103BC8002EC68945EFD07FFF2A8722856244B246F8
:103BD800F240B745040025469385459505616FF089
:103BE8006FFDF24062440945056182800945828083
:103BF80089471145639BF6008347160083460600F4
:103C08000145A207D58F2310F7008280011122CC2D
:103C18002A84C84106CEAE86014719C52EC68545F9
:103C2800EFD0BFF9B2462A8722856244F240B745F1
:103C380004002D469385059705616FF0AFF7114590
:103C48006393A60283471600834606000145A20730
:103C5800D58F2310F7008347360083462600A20736
:103C6800D58F2311F7008280011122CC2A84C84104
:103C780006CEAE8611C52EC68545EFD01FF4B246D6
:103C88002A8722856244F240B74504003546938569
:103C9800659705616FF00FF293F71600114589EBF0
:103CA80089476387F60085822312D70010C3014530
:103CB8008280011122CC2A84C84106CE15C12EC6A5
:103CC8008545EFD09FEF2A8722856244B246F240AD
:103CD800B74504003D469385C59705616FF08FEDA4
:103CE800F240624409450561828083D705008DCF83
:103CF800011122CC2A84C84106CE15C12EC6894599
:103D0800EFD0BFEB2A8722856244B246F240B7451E
:103D1800040045469385259805616FF0AFE9F240A8
:103D2800624409450561828009458280854763FCB4
:103D3800D7022304A700A304B700834716008345CE
:103D48000600A207CD8F2310F7009387E6FF231103
:103D5800F70089476386F600090650C3014582804B
:103D680023220700E5BF11458280014781464D4661
:103D780081456FF02FE48D47114563FBD7028347D8
:103D8800160083450600A207CD8F2310F70083474E
:103D9800360083452600A207CD8F2311F7009387AD
:103DA800C6FF2312F7006386A600110610C7014557
:103DB800828023240700E5BF011122CC2A8488458C
:103DC80006CEAE8611C52EC69545EFD01FDFB2468A
:103DD8002A8722856244F240B74504005D469385F0
:103DE800E59905616FF00FDD854711456397F6008A
:103DF8008347060001452300F7008280014781467A
:103E0800654681456FF00FDB011122CC2A84C84139
:103E180006CEAE86014719C52EC68D45EFD0FFD90F
:103E2800B2462A8722856244F240B74504006D46AF
:103E38009385E59C05616FF08FCC011122CC2A8413
:103E4800C84106CEAE86014719C52EC68D45EFD0AE
:103E5800DFD6B2462A8722856244F240B74504007D
:103E680075469385E59C05616FF06FC9011106CE13
:103E78002EC6EFA0A02801C9B245F240035525007F
:103E880005616FE0207FF240494505618280B727D0
:103E98000020A38E079EB7270020238E079EB727F2
:103EA800002023A2079EB727002023A4079EB72738
:103EB800002023A6079EB727002023A8079EB72720
:103EC800002023A0079EB727002023AE079CB72712
:103ED80000209387C7BE370684033707B40090D302
:103EE80037C6070098C3130606B83747A000D8C3DB
:103EF800D0D33707100041669306070AB70550006C
:103F08009308060194C723A4170393860501930811
:103F180016F8D4C723A61703B706D007B7087F003B
:103F28001308070513850601410723A81703B0C323
:103F3800930816009386060513861500D8CBF8C398
:103F480023A8070188CF23AE070023AA170323ACB1
:103F5800070223AE070223A40704F0C7B4CB23AAA1
:103F68000704ACCF23AE0705B8D33707A000F8D7AE
:103F78001307000AB8DB1307C01CF8DB3707140067
:103F8800B8DF0547F8DF130710F8E8D323A40706BE
:103F980023A0070823A2E7088280011126CAAA8461
:103FA800214522CC06CE2E8432C636C43AC2EFD082
:103FB800FFC81DC9A24612473246930700FD2300D9
:103FC800F5009947A30095002301F5002303D500C8
:103FD800A303E5002312C500AA8522856244F240A6
:103FE800D24405616FD09FD0F2406244D24405614B
:103FF8008280B727002023A2A79E8280B7270020AF
:1040080023A4A79E8280B727002023A6A79E82808C
:10401800B727002023A8A79E8280011122CC4AC876
:1040280006CE26CA2A890144B30489006368B4000D
:10403800F2406244D2444249056182802EC6EFD0E4
:10404800BFE393170501C183A183B2452380F40020
:104058009307140093F7F70F850463F9B700CA971D
:1040680009042380A7001374F40F7DBF3E847DBF2D
:10407800411122C437240020130444C703556400A7
:10408800C16706C6FD17630FF500B727002003C6F2
:10409800C7D4B72500209385459FEF903064FD571E
:1040A8002313F400B24022444101828009C9251536
:1040B8001375F50F1335850E1345150082800145DC
:1040C800828023900500C9C6797122D426D24ECEAB
:1040D80052CC5AC806D64AD056CA5EC63684328AE8
:1040E800AE892A8B814463F34407B307940083C7DE
:1040F8000700138914004209939A070193DA0A0109
:104108001359090163840A04CA976341FA04B3077F
:10411800240183CB07005E85513F0DC99387FAFFC1
:104128002390F90063906B03130519002295B25090
:10413800225492540259F249624AD24A424BB24B33
:1041480045618280D694C204C18071BF0145C5B75C
:1041580001458280011122CC3724002026CA4AC892
:104168004EC6930744C706CE2E89D0CB8CCBC8C782
:10417800AA8441469305F00F4A8597C0FB1FE78044
:1041880020138549130444C7631935030848C145FA
:10419800693541469305F00F268597C0FB1FE780D8
:1041A800201105496315250348446244F240D2446E
:1041B8004249B249C14505618DB5414681454A85A7
:1041C80097C0FB1FE780C00EE31535FDC1B7414618
:1041D8008145268597C0FB1FE780800DE30625FDF6
:1041E800F2406244D2444249B249056182800111D9
:1041F80022CC3724002026CA4EC6AE84AA891306CC
:104208000002130544C7814506CE4AC897C0FB1F64
:10421800E7800000B7270020130944C7238897D4F4
:10422800A3013901EFE04047130444C7854719C18A
:10423800814749452300F400F2406244D244424990
:10424800B24905618280814781CD19C98547631BC1
:10425800F50083C7550093E707FCA382F50085475F
:104268003E85828089476317F50083C7550093F719
:10427800F703E5B70D478547E314E5FE03C7550087
:104288001377F70313670704A382E500D1BF8147BB
:104298008DC105C103C755009306000C85471377E8
:1042A800070C6308D700930600048D476303D70003
:1042B80089473E858280411122C4005D06C626C218
:1042C8001DC8AA84085009C597C0FB1FE78040E3B2
:1042D800485009C597C0FB1FE78080E2085409C50C
:1042E80097C0FB1FE780C0E1228597C0FB1FE780CE
:1042F80020E123AC0402B24022449244410182806E
:10430800B7270020938747C719E903C727001385F4
:10431800870101CB372500201305459D8280138531
:1043280087018280B727002003C567C78280B72727
:10433800002003A507C88280B727002003A547C827
:104348008280B727002083A787C888438280B72741
:104358000020938747C7D44B9842050798C203C5E6
:1043680037009307F00F6305F50091656FD05FC6BE
:104378008280011122CC06CE2E8432C6EF90B0681E
:104388009147B2456310F502B727002083A7079F1E
:1043980095C303A30700630F030022856244F2401C
:1043A80005610283B727002083A7879E81C703A3DF
:1043B8004700D5B7F2406244054505618280011186
:1043C80022CC2A840355450006CE26CA4AC84EC6C2
:1043D800EF9090413DC92A89834405008349C5006F
:1043E800D93D4A85EFA0402103554400EF90F05C89
:1043F800372900201309C99F83470900B9CB639A5D
:104408009704B727002083C5D79F2685853419E1EF
:104418002300090003554400EF90F05E9147631FA5
:10442800F500B7270020938747C78356440003D772
:1044380067006395E6007D572393E700F2406244E6
:10444800D2444249B2490561828081499304F00F00
:1044580045B79307F00FE38FF4FA834664000356D9
:104468004400034524004E87A685053E65B779714B
:104478005EC6AA8B2E8552CC56CA5AC806D622D4F6
:1044880026D24AD04ECEAE8A328B368AEF90D035BD
:104498007DC1045D2A89E5C09C50614599C3130517
:1044A80040039C5481C751054205418163050A00B8
:1044B800710542054181DC5081C75D054205418196
:1044C800EFD0CFF72A8445C96146814597C0FB1FC5
:1044D800E78000D4B727002083C9C7C163940900C7
:1044E80083490900930700FD2300F400A947A300AE
:1044F80074012301F400230364018C502312540136
:104508001305840191C908C47146930A440397C0EE
:10451800FB1FE78060CC56858C5491C948C451462E
:10452800930A450197C0FB1FE78000CB5685630CB3
:104538000A0008C87146D285930AC50197C0FB1FB7
:10454800E78080C95685CC5099C548C85D4697C054
:10455800FB1FE78060C8A2854E85EFD02FF9225453
:10456800B2509254F249624AD24A424BB24B4A85FF
:104578000259456189B3B250225492540259F24902
:10458800624AD24A424BB24B4561828001114EC603
:10459800AA892E854AC806CE22CC26CA2E89EF9033
:1045A800B02421C9B727002083C4C7C199E0834438
:1045B80005001945EFD08FE82A8405CD81451946B5
:1045C80097C0FB1FE780C0C4930700FD2300F400D9
:1045D800B947A30034012301F40023122401A28562
:1045E8006244F2404249B2492685D24405616FD0FF
:1045F800EFEFF2406244D2444249B24905618280F9
:1046080039715ECEAA8B2E8526DA4ED652D456D272
:104618005AD006DE22DC4AD8AE84328BB68A3A8A71
:10462800BE8942C6EF90501C21CD2A894145EFD062
:10463800EFE02A8431C54146814597C0FB1FE780DA
:1046480020BDB727002003C5C7C119E103450900EC
:10465800930700FD2300F400BD472301F400B2478F
:10466800A30074012312940023046401A3045401D9
:1046780023054401A30534015CC4A285EFD00FE7EC
:10468800F2506254D2544259B259225A925A025B99
:10469800F24B21618280797126D2AA8439454AD0A9
:1046A8004ECE06D622D42EC6B2893689EFD00FD97F
:1046B80021C1B2459307000D2310F500B1472A84A4
:1046C8002312B5002301F500CE851905194697C0B8
:1046D800FB1FE78060B023062401A2852254B25054
:1046E8000259F24913F5F40F925445616FD00FE067
:1046F800B250225492540259F249456182804111C4
:1047080026C2B7240020938444C703C7340006C6D2
:1047180022C44AC09307F00F630AF7042A8939456F
:10472800EFD0CFD12A8439C1930700FD2300F500CB
:10473800A300250123010500938584010D05194671
:1047480097C0FB1FE78040A983D78400A28503C5D3
:1047580034002315F40083C714002306F400224410
:10476800B2409244024941016FD04FD8B24022442E
:10477800924402494101828001115AC02A8B314575
:1047880026CA4EC652C456C206CE22CC4AC8AE84E9
:10479800B28A368ABA89EFD06FCA3DCD2A84268577
:1047A800EF90900411C50347C500A1476314F704AF
:1047B800B727002003C977C7930700FD2300F4003B
:1047C8009D47A30064012301F400231294002313DE
:1047D80054012314440123153401A2856244F24094
:1047E800D244B249224A924A024B4A85424905615B
:1047F8006FD0CFCFB727002003C917D5E31E0BFA18
:10480800B727002083A707B39C47DDD7CE865286FB
:10481800D685268582974DB7F2406244D2444249F4
:10482800B249224A924A024B05618280011122CC88
:104838002A84214506CE2EC6EFD04FC021C1B245ED
:10484800930700FD2300F500C5472301F50083C742
:104858003500A301F50083D745002312F50083C76F
:1048680065002303F50083C77500AA85A303F50037
:1048780022856244F24005616FD04FC7F24062441E
:1048880005618280397162CC2A8C594526DA4AD86A
:104898004ED652D456D25AD05ECE06DE22DCAE8434
:1048A80032C636C4BA8B3E8BC28A468A8359010403
:1048B80003494104EFD08FB825C93246930700FD5C
:1048C800A2462300F5009547A301C500A300850172
:1048D8002301F5002A8419461105A9C2B68597C097
:1048E800FB1FE780608F23066401230A2401231538
:1048F8007401231754012318440123193401A28594
:104908006254F2504259B259225A925A025BF24BFF
:10491800624C2685D25421616FD04FBD814597C026
:10492800FB1FE780E08EC1B7F2506254D25442595F
:10493800B259225A925A025BF24B624C2161828030
:10494800411122C437240020130444C7834724009C
:1049580006C626C28DCBB7240020AA851946138522
:10496800449D97C0FB1FE78020870345240093855B
:10497800449DEFF05F8D2244B2401385449D9244DC
:1049880041016FD03052B240224492440145410166
:104998008280411126C2B7240020938744C706C6E7
:1049A80022C44AC003C737009307F00F938444C753
:1049B8006304F7042A892945EFD04FA82A840DCD2E
:1049C800930700FD2300F500A147A300250123015B
:1049D800F50083C72400B72500209385459DA301D2
:1049E800F5001946110597B0FB1FE780E07E03C567
:1049F8003400A285EFD08FAF03C724008D47631121
:104A0800F702B727002083A7C79E99CB03A3870087
:104A1800630803002244B2409244024941010283E0
:104A2800B24022449244024941018280797122D4E1
:104A380006D626D24AD04ECE52CC56CA09445DCDAF
:104A48002A8903550500AE895144EF90E059AA849C
:104A580055C5372700209307C7D483C74700854625
:104A6800BA8AFD1793F7F70F494463F9F608034725
:104A7800C500A1476314F700639209089C5C45448C
:104A8800B5EF9165938545711305C00297B0FB1F7B
:104A9800E780C05A88DC2A8A4D442DC11306C0021B
:104AA800814597B0FB1FE780A076835709009306DE
:104AB8004A0036852311FA0071469305490036C627
:104AC80097B0FB1FE780407189472300FA0003C5B0
:104AD800C400B2460356090083C5CAD4611513350C
:104AE8001500EFA0D0022A8463860900CE852685AA
:104AF800EF90306001C42685EFF0EFFB2285B250BD
:104B0800225492540259F249624AD24A456182803B
:104B1800B727002083C707D50547FD1793F7F70F79
:104B2800637AF708894741CA011122CC26CA4AC8C4
:104B38004EC652C406CEAA89368AB2842E89EF9010
:104B4800A04A2A84D14739C9485509C597B0FB1FDF
:104B5800E780005BF145268597B0FB1FE780A06DD5
:104B680048D4CD4705CD8346C40021478147639F7C
:104B7800E600630D0A000347A501035605019306E5
:104B88002501AA854E85EF90705EAA8703474400E9
:104B9800630F0900136767002302E400F2406244D0
:104BA800D2444249B249224A3E8505618280136750
:104BB8004700DDB7C9473E8582809307200463EC30
:104BC800A70093171500372500201305C5BE3E958D
:104BD80003550500828041657D158280011122CC34
:104BE8002A842E8526CA06CEAE84EF90E03F1DCDDE
:104BF800B7470F009387F723094563E48702814588
:104C08000A85414697B0FB1FE7808060A685231080
:104C180081000A85418023018100A3010100EFA0E2
:104C2800804EF2406244D244056182804945D5BF36
:104C3800B72700202387A7D482806FA06067797187
:104C480052CC2A8A328522D426D24AD04ECE56CA8F
:104C58005AC85EC606D662C4AE8BB28A368BBA8490
:104C68003E89C2894684EF90203815C92A8C63147E
:104C78000A0213774B008347450015CF93E72701B6
:104C88002302FC008DEC631C0902639A090205E803
:104C9800ED9B2302FC00832B8C0363910B08B2501D
:104CA800225492540259F249624AD24A424BB24BB8
:104CB800224C45618280F59B93E70701D1B793E7C2
:104CC80047002302FC0001CC1C484146A28523244E
:104CD800FC0213058C0197B0FB1FE780E04F63933C
:104CE8000B02D5D80325CC0209C597B0FB1FE78076
:104CF8002041F145268597B0FB1FE780C053232646
:104D0800AC0251BFE30909F80325CC0209C597B0E5
:104D1800FB1FE780E03EF1454A85F1BF9DC483A7AC
:104D28000B0299EB916593853571714597B0FB1F1F
:104D3800E780C03023A0AB0203A50B0219C571465A
:104D4800A68597B0FB1FE78020496388090283A7DF
:104D58004B0299EB9165938525715D4597B0FB1FD3
:104D6800E780C02D23A2AB0203A54B0219C55D46FF
:104D7800CE8597B0FB1FE78020461DC483A78B0212
:104D880099EB916593851571514597B0FB1FE780A5
:104D9800E02A23A4AB0203A58B0219C55146A285BC
:104DA80097B0FB1FE78040432254B2509254F24917
:104DB800B24B224CCA865A860259424BD685528536
:104DC800D24A624A45616FF08FEA011126CA52C47D
:104DD80006CE22CC4AC84EC62A8AAE84EF90C0209E
:104DE80025C5AA893945EFC07FE52A8431CDB72783
:104DF800002003C9C7C16314090003C90900930748
:104E0800000D2310F400AD472301F40093856900D9
:104E180013053400194697B0FB1FE780E03B93F772
:104E28001400858085882306F400A30694002315C2
:104E38004401A2856244F240D244B249224A4A85DA
:104E4800424905616FC09FEAF2406244D244424938
:104E5800B249224A0561828001114EC652C456C227
:104E680006CE22CC26CA4AC8AA8A2E8AB289EF90D0
:104E7800A0172DCD2A891305C002EFC03FDC2A8474
:104E880035C5B727002083C4C7C199E0834409000A
:104E98009307000D2310F400E9472301F40093055C
:104EA800690013053400194697B0FB1FE780C0322C
:104EB800D285231554011305C400414697B0FB1F42
:104EC800E7808031CE851305C401414697B0FB1FAA
:104ED800E7808030A2856244F2404249B249224AC2
:104EE800924A2685D24405616FC05FE0F240624471
:104EF800D2444249B249224A924A0561828041110C
:104F080022C4372400201304C49D084006C619C5CE
:104F180097B0FB1FE780C01E23200400B240224444
:104F280041018280011106CE22CC26CA4AC82EC66B
:104F3800EF90800B39CDB245B727002003C9C7C110
:104F48000CD5AA8463140900034905004145EFC044
:104F5800FFCE2A841DCD9307000D2310F500A54729
:104F68002301F50083C75400938564001105A30F3E
:104F7800F5FE194697B0FB1FE78000269C54A285D2
:104F8800F2405CC46244D2444A85424905616FC01C
:104F9800FFD5F2406244D2444249056182801D71C6
:104FA800A2CC86CE2A842EC6EF90000405CD834677
:104FB800C5001147AA8749456392E6029C5FB2453E
:104FC80099C383C56701B70605002308B100938616
:104FD800A62E100889452285EF907008F640664491
:104FE800256182805145DDBFB727002083C707D5DB
:104FF8000547FD1793F7F70F637AF704894721CA26
:10500800411122C426C24AC006C6B2842E89EF8046
:10501800B07D2A84D14705C5630809008347450048
:1050280093E727002302F5004146A685130584016E
:1050380097B0FB1FE780401A9C481CD48147B240B8
:105048002244924402493E8541018280C9473E85F7
:105058008280797122D406D62A842EC6EF80D07831
:1050680001CDB2452285230EB1006C08EF90F00403
:10507800B2502254456182805145DDBF6F90600D6A
:10508800C1671387E7FF6395E502B727002083A769
:10509800879E91EB494582804945B240224492441B
:1050A80002494101828003A30700E30503FE02834E
:1050B800411122C426C24AC006C6FD172A892E8479
:1050C800B284639AF502B727002083A7879E91CF01
:1050D8009C4381CF829711E9B7270020238E279F11
:1050E800B7270020A38E979E4DBFA6854A85EFE07F
:1050F800FFD745F5D5B72E85EF80106F51DD834773
:1051080005000D45E39B27F922852244B240024958
:10511800A685924441016FD0E0559307200463E2CD
:10512800A7064111C16722C406C626C2FD172A84F4
:1051380009456382F502C547AE846313F4022E85E0
:10514800EFD0005B372500201305C5BE06042A945E
:10515800231094000145B2402244924441018280C8
:105168009307A0036316F4002E85EFD06051D9BFD2
:105178009307B003E318F4FC13F5F50FEFD0805054
:10518800D1B709458280011106CE2AC6EFE03FD08B
:10519800EF205007EF10F025EF60E27EB7270020E0
:1051A800938747C7130700F02391E700238207007E
:1051B800B727002032451387C7D4FD562301D700EF
:1051C800F2402386A7D4954505616F70206D59710B
:1051D80093970501CAD086D6A2D4A6D2CECED2CC79
:1051E800D6CADAC8DEC6E2C4E6C2EAC06EDEC18745
:1051F8002E8963D30756B72A002003C5CAD4B7241B
:105208000020372B0020EFC0DFA72A84372A002090
:10521800372C0020372D0020938444C71DE02165DA
:105228003345A900B650265496540659F649664A9D
:10523800D64A464BB64B264C964C064DF25D6561F8
:105248008280834704001307200A639CE70083C910
:10525800340003552400C1652286FD15EFF06F91D7
:10526800B9AA1387CAD4834927001307100963947E
:10527800E716834714001547639EE7002285EFF081
:105288000F942285EFC0DF9803C5CAD4EFC07F9F73
:105298002A8469B73947639AE71603554400856736
:1052A800A5076315F5040C4483CB0500639D0B002B
:1052B800850591C9B727002019461385C7C897B037
:1052C800FB1FE78060F103C7040085476315F710EB
:1052D80063880B00238004005E85EFF04FC255B74A
:1052E80089472380F400EFD0A03B61BF896713870B
:1052F8002700631CE504832B8400638E0B0C83C793
:105308000B0089EF83C72B0003C71B00A207D98FA7
:105318002394F40083C73B00A380F40003C7040070
:105328008947631AF70A83C70B0091C723800400D3
:1053380003C50B005DB783C5140003D584008D47F2
:105348002380F400EF708058E5B795076318F500DF
:105358001C4403C50700EFF0CFE325B7F97713879F
:10536800A7FF2A9742074183914663F1E604938792
:10537800A7FCAA97C207C18371476371F7028967BF
:105388001387B7006310E50483274A9EE38B07EE73
:105398009C43A285E38707EE829715A0370700187C
:1053A8001307F770B357F700858BB1CB8327CB9ED4
:1053B800E38907EC9C43E38607EC22858297E31296
:1053C80005EC11A81387C7006310E5021C4483C7C6
:1053D8000700E38807EA9307F00FE384F9EAA28558
:1053E8004E85EFC0BF904DB5B907631AF500B727D2
:1053F800002083A7879EE38607E8DC4359BF8967B7
:1054080093871704E302F5F8F9B73D47639BE70470
:105418000355440089671387D700E30AE5FC13871F
:105428009701E306E5FCCD07E317F5FA03D7640017
:10543800C167FD17631FF700B727002083A7879E62
:10544800E38107E4DC43E38E07E20965A2854D05A5
:10545800A1B7B727002083A7079FE38407E29C43EF
:10546800DDB71307E003E398E7F683472400054711
:105478006396E70E8347640037270020930DC79D86
:10548800F1E383A70D00C5CF83CB0700A1490345EE
:105498007400930C8400E685EFE07FDF83474401C6
:1054A800A303A400835804010358E40003574400ED
:1054B8002A86034534003EC283572401E686DE85EA
:1054C8003EC0CE87EFF00FBC8347340095E7DD4739
:1054D800835804010358E40083467400835544004C
:1054E8003EC28357240166873EC0CE8705465E8547
:1054F800EF807068A301A40083A70D0081C7114540
:10550800EFF0FF9F930BCC9F03C50B00E30B05D671
:105518008345DD9FEFE09F95E30505D6834634007C
:1055280093071003638AF6000356440083C50B00F3
:105538004E873685EFE07FA6230E0C9E99B383CB6A
:105548003400A9B78327CB9E83CB34009149A1D3DC
:10555800DC4395DF81450145829715BF294763984C
:10556800E70A8347640037270020930DC79DA5EFFE
:1055780083A70D00B5C783CB0700A1490345740075
:105588009306840093772500BDCB1376150013038B
:105598004401834704028358C4010358A4010357F4
:1055A8004400034534003EC28357E401DE851ACE29
:1055B8003EC0CE87EFF00FAD8347340072438DFFB6
:1055C800DD478358C4010358A401834674008355FA
:1055D80044003EC28357E4011A873EC0CE8739B7DC
:1055E80083CB340059BF8327CB9E83CB34009149AA
:1055F800D1D7DC43C1D781450145829741B7B685EC
:1056080036CEEFE0DFC8F2462A86368359B7094717
:10561800639CE70083274A9EE38507C6DC43E38251
:1056280007C622858297B1B92D476398E70083277B
:105638004A9EE38807C49C47DDB70D476397E70098
:1056480022868D450355440011B919476395E7062D
:105658009305610213051031EF60823B2C1013058E
:105668002031EF60E23A0356640083578102035504
:10567800440063E8C700835684000357610263F758
:10568800E60093050002EFD0A005E5BE6374E600CE
:105698002313E40063F4D7002314F4000357C40071
:1056A8008356A4000356840083556400014881474B
:1056B800EFD0C002F9B61D47E38FE7D031476395B5
:1056C800E7002286B145BDBF35476398E7008327C9
:1056D8004A9EE38807BADC4799B739476396E700DB
:1056E8002285EF00F00771BE3D476398E7008327E6
:1056F8004A9EE38807B89C4B1DB741476396E7006D
:105708002285EF001011B5BE45476396E7000145B5
:10571800EF009020BDB64947639DE7008327CB9EE5
:10572800E38B07CADC43E38807CA814505458297AE
:105738005DB14D47639CE7008327CB9EE38D07C887
:10574800DC43E38A07C8A2850945D5B76147E394D6
:10575800E7C82286E145FDB593F7150089CFB7273D
:10576800002083A7479E89C7DC4399C301458297D8
:105778001345190045BC93F7250091CFB7270020A2
:1057880083A7C79E91C7DC4381C78145054582979A
:105798001345290041BC93F745000145E38407A858
:1057A800B727002083A7079E37240020130444C787
:1057B80091CF85472302F400B727002083A7C79E0F
:1057C80091C7DC4381C781450545829748442C1021
:1057D800EF90C07F2810EFF0AF96B727002083D74F
:1057E800E7C081CF130600643386C702B7270020BD
:1057F80003C5C7D49145EFC0DF94134549001DB4D4
:10580800011122CC2A84554506CE26CAEFF0EFBAFC
:10581800AA8413054002EFF04FBA2AC613055002B6
:10582800EFF0AFB9AA86228562443246F240B3351A
:105838009000D24405616FC09072797122D406D667
:105848008D472E84631FF50003D7A50083D68500F6
:1058580003D665000345340083D54500EFE0DFF14A
:1058680009A889671387D7006311E50403C52500D4
:1058780019E58547B25022543E8545618280B72795
:10588800002083A6C79DF5D603C6360083C506004B
:10589800814802C202C00148814701479106EFE0F2
:1058A8007FFE0545EFF0AFE5E9B71387E700E302B0
:1058B800E5FC13873701631AE50003C5250055D9B0
:1058C800014781460146814551BFE507E303F5FAE3
:1058D800B1476319F500B727002003C577C7EFE084
:1058E800FFF441BF41677D178147E315E5F803C71A
:1058F8005500C947E31FF7F683D6E50003D6C50070
:105908000355840083D5A500EFC0F06B41C95D4500
:10591800EFF0AFAA3335A000231CA1008345440053
:10592800035524003008EF80C05C83578101B1F330
:105938006C0813051031EF60A20D9305E101130502
:105948002031EF60E20C8357C10103578400637470
:10595800F7002314F4008357E1010357A40063F40C
:10596800E7002315F400835784000357A4006374E9
:10597800F7002315F40003552400EF40616703572F
:10598800E4008356C4000356A400835584000355DD
:10599800240001488147EFC03052E1BD8547231CF0
:1059A800F100ADBFB72700201387C7D4834677001F
:1059B8001307F00F638CE60851C9411122C426C2AF
:1059C8004AC006C6AA840345A5001389C7D4410561
:1059D800EFC0CFA62A842DC59307000D2310F5002C
:1059E800D9472301F50083D744002312F50083C764
:1059F80064002303F50083C77400A303F50083C77D
:105A080084002304F50083C79400A304F50003C6AB
:105A1800A4002305C50015C2CC44410548C497A07D
:105A2800FB1FE780607BA285224403457900B240D2
:105A38009244024941016FC06FAB23260500E5B7C8
:105A4800B240224492440249410182808280C16767
:105A58001387E7FF639EE500B727002083A7C79D4C
:105A68009DC383C707000D47639DA7006FC01044FF
:105A7800FD1749476397F500B727002083A7C79DFF
:105A8800F5F73A8582804947EDBF397122DC06DE99
:105A980026DA4AD84ED652D456D25AD05ECE62CCE6
:105AA8000347050085472A84630DF70403468500EC
:105AB800930695009305E1000545EFE08FE08147E7
:105AC80019C1834705008346040011476383E60430
